:100000000C9462000C943A120C9413120C948A0013
:100010000C948A000C948A000C948A000C948A0038
:100020000C948A000C948A000C948A000C948A0028
:100030000C948A000C948A000C948A000C948A0018
:100040000C94C9110C948A000C9487120C946112C0
:100050000C948A000C948A000C948A000C948A00F8
:100060000C94B9120C948A000000000024002700B0
:100070002A0000000000250028002B0000000008D6
:10008000000201000003040700000000000000005F
:10009000010204081020408001020408102001021F
:1000A000040810200000000023002600290004049A
:1000B0000404040404040202020202020303030310
:1000C0000303051411241FBECFEFD8E0DEBFCDBF60
:1000D00027E0ACE1B2E001C01D92AD35B207E1F717
:1000E00012E0A0E0B1E0EAE6FAE302C005900D926A
:1000F000AC31B107D9F710E0C2E6D0E004C02197D7
:10010000FE010E94F11AC136D107C9F70E9490156D
:100110000C94331D0C9400009C019091B1069C300E
:10012000A0F4E92FF0E0EE0FFF1FE756F94F3183FF
:1001300020839F5F9093B1068091B2068F5F80937A
:10014000B2069093B30681E0089580E0089590E0B0
:10015000FC01E458FF4F2491FC01E057FF4F34911C
:10016000FC01E255FF4FE491EE23C9F0222339F060
:10017000233001F1A8F4213019F1223029F1F0E007
:10018000EE0FFF1FEE58FF4FA591B4918FB7F89473
:10019000EC91611126C030953E233C938FBF0895AA
:1001A0002730A9F02830C9F0243049F78091800029
:1001B0008F7D03C0809180008F7780938000DFCF98
:1001C00084B58F7784BDDBCF84B58F7DFBCF8091E5
:1001D000B0008F778093B000D2CF8091B0008F7D38
:1001E000F9CF3E2BDACFCF93DF9390E0FC01E057BD
:1001F000FF4F249182559F4FFC0184918823C9F0C1
:1002000090E0880F991FFC01E859FF4FA591B49128
:10021000FC01EE58FF4FC591D49161110DC09FB7FD
:10022000F8948C91209582238C93888128232883AD
:100230009FBFDF91CF910895623051F49FB7F8943A
:100240003C91822F809583238C93E8812E2BEFCFD6
:100250008FB7F894EC912E2B2C938FBFEACF3FB73A
:10026000F8948091930290919402A0919502B0919C
:10027000960226B5A89B05C02F3F19F00196A11D37
:10028000B11D3FBFBA2FA92F982F8827BC01CD01E0
:10029000620F711D811D911D42E0660F771F881F3F
:1002A000991F4A95D1F708958F929F92AF92BF926E
:1002B000CF92DF92EF92FF924B015C010E942F01DF
:1002C0006B017C010E942F016C197D098E099F0929
:1002D000683E734081059105A8F321E0821A9108D8
:1002E000A108B10888EEC80E83E0D81EE11CF11CFD
:1002F00081149104A104B10429F7FF90EF90DF90DD
:10030000CF90BF90AF909F908F9008952FB7F894A3
:1003100060918F027091900280919102909192026F
:100320002FBF08950895089508950895DC01ED9173
:10033000FC910190F081E02D0994AF92BF92CF9291
:10034000DF92EF92FF920F931F93CF93DF936C0195
:100350007B018B01040F151FEB015E01AE18BF0876
:10036000C017D10759F06991D601ED91FC91019028
:10037000F081E02DC6010995892B79F7C501DF9140
:10038000CF911F910F91FF90EF90DF90CF90BF9092
:10039000AF900895FC01538D448D252F30E0842FBC
:1003A00090E0821B930B541710F0CF96089501979D
:1003B0000895FC01918D828D981761F0A28DAE0F8A
:1003C000BF2FB11D5D968C91928D9F5F9F73928F11
:1003D00090E008958FEF9FEF0895FC01918D828D3D
:1003E000981731F0828DE80FF11D858D90E008950A
:1003F0008FEF9FEF0895FC01918D228D892F90E062
:10040000805C9F4F821B91098F739927089589EE15
:1004100094E00E94FB0121E0892B09F420E0822F67
:10042000089580E090E0892B29F00E940702811155
:100430000C9400000895FC01A48DA80FB92FB11DE4
:10044000A35ABF4F2C91848D90E001968F7399270A
:10045000848FA689B7892C93A089B1898C918370E8
:1004600080648C93938D848D981306C00288F389E1
:10047000E02D80818F7D80830895EF92FF920F930E
:100480001F93CF93DF93EC0181E0888F9B8D8C8D40
:1004900098131AC0E889F989808185FF15C09FB734
:1004A000F894EE89FF896083E889F98980818370F7
:1004B000806480839FBF81E090E0DF91CF911F91A6
:1004C0000F91FF90EF900895F62E0B8D10E00F5FC7
:1004D0001F4F0F731127E02E8C8D8E110CC00FB69D
:1004E00007FCFACFE889F989808185FFF5CFCE0135
:1004F0000E941B02F1CFEB8DEC0FFD2FF11DE35A93
:10050000FF4FF0829FB7F8940B8FEA89FB898081B7
:100510008062CFCFCF93DF93EC01888D8823B9F031
:10052000AA89BB89E889F9898C9185FD03C08081FE
:1005300086FD0DC00FB607FCF7CF8C9185FFF2CF7B
:10054000808185FFEDCFCE010E941B02E9CFDF91B4
:10055000CF9108958FB7F894809161028FBF08956D
:1005600061E0FC0184810E94A700809160028111FA
:100570001092600208958EBD00000DB407FEFDCFFD
:100580008EB508958FEF0C94BB020F931F93CF93FA
:10059000DF93EC010E9486018B010E94C2028F3F13
:1005A00069F00E948601601B710B6C177D07A8F330
:1005B00080E0DF91CF911F910F91089581E0F9CFF5
:1005C0008CBD9DBD0895CF93DF93EC0180916002B7
:1005D000811109C081E0809360028091860590912D
:1005E00087050E94E00260E08C81DF91CF910C943E
:1005F000A7008F929F92AF92BF92FF920F931F938B
:10060000CF93DF93EC01F62E49015A018E818823A6
:1006100089F08F8198859C012F5F3F4F38872F830A
:100620008230924018F40E94C202F3CFCE010E94A1
:10063000B0021E82CE010E94E3028CE291E00E9491
:10064000C5028F2D80640E94BB0208E110E0D50135
:10065000C401002E04C0B695A795979587950A9476
:10066000D2F70E94BB0208501109083F8FEF18070C
:1006700071F785E9FF2021F028E087E8F2128FEF7B
:100680000E94BB0210E00E94C2028A8787FF04C05A
:100690001F3F11F01F5FF7CFDF91CF911F910F9197
:1006A000FF90BF90AF909F908F900895CF92DF9270
:1006B000EF92FF920F93CF93DF93EC01690182E1F8
:1006C000411551056105710599F08B85833039F02D
:1006D00089E0440F551F661F771F8A95D1F79A014D
:1006E000AB0168E1CE010E94F902882319F084E091
:1006F0008D832DC08EEF0E94BB0276018EEFD81A3B
:10070000F70181917F010E94BB02EC14FD04C1F747
:100710008FEF0E94BB028FEF0E94BB020E94C202B9
:100720008A878F71853071F4011116C0CE010E9445
:10073000B00281E0DF91CF910F91FF90EF90DF90B9
:10074000CF90089581E18D83CE010E94B002CE0149
:100750000E94B00280E0EECF88E592E00E94C502E0
:10076000811102C085E1C4CF20E030E0A9016DE035
:10077000CE010E94F902882311F084E1B9CF0E94D2
:10078000C2028111FACFD2CF0F93409163025091F0
:100790006402609165027091660241155105610520
:1007A000710599F0082F27E932E080919704909124
:1007B00098040E945603882349F010926302109215
:1007C0006402109265021092660281E00F91089512
:1007D0000F93CF93C82F80916202811105C0C1E0B1
:1007E0008C2FCF910F9108954091000150910101FC
:1007F00060910201709103010C2F27E932E0809192
:100800009704909198040E945603811102C0C0E0A1
:10081000E7CFCC2321F381E00E94C4038823B9F3FE
:1008200010926202DDCF9F92AF92BF92CF92DF9281
:10083000EF92FF920F931F93CF93DF936B017C0195
:10084000942E8091000190910101A0910201B0913C
:1008500003018C159D05AE05BF0509F494C081E028
:100860000E94E803882389F1C0919704D0919804ED
:100870008E81882371F088819981AA81BB81C816F5
:10088000D906EA06FB0629F48F819885892B09F49D
:1008900043C0C882D982EA82FB828B85A701960178
:1008A000833039F099E0220F331F441F551F9A956A
:1008B000D1F761E1CE010E94F902882391F083E033
:1008C0008D83CE010E94B00280E0DF91CF911F9115
:1008D0000F91FF90EF90DF90CF90BF90AF909F90DF
:1008E00008950E9486018B010E94C2028A878F3F71
:1008F00069F40E948601601B710B6D327140A0F398
:100900008FE08D83CE010E94B002DBCF8E3F69F570
:1009100018861F8281E08E8307E912E087E9A82EFE
:1009200084E0B82E0E94C202F80181938F01AE16B6
:10093000BF06C1F78F8198859E5F98878F83298531
:10094000222319F081159240B0F08E81882399F00E
:100950008F8198859C012F5F3F4F38872F8382308E
:10096000924028F40E94C202F3CF8DE0CACFCE019C
:100970000E94B0021E82C0920001D0920101E0925A
:100980000201F09203014091620249294093620200
:1009900081E09BCF8F929F92AF92BF92CF92DF92D6
:1009A000EF92FF92CF9328E835E03093980420939C
:1009B0009704882309F46DC040E060E070E0CB014B
:1009C0000E94130481110BC080E0CF91FF90EF9043
:1009D000DF90CF90BF90AF909F908F9008958091BF
:1009E00055048F7789F78091610490916204A091FA
:1009F0006304B091640484369105A105B10520F328
:100A0000C0905D04D0905E04E0905F04F0906004BC
:100A1000C114D104E104F104B9F240E0C701B60108
:100A20000E941304882381F28091A2029091A30274
:100A30008115924049F6A091A702AA2329F260915C
:100A4000A5027091A6026115710509F4BDCF209130
:100A5000A402222309F4B8CFA093A60520939805F9
:100A600090E080E030E0E1E0F0E0C82FAF01082E38
:100A700002C0440F551F0A94E2F72417350769F0A6
:100A800041E0480F01968930910579F74093A1051F
:100A90009BCFC12CD12C7601C0CF8093A105209192
:100AA000AD023091AE0250E040E02115310541F435
:100AB0002091BB023091BC024091BD025091BE0218
:100AC0002093990530939A0540939B0550939C057C
:100AD00046015701860E971EA11CB11C8092A705E6
:100AE0009092A805A092A905B092AA05E091A8024B
:100AF000F091A902F093AD05E093AC05B0E00E943F
:100B0000D71ADC01CB01880D991DAA1DBB1D80934E
:100B1000AE059093AF05A093B005B093B10525E065
:100B2000EE0FFF1F2A95E1F7E150FE4FEF2FFF2751
:100B3000E6958E0F9F1FA11DB11D8093A205909376
:100B4000A305A093A405B093A5058090AA02909058
:100B5000AB02B12CA12C8114910441F48090B70216
:100B60009090B802A090B902B090BA02C81AD90AFF
:100B7000EA0AFB0AC80CD91CEA1CFB1C04C0F69448
:100B8000E794D794C794CA95D2F7C0929D05D092A6
:100B90009E05E0929F05F092A00585EFC8168FE0B4
:100BA000D806E104F10428F48CE08093AB0581E0E1
:100BB0000CCF80E125EFC2162FEFD206E104F1043D
:100BC000A0F38091C3029091C402A091C502B0919C
:100BD000C6028093AE059093AF05A093B005B09385
:100BE000B10580E2E2CF4F925F926F927F928F9237
:100BF0009F92AF92BF92CF92DF92EF92FF920F93AC
:100C00001F93CF93DF93EC014230510561057105CD
:100C100090F480E0DF91CF911F910F91FF90EF90C2
:100C2000DF90CF90BF90AF909F908F907F906F900C
:100C30005F904F90089589859A85AB85BC85019614
:100C4000A11DB11D84179507A607B70710F3CB8820
:100C5000DC88ED88FE888F89803109F042C0BB278F
:100C6000A72F962F852F480159012A013B01C80E55
:100C7000D91EEA1EFB1E8091000190910101A091F6
:100C80000201B0910301C816D906EA06FB0699F5E0
:100C90008F898031C1F5B301A201552766277727D7
:100CA000440F551F49565D4FFA0191828082809111
:100CB00062028160809362028A89823080F08D8135
:100CC0009E81AF81B8858C0D9D1DAE1DBF1D80938B
:100CD000630290936402A0936502B093660281E080
:100CE00099CFDB01CA01E7E0B695A795979587955F
:100CF000EA95D1F7B8CF40E0C701B6010E941304CE
:100D00008111C6CF86CFB301A2014F775527662741
:100D10007727440F551F440F551F49565D4FFA0161
:100D200080829182A282B382C2CF8F929F92AF9231
:100D3000BF92CF92DF92EF92FF920F931F93CF93C8
:100D4000DF93FC0181859285A385B4850196A11D61
:100D5000B11D84179507A607B70770F480E0DF91EF
:100D6000CF911F910F91FF90EF90DF90CF90BF90A8
:100D7000AF909F908F90089583889488A588B688B7
:100D80008789803189F5BB27A72F962F852FE90109
:100D90006A017B018F01BC01CD01680D791D8A1D9F
:100DA0009B1D8090000190900101A0900201B090E5
:100DB000030186169706A806B90601F5F80187898A
:100DC000803111F5DD24EE24FF24F601EE0FFF1F24
:100DD000E956FD4F80819181B0E0A0E0888399833E
:100DE000AA83BB8381E0BBCFDB01CA01C7E0B69514
:100DF000A79597958795CA95D1F7C9CF40E00E94EE
:100E000013048111DBCFAACFE894C7F8DD24EE24C8
:100E1000FF24F601EE0FFF1FEE0FFF1FE956FD4FF7
:100E200080819181A281B381BF70D8CF8F929F9230
:100E3000AF92BF92CF92DF92EF92FF920F931F93E8
:100E4000CF93DF93EC018D8181110EC080E0DF91A3
:100E5000CF911F910F91FF90EF90DF90CF90BF90B7
:100E6000AF909F908F9008950B891C892D893E89A2
:100E7000041715072607370748F34A015B0182303C
:100E800031F48A869B86AC86BD8681E0E0CF8114F2
:100E90009104A104B10449F41E821F8218861986A8
:100EA0001A861B861C861D86F0CF0A851B852C851D
:100EB0003D85EB8DFC8D858590E00996B901A801F3
:100EC0004150510961097109082E04C07695679552
:100ED000579547950A94D2F775016401E1E0CE1A5F
:100EE000D108E108F10804C0F694E794D794C794B8
:100EF0008A95D2F7C416D506E606F70620F0012B30
:100F0000022B032B11F58F89988DA98DBA8D8E83B5
:100F10009F83A887B9878E010A5F1F4FC114D10430
:100F2000E104F10409F4ADCF4E815F8168857985D4
:100F300098018B8D9C8D0E94950691E0C91AD1086D
:100F4000E108F1088111EACF81CFC41AD50AE60A77
:100F5000F70AE1CF3F924F925F926F927F928F920A
:100F60009F92AF92BF92CF92DF92EF92FF920F9338
:100F70001F93CF93DF93CDB7DEB72C970FB6F894BE
:100F8000DEBF0FBECDBF5C01DC015B968D909C90F7
:100F90005C9716964D905D906D907C9019974114DA
:100FA00051046104710409F468C0BFEF4B1A5B0A75
:100FB0006B0A7B0A312CF40181859285A385B48567
:100FC0009C01AD012F5F3F4F4F4F5F4F29873A87FD
:100FD0004B875C87730162011D821E821F82188607
:100FE000F40181859285A385B4852D813E814F8151
:100FF0005885281739074A075B0708F056C08985C6
:101000009A85AB85BC858C159D05AE05BF0550F452
:1010100082E0C82ED12CE12CF12C92E0492E512CEB
:10102000612C712C9E012F5F3F4FB701A601C401B7
:101030000E9495068823C9F189819A81AB81BC8180
:10104000892B8A2B8B2B09F1260137019FEF491A37
:10105000590A690A790A2D813E814F8158852F5F8F
:101060003F4F4F4F5F4F2D833E834F8358873FEF56
:10107000C31AD30AE30AF30AB3CFF40140805180C4
:10108000628073803324339496CFC414D504E6046D
:10109000F70409F70FEF1FEF2FEF3FE0B701A601AD
:1010A000C4010E94F305811119C080E02C960FB68F
:1010B000F894DEBF0FBECDBFDF91CF911F910F918E
:1010C000FF90EF90DF90CF90BF90AF909F908F9068
:1010D0007F906F905F904F903F900895D501169646
:1010E0004D915D916D917C91199741155105610567
:1010F000710539F097018601C4010E94F305882328
:10110000A1F2D5011696CD92DD92ED92FC9219973F
:10111000332051F0D701C6010196A11DB11DF40184
:1011200080839183A283B383F5018789908DA18DFC
:10113000B28D892B8A2B8B2B39F48481C78AD08E70
:10114000E18EF28E80688483F501848180628483DD
:1011500081E0ACCF1F93CF93DF93EC01162F8C81EE
:1011600087FF2AC06E857F858889998941E00E9422
:101170001304882361F1EA8980E2E89FF0011124D9
:10118000E956FD4F309719F18D81823040F48B89FB
:101190009C89AD89BE89848F958FA68FB78F8F89E3
:1011A000988D938F828F8F89988DA98DBA8DB58BED
:1011B000A48B8C818F778C83111103C08C818F7EDF
:1011C0008C83812FDF91CF911F910C94E80380E0F5
:1011D000DF91CF911F910895FF920F931F93CF93AB
:1011E000DF93EC018D81813041F090E080E0DF9170
:1011F000CF911F910F91FF9008958C8181FFF5CFC2
:1012000082FD1EC00091970410919804C8010E94AD
:10121000E3020E94C202F82EC8010E94B0028FEFC2
:10122000F812E3CF8C8185FF1EC08D81882321F0C9
:1012300060E0CE010E94AA088C818F7D8C83D5CF7F
:101240004B895C896D897E898A859B85AC85BD8546
:1012500084179507A607B707A9F2CE010E941607C3
:101260008111D0CFC2CF409163025091640260914E
:10127000650270916602452B462B472B21F080E0DA
:101280000E94C403B2CF80618C832A853B85317074
:1012900080E092E0821B930BAACF9F92AF92BF9205
:1012A000CF92DF92EF92FF920F931F93CF93DF9332
:1012B00000D000D01F92CDB7DEB78C016D83DC016A
:1012C00015968C911597813009F0B9C014968C91C0
:1012D00081FFB5C082FD9FC0D8015B96ED91FC9166
:1012E0005C971A96AD90BD90CD90DC901D97948040
:1012F0009A94B601A50189E076956795579547952B
:101300008A95D1F79422B1E0BB22992009F49FC0BD
:10131000D8015B96ED91FC915C971696CD90DD908F
:10132000ED90FC901997B2E0CB1AD108E108F108D2
:10133000858504C0CC0CDD1CEE1CFF1C8A95D2F701
:101340004685578560897189C40ED51EE61EF71E35
:10135000C90CD11CE11CF11CA114B10409F00AC193
:10136000F801428553856485758583899489A589AB
:10137000B689481759076A077B0708F4FBC081E064
:101380000E94E803882309F45AC0C0920001D09259
:101390000101E0920201F0920301809162028160FA
:1013A00080936202F501E956FD4F8D818083F8013B
:1013B00082859385A485B5850196A11DB11D82877F
:1013C0009387A487B58743895489658976894817A7
:1013D00059076A077B0738F42481838B948BA58B8C
:1013E000B68B20682483D80114968C9183FD9FC00E
:1013F00081E090E00F900F900F900F900F90DF9191
:10140000CF911F910F91FF90EF90DF90CF90BF9001
:10141000AF909F900895F801438954896589768932
:1014200082859385A485B585481759076A077B0788
:1014300009F452CFC8010E94160781114DCF81E0F7
:1014400090E0D80113969C938E93129749C0D801CF
:1014500016964D915D916D917C911997A114B104EF
:1014600009F071C0411551056105710589F557965F
:101470008D919D910D90BC91A02D0097A105B10576
:1014800009F04FC0C8010E94AA078823C1F2D80101
:101490005B96ED91FC915C971696CD90DD90ED906A
:1014A000FC901997B2E0CB1AD108E108F1088585C4
:1014B00004C0CC0CDD1CEE1CFF1C8A95D2F74685BF
:1014C000578560897189C40ED51EE61EF71E48CF68
:1014D0009E012F5F3F4FCF010E949506811103C0EF
:1014E00090E080E087CF89819A81AB81BC81F8014F
:1014F000238D348DF901278948EF5FEF60E070E0BC
:10150000203121F048EF5FEF6FEF7FE08417950700
:10151000A607B70730F0C8010E94AA078111F8CECC
:101520008ECFF80186839783A087B187F1CEF8012B
:101530008581882309F483CF61E0C8010E94AA084D
:10154000811156CF7CCF6A017B01B2E0CB1AD10862
:10155000E108F108858504C0CC0CDD1CEE1CFF1CE5
:101560008A95D2F74685578560897189C40ED51E44
:10157000E61EF71E41E0C701B6010E941304811167
:1015800011CF5DCF20913D02260F3327331F21322B
:101590003105ECF42091BF04FC0190E080E02430A0
:1015A00069F082E00895A0913D022191AC01435E73
:1015B0005D4FA40FB52FB11D2C930196861798F39C
:1015C00080913D02680F60933D0280E0089581E0C4
:1015D00008951092BF0481E08093BE041092990494
:1015E00061E082E10E94A70061E083E10E94A70020
:1015F000E9EBF0E080818E7F808380818D7F808326
:1016000088E48093B80085E48093BC000895CF936C
:10161000DF9391E090931C028823B9F0C091B80049
:10162000D091BA008091BC008A7B8093BC0060E0BE
:1016300082E10E94A70060E083E10E94A7000E946F
:10164000E90AD093BA00C093B800DF91CF91089512
:101650008F929F92AF92BF92CF92DF92EF92FF92C2
:101660000F931F93CF93DF93D091E804D13208F00A
:10167000D7C0182FC091E7040E942F016B017C0195
:101680008091BF0481116BC082E08093BF041093EE
:10169000BE048FEF8093BD041092BC04D093BB04B2
:1016A000A7ECB4E0EBE9F4E080E0D81391C010922D
:1016B0009A0480919A04CC0FC82BC0939A0480910D
:1016C0009904813009F088C0109299040E942F017A
:1016D0006B017C0180919A048093BB008091C104CE
:1016E0009091C204A091C304B091C404892B8A2BA9
:1016F0008B2BA1F00E942F010091C1041091C20414
:101700002091C3043091C4046C197D098E099F098E
:10171000061717072807390708F442C08091BC0054
:1017200083FDD8CF85EC8093BC000E942F016B0114
:101730007C018091BF04823009F450C08091BD04C7
:101740008F3F09F46FC08091BD04803209F46CC0F2
:101750008091BD04803309F469C084E026C0809183
:10176000C1049091C204A091C304B091C404892B18
:101770008A2B8B2B09F484CF0E942F018090C10407
:101780009090C204A090C304B090C4046C197D0969
:101790008E099F0986169706A806B90608F070CF2D
:1017A0008091C0040E94070B85E01092C60410923D
:1017B000E8041092C504DF91CF911F910F91FF9023
:1017C000EF90DF90CF90BF90AF909F908F90089553
:1017D0009D9191938F5F69CF85EEA5CF8091C104D4
:1017E0009091C204A091C304B091C404892B8A2BA8
:1017F0008B2B09F49ECF0E942F010091C104109100
:10180000C2042091C3043091C4046C197D098E096F
:101810009F09061717072807390708F08ACFC0CF96
:1018200081E0C3CF80E0C1CF82E0BFCF83E0BDCFF6
:101830000895E0916C0280916B02E81730F4F0E0BB
:10184000E359FD4F808190E008958FEF9FEF089559
:1018500090916C0280916B022FEF3FEF981748F444
:10186000E92FF0E0E359FD4F208130E09F5F909336
:101870006C02C901089580916B0290916C02891BE2
:10188000990B0895CF92DF92EF92FF920F931F93DF
:10189000CF93DF937C01CB018A012091C5042223E1
:1018A00089F0EB016B01C40ED51ECC15DD0569F086
:1018B0006991D701ED91FC910190F081E02DC70174
:1018C0000995F3CF642F0E94C20AC801DF91CF911E
:1018D0001F910F91FF90EF90DF90CF900895CF93DD
:1018E000DF931F92CDB7DEB769832091C504222311
:1018F000F9F02091E804203258F021E030E0FC01BA
:101900003383228390E080E00F90DF91CF910895A0
:101910008091C604E82FF0E0E953FB4F9981908352
:101920008F5F8093C6048093E80481E090E0ECCF61
:1019300061E0CE0101960E94C20AF7CFDC01ED9171
:10194000FD918081ED91FD919081ED91FD916C91E2
:1019500063708E2309F064609F2309F06860EBEBED
:10196000FCE0E60FF11D659565956D936D917D9198
:101970008D919D91099423C01AC012C016C010C049
:101980001EC009C014C013C006C019C009C00DC0D4
:1019900007C00DC014C062507040804090400BC022
:1019A000615070408040904006C06E5F01C06F5F24
:1019B0007F4F8F4F9F4F9E938E937E936E9308958C
:1019C0008091D1059091D2050C949E0C8091D30505
:1019D0009091D4050C949E0CFC01248131E030934D
:1019E000C5042093E7041092C6041092E80483858E
:1019F000682B81EE95E00E946F0C81E00C94280B1F
:101A0000089590E080E008950F931F93CF938C0189
:101A1000C62F0E94EC0C6C2F6460C8010E94EC0C75
:101A20006C2F6B7FC8010E94EC0C83EC90E0019757
:101A3000F1F7CF911F910F9108950F931F93CF93BB
:101A4000DF938C01D62FC42F607F642B0E94040D7E
:101A500080E1D89FB00111246C2BC801DF91CF9198
:101A60001F910F910C94040DEF92FF920F931F930F
:101A7000CF93DF938C017A01677088E0689FB00193
:101A80001124606440E0C8010E941D0DE701A8E038
:101A9000EA0EF11C6991D801ED91FC910190F08161
:101AA000E02DC8010995CE15DF05A1F7DF91CF9193
:101AB0001F910F91FF90EF900895CF93DF93CDB7D3
:101AC000DEB728970FB6F894DEBF0FBECDBF28E073
:101AD000E5E2F1E0DE01119601900D922A95E1F721
:101AE000FC012085241710F44FEF420F50E0440F03
:101AF000551F21E030E02C0F3D1F420F531FFA010C
:101B00002081620F606840E028960FB6F894DEBF2F
:101B10000FBECDBFDF91CF910C941D0D40E061E071
:101B20000E941D0D8BE39FE10197F1F7089541E0BD
:101B30000E941D0D81E090E00895FB0101900020BE
:101B4000E9F73197AF01461B570BDC01ED91FC9192
:101B50000280F381E02D09948F929F92AF92BF9201
:101B6000EF92FF920F931F93CF93DF93CDB7DEB722
:101B7000A1970FB6F894DEBF0FBECDBF7C01FA016E
:101B8000CB0119A2223008F42AE08E010F5D1F4F0D
:101B9000822E912CB12CA12CBF01A50194010E9491
:101BA000B51AF901CA016A300CF5605DD8016E936F
:101BB0008D01232B242B252B79F790E080E01097C3
:101BC00021F0BD01C7010E949D0DA1960FB6F894AA
:101BD000DEBF0FBECDBFDF91CF911F910F91FF9060
:101BE000EF90BF90AF909F908F900895695CDECF8B
:101BF000CF92DF92EF92FF920F931F93CF93DF93D9
:101C000077FF1DC06A017B01EC016DE20E94960125
:101C10008C0144275527BA014C195D096E097F09CB
:101C20002AE0CE010E94AC0D800F911FDF91CF9171
:101C30001F910F91FF90EF90DF90CF9008952AE0D1
:101C4000DF91CF911F910F91FF90EF90DF90CF9098
:101C50000C94AC0DAB01770F660B770B0C94F80D61
:101C6000CF93DF93BC0181E597E00E949D0DEC01CD
:101C700069E671E081E597E00E949D0D8C0F9D1F44
:101C8000DF91CF9108954F925F926F927F928F92E2
:101C90009F92AF92BF92EF92FF920F931F93CF93B9
:101CA000DF938C014A015B01E22EAB019401CB0171
:101CB000B4010E942E1D6CE671E0811126C0240142
:101CC0003501E89477F82FEF3FEF4FE75FE7C30167
:101CD000B2010E942E1D81110CC02FEF3FEF4FE784
:101CE0005FE7C301B2010E94641B60E771E0181650
:101CF00064F02FEF3FEF4FE75FE4C501B4010E94AE
:101D0000BC1C18169CF464E771E0C801DF91CF9108
:101D10001F910F91FF90EF90BF90AF909F908F9089
:101D20007F906F905F904F900C949D0D2FEF3FEF41
:101D30004FE75FECC501B4010E94641B87FDE3CF50
:101D400020E030E0A901C501B4010E94641BD0E08D
:101D5000C0E087FF09C06DE2C8010E949601EC0156
:101D6000B7FAB094B7F8B094FE2C712C60E070E034
:101D700080E09FE37E1440F420E030E040E251E454
:101D80000E94691B7394F6CFA50194010E94F81A72
:101D90004B015C010E94DB1B2B013C012AE0BC01D2
:101DA000A201C8010E94AC0DC80FD91FEE20D1F1CD
:101DB000C301B2010E940A1C9B01AC01C501B40120
:101DC0000E94F71A4B015C016EE2C8010E94960165
:101DD000C80FD91FFA948FEFF81621F120E030E0F8
:101DE00040E251E4C501B4010E94C11C2B013C0139
:101DF0000E94DB1B4B01B12CA12C2AE0B501A401F0
:101E0000C8010E94AC0DC80FD91FC501B4010E94C2
:101E10000A1C9B01AC01C301B2010E94F71A4B01DD
:101E20005C01D8CFCE01DF91CF911F910F91FF9030
:101E3000EF90BF90AF909F908F907F906F905F904A
:101E40004F9008956115710511F00C949D0D90E06F
:101E500080E008952F923F924F925F926F927F920F
:101E60008F929F92AF92BF92CF92DF92EF92FF92AA
:101E70000F931F93CF93DF93CDB7DEB72A970FB69B
:101E8000F894DEBF0FBECDBF2DB63EB680910906D9
:101E900090910A060E948E0D809120018823E9F01E
:101EA0001092200148E151E06FE080910906909185
:101EB0000A060E94340D40E151E06EE0809109066F
:101EC00090910A060E94340D48E051E06DE0809147
:101ED000090690910A060E94340DE0912806F0E070
:101EE000EE0FFF1FE55FF94F80809180009109069A
:101EF00010910A06D4015A96BC905A9758968C9124
:101F0000BB2011F08B1508F4B82EF401A18C2B2DF9
:101F100030E0AB1408F470C0A394AB18A9014A0DCB
:101F2000511D8417150614F4A82EAB185A2CA901BC
:101F30004A0D511D5A874987252D2A19852D90E074
:101F4000A985BA858A179B070CF0CDC1F401418C95
:101F5000880F991FE80FF91FC080D180D4015896CF
:101F60008C91B81610F4F6012083D6014C9111968D
:101F70006C91C8010E945D0DF601B196FC83EB8364
:101F800076019601265F3F4F3E832D83AB81BC8156
:101F90008D91BC83AB83813409F401C108F05EC02C
:101FA000803209F4CEC0C0F5893009F4BCC030F5E8
:101FB000813009F4DFC0883009F4A9C0B2E0EB0E2B
:101FC000F11CED81FE81EE15FF0501F7541077C17C
:101FD000D60114968C91823009F461C1833009F4E2
:101FE00070C1813009F07BC1D801ED91FC91019065
:101FF000F081E02D6FE061C1A12C98CF803109F410
:1020000099C08131D9F6D7015796ED91FC91408165
:10201000518170E060E0A9C08C3309F46FC0A0F476
:10202000813209F49AC0823349F6F601258130E005
:10203000D7015796ED91FC91408151816281738166
:10204000C8010E94430EBACF8F3308F0B7CFF70113
:102050006789708DC8010E94220FB0CF893D09F4B5
:10206000FCC020F5803D09F4E2C080F4863409F418
:1020700088C0893C09F0A2CFD7015796ED91FC9119
:10208000309709F49BCF0995682F79C0813D09F4F9
:10209000DAC0883D09F092CFD7015796ED91FC91B7
:1020A000309709F48BCF0995BC0139C0803F09F402
:1020B000E9C088F4883E09F4DAC0893E09F07ECF91
:1020C000D7015796ED91FC91309709F477CF099598
:1020D000AB01BC014AC08B3F09F49FC08C3F09F49F
:1020E0009CC08A3F09F06ACFD7015796ED91FC91C9
:1020F000309709F463CF0995682F05C0D70157962B
:10210000ED91FC916081C8010E94960157CFD701E3
:102110005796ED91FC916081062E000C770BC8015B
:102120000E942A0E4BCFD7015796ED91FC9140812A
:1021300050E06FCFD7015796ED91FC91608171818E
:10214000EECFD7015796ED91FC914081518162818C
:102150007381C8010E94F80D31CFD7015796ED91D8
:10216000FC9140815181628173812AE0C8010E9403
:10217000AC0D24CFD7015796ED91FC91608170E0B2
:10218000CECFF701A789B08DF80180819181FC0144
:10219000208131816C91C801F90109950FCF2DB7CC
:1021A0003EB738872F83D70157966D907C90C30137
:1021B0000E94AC1A9A83898389819A81EDB7FEB710
:1021C000E81BF90B0FB6F894FEBF0FBEEDBF6DB75D
:1021D0007EB76F5F7F4F20E0822F90E049815A8168
:1021E0008417950754F4F301E80FF91FE491860F63
:1021F000971FDC01EC932F5FEFCFE981FA81E60FA7
:10220000F71F1082C8010E94220FEF81F8850FB6D8
:10221000F894FEBF0FBEEDBFD1CED7015796ED911A
:10222000FC91309709F4CACE0995BC0113CFD701B0
:102230005796ED91FC91309709F4C0CE0995682F1F
:10224000880F770B6CCFD7015796ED91FC913097A3
:1022500009F4B4CE0995482F6BCFD7015796ED916D
:10226000FC91309709F4AACE0995AC01D2CED701E2
:102270005796ED91FC91309709F4A0CE0995AB01EA
:10228000BC0167CFD7015796ED91FC91309709F4C7
:1022900095CE0995AB01BC0122E030E0D1CEF6012C
:1022A000618161504081C8010E945D0DD801ED91AE
:1022B000FC910190F081E02D6EE0C80109955394E6
:1022C0003BCEF60142816381C8010E945D0DD801B9
:1022D000ED91FC910190F081E02D6DE0EECF21E0D9
:1022E000F601248381CE0FB6F8943EBE0FBE2DBEFC
:1022F0002A960FB6F894DEBF0FBECDBFDF91CF9107
:102300001F910F91FF90EF90DF90CF90BF90AF9013
:102310009F908F907F906F905F904F903F902F9005
:10232000089585ED8093BC008091C1049091C20412
:10233000A091C304B091C4040796A11DB11D23E070
:10234000B695A795979587952A95D1F72091BC00CA
:1023500024FD03C01092BF0408954091C104509120
:10236000C2046091C3047091C404452B462B472BD3
:1023700069F30097A105B10541F025E32A95F1F72E
:1023800000000197A109B109E1CF8091C0040C942C
:10239000070B1F920F920FB60F9211242F933F93AA
:1023A0008F939F93AF93BF9380918F0290919002F0
:1023B000A0919102B091920230918E0223E0230FFE
:1023C0002D3758F50196A11DB11D20938E028093E3
:1023D0008F0290939002A0939102B0939202809109
:1023E000930290919402A0919502B0919602019669
:1023F000A11DB11D8093930290939402A093950226
:10240000B0939602BF91AF919F918F913F912F9181
:102410000F900FBE0F901F90189526E8230F02967D
:10242000A11DB11DD2CF1F920F920FB60F92112492
:102430002F933F934F935F936F937F938F939F93CC
:10244000AF93BF93EF93FF93E0912301F0912401A9
:102450000995FF91EF91BF91AF919F918F917F91DE
:102460006F915F914F913F912F910F900FBE0F9001
:102470001F9018951F920F920FB60F9211242F9351
:102480003F934F935F936F937F938F939F93AF93FC
:10249000BF93EF93FF93E0912101F0912201099501
:1024A000FF91EF91BF91AF919F918F917F916F912C
:1024B0005F914F913F912F910F900FBE0F901F9002
:1024C00018951F920F920FB60F9211242F933F93DE
:1024D0004F935F936F937F938F939F93AF93BF932C
:1024E000EF93FF9389EE94E00E941B02FF91EF911E
:1024F000BF91AF919F918F917F916F915F914F911C
:102500003F912F910F900FBE0F901F9018951F9223
:102510000F920FB60F9211242F938F939F93EF93E7
:10252000FF93E091F904F091FA048081E091FF04B7
:10253000F091000582FD1BC09081809102058F5FA4
:102540008F7320910305821741F0E0910205F0E0BE
:10255000E751FB4F958F80930205FF91EF919F917B
:102560008F912F910F900FBE0F901F901895808123
:10257000F4CF1F920F920FB60F9211242F933F9317
:102580004F935F936F937F938F939F93AF93BF937B
:10259000EF93FF938091B900887F803609F44AC099
:1025A000F0F5883209F4A7C018F5803109F49BC012
:1025B000B8F4882309F4F9C0883009F494C0FF9175
:1025C000EF91BF91AF919F918F917F916F915F91AB
:1025D0004F913F912F910F900FBE0F901F90189524
:1025E000883109F488C0803251F78093BD0414C04B
:1025F000803409F49DC040F48033B9F38833F9F690
:102600008093BD0485ECB0C0803509F485C0883561
:1026100009F496C0883499F60E949111D0CF883978
:1026200009F48CC038F5883729F050F4883611F059
:10263000803729F683E08093BF0410925F0257C071
:10264000883809F47BC0803919F0803809F0B7CF99
:1026500080915F02803208F071C0E0915F0281E0FA
:102660008E0F80935F028091BB00F0E0E15CFD4F34
:1026700080833DC0803B39F0E0F4803A09F479C0B2
:10268000883A09F09CCF84E08093BF0410923E0208
:1026900010923D02E0916702F091680209958091E5
:1026A0003D0281110FC081E080933D0210921D0216
:1026B00009C0803C09F4A6CF883C09F4A3CF883B2D
:1026C00009F07DCFE0913E0281E08E0F80933E02C3
:1026D000F0E0E35EFD4F80818093BB0090913E026D
:1026E00080913D0229C080919A048093BB0085ECC3
:1026F0008093BC0064CF9091BC048091BB04981778
:1027000058F5E091BC0481E08E0F8093BC04F0E0AA
:10271000E556FB4F8081E9CFE091BC0481E08E0F4C
:102720008093BC048091BB00F0E0E556FB4F8083B2
:102730009091BC048091BB049817C8F285E8D8CF6B
:10274000E091BC0481E08E0F8093BC048091BB00BB
:10275000F0E0E556FB4F80838091BE0481115CCF91
:1027600081E08093990484EA8093BC001092BF04B6
:1027700026CF85EC8093BC001092BF0480915F024D
:10278000803230F4E0915F02F0E0E15CFD4F1082B6
:1027900060915F0270E0E0916902F0916A028FE35C
:1027A00092E0099510925F020ACF1092BD0434CFD7
:1027B000FC01608381E081836150628313828483A2
:1027C00092E0958316A2128E118E12A2148E138E91
:1027D00013A2168E158E14A210A2178E15A21086A3
:1027E0001782128611861486138616861586108A1D
:1027F0001786128A118A148A138A168A158A508FAC
:10280000478B9EE391A386830895CF93DF93109225
:10281000EC041092EB0488EE93E0A0E0B0E080932B
:10282000ED049093EE04A093EF04B093F00421E341
:1028300031E03093EA042093E90425EC30E0309352
:10284000F6042093F50424EC30E03093F804209350
:10285000F70420EC30E03093FA042093F90421ECE3
:1028600030E03093FC042093FB0422EC30E0309302
:10287000FE042093FD0426EC30E030930005209305
:10288000FF041092020510920305109204051092A5
:10289000050520E5209386051092870510928D0589
:1028A00010928E05109291051092930542E050E02F
:1028B00060E070E040939405509395056093960511
:1028C000709397051092AB051092B5051092B40560
:1028D00023E431E03093B3052093B2051092B7059D
:1028E0001092E4051092E3058093E5059093E605C8
:1028F000A093E705B093E8058FE491E09093E2059B
:102900008093E105109254071092530781E691E0FD
:10291000909352078093510787E28093550780E197
:1029200080935A0782E080935B0710925C0748E728
:1029300051E060E08AE297E00E94D81344E851E059
:1029400061E083E097E00E94D81341E951E060E044
:102950008CED96E00E94D8134DE951E061E085EBE3
:1029600096E00E94D8131092B1061092B20610920F
:10297000B406109295061092960610929806109240
:10298000790610927A0610927C0610925D061092DB
:102990005E06109260061092410610924206109256
:1029A000440681E597E090930A0680930906109209
:1029B000280689E996E090930C0680930B0681E047
:1029C0008093270681EE95E09093EE058093ED05C8
:1029D0001092EF051092F0051092F1051092F20599
:1029E0001092F3051092F4051092F5051092F60579
:1029F0001092F70510920506109204061092030635
:102A0000109202061092F8051092F9051092FA053C
:102A10001092FB051092FC051092FD051092FE0528
:102A20001092FF0510920006109201061092070600
:102A3000109206061092080662E082E00E94F300FF
:102A400062E083E00E94F300E0EBF0E0E491F0E06C
:102A5000EE0FFF1FEC55FF4FA591B491B093D60533
:102A6000A093D505E2E9F0E044914093D905E1EB6C
:102A7000F0E0E491F0E0EE0FFF1FEC55FF4FC59141
:102A8000D491D093D805C093D705E3E9F0E0E49161
:102A9000E093DA051092DC051092DD051092DE0558
:102AA0001092DF052BE33FE1C9010197F1F79C91FB
:102AB000842F892391E009F490E08881E82309F0CC
:102AC000926025ED35E09093DB053093D20520939D
:102AD000D10580EE9CE090932201809321018091AA
:102AE00069008C7F816080936900E89A81E080931F
:102AF000E0053093D4052093D30586EE9CE09093B7
:102B000024018093230180916900837F84608093F6
:102B10006900E99A82E08093E005DF91CF91089502
:102B2000CF93DF9300D000D0CDB7DEB7789484B5D3
:102B3000826084BD84B5816084BD85B5826085BDB9
:102B400085B5816085BD80916E00816080936E0047
:102B50001092810080918100826080938100809139
:102B600081008160809381008091800081608093EA
:102B700080008091B10084608093B1008091B000AA
:102B800081608093B00080917A00846080937A00A5
:102B900080917A00826080937A0080917A008160CF
:102BA00080937A0080917A00806880937A001092F6
:102BB000C10060E086E00E94F30010926C02109267
:102BC0006B021092C6041092E8040E94E90A83E99D
:102BD00091E0909368028093670284E991E090937A
:102BE0006A02809369021092560780915B078230D7
:102BF00018F098E0909356078093590762E370E0CD
:102C000080E090E00E94540160915C0781E597E0CC
:102C10000E94EC0C68EE73E080E090E00E945401AA
:102C200060E381E597E00E94040D0BE416E4C8011F
:102C30000197F1F760E381E597E00E94040DC80178
:102C40000197F1F760E381E597E00E94040D83E5C9
:102C500092E00197F1F760E281E597E00E94040DB0
:102C600060915607606240E081E597E00E941D0D8B
:102C700084E08093570740E06CE081E597E00E9494
:102C80001D0D81E597E00E948E0D82E0809358072C
:102C900040E066E081E597E00E941D0D40E062E0C3
:102CA00081E597E00E941D0D8BE39FE10197F1F70D
:102CB00088E080935C0760E081E597E00E94EC0C7F
:102CC00040E060E081E597E00E945D0D84EA91E0DC
:102CD0000E94300E41E060E081E597E00E945D0DCA
:102CE00084EB91E00E94300E64EF71E080E090E0B0
:102CF0000E94540181E597E00E948E0D40E060E063
:102D000081E597E00E945D0D81EC91E00E94300E1C
:102D100041E060E081E597E00E945D0D8FEC91E07D
:102D20000E94300E64EF71E080E090E00E94540158
:102D300081E597E00E948E0D10926C0210926B025A
:102D40001092C6041092E8040E94E90A83E991E017
:102D5000909368028093670284E991E090936A02FD
:102D60008093690201E00093C50418E61093E7041C
:102D700081E00E94280B40E060E081E597E00E943E
:102D80005D0D89ED91E00E94300E41E060E081E54B
:102D900097E00E945D0D0093C5041093E704109224
:102DA000C6041092E80460E081EE95E00E946F0C8A
:102DB00081E00E94280B0E942F016B017C01809111
:102DC000BF04811163C081E08093BF048093BE047F
:102DD0009FEF9093BD041092BC041092BB048093AB
:102DE0009A0480919A04806D80939A04809199044A
:102DF000813009F030C1109299040E942F016B01BB
:102E00007C0180919A048093BB008091C1049091D1
:102E1000C204A091C304B091C404892B8A2B8B2BCC
:102E2000A1F00E942F010091C1041091C2042091D1
:102E3000C3043091C4046C197D098E099F090617DB
:102E400017072807390708F442C08091BC0083FDAA
:102E5000D8CF85EC8093BC000E942F016B017C01D0
:102E60008091BF04813009F4F8C08091BC048111C5
:102E700016C18091BC04ABE9B4E0EDE6F2E090E06D
:102E8000981751F12D9121939F5FFACF8091C10442
:102E90009091C204A091C304B091C404892B8A2BE1
:102EA0008B2B09F48CCF0E942F010091C10410914B
:102EB000C2042091C3043091C4046C197D098E09A9
:102EC0009F09061717072807390708F078CF809160
:102ED000C0040E94070B80E010926C0280936B028A
:102EE00081EE95E00E94280C87FF04C081EE91E0FE
:102EF0000E94300E84EF91E00E94300E64EF71E08A
:102F000080E090E00E94540181E597E00E948E0DE0
:102F100040E060E081E597E00E945D0D6FEF71E0B9
:102F200081E597E00E94220F41E060E081E597E0B3
:102F30000E945D0D8091B705882341F061E082EB2E
:102F400095E00E94AA0881111092B705109293058E
:102F50001092910510928E0510928D0584E0809359
:102F60008C050E9486018B0161E080918C050E9496
:102F7000F30061E080918C050E94A700FFB6F894F1
:102F800080918D02811127C0E8EBF0E08491EAE99D
:102F9000F0E09491E82FF0E0EE0FFF1FE859FF4FAB
:102FA000A591B491EC91E92321F461E08AE00E94BB
:102FB000A70061E08AE00E94F3008CB580618CBDBF
:102FC0008CB580648CBD61E08DE00E94F30061E00F
:102FD0008BE00E94F30080918D028F5F80938D02C1
:102FE000FFBE82E580938605109287058091860555
:102FF000909187050E94E002FAE0FF2E8FEF0E9479
:10300000BB02FA94F110FACF88E895E00E94E3023F
:1030100020E030E0A90160E088E895E00E94F90234
:10302000F82E8093920521E08217D9F10E94860143
:10303000601B710B613D774058F381E080938D05F3
:1030400088E895E00E94B00264E072E081E597E0D4
:103050000E94220FE5C085EEFDCE8091C1049091C3
:10306000C204A091C304B091C404892B8A2B8B2B7A
:1030700009F4F6CE0E942F010091C1041091C20400
:103080002091C3043091C4046C197D098E099F09F5
:10309000061717072807390708F0E2CE18CF81E096
:1030A000EACE2AEA31E040E050E068E088E895E0C6
:1030B0000E94F90282FF2AC0F09293058091930545
:1030C000C12CD12CE12C70E4F72E823019F0C12CE8
:1030D000D12C760120E030E0A90167E388E895E093
:1030E0000E94F902A701960169E288E895E00E9432
:1030F000F902809392058823D1F00E948601601B1B
:10310000710B613D774030F388E098CFE4E0FE2E0C
:103110000E94C20280939205FA94F110F9CF8A3A84
:1031200011F082E08BCF82E080939305C7CF80912E
:1031300093058230D1F420E030E0A9016AE388E809
:1031400095E00E94F902882311F086E077CF0E9473
:10315000C202807C803C19F483E0809393050E9436
:10316000C2020E94C2020E94C20288E895E00E9448
:10317000B00280E5809386051092870581E00E9469
:10318000CA04882309F495C08091B70581115CCFEA
:103190008091AB05803109F093C082E08093B70540
:1031A0001092C9051092CA051092CB051092CC0559
:1031B0008091AC059091AD05B0E0A0E065E0880F8E
:1031C000991FAA1FBB1F6A95D1F78093C5059093DD
:1031D000C605A093C705B093C80584E995E0909310
:1031E000CE058093CD0581E08093B6051092B80599
:1031F0001092B9051092BA051092BB051092BC0549
:103200001092BD051092BE051092BF051092C00528
:103210001092C1051092C2051092C3051092C40508
:1032200081E192E00E94300E64EF71E080E090E076
:103230000E94540181E597E00E948E0D8AE297E09A
:103240000E948C0083E097E00E948C008CED96E059
:103250000E948C0085EB96E00E948C0022E931E010
:10326000309332072093310781E0809350073093E9
:103270000B0720930A07809329073093E4062093D5
:10328000E306809302073093BD062093BC0680932B
:10329000DB062091B106A9E9B6E080E092E02817AC
:1032A00009F46EC0ED91FD919483138212828F5FB9
:1032B000F6CF80E00E94CA04882309F4C5CE64CF0B
:1032C000803209F0C1CE83E08093B7058091AE05CE
:1032D0009091AF05A091B005B091B1058093C9055B
:1032E0009093CA05A093CB05B093CC0589839A83AC
:1032F000AB83BC83C12CD12C7601812C52E0952E5E
:10330000A12CB12C49815A816B817C819E012F5F58
:103310003F4F84E995E00E949506882309F494CEF6
:103320008091A105A501940104C0220F331F441F01
:10333000551F8A95D2F7DA01C901C80ED91EEA1EB7
:10334000FB1E49815A816B817C818091AB05803164
:1033500091F488EF9FEFA0E0B0E0481759076A07A3
:103360007B0780F2C092C505D092C605E092C705E2
:10337000F092C80532CF88EF9FEFAFEFBFE0EDCFFF
:1033800082E08093B30648E151E06FE08091090646
:1033900090910A060E94340D40E151E06EE0809168
:1033A000090690910A060E94340D48E051E06DE054
:1033B0008091090690910A060E94340DE09128063A
:1033C000F0E0EE0FFF1FE55FF94F0190F081E02D77
:1033D000808D882331F0A081B18196968C918111E6
:1033E000118E0E942A0F8091E005823008F077C08C
:1033F000F89485ED95E00E949E0C8091DC059091FB
:10340000DD05A091DE05B091DF057894809304017D
:1034100090930501A0930601B093070100E010E02E
:103420008091E005823008F05CC0F89485ED95E06D
:103430000E949E0CC090DC05D090DD05E090DE057A
:10344000F090DF057894409104015091050160915E
:103450000601709107014C155D056E057F0599F118
:103460008091090690910A064C155D056E057F0551
:103470000CF04BC00E948E0DE0912806F0E0EE0F9C
:10348000FF1FE55FF94FA081B18158968C91589745
:103490008150990B59962C915997281719061CF5AC
:1034A0002F5F59962C93599728171906F9F40E9403
:1034B0002A0F0E942A0FC0920401D0920501E092C7
:1034C0000601F09207010115110509F4A9CF0E9428
:1034D0000702882309F4A4CF0E940000A1CFF8942A
:1034E0008CCFF894A7CF59961C9259975996EC9186
:1034F0005997F0E0EE0FFF1FEA0FFB1F0190F081DC
:10350000E02D26A1222331F2D2CF0E948E0DE09130
:103510002806F0E0EE0FFF1FE55FF94FA081B181B3
:103520005996EC915997E11107C058968C9158978C
:10353000815059968C93BBCFE1505996EC93599793
:10354000F0E0EE0FFF1FEA0FFB1F0190F081E02D6E
:1035500086A1882329F3ABCFFC0105900020E9F771
:10356000809590958E0F9F1F0895A1E21A2EAA1B99
:10357000BB1BFD010DC0AA1FBB1FEE1FFF1FA21723
:10358000B307E407F50720F0A21BB30BE40BF50B20
:10359000661F771F881F991F1A9469F760957095A9
:1035A000809590959B01AC01BD01CF0108950E94CB
:1035B000E21AA59F900DB49F900DA49F800D911DC0
:1035C00011240895A29FB001B39FC001A39F700D65
:1035D000811D1124911DB29F700D811D1124911D1B
:1035E0000895EE0FFF1F0590F491E02D09945058B7
:1035F000BB27AA270E940F1B0C94821C0E94741CDC
:1036000038F00E947B1C20F039F49F3F19F426F417
:103610000C94711C0EF4E095E7FB0C946B1CE92FE5
:103620000E94931C58F3BA17620773078407950723
:1036300020F079F4A6F50C94B51C0EF4E0950B2E51
:10364000BA2FA02D0B01B90190010C01CA01A001F4
:103650001124FF27591B99F0593F50F4503E68F14F
:103660001A16F040A22F232F342F4427585FF3CF90
:10367000469537952795A795F0405395C9F77EF461
:103680001F16BA0B620B730B840BBAF09150A1F0AA
:10369000FF0FBB1F661F771F881FC2F70EC0BA0F30
:1036A000621F731F841F48F4879577956795B795B8
:1036B000F7959E3F08F0B0CF9395880F08F09927B3
:1036C000EE0F9795879508950E94471C08F481E0B6
:1036D00008950E947D1B0C94821C0E947B1C58F054
:1036E0000E94741C40F029F45F3F29F00C946B1C7D
:1036F00051110C94B61C0C94711C0E94931C68F31D
:103700009923B1F3552391F3951B550BBB27AA279A
:1037100062177307840738F09F5F5F4F220F331FD4
:10372000441FAA1FA9F335D00E2E3AF0E0E832D09C
:1037300091505040E695001CCAF72BD0FE2F29D09F
:10374000660F771F881FBB1F261737074807AB0771
:10375000B0E809F0BB0B802DBF01FF2793585F4FE6
:103760003AF09E3F510578F00C946B1C0C94B61CFB
:103770005F3FE4F3983ED4F3869577956795B795C8
:10378000F7959F5FC9F7880F911D9695879597F9D3
:103790000895E1E0660F771F881FBB1F621773074C
:1037A0008407BA0720F0621B730B840BBA0BEE1F61
:1037B00088F7E09508950E949B1C88F09F5798F029
:1037C000B92F9927B751B0F0E1F0660F771F881F26
:1037D000991F1AF0BA95C9F714C0B13091F00E9440
:1037E000B51CB1E008950C94B51C672F782F88277D
:1037F000B85F39F0B93FCCF3869577956795B39567
:10380000D9F73EF490958095709561957F4F8F4FD5
:103810009F4F0895E89409C097FB3EF490958095DA
:10382000709561957F4F8F4F9F4F9923A9F0F92F86
:1038300096E9BB279395F695879577956795B79504
:10384000F111F8CFFAF4BB0F11F460FF1BC06F5FEA
:103850007F4F8F4F9F4F16C0882311F096E911C0FC
:10386000772321F09EE8872F762F05C0662371F01D
:1038700096E8862F70E060E02AF09A95660F771F31
:10388000881FDAF7880F9695879597F90895990F0D
:103890000008550FAA0BE0E8FEEF16161706E8071A
:1038A000F907C0F012161306E407F50798F0621B3B
:1038B000730B840B950B39F40A2661F0232B242B10
:1038C000252B21F408950A2609F4A140A6958FEF2F
:1038D000811D811D089597F99F6780E870E060E081
:1038E00008959FEF80EC089500240A941616170699
:1038F00018060906089500240A94121613061406E1
:1039000005060895092E0394000C11F4882352F043
:10391000BB0F40F4BF2B11F460FF04C06F5F7F4FFB
:103920008F4F9F4F089557FD9058440F551F59F0E2
:103930005F3F71F04795880F97FB991F61F09F3F9C
:1039400079F087950895121613061406551FF2CFC5
:103950004695F1DF08C0161617061806991FF1CF15
:1039600086957105610508940895E894BB2766273C
:103970007727CB0197F908950E94471C08F48FEF31
:1039800008950E94D41C0C94821C0E94741C38F070
:103990000E947B1C20F0952311F00C946B1C0C945E
:1039A000711C11240C94B61C0E94931C70F3959FFB
:1039B000C1F3950F50E0551F629FF001729FBB2726
:1039C000F00DB11D639FAA27F00DB11DAA1F649FC2
:1039D0006627B00DA11D661F829F2227B00DA11D75
:1039E000621F739FB00DA11D621F839FA00D611DFB
:1039F000221F749F3327A00D611D231F849F600D1C
:103A0000211D822F762F6A2F11249F5750409AF044
:103A1000F1F088234AF0EE0FFF1FBB1F661F771FD0
:103A2000881F91505040A9F79E3F510580F00C949B
:103A30006B1C0C94B61C5F3FE4F3983ED4F3869560
:103A400077956795B795F795E7959F5FC1F7FE2B3B
:103A5000880F911D9695879597F908950E94471CA8
:0A3A6000880B990B0895F894FFCF2E
:103A6A00FFFFFFFF19FCFFFF00000E0E0E00000013
:103A7A000004021F020400000004081F08040000DA
:103A8A000195019501000040001400540000000057
:103A9A00003D029D01CA018A02FB01D901ED010024
:103AAA000000004D099D01EC08000D000000006FA8
:103ABA000C420C010D180C3B0C280C190C000000D0
:103ACA0000970D9D01010D000D0D0A006E616E003B
:103ADA00696E66006F7666004D6F6E69746F726903
:103AEA007A617200436F6E74726F6C2054656D70E8
:103AFA0000436F6E74726F6C204C757A0047726166
:103B0A0062617200556E69766572736964616420D8
:103B1A0064656C0020202020506163696669636FC8
:103B2A00002020496E7665726E616465726F0020AE
:103B3A002020202076302E310052656C6F6A3A20A0
:103B4A00004572726F722E20496E69636961722034
:103B5A0053696E00456E63656E6469646F2E005327
:103B6A00443A20004E6F20636F6E65637461646F20
:0C3B7A0000436F6E65637461646F0000AF
:00000001FF
