:100000000C9462000C9472150C944B150C948A009D
:100010000C948A000C948A000C948A000C948A0038
:100020000C948A000C948A000C948A000C948A0028
:100030000C948A000C948A000C948A000C948A0018
:100040000C9401150C948A000C94BF150C9499150E
:100050000C948A000C948A000C948A000C948A00F8
:100060000C94F1150C948A00000000002400270075
:100070002A0000000000250028002B0000000008D6
:10008000000201000003040700000000000000005F
:10009000010204081020408001020408102001021F
:1000A000040810200000000023002600290004049A
:1000B0000404040404040202020202020303030310
:1000C00003036E1711241FBECFEFD8E0DEBFCDBFF4
:1000D00028E0A8E7B2E001C01D92A831B207E1F71D
:1000E00012E0A0E0B1E0E8EEF4E402C005900D9269
:1000F000A837B107D9F710E0C2E6D0E004C02197D5
:10010000FE010E942120C136D107C9F70E94EA19D9
:100110000C9472220C94000008950895833081F0AD
:1001200028F4813099F08230A9F008958730A9F041
:100130008830C9F08430B1F4809180008F7D03C095
:10014000809180008F7780938000089584B58F77A9
:1001500084BD089584B58F7DFBCF8091B0008F77EB
:100160008093B00008958091B0008F7DF9CF1F93E8
:10017000CF93DF93282F30E0F901E458FF4F8491AB
:10018000F901E057FF4FD491F901E255FF4FC491B7
:10019000CC23A9F0162F81110E948E00EC2FF0E0E5
:1001A000EE0FFF1FEE58FF4FA591B4918FB7F89453
:1001B000EC91111108C0D095DE23DC938FBFDF9145
:1001C000CF911F910895DE2BF8CFCF93DF9390E06E
:1001D000FC01E057FF4F249182559F4FFC01849111
:1001E0008823C9F090E0880F991FFC01E859FF4F60
:1001F000A591B491FC01EE58FF4FC591D4916111C6
:100200000DC09FB7F8948C91209582238C938881A0
:10021000282328839FBFDF91CF910895623051F446
:100220009FB7F8943C91822F809583238C93E8812B
:100230002E2BEFCF8FB7F894EC912E2B2C938FBFF2
:10024000EACF3FB7F8948091C9029091CA02A09179
:10025000CB02B091CC0226B5A89B05C02F3F19F068
:100260000196A11DB11D3FBFBA2FA92F982F882736
:10027000BC01CD01620F711D811D911D42E0660F11
:10028000771F881F991F4A95D1F708958F929F92E3
:10029000AF92BF92CF92DF92EF92FF924B015C013F
:1002A0000E9421016B017C010E9421016C197D09D2
:1002B0008E099F09683E734081059105A8F321E0EE
:1002C000821A9108A108B10888EEC80E83E0D81EF2
:1002D000E11CF11C81149104A104B10429F7FF90E1
:1002E000EF90DF90CF90BF90AF909F908F90089548
:1002F0002FB7F8946091C5027091C6028091C70231
:100300009091C8022FBF089508950895DC01ED91E2
:10031000FC910190F081E02D0994AF92BF92CF92B1
:10032000DF92EF92FF920F931F93CF93DF936C01B5
:100330007B018B01040F151FEB015E01AE18BF0896
:10034000C017D10759F06991D601ED91FC91019048
:10035000F081E02DC6010995892B79F7C501DF9160
:10036000CF911F910F91FF90EF90DF90CF90BF90B2
:10037000AF900895FC01538D448D252F30E0842FDC
:1003800090E0821B930B541710F0CF9608950197BD
:100390000895FC01918D828D981761F0A28DAE0FAA
:1003A000BF2FB11D5D968C91928D9F5F9F73928F31
:1003B00090E008958FEF9FEF0895FC01918D828D5D
:1003C000981731F0828DE80FF11D858D90E008952A
:1003D0008FEF9FEF0895FC01918D228D892F90E082
:1003E000805C9F4F821B91098F739927089585E444
:1003F00095E00E94EB0121E0892B09F420E0822F97
:10040000089580E090E0892B29F00E94F701811186
:100410000C9400000895FC01A48DA80FB92FB11D04
:10042000A35ABF4F2C91848D90E001968F7399272A
:10043000848FA689B7892C93A089B1898C91837008
:1004400080648C93938D848D981306C00288F38901
:10045000E02D80818F7D80830895EF92FF920F932E
:100460001F93CF93DF93EC0181E0888F9B8D8C8D60
:1004700098131AC0E889F989808185FF15C09FB754
:10048000F894EE89FF896083E889F9898081837017
:10049000806480839FBF81E090E0DF91CF911F91C6
:1004A0000F91FF90EF900895F62E0B8D10E00F5FE7
:1004B0001F4F0F731127E02E8C8D8E110CC00FB6BD
:1004C00007FCFACFE889F989808185FFF5CFCE0155
:1004D0000E940B02F1CFEB8DEC0FFD2FF11DE35AC3
:1004E000FF4FF0829FB7F8940B8FEA89FB898081D8
:1004F0008062CFCFCF93DF93EC01888D8823B9F052
:10050000AA89BB89E889F9898C9185FD03C080811E
:1005100086FD0DC00FB607FCF7CF8C9185FFF2CF9B
:10052000808185FFEDCFCE010E940B02E9CFDF91E4
:10053000CF9108958FB7F8948091BD028FBF089531
:1005400061E0FC0184810E94B7008091BC028111AE
:100550001092BC0208958EBD00000DB407FEFDCFC1
:100560008EB508958FEF0C94AB020F931F93CF932A
:10057000DF93EC010E9478018B010E94B2028F3F51
:1005800069F00E947801601B710B6C177D07A8F35E
:1005900080E0DF91CF911F910F91089581E0F9CF15
:1005A0008CBD9DBD0895CF93DF93EC018091BC027B
:1005B000811109C081E08093BC028091E205909195
:1005C000E3050E94D00260E08C81DF91CF910C9412
:1005D000B7008F929F92AF92BF92FF920F931F939B
:1005E000CF93DF93EC01F62E49015A018E818823C7
:1005F00089F08F8198859C012F5F3F4F38872F832B
:100600008230924018F40E94B202F3CFCE010E94D1
:10061000A0021E82CE010E94D3028CE291E00E94D1
:10062000B5028F2D80640E94AB0208E110E0D50175
:10063000C401002E04C0B695A795979587950A9496
:10064000D2F70E94AB0208501109083F8FEF18073C
:1006500071F785E9FF2021F028E087E8F2128FEF9B
:100660000E94AB0210E00E94B2028A8787FF04C09A
:100670001F3F11F01F5FF7CFDF91CF911F910F91B7
:10068000FF90BF90AF909F908F900895CF92DF9290
:10069000EF92FF920F93CF93DF93EC01690182E118
:1006A000411551056105710599F08B85833039F04D
:1006B00089E0440F551F661F771F8A95D1F79A016D
:1006C000AB0168E1CE010E94E902882319F084E0C1
:1006D0008D832DC08EEF0E94AB0276018EEFD81A6B
:1006E000F70181917F010E94AB02EC14FD04C1F778
:1006F0008FEF0E94AB028FEF0E94AB020E94B2020A
:100700008A878F71853071F4011116C0CE010E9465
:10071000A00281E0DF91CF910F91FF90EF90DF90E9
:10072000CF90089581E18D83CE010E94A002CE0179
:100730000E94A00280E0EECF88E592E00E94B50220
:10074000811102C085E1C4CF20E030E0A9016DE055
:10075000CE010E94E902882311F084E1B9CF0E9402
:10076000B2028111FACFD2CF0F934091BF025091C4
:10077000C0026091C1027091C2024115510561052C
:10078000710599F0082F2DEC32E08091CD04909105
:10079000CE040E944603882349F01092BF021092B3
:1007A000C0021092C1021092C20281E00F9108951E
:1007B0000F93CF93C82F8091BE02811105C0C1E075
:1007C0008C2FCF910F910895409104015091050114
:1007D00060910601709107010C2F2DEC32E08091A1
:1007E000CD049091CE040E944603811102C0C0E066
:1007F000E7CFCC2321F381E00E94B4038823B9F32F
:100800001092BE02DDCF9F92AF92BF92CF92DF9245
:10081000EF92FF920F931F93CF93DF936B017C01B5
:10082000942E8091040190910501A0910601B09150
:1008300007018C159D05AE05BF0509F494C081E044
:100840000E94D803882389F1C091CD04D091CE04B1
:100850008E81882371F088819981AA81BB81C81615
:10086000D906EA06FB0629F48F819885892B09F4BD
:1008700043C0C882D982EA82FB828B85A701960198
:10088000833039F099E0220F331F441F551F9A958A
:10089000D1F761E1CE010E94E902882391F083E063
:1008A0008D83CE010E94A00280E0DF91CF911F9145
:1008B0000F91FF90EF90DF90CF90BF90AF909F90FF
:1008C00008950E9478018B010E94B2028A878F3FAF
:1008D00069F40E947801601B710B6D327140A0F3C6
:1008E0008FE08D83CE010E94A002DBCF8E3F69F5A1
:1008F00018861F8281E08E830DEC12E08DECA82E0D
:1009000084E0B82E0E94B202F80181938F01AE16E6
:10091000BF06C1F78F8198859E5F98878F83298551
:10092000222319F081159240B0F08E81882399F02E
:100930008F8198859C012F5F3F4F38872F838230AE
:10094000924028F40E94B202F3CF8DE0CACFCE01CC
:100950000E94A0021E82C0920401D0920501E09282
:100960000601F09207014091BE0249294093BE0260
:1009700081E09BCF8F929F92AF92BF92CF92DF92F6
:10098000EF92FF92CF9324EE35E03093CE04209384
:10099000CD04882309F46DC040E060E070E0CB0135
:1009A0000E94030481110BC080E0CF91FF90EF9073
:1009B000DF90CF90BF90AF909F908F9008958091DF
:1009C0008B048F7789F78091970490919804A09178
:1009D0009904B0919A0484369105A105B10520F3DC
:1009E000C0909304D0909404E0909504F090960405
:1009F000C114D104E104F104B9F240E0C701B60129
:100A00000E940304882381F28091D8029091D90238
:100A10008115924049F6A091DD02AA2329F2609146
:100A2000DB027091DC026115710509F4BDCF2091E4
:100A3000DA02222309F4B8CFA09302062093F4052A
:100A400090E080E030E0E1E0F0E0C82FAF01082E58
:100A500002C0440F551F0A94E2F72417350769F0C6
:100A600041E0480F01968930910579F74093FD05E3
:100A70009BCFC12CD12C7601C0CF8093FD05209156
:100A8000E3023091E40250E040E02115310541F4E9
:100A90002091F1023091F2024091F3025091F40260
:100AA0002093F5053093F6054093F7055093F8052C
:100AB00046015701860E971EA11CB11C80920306A9
:100AC00090920406A0920506B0920606E091DE021E
:100AD000F091DF02F0930906E0930806B0E00E946F
:100AE0000720DC01CB01880D991DAA1DBB1D809339
:100AF0000A0690930B06A0930C06B0930D0625E012
:100B0000EE0FFF1F2A95E1F7E150FE4FEF2FFF2771
:100B1000E6958E0F9F1FA11DB11D8093FE0590933A
:100B2000FF05A0930006B09301068090E00290902C
:100B3000E102B12CA12C8114910441F48090ED02CA
:100B40009090EE02A090EF02B090F002C81AD90A7D
:100B5000EA0AFB0AC80CD91CEA1CFB1C04C0F69468
:100B6000E794D794C794CA95D2F7C092F905D0926A
:100B7000FA05E092FB05F092FC0585EFC8168FE0C0
:100B8000D806E104F10428F48CE08093070681E0A4
:100B90000CCF80E125EFC2162FEFD206E104F1045D
:100BA000A0F38091F9029091FA02A091FB02B0911A
:100BB000FC0280930A0690930B06A0930C06B09358
:100BC0000D0680E2E2CF4F925F926F927F928F92FA
:100BD0009F92AF92BF92CF92DF92EF92FF920F93CC
:100BE0001F93CF93DF93EC014230510561057105EE
:100BF00090F480E0DF91CF911F910F91FF90EF90E3
:100C0000DF90CF90BF90AF909F908F907F906F902C
:100C10005F904F90089589859A85AB85BC85019634
:100C2000A11DB11D84179507A607B70710F3CB8840
:100C3000DC88ED88FE888F89803109F042C0BB27AF
:100C4000A72F962F852F480159012A013B01C80E75
:100C5000D91EEA1EFB1E8091040190910501A0910E
:100C60000601B0910701C816D906EA06FB0699F5F8
:100C70008F898031C1F5B301A201552766277727F7
:100C8000440F551F43535D4FFA019182808280913A
:100C9000BE0281608093BE028A89823080F08D819D
:100CA0009E81AF81B8858C0D9D1DAE1DBF1D8093AB
:100CB000BF029093C002A093C102B093C20281E030
:100CC00099CFDB01CA01E7E0B695A795979587957F
:100CD000EA95D1F7B8CF40E0C701B6010E940304FE
:100CE0008111C6CF86CFB301A2014F775527662762
:100CF0007727440F551F440F551F43535D4FFA018B
:100D000080829182A282B382C2CF8F929F92AF9251
:100D1000BF92CF92DF92EF92FF920F931F93CF93E8
:100D2000DF93FC0181859285A385B4850196A11D81
:100D3000B11D84179507A607B70770F480E0DF910F
:100D4000CF911F910F91FF90EF90DF90CF90BF90C8
:100D5000AF909F908F90089583889488A588B688D7
:100D60008789803189F5BB27A72F962F852FE90129
:100D70006A017B018F01BC01CD01680D791D8A1DBF
:100D80009B1D8090040190900501A0900601B090F9
:100D9000070186169706A806B90601F5F8018789A6
:100DA000803111F5DD24EE24FF24F601EE0FFF1F44
:100DB000E353FD4F80819181B0E0A0E08883998367
:100DC000AA83BB8381E0BBCFDB01CA01C7E0B69534
:100DD000A79597958795CA95D1F7C9CF40E00E940E
:100DE00003048111DBCFAACFE894C7F8DD24EE24F9
:100DF000FF24F601EE0FFF1FEE0FFF1FE353FD4F21
:100E000080819181A281B381BF70D8CF8F929F9250
:100E1000AF92BF92CF92DF92EF92FF920F931F9308
:100E2000CF93DF93EC018D8181110EC080E0DF91C3
:100E3000CF911F910F91FF90EF90DF90CF90BF90D7
:100E4000AF909F908F9008950B891C892D893E89C2
:100E5000041715072607370748F34A015B0182305C
:100E600031F48A869B86AC86BD8681E0E0CF811412
:100E70009104A104B10449F41E821F8218861986C8
:100E80001A861B861C861D86F0CF0A851B852C853D
:100E90003D85EB8DFC8D858590E00996B901A80113
:100EA0004150510961097109082E04C07695679572
:100EB000579547950A94D2F775016401E1E0CE1A7F
:100EC000D108E108F10804C0F694E794D794C794D8
:100ED0008A95D2F7C416D506E606F70620F0012B50
:100EE000022B032B11F58F89988DA98DBA8D8E83D6
:100EF0009F83A887B9878E010A5F1F4FC114D10451
:100F0000E104F10409F4ADCF4E815F8168857985F4
:100F100098018B8D9C8D0E94850691E0C91AD1089D
:100F2000E108F1088111EACF81CFC41AD50AE60A97
:100F3000F70AE1CF3F924F925F926F927F928F922A
:100F40009F92AF92BF92CF92DF92EF92FF920F9358
:100F50001F93CF93DF93CDB7DEB72C970FB6F894DE
:100F6000DEBF0FBECDBF5C01DC015B968D909C9017
:100F70005C9716964D905D906D907C9019974114FA
:100F800051046104710409F468C0BFEF4B1A5B0A95
:100F90006B0A7B0A312CF40181859285A385B48587
:100FA0009C01AD012F5F3F4F4F4F5F4F29873A871D
:100FB0004B875C87730162011D821E821F82188627
:100FC000F40181859285A385B4852D813E814F8171
:100FD0005885281739074A075B0708F056C08985E6
:100FE0009A85AB85BC858C159D05AE05BF0550F473
:100FF00082E0C82ED12CE12CF12C92E0492E512C0C
:10100000612C712C9E012F5F3F4FB701A601C401D7
:101010000E9485068823C9F189819A81AB81BC81B0
:10102000892B8A2B8B2B09F1260137019FEF491A57
:10103000590A690A790A2D813E814F8158852F5FAF
:101040003F4F4F4F5F4F2D833E834F8358873FEF76
:10105000C31AD30AE30AF30AB3CFF40140805180E4
:10106000628073803324339496CFC414D504E6048D
:10107000F70409F70FEF1FEF2FEF3FE0B701A601CD
:10108000C4010E94E305811119C080E02C960FB6BF
:10109000F894DEBF0FBECDBFDF91CF911F910F91AE
:1010A000FF90EF90DF90CF90BF90AF909F908F9088
:1010B0007F906F905F904F903F900895D501169666
:1010C0004D915D916D917C91199741155105610587
:1010D000710539F097018601C4010E94E305882358
:1010E000A1F2D5011696CD92DD92ED92FC92199760
:1010F000332051F0D701C6010196A11DB11DF401A5
:1011000080839183A283B383F5018789908DA18D1C
:10111000B28D892B8A2B8B2B39F48481C78AD08E90
:10112000E18EF28E80688483F501848180628483FD
:1011300081E0ACCF1F93CF93DF93EC01162F8C810E
:1011400087FF2AC06E857F858889998941E00E9442
:101150000304882361F1EA8980E2E89FF001112409
:10116000E353FD4F309719F18D81823040F48B8924
:101170009C89AD89BE89848F958FA68FB78F8F8903
:10118000988D938F828F8F89988DA98DBA8DB58B0D
:10119000A48B8C818F778C83111103C08C818F7EFF
:1011A0008C83812FDF91CF911F910C94D80380E025
:1011B000DF91CF911F910895FF920F931F93CF93CB
:1011C000DF93EC018D81813041F090E080E0DF9190
:1011D000CF911F910F91FF9008958C8181FFF5CFE2
:1011E00082FD1EC00091CD041091CE04C8010E9462
:1011F000D3020E94B202F82EC8010E94A0028FEF13
:10120000F812E3CF8C8185FF1EC08D81882321F0E9
:1012100060E0CE010E949A088C818F7D8C83D5CFAF
:101220004B895C896D897E898A859B85AC85BD8566
:1012300084179507A607B707A9F2CE010E940607F3
:101240008111D0CFC2CF4091BF025091C0026091B6
:10125000C1027091C202452B462B472B21F080E042
:101260000E94B403B2CF80618C832A853B853170A4
:1012700080E092E0821B930BAACF9F92AF92BF9225
:10128000CF92DF92EF92FF920F931F93CF93DF9352
:1012900000D000D01F92CDB7DEB78C016D83DC018A
:1012A00015968C911597813009F0B9C014968C91E0
:1012B00081FFB5C082FD9FC0D8015B96ED91FC9186
:1012C0005C971A96AD90BD90CD90DC901D97948060
:1012D0009A94B601A50189E076956795579547954B
:1012E0008A95D1F79422B1E0BB22992009F49FC0DE
:1012F000D8015B96ED91FC915C971696CD90DD90B0
:10130000ED90FC901997B2E0CB1AD108E108F108F2
:10131000858504C0CC0CDD1CEE1CFF1C8A95D2F721
:101320004685578560897189C40ED51EE61EF71E55
:10133000C90CD11CE11CF11CA114B10409F00AC1B3
:10134000F801428553856485758583899489A589CB
:10135000B689481759076A077B0708F4FBC081E084
:101360000E94D803882309F45AC0C0920401D09285
:101370000501E0920601F09207018091BE028160B2
:101380008093BE02F501E353FD4F8D818083F80108
:1013900082859385A485B5850196A11DB11D82879F
:1013A0009387A487B58743895489658976894817C7
:1013B00059076A077B0738F42481838B948BA58BAC
:1013C000B68B20682483D80114968C9183FD9FC02E
:1013D00081E090E00F900F900F900F900F90DF91B1
:1013E000CF911F910F91FF90EF90DF90CF90BF9022
:1013F000AF909F900895F801438954896589768953
:1014000082859385A485B585481759076A077B07A8
:1014100009F452CFC8010E94060781114DCF81E027
:1014200090E0D80113969C938E93129749C0D801EF
:1014300016964D915D916D917C911997A114B1040F
:1014400009F071C0411551056105710589F557967F
:101450008D919D910D90BC91A02D0097A105B10596
:1014600009F04FC0C8010E949A078823C1F2D80131
:101470005B96ED91FC915C971696CD90DD90ED908A
:10148000FC901997B2E0CB1AD108E108F1088585E4
:1014900004C0CC0CDD1CEE1CFF1C8A95D2F74685DF
:1014A000578560897189C40ED51EE61EF71E48CF88
:1014B0009E012F5F3F4FCF010E948506811103C01F
:1014C00090E080E087CF89819A81AB81BC81F8016F
:1014D000238D348DF901278948EF5FEF60E070E0DC
:1014E000203121F048EF5FEF6FEF7FE08417950721
:1014F000A607B70730F0C8010E949A078111F8CEFD
:101500008ECFF80186839783A087B187F1CEF8014B
:101510008581882309F483CF61E0C8010E949A087D
:10152000811156CF7CCF6A017B01B2E0CB1AD10882
:10153000E108F108858504C0CC0CDD1CEE1CFF1C05
:101540008A95D2F74685578560897189C40ED51E64
:10155000E61EF71E41E0C701B6010E940304811197
:1015600011CF5DCF20919902260F3327331F2132EF
:101570003105ECF420911B05FC0190E080E0243063
:1015800069F082E00895A09199022191AC01475839
:101590005D4FA40FB52FB11D2C930196861798F3BC
:1015A00080919902680F6093990280E0089581E02C
:1015B000089510921B0581E080931A051092F5049E
:1015C00061E082E10E94B70061E083E10E94B70020
:1015D000E9EBF0E080818E7F808380818D7F808346
:1015E00088E48093B80085E48093BC00089510924D
:1015F000F4041092F30410922205109244050E9404
:10160000D90A8CE890E09093F2048093F1048DE87D
:1016100090E09093F0048093EF040895CF93DF93CC
:1016200091E0909378028823B9F0C091B800D091EE
:10163000BA008091BC008A7B8093BC0060E082E1AC
:101640000E94B70060E083E10E94B7000E94D90ABF
:10165000D093BA00C093B800DF91CF9108958F92D4
:101660009F92AF92BF92CF92DF92EF92FF920F9331
:101670001F93CF93DF93D0914405D13208F0D7C0A8
:10168000182FC09143050E9421016B017C018091BC
:101690001B0581116BC082E080931B0510931A0516
:1016A0008FEF8093190510921805D0931705A3E2C8
:1016B000B5E0E7EFF4E080E0D81391C01092F604B3
:1016C0008091F604CC0FC82BC093F6048091F504EA
:1016D000813009F088C01092F5040E9421016B014D
:1016E0007C018091F6048093BB0080911D05909150
:1016F0001E05A0911F05B0912005892B8A2B8B2BED
:10170000A1F00E94210100911D0510911E0520915C
:101710001F05309120056C197D098E099F09061758
:1017200017072807390708F442C08091BC0083FDE1
:10173000D8CF85EC8093BC000E9421016B017C0115
:1017400080911B05823009F450C0809119058F3FAC
:1017500009F46FC080911905803209F46CC0809142
:101760001905803309F469C084E026C080911D0505
:1017700090911E05A0911F05B0912005892B8A2B01
:101780008B2B09F484CF0E94210180901D0590903D
:101790001E05A0901F05B09020056C197D098E09CB
:1017A0009F0986169706A806B90608F070CF8091A3
:1017B0001C050E940E0B85E0109222051092440534
:1017C00010922105DF91CF911F910F91FF90EF9023
:1017D000DF90CF90BF90AF909F908F9008959D9194
:1017E00091938F5F69CF85EEA5CF80911D05909174
:1017F0001E05A0911F05B0912005892B8A2B8B2BEC
:1018000009F49ECF0E94210100911D0510911E0533
:1018100020911F05309120056C197D098E099F09C3
:10182000061717072807390708F08ACFC0CF81E0CD
:10183000C3CF80E0C1CF82E0BFCF83E0BDCFA09116
:101840004906B0914A0691E09093210590E4909367
:1018500043051092220510924405ED91FC911197D9
:101860000190F081E02D682FCD01099581E00E9463
:101870002F0B882329F081E88093630680E0089588
:1018800081E00895CF92DF92EF92FF920F931F9322
:10189000CF93DF93D82FC62F613208F098C00E94F3
:1018A00021016B017C0180911B0581116BC081E0DE
:1018B00080931B0580931A059FEF90931905109252
:1018C00018059C0F909317058093F6048091F604F9
:1018D000DD0FD82BD093F6048091F504813009F008
:1018E00078C01092F5040E9421016B017C01809167
:1018F000F6048093BB0080911D0590911E05A09178
:101900001F05B0912005892B8A2B8B2BA1F00E94FB
:10191000210100911D0510911E0520911F05309198
:1019200020056C197D098E099F09061717072807DE
:10193000390708F448C08091BC0083FDD8CF85ECFE
:101940008093BC000E9421016B017C0180911B05EA
:10195000813009F440C0809118058C1710F4C091B3
:101960001805E7EFF4E0AFECB4E080E08C1355C06D
:101970008C2FDF91CF911F910F91FF90EF90DF900F
:10198000CF90089580911D0590911E05A0911F058F
:10199000B0912005892B8A2B8B2B09F484CF0E94D0
:1019A000210100911D0510911E0520911F05309108
:1019B00020056C197D098E099F090617170728074E
:1019C000390708F070CF80911C050E940E0BC0E013
:1019D000CFCF85EEB5CF80911D0590911E05A091CA
:1019E0001F05B0912005892B8A2B8B2B09F4AECFD4
:1019F0000E94210100911D0510911E0520911F05D7
:101A0000309120056C197D098E099F09061717076B
:101A10002807390708F09ACFD6CF91919D938F5F11
:101A2000A5CF0895E091F4048091F304E81730F411
:101A3000F0E0E153FB4F808190E008958FEF9FEF3E
:101A400008959091F4048091F3042FEF3FEF9817DD
:101A500048F4E92FF0E0E153FB4F208130E09F5F35
:101A60009093F404C90108958091F3049091F404D3
:101A7000891B990B0895CF92DF92EF92FF920F93FB
:101A80001F93CF93DF937C01CB018A012091210525
:101A9000222389F0EB016B01C40ED51ECC15DD05A8
:101AA00069F06991D701ED91FC910190F081E02DF1
:101AB000C7010995F3CF642F0E94B20AC801DF91D4
:101AC000CF911F910F91FF90EF90DF90CF900895ED
:101AD000CF93DF931F92CDB7DEB7698320912105A5
:101AE0002223F9F020914405203258F021E030E023
:101AF000FC013383228390E080E00F90DF91CF914F
:101B0000089580912205E82FF0E0ED5DFA4F99816C
:101B100090838F5F809322058093440581E090E05D
:101B2000ECCF61E0CE0101960E94B20AF7CFDC0152
:101B3000ED91FD918081ED91FD919081ED91FD916F
:101B40006C9163708E2309F064609F2309F06860D4
:101B5000E4EBFDE0E60FF11D659565956D936D91E4
:101B60007D918D919D91099423C01AC012C016C019
:101B700010C01EC009C014C013C006C019C009C0DF
:101B80000DC007C00DC014C062507040804090402E
:101B90000BC0615070408040904006C06E5F01C035
:101BA0006F5F7F4F8F4F9F4F9E938E937E936E9369
:101BB000089580912D0690912E060C94970D80919A
:101BC0002F06909130060C94970DFC01828585308C
:101BD00080F4A82FB0E0AA0FBB1FAE0FBF1F6D93FC
:101BE0007C938F5F828793859F5F9387848781E053
:101BF000089580E00895FC01248131E030932105AF
:101C00002093430510922205109244058385682B8A
:101C10008DE396E00E94680D81E00C942F0B0895EF
:101C200090E080E008958F929F92AF92BF92CF9202
:101C3000DF92EF92FF920F931F93CF93DF93182FB2
:101C4000092FC62E63E080E40E94420C1092F40437
:101C50008093F3040E9478014B015C01D12CF12C9C
:101C6000E12C8091490690914A06DC01ED91FC91AE
:101C70000084F185E02D0995039724F1C12FD02F21
:101C80008E010D5F1F4F8091490690914A06DC013D
:101C9000ED91FC910284F385E02D099589930C1751
:101CA0001D0789F71092630681E0DF91CF911F91A4
:101CB0000F91FF90EF90DF90CF90BF90AF909F90EB
:101CC0008F9008950E947801681979098A099B0903
:101CD000C616D706E806F90620F682E88093630662
:101CE00080E0E3CFCF92DF92EF92FF920F931F93AA
:101CF000CF93DF9300D01F92CDB7DEB783EF0E9462
:101D00001F0C0E94780160934F06709350068093D9
:101D100051069093520681E08093530680915306BA
:101D20008130F1F70E94780100914F061091500622
:101D30002091510630915206DC01CB01801B910BA2
:101D4000A20BB30B8B309105A105B10538F320919F
:101D50006406233099F086319105A105B105F0F2B2
:101D6000213061F08B329105A105B105B8F2223026
:101D700029F085359105A105B10580F26AE5CE010E
:101D800001960E94130E882309F48FC09981892F30
:101D900028E031E387FF03C0880F832701C0880F45
:101DA0002150C1F72A81822738E041E387FF03C031
:101DB000880F842701C0880F3150C1F73B81381349
:101DC000C9C0892F90E0982F8827820F911D8C7FA2
:101DD00090936106809360061092530623702093BF
:101DE000620685EF0E941F0C0E94780160934F06E7
:101DF00070935006809351069093520682E0809330
:101E00005306809153068230F1F70E9478010091C9
:101E10004F06109150062091510630915206DC0178
:101E2000CB01801B910BA20BB30B84309105A10554
:101E3000B10538F320916406213091F08930910585
:101E4000A105B105F0F2223059F08F309105A105BE
:101E5000B105B8F2233021F04D97A105B10588F204
:101E60006EE1CE0101960E94130E882309F12A81AA
:101E7000898190E0982F8827820F911D8C7F909305
:101E80005F0680935E0610925306237020936206CD
:101E9000109263060E94780160934B0670934C0683
:101EA00080934D0690934E0603C082E880936306AC
:101EB000609160067091610690E080E00E943A2196
:101EC00022E538EB4FE25BE30E94F12126E636E69D
:101ED0004BE352E40E9427200E940B216B0160918A
:101EE0005E0670915F0690E080E00E943A2120E05B
:101EF00030E04AEF5AE30E94F12120E030E040EC6C
:101F000050E40E9427200E940B219B0140913C0736
:101F100050913D074C155D0541F4409114075091D7
:101F2000150780E04217530749F0D0923D07C09251
:101F30003C07709315076093140781E00F900F9092
:101F40000F90DF91CF911F910F91FF90EF90DF9055
:101F5000CF90089585E88093630633CF0F931F9346
:101F6000CF938C01C62F0E94FB0D6C2F6460C801BB
:101F70000E94FB0D6C2F6B7FC8010E94FB0D83EC50
:101F800090E00197F1F7CF911F910F9108950F9372
:101F90001F93CF93DF938C01D62FC42F607F642BC8
:101FA0000E94AE0F80E1D89FB00111246C2BC801B4
:101FB000DF91CF911F910F910C94AE0FEF92FF9292
:101FC0000F931F93CF93DF938C017A01677088E0A2
:101FD000689FB0011124606440E0C8010E94C70FEF
:101FE000E701A8E0EA0EF11C6991D801ED91FC919E
:101FF0000190F081E02DC8010995CE15DF05A1F70C
:10200000DF91CF911F910F91FF90EF900895CF93A3
:10201000DF93CDB7DEB728970FB6F894DEBF0FBEBB
:10202000CDBF28E0EAE2F1E0DE01119601900D92C9
:102030002A95E1F7FC012085241710F44FEF420F99
:1020400050E0440F551F21E030E02C0F3D1F420FA0
:10205000531FFA012081620F606840E028960FB696
:10206000F894DEBF0FBECDBFDF91CF910C94C70FA8
:1020700040E061E00E94C70F8BE39FE10197F1F719
:10208000089541E00E94C70F81E090E00895FB01B0
:1020900001900020E9F73197AF01461B570BDC0197
:1020A000ED91FC910280F381E02D09948F929F9233
:1020B000AF92BF92EF92FF920F931F93CF93DF9354
:1020C000CDB7DEB7A1970FB6F894DEBF0FBECDBF78
:1020D0007C01FA01CB0119A2223008F42AE08E011A
:1020E0000F5D1F4F822E912CB12CA12CBF01A50199
:1020F00094010E94E51FF901CA016A300CF5605D88
:10210000D8016E938D01232B242B252B79F790E09A
:1021100080E0109721F0BD01C7010E944710A196F1
:102120000FB6F894DEBF0FBECDBFDF91CF911F91E8
:102130000F91FF90EF90BF90AF909F908F90089578
:10214000695CDECFCF92DF92EF92FF920F931F93E5
:10215000CF93DF9377FF1DC06A017B01EC016DE235
:102160000E9486018C0144275527BA014C195D094C
:102170006E097F092AE0CE010E945610800F911F40
:10218000DF91CF911F910F91FF90EF90DF90CF9053
:1021900008952AE0DF91CF911F910F91FF90EF906A
:1021A000DF90CF900C945610AB01770F660B770B36
:1021B0000C94A210CF93DF93BC018CE098E00E94B6
:1021C0004710EC016EE671E08CE098E00E94471049
:1021D0008C0F9D1FDF91CF9108954F925F926F9268
:1021E0007F928F929F92AF92BF92EF92FF920F9346
:1021F0001F93CF93DF938C014A015B01E22EAB0169
:102200009401CB01B4010E945E2261E771E081116B
:1022100026C024013501E89477F82FEF3FEF4FE710
:102220005FE7C301B2010E945E2281110CC02FEF53
:102230003FEF4FE75FE7C301B2010E94942065E7DB
:1022400071E0181664F02FEF3FEF4FE75FE4C50130
:10225000B4010E94EC2118169CF469E771E0C801F2
:10226000DF91CF911F910F91FF90EF90BF90AF90B2
:102270009F908F907F906F905F904F900C9447103D
:102280002FEF3FEF4FE75FECC501B4010E949420B0
:1022900087FDE3CF20E030E0A901C501B4010E9431
:1022A0009420D0E0C0E087FF09C06DE2C8010E9421
:1022B0008601EC01B7FAB094B7F8B094FE2C712CFB
:1022C00060E070E080E09FE37E1440F420E030E0C6
:1022D00040E251E40E9499207394F6CFA501940145
:1022E0000E9428204B015C010E940B212B013C0124
:1022F0002AE0BC01A201C8010E945610C80FD91FD4
:10230000EE20D1F1C301B2010E943A219B01AC0140
:10231000C501B4010E9427204B015C016EE2C80197
:102320000E948601C80FD91FFA948FEFF81621F189
:1023300020E030E040E251E4C501B4010E94F12107
:102340002B013C010E940B214B01B12CA12C2AE056
:10235000B501A401C8010E945610C80FD91FC501BC
:10236000B4010E943A219B01AC01C301B2010E9459
:1023700027204B015C01D8CFCE01DF91CF911F9177
:102380000F91FF90EF90BF90AF909F908F907F90B4
:102390006F905F904F9008956115710511F00C9446
:1023A000471090E080E008952F923F924F925F9205
:1023B0006F927F928F929F92AF92BF92CF92DF9255
:1023C000EF92FF920F931F93CF93DF93CDB7DEB7BA
:1023D0002A970FB6F894DEBF0FBECDBF2DB63EB61E
:1023E00080916506909166060E94381080912501C3
:1023F0008823E9F0109225014DE151E06FE08091D2
:102400006506909166060E94DE0F45E151E06EE0A0
:1024100080916506909166060E94DE0F4DE051E0C6
:102420006DE080916506909166060E94DE0FE09156
:102430007C06F0E0EE0FFF1FE959F94F8080918094
:102440000091650610916606D4011C96BC901C97FD
:102450001A968C91BB2011F08B1508F4B82EF4015C
:10246000A3842B2D30E0AB1408F470C0A394AB18F8
:10247000A9014A0D511D8417150614F4A82EAB1896
:102480005A2CA9014A0D511D5A874987252D2A1911
:10249000852D90E0A985BA858A179B070CF0CDC1E0
:1024A000F4014384880F991FE80FF91FC080D18081
:1024B000D4011A968C91B81610F4F6012083D60137
:1024C0004C9111966C91C8010E940710F6013F963D
:1024D000FC83EB83760196012C5F3F4F3E832D8377
:1024E000AB81BC818D91BC83AB83813409F401C184
:1024F00008F05EC0803209F4CEC0C0F5893009F41E
:10250000BCC030F5813009F4DFC0883009F4A9C0BF
:10251000B2E0EB0EF11CED81FE81EE15FF0501F737
:10252000541077C1D60114968C91823009F461C1A0
:10253000833009F470C1813009F07BC1D801ED917D
:10254000FC910190F081E02D6FE061C1A12C98CF4A
:10255000803109F499C08131D9F6D7011B96ED91EC
:10256000FC914081518170E060E0A9C08C3309F496
:102570006FC0A0F4813209F49AC0823349F6F601A3
:10258000258130E0D7011B96ED91FC91408151816E
:1025900062817381C8010E94ED10BACF8F3308F0B9
:1025A000B7CFF70163857485C8010E94CC11B0CF05
:1025B000893D09F4FCC020F5803D09F4E2C080F4B7
:1025C000863409F488C0893C09F0A2CFD7011B9654
:1025D000ED91FC91309709F49BCF0995682F79C054
:1025E000813D09F4DAC0883D09F092CFD7011B96EE
:1025F000ED91FC91309709F48BCF0995BC0139C05E
:10260000803F09F4E9C088F4883E09F4DAC0893EC5
:1026100009F07ECFD7011B96ED91FC91309709F41C
:1026200077CF0995AB01BC014AC08B3F09F49FC02D
:102630008C3F09F49CC08A3F09F06ACFD7011B96F2
:10264000ED91FC91309709F463CF0995682F05C08F
:10265000D7011B96ED91FC916081C8010E94860113
:1026600057CFD7011B96ED91FC916081062E000C8F
:10267000770BC8010E94D4104BCFD7011B96ED9168
:10268000FC91408150E06FCFD7011B96ED91FC91FA
:1026900060817181EECFD7011B96ED91FC91408155
:1026A000518162817381C8010E94A21031CFD7018C
:1026B0001B96ED91FC9140815181628173812AE0EA
:1026C000C8010E94561024CFD7011B96ED91FC91B2
:1026D000608170E0CECFF701A385B485F8018081D9
:1026E0009181FC01208131816C91C801F90109952A
:1026F0000FCF2DB73EB738872F83D7011B966D902C
:102700007C90C3010E94DC1F9A83898389819A810E
:10271000EDB7FEB7E81BF90B0FB6F894FEBF0FBE7E
:10272000EDBF6DB77EB76F5F7F4F20E0822F90E0E7
:1027300049815A818417950754F4F301E80FF91F72
:10274000E491860F971FDC01EC932F5FEFCFE981B7
:10275000FA81E60FF71F1082C8010E94CC11EF81A9
:10276000F8850FB6F894FEBF0FBEEDBFD1CED701EE
:102770001B96ED91FC91309709F4CACE0995BC01E6
:1027800013CFD7011B96ED91FC91309709F4C0CE81
:102790000995682F880F770B6CCFD7011B96ED91A9
:1027A000FC91309709F4B4CE0995482F6BCFD7012F
:1027B0001B96ED91FC91309709F4AACE0995AC01D6
:1027C000D2CED7011B96ED91FC91309709F4A0CEA3
:1027D0000995AB01BC0167CFD7011B96ED91FC9128
:1027E000309709F495CE0995AB01BC0122E030E0A9
:1027F000D1CEF601618161504081C8010E9407106D
:10280000D801ED91FC910190F081E02D6EE0C801BE
:10281000099553943BCEF60142816381C8010E9421
:102820000710D801ED91FC910190F081E02D6DE051
:10283000EECF21E0F601248381CE0FB6F8943EBEA0
:102840000FBE2DBE2A960FB6F894DEBF0FBECDBFC9
:10285000DF91CF911F910F91FF90EF90DF90CF907C
:10286000BF90AF909F908F907F906F905F904F90B0
:102870003F902F900895CF93CFEFC80F80917B06A4
:102880008C1768F080916506909166060E9438105A
:10289000C0937C060E94D41181E0CF91089580E01E
:1028A000FCCF81E00E943B1480910801E0917C06FE
:1028B000F0E0EE0FFF1FE959F94FA081B1811A96A0
:1028C0009C911A97891770F4E82FF0E0EE0FFF1F24
:1028D000EA0FFB1F0190F081E02D9189992311F0FF
:1028E0001B968C9364E670E080E090E00C944601C7
:1028F000E0917C06F0E0EE0FFF1FE959F94F0190DF
:10290000F081E02D8385809308010E94720E44E0DF
:1029100050E060E071E08CEF96E00E94632282E07C
:102920000E943B1464E670E080E090E00C94460165
:10293000E0917C06F0E0EE0FFF1FE959F94F01909E
:10294000F081E02D83858093080144E050E060E051
:1029500071E08CEF96E00E94632283E00E943B14BA
:10296000E0917C06F0E0EE0FFF1FE959F94F01906E
:10297000F081E02D8285882331F0A081B1815196CC
:102980008C918111138664E670E080E090E00C94F5
:10299000460185ED8093BC0080911D0590911E0538
:1029A000A0911F05B09120050796A11DB11D23E040
:1029B000B695A795979587952A95D1F72091BC0054
:1029C00024FD03C010921B05089540911D055091F0
:1029D0001E0560911F0570912005452B462B472B46
:1029E00069F30097A105B10541F025E32A95F1F7B8
:1029F00000000197A109B109E1CF80911C050C9459
:102A00000E0B1F920F920FB60F9211242F933F932C
:102A10008F939F93AF93BF938091C5029091C6020D
:102A2000A091C702B091C8023091C40223E0230FE5
:102A30002D3758F50196A11DB11D2093C402809336
:102A4000C5029093C602A093C702B093C8028091BA
:102A5000C9029091CA02A091CB02B091CC0201961A
:102A6000A11DB11D8093C9029093CA02A093CB020D
:102A7000B093CC02BF91AF919F918F913F912F91D5
:102A80000F900FBE0F901F90189526E8230F029607
:102A9000A11DB11DD2CF1F920F920FB60F9211241C
:102AA0002F933F934F935F936F937F938F939F9356
:102AB000AF93BF93EF93FF93E0912801F091290129
:102AC0000995FF91EF91BF91AF919F918F917F9168
:102AD0006F915F914F913F912F910F900FBE0F908B
:102AE0001F9018951F920F920FB60F9211242F93DB
:102AF0003F934F935F936F937F938F939F93AF9386
:102B0000BF93EF93FF93E0912601F0912701099580
:102B1000FF91EF91BF91AF919F918F917F916F91B5
:102B20005F914F913F912F910F900FBE0F901F908B
:102B300018951F920F920FB60F9211242F933F9367
:102B40004F935F936F937F938F939F93AF93BF93B5
:102B5000EF93FF9385E495E00E940B02FF91EF91C4
:102B6000BF91AF919F918F917F916F915F914F91A5
:102B70003F912F910F900FBE0F901F9018951F92AD
:102B80000F920FB60F9211242F938F939F93EF9371
:102B9000FF93E0915505F09156058081E0915B052A
:102BA000F0915C0582FD1BC0908180915E058F5F76
:102BB0008F7320915F05821741F0E0915E05F0E090
:102BC000EB5BFA4F958F80935E05FF91EF919F919C
:102BD0008F912F910F900FBE0F901F9018958081AD
:102BE000F4CF1F920F920FB60F9211242F933F93A1
:102BF0004F935F936F937F938F939F93AF93BF9305
:102C0000EF93FF938091B900887F803609F44AC022
:102C1000F0F5883209F4A7C018F5803109F49BC09B
:102C2000B8F4882309F4F9C0883009F494C0FF91FE
:102C3000EF91BF91AF919F918F917F916F915F9134
:102C40004F913F912F910F900FBE0F901F901895AD
:102C5000883109F488C0803251F78093190514C077
:102C6000803409F49DC040F48033B9F38833F9F619
:102C70008093190585ECB0C0803509F485C088358E
:102C800009F496C0883499F60E94C914D0CF8839C7
:102C900009F48CC038F5883729F050F4883611F0E3
:102CA000803729F683E080931B051092BB0257C042
:102CB000883809F47BC0803919F0803809F0B7CF23
:102CC0008091BB02803208F071C0E091BB0281E0CC
:102CD0008E0F8093BB028091BB00F0E0E556FD4F64
:102CE00080833DC0803B39F0E0F4803A09F479C03C
:102CF000883A09F09CCF84E080931B0510929A02D9
:102D000010929902E091F104F091F20409958091FA
:102D1000990281110FC081E080939902109279028B
:102D200009C0803C09F4A6CF883C09F4A3CF883BB6
:102D300009F07DCFE0919A0281E08E0F80939A0294
:102D4000F0E0E758FD4F80818093BB0090919A029C
:102D50008091990229C08091F6048093BB0085EC94
:102D60008093BC0064CF9091180580911705981747
:102D700058F5E091180581E08E0F80931805F0E07A
:102D8000E950FB4F8081E9CFE091180581E08E0F7B
:102D9000809318058091BB00F0E0E950FB4F8083E1
:102DA00090911805809117059817C8F285E8D8CF3B
:102DB000E091180581E08E0F809318058091BB008B
:102DC000F0E0E950FB4F808380911A0581115CCFC0
:102DD00081E08093F50484EA8093BC0010921B0587
:102DE00026CF85EC8093BC0010921B058091BB021E
:102DF000803230F4E091BB02F0E0E556FD4F1082E6
:102E00006091BB0270E0E091EF04F091F0048BE977
:102E100092E009951092BB020ACF1092190534CFA7
:102E2000FC0196819230A8F4292F30E0D901AA0F35
:102E3000BB1FAE0FBF1F1C967C936E931B972E0F6C
:102E40003F1F81E1D9011F968C939F5F968381E09C
:102E5000089580E00895FC0196819230A8F4292F0E
:102E600030E0D901AA0FBB1FAE0FBF1F1C967C9389
:102E70006E931B972E0F3F1F8EE3D9011F968C93E5
:102E80009F5F968381E0089580E00895FC01408370
:102E90006183415042836150638381E0848382E097
:102EA00085831682118A14861386178616861586E0
:102EB000108A108617821286118608950F931F9329
:102EC000CF93DF93EC0189010E944617B801CE0130
:102ED000DF91CF911F910F910C942B17CF93DF931C
:102EE000109248051092470588EE93E0A0E0B0E00C
:102EF0008093490590934A05A0934B05B0934C05E8
:102F000026E331E0309346052093450525EC30E07B
:102F1000309352052093510524EC30E03093540552
:102F20002093530520EC30E030935605209355054F
:102F300021EC30E0309358052093570522EC30E027
:102F400030935A052093590526EC30E030935C0508
:102F500020935B0510925E0510925F05109260054C
:102F60001092610520E52093E2051092E30510928E
:102F7000E9051092EA051092ED051092EF0542E086
:102F800050E060E070E04093F0055093F1056093ED
:102F9000F2057093F3051092070610921106109235
:102FA000100628E431E030930F0620930E061092AD
:102FB00013061092400610923F06809341069093AC
:102FC0004206A0934306B093440684E591E09093B3
:102FD0003E0680933D0610920F0810920E0886E67A
:102FE00091E090930D0880930C0887E2809310087D
:102FF00080E18093150882E08093160810921708EC
:10300000109208081092090810920B081092FA0703
:103010001092FB071092FD071092EC071092ED073B
:103020001092EF071092DE071092DF071092E1076F
:103030001092D0071092D1071092D3071092C207B6
:103040001092C3071092C5071092B4071092B507EB
:103050001092B7072DE731E040E061E088E997E0A2
:103060000E945E1729E831E041E061E086E897E0E0
:103070000E945E1726E931E040E061E084E797E0D6
:103080000E945E1722EA31E041E061E082E697E0CB
:103090000E945E172FEA31E040E060E080E597E0B3
:1030A0000E945E1740E062E08EE397E00E944617C0
:1030B0006CE377E08EE397E00E94101762EB71E01B
:1030C0008EE397E00E942B176AE377E08EE397E0A8
:1030D0000E94101764EB71E08EE397E00E942B17BB
:1030E00026EB31E040E068E088E297E00E945E175E
:1030F00040E06AE086E197E00E94461764E177E0ED
:1031000086E197E00E94101762EB71E086E197E09C
:103110000E942B1762E177E086E197E00E9410178A
:1031200069EB71E086E197E00E942B172BEB31E011
:1031300041E060E080E097E00E945E178091060722
:10314000823098F4282F30E0F901EE0FFF1FE05095
:10315000F94F4CEF56E0548743872050394F9DE399
:10316000F90197878F5F8093060727EC31E040E0F5
:1031700061E08AEE96E00E945E1726ED31E041E0C4
:1031800061E088ED96E00E945E178091DE06823055
:1031900098F4282F30E0F901EE0FFF1FE852F94FA5
:1031A0004CEF56E0548743872852394F9DE3F9018D
:1031B00097878F5F8093DE0622EE31E041E061E089
:1031C00086EC96E00E945E176AE377E086EC96E074
:1031D0000E94101764EB71E086EC96E00E942B17BA
:1031E0002FEE31E040E061E084EB96E00E945E1754
:1031F00041E061E082EA96E00E9446178091A806CD
:10320000823098F4282F30E0F901EE0FFF1FEE55C1
:10321000F94F4CEF56E0548743872E55394F9DE3C5
:10322000F90197878F5F8093A80622EE31E040E096
:1032300061E080E996E00E945E1741E061E08EE780
:1032400096E00E9446176AE377E08EE796E00E94D8
:1032500010178CE098E090936606809365061092B4
:103260007C0610927D068EEF97E09093680680931F
:10327000670681E080937B068DE396E090934A0693
:103280008093490610924B0610924C0610924D0600
:1032900010924E0610924F06109250061092510650
:1032A0001092520610925306109261061092600618
:1032B00010925F0610925E06109254061092550608
:1032C0001092560610925706109258061092590600
:1032D00010925A0610925B0610925C0610925D06E0
:1032E00010926306109262061092640662E082E019
:1032F0000E94E50062E083E00E94E500E0EBF0E080
:10330000E491F0E0EE0FFF1FEC55FF4FA591B49153
:10331000B0933206A0933106E2E9F0E04491409385
:103320003506E1EBF0E0E491F0E0EE0FFF1FEC5525
:10333000FF4FC591D491D0933406C0933306E3E98F
:10334000F0E0E491E09336061092380610923906C8
:1033500010923A0610923B062BE33FE1C901019718
:10336000F1F79C91842F892391E009F490E0888102
:10337000E82309F0926021E336E09093370630931A
:103380002E0620932D0689ED9DE0909327018093D2
:103390002601809169008C7F816080936900E89AA2
:1033A00081E080933C063093300620932F068FED0A
:1033B0009DE0909329018093280180916900837F8B
:1033C000846080936900E99A82E080933C06DF91F3
:1033D000CF910895CF93DF9300D000D0CDB7DEB763
:1033E000789484B5826084BD84B5816084BD85B5E0
:1033F000826085BD85B5816085BD80916E008160EC
:1034000080936E0010928100809181008260809391
:103410008100809181008160809381008091800093
:103420008160809380008091B10084608093B100BE
:103430008091B00081608093B00080917A008460B8
:1034400080937A0080917A00826080937A008091E4
:103450007A00816080937A0080917A0080688093FE
:103460007A001092C10060E086E00E94E5000E94B0
:10347000F70A1092110880911608823018F098E02F
:10348000909311088093140862E370E080E090E06C
:103490000E944601609117088CE098E00E94FB0DA5
:1034A00068EE73E080E090E00E94460160E38CE00B
:1034B00098E00E94AE0F0BE416E4C8010197F1F703
:1034C00060E38CE098E00E94AE0FC8010197F1F72D
:1034D00060E38CE098E00E94AE0F83E592E00197F4
:1034E000F1F760E28CE098E00E94AE0F6091110865
:1034F000606240E08CE098E00E94C70F84E0809317
:10350000120840E06CE08CE098E00E94C70F8CE06D
:1035100098E00E94381082E08093130840E066E053
:103520008CE098E00E94C70F40E062E08CE098E0F9
:103530000E94C70F8BE39FE10197F1F788E080932A
:10354000170860E08CE098E00E94FB0D40E060E02E
:103550008CE098E00E9407108AEF91E00E94DA1058
:1035600041E060E08CE098E00E9407108AE092E081
:103570000E94DA1064EF71E080E090E00E94460162
:103580008CE098E00E94381040E060E08CE098E029
:103590000E94071087E192E00E94DA1041E060E0AB
:1035A0008CE098E00E94071085E292E00E94DA1019
:1035B00064EF71E080E090E00E9446018CE098E0CA
:1035C0000E9438100E94F70A01E00093210518E6D6
:1035D00010934305109222051092440581E00E9449
:1035E0002F0B40E060E08CE098E00E9407108FE233
:1035F00092E00E94DA1041E060E08CE098E00E94E6
:103600000710009321051093430510922205109294
:10361000440560E08DE396E00E94680D81E00E9421
:103620002F0B61E088E60E94420C1092F404809314
:10363000F3048DE396E00E94210D87FFB1C087E37C
:1036400092E00E94DA1064EF71E080E090E00E9466
:1036500046018CE098E00E94381040E060E08CE089
:1036600098E00E94071064E572E08CE098E00E9408
:10367000CC1141E060E08CE098E00E94071080915E
:103680001306882341F061E08EE096E00E949A08DC
:103690008111109213061092EF051092ED05109211
:1036A000EA051092E90584E08093E8050E9478011C
:1036B0008B0161E08091E8050E94E50061E0809166
:1036C000E8050E94B700FFB6F8948091C30281110B
:1036D00027C0E8EBF0E08491EAE9F0E09491E82F6C
:1036E000F0E0EE0FFF1FE859FF4FA591B491EC9168
:1036F000E92321F461E08AE00E94B70061E08AE0FA
:103700000E94E5008CB580618CBD8CB580648CBD59
:1037100061E08DE00E94E50061E08BE00E94E50041
:103720008091C3028F5F8093C302FFBE82E58093C6
:10373000E2051092E3058091E2059091E3050E9475
:10374000D0022AE0F22E8FEF0E94AB02FA94F11021
:10375000FACF84EE95E00E94D30220E030E0A90188
:1037600060E084EE95E00E94E902F82E8093EE0579
:1037700021E08217C1F00E947801601B710B613D4E
:10378000774058F381E08093E90584EE95E00E944C
:10379000A00263E672E08CE098E00E94CC11C6C003
:1037A0008AE492E04ECF2AEA31E040E050E068E05F
:1037B00084EE95E00E94E90282FF2AC0F092EF05B4
:1037C0008091EF05C12CD12C7601823029F4C12CD7
:1037D000D12CE12C80E4F82E20E030E0A90167E351
:1037E00084EE95E00E94E902A701960169E284EE69
:1037F00095E00E94E9028093EE058823D1F00E94B3
:103800007801601B710B613D774030F388E0BBCFDE
:1038100094E0F92E0E94B2028093EE05FA94F11022
:10382000F9CF8A3A11F082E0AECF82E08093EF05C3
:10383000C7CF8091EF058230D1F420E030E0A901BC
:103840006AE384EE95E00E94E902882311F086E0A5
:103850009ACF0E94B202807C803C19F483E080936E
:10386000EF050E94B2020E94B2020E94B20284EEF0
:1038700095E00E94A00280E58093E2051092E305A6
:1038800081E00E94BA04882309F4DBC0809113060A
:1038900081117FCF80910706803109F0D9C082E085
:1038A0008093130610922506109226061092270682
:1038B000109228068091080690910906B0E0A0E0D9
:1038C00015E0880F991FAA1FBB1F1A95D1F7809387
:1038D000210690932206A0932306B093240680EF3E
:1038E00095E090932A068093290681E08093120642
:1038F00010921406109215061092160610921706D2
:10390000109218061092190610921A0610921B06B1
:1039100010921C0610921D0610921E0610921F0691
:103920001092200689E592E00E94DA1064EF71E0BF
:1039300080E090E00E9446018CE098E00E94381000
:103940000E94F70A8EEF0E941F0C40E060E08CE0BE
:1039500098E00E94071060E772E08CE098E00E9417
:10396000CC1141E060E08CE098E00E94071081E01B
:103970008093210580E480934305109222051092E4
:10398000440581E00E942F0B882309F410C384E8CA
:103990008093630663E672E08CE098E00E94CC11AD
:1039A00064EF71E080E090E00E9446018CE098E0D6
:1039B0000E94381068E977E08EEF97E00E94E50DED
:1039C00066E877E08EEF97E00E94E50D64E777E028
:1039D0008EEF97E00E94E50D62E677E08EEF97E0CC
:1039E0000E94E50D88E794E19093A00780939F07DC
:1039F00081E08093A90728E934E130938E07209372
:103A00008D078093970724E831E030937C0720935B
:103A10007B078093850730936A072093690780931B
:103A2000730720910808AEEFB7E080E092E0281716
:103A300009F46EC0ED91FD919483138212828F5F21
:103A4000F6CF80E00E94BA04882309F4A2CE1ECFEC
:103A5000803209F09ECE83E08093130680910A069F
:103A600090910B06A0910C06B0910D06809325064F
:103A700090932606A0932706B093280689839A83FD
:103A8000AB83BC83C12CD12C7601812CB2E09B2E60
:103A9000A12CB12C49815A816B817C819E012F5FC1
:103AA0003F4F80EF95E00E948506882309F471CE90
:103AB0008091FD05A501940104C0220F331F441F0E
:103AC000551F8A95D2F7DA01C901C80ED91EEA1E20
:103AD000FB1E49815A816B817C8180910706803170
:103AE00091F488EF9FEFA0E0B0E0481759076A070C
:103AF0007B0780F2C0922106D0922206E092230634
:103B0000F0922406ECCE88EF9FEFAFEFBFE0EDCF51
:103B100082E080930A0860E577E080EF97E00E94FA
:103B2000E50D6EE377E080EF97E00E94E50D68E237
:103B300077E080EF97E00E94E50D66E177E080EFA7
:103B400097E00E94E50D60E077E080EF97E00E944B
:103B5000E50D80917B068A3068F4E82FF0E0EE0FE7
:103B6000FF1FE959F94F20EF37E0318320838F5F42
:103B700080937B066AEE76E082EE97E00E94E50D88
:103B800068ED76E082EE97E00E94E50D66EC76E067
:103B900082EE97E00E94E50D81E594E19093F206B4
:103BA0008093F10681E08093FB0624E831E03093B6
:103BB000E0062093DF068093E9063093CE0620933B
:103BC000CD068093D7062091EC07A2EEB7E080E007
:103BD00092E0281739F0ED91FD91948313821282BF
:103BE0008F5FF7CF82E08093EE0780917B068A306B
:103BF00068F4E82FF0E0EE0FFF1FE959F94F22EECD
:103C000037E0318320838F5F80937B066AEE76E016
:103C100086EC97E00E94E50D68ED76E086EC97E093
:103C20000E94E50D84E891E09093E0068093DF0622
:103C300021E02093E9069093E2068093E1068091CB
:103C40007B068A3068F4E82FF0E0EE0FFF1FE95999
:103C5000F94F26EC37E0318320838F5F80937B061A
:103C60004DE151E06FE080916506909166060E94FB
:103C7000DE0F45E151E06EE08091650690916606A9
:103C80000E94DE0F4DE051E06DE08091650690915D
:103C900066060E94DE0FE0917C06F0E0EE0FFF1F4B
:103CA000E959F94F0190F081E02D8285882331F0A8
:103CB000A081B18151968C91811113860E94D411FB
:103CC00080913C06823008F07BC0F89481E396E056
:103CD0000E94970D8091380690913906A0913A067E
:103CE000B0913B0678948093090190930A01A093C8
:103CF0000B01B0930C0102E810E026E9E22E20E06F
:103D0000F22E34EBC32E30E0D32E40E0A42E40E060
:103D1000B42EF8018491F7019490F60184908110FB
:103D200051C0E0917C06F0E0EE0FFF1FE959F94F1A
:103D30000190F081E02D838592858913DEC080910A
:103D40006506909166060E94381090917C068091DD
:103D50007D06E82FF0E0EE0FFF1FE959F94F0190C3
:103D6000F081E02D25852111E2C080937C0690939F
:103D70007D060E94D41180910801E0917C06F0E05C
:103D8000EE0FFF1FE959F94FA081B1811A969C915E
:103D90001A97891770F4E82FF0E0EE0FFF1FEA0F73
:103DA000FB1F0190F081E02D9189992311F01B9662
:103DB0008C9364E670E080E090E00E944601AEC023
:103DC000F89488CF81110E948E00E82DF0E0EE0F6C
:103DD000FF1FEC55FF4FA591B4918C91982209F4E7
:103DE000A0CF80917C06813029F40E94720E81114F
:103DF0000E94D411E0917C06F0E0EE0FFF1FE9591C
:103E0000F94F0190F081E02D83859285891709F49F
:103E100068C090E0880F991FE80FF91F0190F081AA
:103E2000E02D87819085892B09F45BC080913C0649
:103E3000823008F080C0F89481E396E00E94970DEC
:103E4000409038065090390660903A0670903B06D4
:103E500078944091090150910A0160910B01709191
:103E60000C014415550566057705D9F18091650665
:103E70009091660644155505660577050CF070C0EF
:103E80000E943810E0917C06F0E0EE0FFF1FE95928
:103E9000F94FA081B1811A968C911A978150990B94
:103EA0001B962C911B97281719060CF046C02F5F04
:103EB0001B962C931B972817190609F041C00E94E6
:103EC000D4110E94D4114092090150920A016092CB
:103ED0000B0170920C016CE271E080E090E00E94B6
:103EE0004601A114B10409F414CF0E94F7018823FC
:103EF00009F40FCF0E9400000CCF90E0880F991FAB
:103F0000E80FF91F0190F081E02D0780F085E02D8A
:103F1000309709F414CF09950E94D4110E94D4114E
:103F200064E670E080E090E00E9446015ACF292FBD
:103F3000982F822F0ECFF89483CF1B961C921B973D
:103F40001B96EC911B97F0E0EE0FFF1FEA0FFB1F93
:103F50000190F081E02D2189222309F4A1CFAFCF78
:103F60000E943810E0917C06F0E0EE0FFF1FE95947
:103F7000F94FA081B1811B96EC911B97E11107C00D
:103F80001A968C911A9781501B968C9398CFE1507A
:103F90001B96EC931B97F0E0EE0FFF1FEA0FFB1F41
:103FA0000190F081E02D8189882329F388CF89E56C
:103FB00092E00E94DA10F4CCFC0105900020E9F7B1
:103FC000809590958E0F9F1F0895A1E21A2EAA1B2F
:103FD000BB1BFD010DC0AA1FBB1FEE1FFF1FA217B9
:103FE000B307E407F50720F0A21BB30BE40BF50BB6
:103FF000661F771F881F991F1A9469F7609570953F
:10400000809590959B01AC01BD01CF0108950E9460
:104010001220A59F900DB49F900DA49F800D911D1F
:1040200011240895A29FB001B39FC001A39F700DFA
:10403000811D1124911DB29F700D811D1124911DB0
:104040000895EE0FFF1F0590F491E02D099450584C
:10405000BB27AA270E943F200C94B2210E94A421D2
:1040600038F00E94AB2120F039F49F3F19F426F478
:104070000C94A1210EF4E095E7FB0C949B21E92F11
:104080000E94C32158F3BA17620773078407950784
:1040900020F079F4A6F50C94E5210EF4E0950B2EB2
:1040A000BA2FA02D0B01B90190010C01CA01A0018A
:1040B0001124FF27591B99F0593F50F4503E68F1E5
:1040C0001A16F040A22F232F342F4427585FF3CF26
:1040D000469537952795A795F0405395C9F77EF4F7
:1040E0001F16BA0B620B730B840BBAF09150A1F040
:1040F000FF0FBB1F661F771F881FC2F70EC0BA0FC6
:10410000621F731F841F48F4879577956795B7954D
:10411000F7959E3F08F0B0CF9395880F08F0992748
:10412000EE0F9795879508950E94772108F481E016
:1041300008950E94AD200C94B2210E94AB2158F04A
:104140000E94A42140F029F45F3F29F00C949B21A8
:1041500051110C94E6210C94A1210E94C32168F313
:104160009923B1F3552391F3951B550BBB27AA2730
:1041700062177307840738F09F5F5F4F220F331F6A
:10418000441FAA1FA9F335D00E2E3AF0E0E832D032
:1041900091505040E695001CCAF72BD0FE2F29D035
:1041A000660F771F881FBB1F261737074807AB0707
:1041B000B0E809F0BB0B802DBF01FF2793585F4F7C
:1041C0003AF09E3F510578F00C949B210C94E62127
:1041D0005F3FE4F3983ED4F3869577956795B7955E
:1041E000F7959F5FC9F7880F911D9695879597F969
:1041F0000895E1E0660F771F881FBB1F62177307E2
:104200008407BA0720F0621B730B840BBA0BEE1FF6
:1042100088F7E09508950E94CB2188F09F5798F089
:10422000B92F9927B751B0F0E1F0660F771F881FBB
:10423000991F1AF0BA95C9F714C0B13091F00E94D5
:10424000E521B1E008950C94E521672F782F8827A8
:10425000B85F39F0B93FCCF3869577956795B395FC
:10426000D9F73EF490958095709561957F4F8F4F6B
:104270009F4F0895E89409C097FB3EF49095809570
:10428000709561957F4F8F4F9F4F9923A9F0F92F1C
:1042900096E9BB279395F695879577956795B7959A
:1042A000F111F8CFFAF4BB0F11F460FF1BC06F5F80
:1042B0007F4F8F4F9F4F16C0882311F096E911C092
:1042C000772321F09EE8872F762F05C0662371F0B3
:1042D00096E8862F70E060E02AF09A95660F771FC7
:1042E000881FDAF7880F9695879597F90895990FA3
:1042F0000008550FAA0BE0E8FEEF16161706E807B0
:10430000F907C0F012161306E407F50798F0621BD0
:10431000730B840B950B39F40A2661F0232B242BA5
:10432000252B21F408950A2609F4A140A6958FEFC4
:10433000811D811D089597F99F6780E870E060E016
:1043400008959FEF80EC089500240A94161617062E
:1043500018060906089500240A9412161306140676
:1043600005060895092E0394000C11F4882352F0D9
:10437000BB0F40F4BF2B11F460FF04C06F5F7F4F91
:104380008F4F9F4F089557FD9058440F551F59F078
:104390005F3F71F04795880F97FB991F61F09F3F32
:1043A00079F087950895121613061406551FF2CF5B
:1043B0004695F1DF08C0161617061806991FF1CFAB
:1043C00086957105610508940895E894BB276627D2
:1043D0007727CB0197F908950E94772108F48FEF92
:1043E00008950E9404220C94B2210E94A42138F066
:1043F0000E94AB2120F0952311F00C949B210C948A
:10440000A12111240C94E6210E94C32170F3959FF1
:10441000C1F3950F50E0551F629FF001729FBB27BB
:10442000F00DB11D639FAA27F00DB11DAA1F649F57
:104430006627B00DA11D661F829F2227B00DA11D0A
:10444000621F739FB00DA11D621F839FA00D611D90
:10445000221F749F3327A00D611D231F849F600DB1
:10446000211D822F762F6A2F11249F5750409AF0DA
:10447000F1F088234AF0EE0FFF1FBB1F661F771F66
:10448000881F91505040A9F79E3F510580F00C9431
:104490009B210C94E6215F3FE4F3983ED4F386958C
:1044A00077956795B795F795E7959F5FC1F7FE2BD1
:1044B000880F911D9695879597F908950E94772109
:1044C000880B990B0895FB01DC014150504048F0E6
:1044D00001900D920020C9F701C01D92415050403B
:0844E000E0F70895F894FFCF06
:1044E80044657300FFFFFFFF0119FCFFFF00000E8A
:1044F8000E0E0000000004021F0204000000040861
:104508001F08040000018501850100004000140017
:104518005400000000002D028D01BA017A02EB015F
:10452800C901DD01000000003D098D01DC080F0E06
:1045380000000000680D3B0D100E110D340D210D0B
:10454800120D0000000041108D01100E0F0E0D0A13
:10455800006E616E00696E66006F7666004D6F6E64
:1045680069746F72697A617200436F6E74726F6CEE
:104578002054656D7000436F6E74726F6C204C75BB
:104588007A00477261626172204461746F730054EB
:104598003A002F00DF00483A0025004374726C543B
:1045A800656D703A2020004D656E75205072696EF9
:1045B800636970616C004374726C2054656D703A65
:1045C800200054656D70657261747572613A0043BC
:1045D80074726C2054656D703A00556E6976657218
:1045E80073696461642064656C0020202020506138
:1045F80063696669636F002020496E7665726E6133
:104608006465726F00202020202076302E31005201
:10461800656C6F6A3A20004572726F722E20496E7F
:1046280069636961722053696E00456E63656E64E3
:1046380069646F0053443A2000436F6E6563746188
:10464800646F004E6F20636F6E65637461646F0002
:0846580053687432313A20006E
:00000001FF
