:100000000C9462000C9462120C943B120C948A00C3
:100010000C948A000C948A000C948A000C948A0038
:100020000C948A000C948A000C948A000C948A0028
:100030000C948A000C948A000C948A000C948A0018
:100040000C94F1110C948A000C94AF120C94891248
:100050000C948A000C948A000C948A000C948A00F8
:100060000C94E1120C948A00000000002400270088
:100070002A0000000000250028002B0000000008D6
:10008000000201000003040700000000000000005F
:10009000010204081020408001020408102001021F
:1000A000040810200000000023002600290004049A
:1000B0000404040404040202020202020303030310
:1000C00003032D1411241FBECFEFD8E0DEBFCDBF38
:1000D00027E0A6E2B2E001C01D92A63BB207E1F71D
:1000E00012E0A0E0B1E0E0E9FCE302C005900D926F
:1000F000A632B107D9F710E0C2E6D0E004C02197DC
:10010000FE010E94041CC136D107C9F70E94C61522
:100110000C94461E0C940000833081F028F481304A
:1001200099F08230A9F008958730A9F08830C9F09D
:100130008430B1F4809180008F7D03C08091800075
:100140008F7780938000089584B58F7784BD08955C
:1001500084B58F7DFBCF8091B0008F778093B00006
:1001600008958091B0008F7DF9CF1F93CF93DF93D7
:10017000282F30E0F901E458FF4F8491F901E0574E
:10018000FF4FD491F901E255FF4FC491CC23A9F060
:10019000162F81110E948C00EC2FF0E0EE0FFF1F54
:1001A000EE58FF4FA591B4918FB7F894EC911111CF
:1001B00008C0D095DE23DC938FBFDF91CF911F91D4
:1001C0000895DE2BF8CFCF93DF9390E0FC01E0574A
:1001D000FF4F249182559F4FFC0184918823C9F0E1
:1001E00090E0880F991FFC01E859FF4FA591B49149
:1001F000FC01EE58FF4FC591D49161110DC09FB71E
:10020000F8948C91209582238C93888128232883CD
:100210009FBFDF91CF910895623051F49FB7F8945A
:100220003C91822F809583238C93E8812E2BEFCFF6
:100230008FB7F894EC912E2B2C938FBFEACF3FB75A
:10024000F89480919E0290919F02A091A002B0919B
:10025000A10226B5A89B05C02F3F19F00196A11D4C
:10026000B11D3FBFBA2FA92F982F8827BC01CD0100
:10027000620F711D811D911D42E0660F771F881F5F
:10028000991F4A95D1F708958F929F92AF92BF928E
:10029000CF92DF92EF92FF924B015C010E941F010F
:1002A0006B017C010E941F016C197D098E099F0959
:1002B000683E734081059105A8F321E0821A9108F8
:1002C000A108B10888EEC80E83E0D81EE11CF11C1D
:1002D00081149104A104B10429F7FF90EF90DF90FD
:1002E000CF90BF90AF909F908F9008952FB7F894C4
:1002F00060919A0270919B0280919C0290919D0264
:100300002FBF08950895089508950895DC01ED9193
:10031000FC910190F081E02D0994AF92BF92CF92B1
:10032000DF92EF92FF920F931F93CF93DF936C01B5
:100330007B018B01040F151FEB015E01AE18BF0896
:10034000C017D10759F06991D601ED91FC91019048
:10035000F081E02DC6010995892B79F7C501DF9160
:10036000CF911F910F91FF90EF90DF90CF90BF90B2
:10037000AF900895FC01538D448D252F30E0842FDC
:1003800090E0821B930B541710F0CF9608950197BD
:100390000895FC01918D828D981761F0A28DAE0FAA
:1003A000BF2FB11D5D968C91928D9F5F9F73928F31
:1003B00090E008958FEF9FEF0895FC01918D828D5D
:1003C000981731F0828DE80FF11D858D90E008952A
:1003D0008FEF9FEF0895FC01918D228D892F90E082
:1003E000805C9F4F821B91098F739927089584EF3A
:1003F00094E00E94EB0121E0892B09F420E0822F98
:10040000089580E090E0892B29F00E94F701811186
:100410000C9400000895FC01A48DA80FB92FB11D04
:10042000A35ABF4F2C91848D90E001968F7399272A
:10043000848FA689B7892C93A089B1898C91837008
:1004400080648C93938D848D981306C00288F38901
:10045000E02D80818F7D80830895EF92FF920F932E
:100460001F93CF93DF93EC0181E0888F9B8D8C8D60
:1004700098131AC0E889F989808185FF15C09FB754
:10048000F894EE89FF896083E889F9898081837017
:10049000806480839FBF81E090E0DF91CF911F91C6
:1004A0000F91FF90EF900895F62E0B8D10E00F5FE7
:1004B0001F4F0F731127E02E8C8D8E110CC00FB6BD
:1004C00007FCFACFE889F989808185FFF5CFCE0155
:1004D0000E940B02F1CFEB8DEC0FFD2FF11DE35AC3
:1004E000FF4FF0829FB7F8940B8FEA89FB898081D8
:1004F0008062CFCFCF93DF93EC01888D8823B9F052
:10050000AA89BB89E889F9898C9185FD03C080811E
:1005100086FD0DC00FB607FCF7CF8C9185FFF2CF9B
:10052000808185FFEDCFCE010E940B02E9CFDF91E4
:10053000CF9108958FB7F89480916B028FBF089583
:1005400061E0FC0184810E94B50080916A02811102
:1005500010926A0208958EBD00000DB407FEFDCF13
:100560008EB508958FEF0C94AB020F931F93CF932A
:10057000DF93EC010E9476018B010E94B2028F3F53
:1005800069F00E947601601B710B6C177D07A8F360
:1005900080E0DF91CF911F910F91089581E0F9CF15
:1005A0008CBD9DBD0895CF93DF93EC0180916A02CD
:1005B000811109C081E080936A0280919105909138
:1005C00092050E94D00260E08C81DF91CF910C9463
:1005D000B5008F929F92AF92BF92FF920F931F939D
:1005E000CF93DF93EC01F62E49015A018E818823C7
:1005F00089F08F8198859C012F5F3F4F38872F832B
:100600008230924018F40E94B202F3CFCE010E94D1
:10061000A0021E82CE010E94D3028CE291E00E94D1
:10062000B5028F2D80640E94AB0208E110E0D50175
:10063000C401002E04C0B695A795979587950A9496
:10064000D2F70E94AB0208501109083F8FEF18073C
:1006500071F785E9FF2021F028E087E8F2128FEF9B
:100660000E94AB0210E00E94B2028A8787FF04C09A
:100670001F3F11F01F5FF7CFDF91CF911F910F91B7
:10068000FF90BF90AF909F908F900895CF92DF9290
:10069000EF92FF920F93CF93DF93EC01690182E118
:1006A000411551056105710599F08B85833039F04D
:1006B00089E0440F551F661F771F8A95D1F79A016D
:1006C000AB0168E1CE010E94E902882319F084E0C1
:1006D0008D832DC08EEF0E94AB0276018EEFD81A6B
:1006E000F70181917F010E94AB02EC14FD04C1F778
:1006F0008FEF0E94AB028FEF0E94AB020E94B2020A
:100700008A878F71853071F4011116C0CE010E9465
:10071000A00281E0DF91CF910F91FF90EF90DF90E9
:10072000CF90089581E18D83CE010E94A002CE0179
:100730000E94A00280E0EECF88E592E00E94B50220
:10074000811102C085E1C4CF20E030E0A9016DE055
:10075000CE010E94E902882311F084E1B9CF0E9402
:10076000B2028111FACFD2CF0F9340916D02509116
:100770006E0260916F027091700241155105610522
:10078000710599F0082F22EA32E08091A20490913D
:10079000A3040E944603882349F010926D02109230
:1007A0006E0210926F021092700281E00F91089514
:1007B0000F93CF93C82F80916C02811105C0C1E0C7
:1007C0008C2FCF910F91089540910001509101011C
:1007D00060910201709103010C2F22EA32E08091B6
:1007E000A2049091A3040E944603811102C0C0E0BC
:1007F000E7CFCC2321F381E00E94B4038823B9F32F
:1008000010926C02DDCF9F92AF92BF92CF92DF9297
:10081000EF92FF920F931F93CF93DF936B017C01B5
:10082000942E8091000190910101A0910201B0915C
:1008300003018C159D05AE05BF0509F494C081E048
:100840000E94D803882389F1C091A204D091A30407
:100850008E81882371F088819981AA81BB81C81615
:10086000D906EA06FB0629F48F819885892B09F4BD
:1008700043C0C882D982EA82FB828B85A701960198
:10088000833039F099E0220F331F441F551F9A958A
:10089000D1F761E1CE010E94E902882391F083E063
:1008A0008D83CE010E94A00280E0DF91CF911F9145
:1008B0000F91FF90EF90DF90CF90BF90AF909F90FF
:1008C00008950E9476018B010E94B2028A878F3FB1
:1008D00069F40E947601601B710B6D327140A0F3C8
:1008E0008FE08D83CE010E94A002DBCF8E3F69F5A1
:1008F00018861F8281E08E8302EA12E082EAA82E27
:1009000084E0B82E0E94B202F80181938F01AE16E6
:10091000BF06C1F78F8198859E5F98878F83298551
:10092000222319F081159240B0F08E81882399F02E
:100930008F8198859C012F5F3F4F38872F838230AE
:10094000924028F40E94B202F3CF8DE0CACFCE01CC
:100950000E94A0021E82C0920001D0920101E0928A
:100960000201F092030140916C02492940936C020C
:1009700081E09BCF8F929F92AF92BF92CF92DF92F6
:10098000EF92FF92CF9323E935E03093A3042093B5
:10099000A204882309F46DC040E060E070E0CB0160
:1009A0000E94030481110BC080E0CF91FF90EF9073
:1009B000DF90CF90BF90AF909F908F9008958091DF
:1009C00060048F7789F780916C0490916D04A091F9
:1009D0006E04B0916F0484369105A105B10520F332
:1009E000C0906804D0906904E0906A04F0906B04B1
:1009F000C114D104E104F104B9F240E0C701B60129
:100A00000E940304882381F28091AD029091AE028E
:100A10008115924049F6A091B202AA2329F2609171
:100A2000B0027091B1026115710509F4BDCF20913A
:100A3000AF02222309F4B8CFA093B1052093A305F8
:100A400090E080E030E0E1E0F0E0C82FAF01082E58
:100A500002C0440F551F0A94E2F72417350769F0C6
:100A600041E0480F01968930910579F74093AC0534
:100A70009BCFC12CD12C7601C0CF8093AC052091A7
:100A8000B8023091B90250E040E02115310541F43F
:100A90002091C6023091C7024091C8025091C9020C
:100AA0002093A4053093A5054093A6055093A70570
:100AB00046015701860E971EA11CB11C8092B205FB
:100AC0009092B305A092B405B092B505E091B3023F
:100AD000F091B402F093B805E093B705B0E00E943E
:100AE000EA1BDC01CB01880D991DAA1DBB1D80935B
:100AF000B9059093BA05A093BB05B093BC0525E05A
:100B0000EE0FFF1F2A95E1F7E150FE4FEF2FFF2771
:100B1000E6958E0F9F1FA11DB11D8093AD0590938B
:100B2000AE05A093AF05B093B0058090B50290904C
:100B3000B602B12CA12C8114910441F48090C20220
:100B40009090C302A090C402B090C502C81AD90AFE
:100B5000EA0AFB0AC80CD91CEA1CFB1C04C0F69468
:100B6000E794D794C794CA95D2F7C092A805D092BB
:100B7000A905E092AA05F092AB0585EFC8168FE0B3
:100B8000D806E104F10428F48CE08093B60581E0F6
:100B90000CCF80E125EFC2162FEFD206E104F1045D
:100BA000A0F38091CE029091CF02A091D002B0919B
:100BB000D1028093B9059093BA05A093BB05B09379
:100BC000BC0580E2E2CF4F925F926F927F928F924C
:100BD0009F92AF92BF92CF92DF92EF92FF920F93CC
:100BE0001F93CF93DF93EC014230510561057105EE
:100BF00090F480E0DF91CF911F910F91FF90EF90E3
:100C0000DF90CF90BF90AF909F908F907F906F902C
:100C10005F904F90089589859A85AB85BC85019634
:100C2000A11DB11D84179507A607B70710F3CB8840
:100C3000DC88ED88FE888F89803109F042C0BB27AF
:100C4000A72F962F852F480159012A013B01C80E75
:100C5000D91EEA1EFB1E8091000190910101A09116
:100C60000201B0910301C816D906EA06FB0699F500
:100C70008F898031C1F5B301A201552766277727F7
:100C8000440F551F4E555D4FFA019182808280912D
:100C90006C02816080936C028A89823080F08D8141
:100CA0009E81AF81B8858C0D9D1DAE1DBF1D8093AB
:100CB0006D0290936E02A0936F02B093700281E078
:100CC00099CFDB01CA01E7E0B695A795979587957F
:100CD000EA95D1F7B8CF40E0C701B6010E940304FE
:100CE0008111C6CF86CFB301A2014F775527662762
:100CF0007727440F551F440F551F4E555D4FFA017E
:100D000080829182A282B382C2CF8F929F92AF9251
:100D1000BF92CF92DF92EF92FF920F931F93CF93E8
:100D2000DF93FC0181859285A385B4850196A11D81
:100D3000B11D84179507A607B70770F480E0DF910F
:100D4000CF911F910F91FF90EF90DF90CF90BF90C8
:100D5000AF909F908F90089583889488A588B688D7
:100D60008789803189F5BB27A72F962F852FE90129
:100D70006A017B018F01BC01CD01680D791D8A1DBF
:100D80009B1D8090000190900101A0900201B09005
:100D9000030186169706A806B90601F5F8018789AA
:100DA000803111F5DD24EE24FF24F601EE0FFF1F44
:100DB000EE55FD4F80819181B0E0A0E0888399835A
:100DC000AA83BB8381E0BBCFDB01CA01C7E0B69534
:100DD000A79597958795CA95D1F7C9CF40E00E940E
:100DE00003048111DBCFAACFE894C7F8DD24EE24F9
:100DF000FF24F601EE0FFF1FEE0FFF1FEE55FD4F14
:100E000080819181A281B381BF70D8CF8F929F9250
:100E1000AF92BF92CF92DF92EF92FF920F931F9308
:100E2000CF93DF93EC018D8181110EC080E0DF91C3
:100E3000CF911F910F91FF90EF90DF90CF90BF90D7
:100E4000AF909F908F9008950B891C892D893E89C2
:100E5000041715072607370748F34A015B0182305C
:100E600031F48A869B86AC86BD8681E0E0CF811412
:100E70009104A104B10449F41E821F8218861986C8
:100E80001A861B861C861D86F0CF0A851B852C853D
:100E90003D85EB8DFC8D858590E00996B901A80113
:100EA0004150510961097109082E04C07695679572
:100EB000579547950A94D2F775016401E1E0CE1A7F
:100EC000D108E108F10804C0F694E794D794C794D8
:100ED0008A95D2F7C416D506E606F70620F0012B50
:100EE000022B032B11F58F89988DA98DBA8D8E83D6
:100EF0009F83A887B9878E010A5F1F4FC114D10451
:100F0000E104F10409F4ADCF4E815F8168857985F4
:100F100098018B8D9C8D0E94850691E0C91AD1089D
:100F2000E108F1088111EACF81CFC41AD50AE60A97
:100F3000F70AE1CF3F924F925F926F927F928F922A
:100F40009F92AF92BF92CF92DF92EF92FF920F9358
:100F50001F93CF93DF93CDB7DEB72C970FB6F894DE
:100F6000DEBF0FBECDBF5C01DC015B968D909C9017
:100F70005C9716964D905D906D907C9019974114FA
:100F800051046104710409F468C0BFEF4B1A5B0A95
:100F90006B0A7B0A312CF40181859285A385B48587
:100FA0009C01AD012F5F3F4F4F4F5F4F29873A871D
:100FB0004B875C87730162011D821E821F82188627
:100FC000F40181859285A385B4852D813E814F8171
:100FD0005885281739074A075B0708F056C08985E6
:100FE0009A85AB85BC858C159D05AE05BF0550F473
:100FF00082E0C82ED12CE12CF12C92E0492E512C0C
:10100000612C712C9E012F5F3F4FB701A601C401D7
:101010000E9485068823C9F189819A81AB81BC81B0
:10102000892B8A2B8B2B09F1260137019FEF491A57
:10103000590A690A790A2D813E814F8158852F5FAF
:101040003F4F4F4F5F4F2D833E834F8358873FEF76
:10105000C31AD30AE30AF30AB3CFF40140805180E4
:10106000628073803324339496CFC414D504E6048D
:10107000F70409F70FEF1FEF2FEF3FE0B701A601CD
:10108000C4010E94E305811119C080E02C960FB6BF
:10109000F894DEBF0FBECDBFDF91CF911F910F91AE
:1010A000FF90EF90DF90CF90BF90AF909F908F9088
:1010B0007F906F905F904F903F900895D501169666
:1010C0004D915D916D917C91199741155105610587
:1010D000710539F097018601C4010E94E305882358
:1010E000A1F2D5011696CD92DD92ED92FC92199760
:1010F000332051F0D701C6010196A11DB11DF401A5
:1011000080839183A283B383F5018789908DA18D1C
:10111000B28D892B8A2B8B2B39F48481C78AD08E90
:10112000E18EF28E80688483F501848180628483FD
:1011300081E0ACCF1F93CF93DF93EC01162F8C810E
:1011400087FF2AC06E857F858889998941E00E9442
:101150000304882361F1EA8980E2E89FF001112409
:10116000EE55FD4F309719F18D81823040F48B8917
:101170009C89AD89BE89848F958FA68FB78F8F8903
:10118000988D938F828F8F89988DA98DBA8DB58B0D
:10119000A48B8C818F778C83111103C08C818F7EFF
:1011A0008C83812FDF91CF911F910C94D80380E025
:1011B000DF91CF911F910895FF920F931F93CF93CB
:1011C000DF93EC018D81813041F090E080E0DF9190
:1011D000CF911F910F91FF9008958C8181FFF5CFE2
:1011E00082FD1EC00091A2041091A304C8010E94B8
:1011F000D3020E94B202F82EC8010E94A0028FEF13
:10120000F812E3CF8C8185FF1EC08D81882321F0E9
:1012100060E0CE010E949A088C818F7D8C83D5CFAF
:101220004B895C896D897E898A859B85AC85BD8566
:1012300084179507A607B707A9F2CE010E940607F3
:101240008111D0CFC2CF40916D0250916E0260915A
:101250006F0270917002452B462B472B21F080E0E6
:101260000E94B403B2CF80618C832A853B853170A4
:1012700080E092E0821B930BAACF9F92AF92BF9225
:10128000CF92DF92EF92FF920F931F93CF93DF9352
:1012900000D000D01F92CDB7DEB78C016D83DC018A
:1012A00015968C911597813009F0B9C014968C91E0
:1012B00081FFB5C082FD9FC0D8015B96ED91FC9186
:1012C0005C971A96AD90BD90CD90DC901D97948060
:1012D0009A94B601A50189E076956795579547954B
:1012E0008A95D1F79422B1E0BB22992009F49FC0DE
:1012F000D8015B96ED91FC915C971696CD90DD90B0
:10130000ED90FC901997B2E0CB1AD108E108F108F2
:10131000858504C0CC0CDD1CEE1CFF1C8A95D2F721
:101320004685578560897189C40ED51EE61EF71E55
:10133000C90CD11CE11CF11CA114B10409F00AC1B3
:10134000F801428553856485758583899489A589CB
:10135000B689481759076A077B0708F4FBC081E084
:101360000E94D803882309F45AC0C0920001D09289
:101370000101E0920201F092030180916C02816010
:1013800080936C02F501EE55FD4F8D818083F8014D
:1013900082859385A485B5850196A11DB11D82879F
:1013A0009387A487B58743895489658976894817C7
:1013B00059076A077B0738F42481838B948BA58BAC
:1013C000B68B20682483D80114968C9183FD9FC02E
:1013D00081E090E00F900F900F900F900F90DF91B1
:1013E000CF911F910F91FF90EF90DF90CF90BF9022
:1013F000AF909F900895F801438954896589768953
:1014000082859385A485B585481759076A077B07A8
:1014100009F452CFC8010E94060781114DCF81E027
:1014200090E0D80113969C938E93129749C0D801EF
:1014300016964D915D916D917C911997A114B1040F
:1014400009F071C0411551056105710589F557967F
:101450008D919D910D90BC91A02D0097A105B10596
:1014600009F04FC0C8010E949A078823C1F2D80131
:101470005B96ED91FC915C971696CD90DD90ED908A
:10148000FC901997B2E0CB1AD108E108F1088585E4
:1014900004C0CC0CDD1CEE1CFF1C8A95D2F74685DF
:1014A000578560897189C40ED51EE61EF71E48CF88
:1014B0009E012F5F3F4FCF010E948506811103C01F
:1014C00090E080E087CF89819A81AB81BC81F8016F
:1014D000238D348DF901278948EF5FEF60E070E0DC
:1014E000203121F048EF5FEF6FEF7FE08417950721
:1014F000A607B70730F0C8010E949A078111F8CEFD
:101500008ECFF80186839783A087B187F1CEF8014B
:101510008581882309F483CF61E0C8010E949A087D
:10152000811156CF7CCF6A017B01B2E0CB1AD10882
:10153000E108F108858504C0CC0CDD1CEE1CFF1C05
:101540008A95D2F74685578560897189C40ED51E64
:10155000E61EF71E41E0C701B6010E940304811197
:1015600011CF5DCF20914702260F3327331F213241
:101570003105ECF42091CA04FC0190E080E02430B5
:1015800069F082E00895A09147022191AC01495D84
:101590005D4FA40FB52FB11D2C930196861798F3BC
:1015A00080914702680F6093470280E0089581E0D0
:1015B00008951092CA0481E08093C9041092A40493
:1015C00061E082E10E94B50061E083E10E94B50024
:1015D000E9EBF0E080818E7F808380818D7F808346
:1015E00088E48093B80085E48093BC000895CF938D
:1015F000DF9391E0909326028823B9F0C091B80060
:10160000D091BA008091BC008A7B8093BC0060E0DE
:1016100082E10E94B50060E083E10E94B5000E9473
:10162000D90AD093BA00C093B800DF91CF91089542
:101630008F929F92AF92BF92CF92DF92EF92FF92E2
:101640000F931F93CF93DF93D091F304D13208F01F
:10165000D7C0182FC091F2040E941F016B017C01BA
:101660008091CA0481116BC082E08093CA041093F8
:10167000C9048FEF8093C8041092C704D093C604A6
:10168000A2EDB4E0E6EAF4E080E0D81391C0109255
:10169000A5048091A504CC0FC82BC093A50480910C
:1016A000A404813009F088C01092A4040E941F0194
:1016B0006B017C018091A5048093BB008091CC04D8
:1016C0009091CD04A091CE04B091CF04892B8A2BA8
:1016D0008B2BA1F00E941F010091CC041091CD042E
:1016E0002091CE043091CF046C197D098E099F0999
:1016F000061717072807390708F442C08091BC0075
:1017000083FDD8CF85EC8093BC000E941F016B0144
:101710007C018091CA04823009F450C08091C804D1
:101720008F3F09F46FC08091C804803209F46CC007
:101730008091C804803309F469C084E026C0809198
:10174000CC049091CD04A091CE04B091CF04892B0C
:101750008A2B8B2B09F484CF0E941F018090CC042C
:101760009090CD04A090CE04B090CF046C197D0968
:101770008E099F0986169706A806B90608F070CF4D
:101780008091CB040E94F70A85E01092D104109258
:10179000F3041092D004DF91CF911F910F91FF902D
:1017A000EF90DF90CF90BF90AF909F908F90089573
:1017B0009D9191938F5F69CF85EEA5CF8091CC04E9
:1017C0009091CD04A091CE04B091CF04892B8A2BA7
:1017D0008B2B09F49ECF0E941F010091CC04109125
:1017E000CD042091CE043091CF046C197D098E096F
:1017F0009F09061717072807390708F08ACFC0CFB7
:1018000081E0C3CF80E0C1CF82E0BFCF83E0BDCF16
:101810000895E091760280917502E81730F4F0E0C7
:10182000E958FD4F808190E008958FEF9FEF089574
:1018300090917602809175022FEF3FEF981748F450
:10184000E92FF0E0E958FD4F208130E09F5F909351
:101850007602C90108958091750290917602891BE4
:10186000990B0895CF92DF92EF92FF920F931F93FF
:10187000CF93DF937C01CB018A012091D0042223F6
:1018800089F0EB016B01C40ED51ECC15DD0569F0A6
:101890006991D701ED91FC910190F081E02DC70194
:1018A0000995F3CF642F0E94B20AC801DF91CF914E
:1018B0001F910F91FF90EF90DF90CF900895CF93FD
:1018C000DF931F92CDB7DEB769832091D004222326
:1018D000F9F02091F304203258F021E030E0FC01CF
:1018E0003383228390E080E00F90DF91CF910895C1
:1018F0008091D104E82FF0E0EE52FB4F9981908364
:101900008F5F8093D1048093F30481E090E0ECCF6B
:1019100061E0CE0101960E94B20AF7CFDC01ED91A1
:10192000FD918081ED91FD919081ED91FD916C9102
:1019300063708E2309F064609F2309F06860EBEA0E
:10194000FCE0E60FF11D659565956D936D917D91B8
:101950008D919D91099423C01AC012C016C010C069
:101960001EC009C014C013C006C019C009C00DC0F4
:1019700007C00DC014C062507040804090400BC042
:10198000615070408040904006C06E5F01C06F5F44
:101990007F4F8F4F9F4F9E938E937E936E930895AC
:1019A0008091DC059091DD050C948E0C8091DE0514
:1019B0009091DF050C948E0CFC01808D8C3080F4AE
:1019C000A82FB0E0AA0FBB1FAE0FBF1F6D937C9373
:1019D0008F5F808F918D9F5F918F828F81E00895BF
:1019E00080E00895FC01248131E03093D0042093FD
:1019F000F2041092D1041092F3048385682B8CEECC
:101A000095E00E945F0C81E00C94180B089590E023
:101A100080E008950F931F93CF938C01C62F0E94EF
:101A2000F20C6C2F6460C8010E94F20C6C2F6B7F6B
:101A3000C8010E94F20C83EC90E00197F1F7CF917E
:101A40001F910F9108950F931F93CF93DF938C01F4
:101A5000D62FC42F607F642B0E940A0D80E1D89F8F
:101A6000B00111246C2BC801DF91CF911F910F9110
:101A70000C940A0DEF92FF920F931F93CF93DF9375
:101A80008C017A01677088E0689FB001112460645E
:101A900040E0C8010E94230DE701A8E0EA0EF11C16
:101AA0006991D801ED91FC910190F081E02DC80180
:101AB0000995CE15DF05A1F7DF91CF911F910F9109
:101AC000FF90EF900895CF93DF93CDB7DEB72897BF
:101AD0000FB6F894DEBF0FBECDBF28E0E5E2F1E01F
:101AE000DE01119601900D922A95E1F7FC01208507
:101AF000241710F44FEF420F50E0440F551F21E020
:101B000030E02C0F3D1F420F531FFA012081620F5E
:101B1000606840E028960FB6F894DEBF0FBECDBFD8
:101B2000DF91CF910C94230D40E061E00E94230DE2
:101B30008BE39FE10197F1F7089541E00E94230DA7
:101B400081E090E00895FB0101900020E9F73197D2
:101B5000AF01461B570BDC01ED91FC910280F38134
:101B6000E02D09948F929F92AF92BF92EF92FF92D5
:101B70000F931F93CF93DF93CDB7DEB7A1970FB627
:101B8000F894DEBF0FBECDBF7C01FA01CB0119A2D4
:101B9000223008F42AE08E010F5D1F4F822E912C17
:101BA000B12CA12CBF01A50194010E94C81BF90111
:101BB000CA016A300CF5605DD8016E938D01232B4C
:101BC000242B252B79F790E080E0109721F0BD01C0
:101BD000C7010E94A30DA1960FB6F894DEBF0FBEF9
:101BE000CDBFDF91CF911F910F91FF90EF90BF90EC
:101BF000AF909F908F900895695CDECFCF92DF9277
:101C0000EF92FF920F931F93CF93DF9377FF1DC047
:101C10006A017B01EC016DE20E9486018C01442780
:101C20005527BA014C195D096E097F092AE0CE01DA
:101C30000E94B20D800F911FDF91CF911F910F91E4
:101C4000FF90EF90DF90CF9008952AE0DF91CF9141
:101C50001F910F91FF90EF90DF90CF900C94B20DF9
:101C6000AB01770F660B770B0C94FE0DCF93DF93D0
:101C7000BC018AEA97E00E94A30DEC0169E671E0DD
:101C80008AEA97E00E94A30D8C0F9D1FDF91CF91F0
:101C900008954F925F926F927F928F929F92AF9230
:101CA000BF92EF92FF920F931F93CF93DF938C011C
:101CB0004A015B01E22EAB019401CB01B4010E9409
:101CC000411E6CE671E0811126C024013501E894C3
:101CD00077F82FEF3FEF4FE75FE7C301B2010E94B4
:101CE000411E81110CC02FEF3FEF4FE75FE7C301AB
:101CF000B2010E94771C60E771E0181664F02FEFC4
:101D00003FEF4FE75FE4C501B4010E94CF1D1816F5
:101D10009CF464E771E0C801DF91CF911F910F91AE
:101D2000FF90EF90BF90AF909F908F907F906F90BB
:101D30005F904F900C94A30D2FEF3FEF4FE75FECB8
:101D4000C501B4010E94771C87FDE3CF20E030E09D
:101D5000A901C501B4010E94771CD0E0C0E087FF53
:101D600009C06DE2C8010E948601EC01B7FAB09487
:101D7000B7F8B094FE2C712C60E070E080E09FE337
:101D80007E1440F420E030E040E251E40E947C1CEC
:101D90007394F6CFA50194010E940B1C4B015C01CA
:101DA0000E94EE1C2B013C012AE0BC01A201C801EB
:101DB0000E94B20DC80FD91FEE20D1F1C301B201AC
:101DC0000E941D1D9B01AC01C501B4010E940A1CAB
:101DD0004B015C016EE2C8010E948601C80FD91F49
:101DE000FA948FEFF81621F120E030E040E251E460
:101DF000C501B4010E94D41D2B013C010E94EE1CC0
:101E00004B01B12CA12C2AE0B501A401C8010E940C
:101E1000B20DC80FD91FC501B4010E941D1D9B0141
:101E2000AC01C301B2010E940A1C4B015C01D8CF76
:101E3000CE01DF91CF911F910F91FF90EF90BF9056
:101E4000AF909F908F907F906F905F904F9008958C
:101E50006115710511F00C94A30D90E080E00895D8
:101E60002F923F924F925F926F927F928F929F92AA
:101E7000AF92BF92CF92DF92EF92FF920F931F9398
:101E8000CF93DF93CDB7DEB72A970FB6F894DEBFB6
:101E90000FBECDBF2DB63EB68091140690911506AB
:101EA0000E94940D809120018823E9F01092200176
:101EB00048E151E06FE080911406909115060E9470
:101EC0003A0D40E151E06EE08091140690911506C4
:101ED0000E943A0D48E051E06DE080911406909127
:101EE00015060E943A0DE0913306F0E0EE0FFF1F59
:101EF000EA5EF94F808091800091140610911506DA
:101F0000D4015A96BC905A9758968C91BB2011F0E8
:101F10008B1508F4B82EF401A18C2B2D30E0AB14F6
:101F200008F470C0A394AB18A9014A0D511D841781
:101F3000150614F4A82EAB185A2CA9014A0D511DF0
:101F40005A874987252D2A19852D90E0A985BA85BC
:101F50008A179B070CF0CDC1F401418C880F991FA3
:101F6000E80FF91FC080D180D40158968C91B81623
:101F700010F4F6012083D6014C9111966C91C801A2
:101F80000E94630DF601B196FC83EB837601960106
:101F9000265F3F4F3E832D83AB81BC818D91BC83F7
:101FA000AB83813409F401C108F05EC0803209F4CA
:101FB000CEC0C0F5893009F4BCC030F5813009F4D9
:101FC000DFC0883009F4A9C0B2E0EB0EF11CED814E
:101FD000FE81EE15FF0501F7541077C1D601149666
:101FE0008C91823009F461C1833009F470C1813071
:101FF00009F07BC1D801ED91FC910190F081E02DB9
:102000006FE061C1A12C98CF803109F499C0813172
:10201000D9F6D7015796ED91FC914081518170E03E
:1020200060E0A9C08C3309F46FC0A0F4813209F4D8
:102030009AC0823349F6F601258130E0D7015796E0
:10204000ED91FC914081518162817381C8010E94B0
:10205000490EBACF8F3308F0B7CFF7016789708D7B
:10206000C8010E94280FB0CF893D09F4FCC020F5BB
:10207000803D09F4E2C080F4863409F488C0893CCC
:1020800009F0A2CFD7015796ED91FC91309709F452
:102090009BCF0995682F79C0813D09F4DAC0883D4E
:1020A00009F092CFD7015796ED91FC91309709F442
:1020B0008BCF0995BC0139C0803F09F4E9C088F491
:1020C000883E09F4DAC0893E09F07ECFD7015796E1
:1020D000ED91FC91309709F477CF0995AB01BC01E4
:1020E0004AC08B3F09F49FC08C3F09F49CC08A3FD3
:1020F00009F06ACFD7015796ED91FC91309709F41A
:1021000063CF0995682F05C0D7015796ED91FC91D3
:102110006081C8010E94860157CFD7015796ED9183
:10212000FC916081062E000C770BC8010E94300ED6
:102130004BCFD7015796ED91FC91408150E06FCF86
:10214000D7015796ED91FC9160817181EECFD70157
:102150005796ED91FC914081518162817381C80154
:102160000E94FE0D31CFD7015796ED91FC91408131
:102170005181628173812AE0C8010E94B20D24CF8F
:10218000D7015796ED91FC91608170E0CECFF701B9
:10219000A789B08DF80180819181FC012081318176
:1021A0006C91C801F90109950FCF2DB73EB738875B
:1021B0002F83D70157966D907C90C3010E94BF1B5F
:1021C0009A83898389819A81EDB7FEB7E81BF90B61
:1021D0000FB6F894FEBF0FBEEDBF6DB77EB76F5F51
:1021E0007F4F20E0822F90E049815A818417950724
:1021F00054F4F301E80FF91FE491860F971FDC01F7
:10220000EC932F5FEFCFE981FA81E60FF71F108281
:10221000C8010E94280FEF81F8850FB6F894FEBF21
:102220000FBEEDBFD1CED7015796ED91FC913097FF
:1022300009F4CACE0995BC0113CFD7015796ED9189
:10224000FC91309709F4C0CE0995682F880F770B61
:102250006CCFD7015796ED91FC91309709F4B4CE2D
:102260000995482F6BCFD7015796ED91FC91309788
:1022700009F4AACE0995AC01D2CED7015796ED91BB
:10228000FC91309709F4A0CE0995AB01BC0167CF52
:10229000D7015796ED91FC91309709F495CE0995A9
:1022A000AB01BC0122E030E0D1CEF601618161508A
:1022B0004081C8010E94630DD801ED91FC9101900D
:1022C000F081E02D6EE0C801099553943BCEF601F4
:1022D00042816381C8010E94630DD801ED91FC9198
:1022E0000190F081E02D6DE0EECF21E0F601248336
:1022F00081CE0FB6F8943EBE0FBE2DBE2A960FB605
:10230000F894DEBF0FBECDBFDF91CF911F910F912B
:10231000FF90EF90DF90CF90BF90AF909F908F9005
:102320007F906F905F904F903F902F900895E09135
:102330003306F0E0EE0FFF1FEA5EF94F0190F081E7
:10234000E02D818D8093980280913206882359F088
:1023500080911406909115060E94940D81E080935F
:1023600033060E94300F64E670E080E090E00C9449
:10237000440185ED8093BC008091CC049091CD0404
:10238000A091CE04B091CF040796A11DB11D23E00A
:10239000B695A795979587952A95D1F72091BC007A
:1023A00024FD03C01092CA0408954091CC045091BA
:1023B000CD046091CE047091CF04452B462B472B62
:1023C00069F30097A105B10541F025E32A95F1F7DE
:1023D00000000197A109B109E1CF8091CB040C94D1
:1023E000F70A1F920F920FB60F9211242F933F936B
:1023F0008F939F93AF93BF9380919A0290919B028A
:10240000A0919C02B0919D023091990223E0230F8C
:102410002D3758F50196A11DB11D20939902809387
:102420009A0290939B02A0939C02B0939D0280918C
:102430009E0290919F02A091A002B091A1020196EC
:10244000A11DB11D80939E0290939F02A093A002B4
:10245000B093A102BF91AF919F918F913F912F9126
:102460000F900FBE0F901F90189526E8230F02962D
:10247000A11DB11DD2CF1F920F920FB60F92112442
:102480002F933F934F935F936F937F938F939F937C
:10249000AF93BF93EF93FF93E0912301F091240159
:1024A0000995FF91EF91BF91AF919F918F917F918E
:1024B0006F915F914F913F912F910F900FBE0F90B1
:1024C0001F9018951F920F920FB60F9211242F9301
:1024D0003F934F935F936F937F938F939F93AF93AC
:1024E000BF93EF93FF93E0912101F09122010995B1
:1024F000FF91EF91BF91AF919F918F917F916F91DC
:102500005F914F913F912F910F900FBE0F901F90B1
:1025100018951F920F920FB60F9211242F933F938D
:102520004F935F936F937F938F939F93AF93BF93DB
:10253000EF93FF9384EF94E00E940B02FF91EF91E1
:10254000BF91AF919F918F917F916F915F914F91CB
:102550003F912F910F900FBE0F901F9018951F92D3
:102560000F920FB60F9211242F938F939F93EF9397
:10257000FF93E0910405F09105058081E0910A0543
:10258000F0910B0582FD1BC0908180910D058F5F3E
:102590008F7320910E05821741F0E0910D05F0E058
:1025A000EC50FB4F958F80930D05FF91EF919F911C
:1025B0008F912F910F900FBE0F901F9018958081D3
:1025C000F4CF1F920F920FB60F9211242F933F93C7
:1025D0004F935F936F937F938F939F93AF93BF932B
:1025E000EF93FF938091B900887F803609F44AC049
:1025F000F0F5883209F4A7C018F5803109F49BC0C2
:10260000B8F4882309F4F9C0883009F494C0FF9124
:10261000EF91BF91AF919F918F917F916F915F915A
:102620004F913F912F910F900FBE0F901F901895D3
:10263000883109F488C0803251F78093C80414C0EF
:10264000803409F49DC040F48033B9F38833F9F63F
:102650008093C80485ECB0C0803509F485C0883506
:1026600009F496C0883499F60E94B911D0CF883900
:1026700009F48CC038F5883729F050F4883611F009
:10268000803729F683E08093CA041092690257C00C
:10269000883809F47BC0803919F0803809F0B7CF49
:1026A00080916902803208F071C0E091690281E096
:1026B0008E0F809369028091BB00F0E0E75BFD4FD5
:1026C00080833DC0803B39F0E0F4803A09F479C062
:1026D000883A09F09CCF84E08093CA0410924802A3
:1026E00010924702E0917102F09172020995809177
:1026F000470281110FC081E08093470210922702A8
:1027000009C0803C09F4A6CF883C09F4A3CF883BDC
:1027100009F07DCFE091480281E08E0F809348025E
:10272000F0E0E95DFD4F80818093BB00909148020D
:102730008091470229C08091A5048093BB0085EC5D
:102740008093BC0064CF9091C7048091C604981711
:1027500058F5E091C70481E08E0F8093C704F0E044
:10276000EA55FB4F8081E9CFE091C70481E08E0FED
:102770008093C7048091BB00F0E0EA55FB4F808353
:102780009091C7048091C6049817C8F285E8D8CF05
:10279000E091C70481E08E0F8093C7048091BB0055
:1027A000F0E0EA55FB4F80838091C90481115CCF32
:1027B00081E08093A40484EA8093BC001092CA0450
:1027C00026CF85EC8093BC001092CA0480916902E8
:1027D000803230F4E0916902F0E0E75BFD4F108257
:1027E0006091690270E0E0917302F091740289E4F3
:1027F00092E00995109269020ACF1092C80434CF72
:10280000FC01608381E08183615062831382848351
:1028100092E0958316A2128E118E12A2148E138E40
:1028200013A2168E158E14A210A2178E15A2108652
:102830001782128611861486138616861586108ACC
:102840001786128A118A148A138A168A158A508F5B
:10285000478B9EE391A386830895CF93DF931092D5
:10286000F7041092F60488EE93E0A0E0B0E08093C5
:10287000F8049093F904A093FA04B093FB0421E3C5
:1028800031E03093F5042093F40425EC30E03093EC
:1028900001052093000524EC30E0309303052093DC
:1028A000020520EC30E0309305052093040521EC6F
:1028B00030E0309307052093060522EC30E030939A
:1028C00009052093080526EC30E030930B05209392
:1028D0000A0510920D0510920E0510920F05109228
:1028E000100520E52093910510929205109298050D
:1028F0001092990510929C0510929E0542E050E0BE
:1029000060E070E040939F055093A0056093A1059F
:102910007093A2051092B6051092C0051092BF05E3
:1029200023E431E03093BE052093BD051092C2052B
:102930001092EF051092EE058093F0059093F1054B
:10294000A093F205B093F3058FE491E09093ED0529
:102950008093EC051092AD071092AC0781E691E0F0
:102960009093AB078093AA0787E28093AE0780E13C
:102970008093B30782E08093B4071092B50748E7CD
:1029800051E060E083E897E00E94001444E851E0E1
:1029900061E08CE597E00E94001441E951E060E0BD
:1029A00085E397E00E9400144DE951E061E08EE07C
:1029B00097E00E94001410920A0710920B071092E1
:1029C0000D071092EE061092EF061092F10610928B
:1029D000D2061092D3061092D5061092B606109227
:1029E000B7061092B90610929A0610929B061092A2
:1029F0009D0644EA51E060E08BE596E00E940014F9
:102A00004AEA51E061E084E396E00E9400148AEA19
:102A100097E090931506809314061092330682EF88
:102A200096E0909317068093160681E08093320615
:102A30008CEE95E09093F9058093F8051092FA05D5
:102A40001092FB051092FC051092FD051092FE05F8
:102A50001092FF05109200061092010610920206D5
:102A60001092100610920F0610920E0610920D068C
:102A700010920306109204061092050610920606A4
:102A800010920706109208061092090610920A0684
:102A900010920B0610920C0610921206109211065C
:102AA0001092130662E082E00E94E30062E083E09D
:102AB0000E94E300E0EBF0E0E491F0E0EE0FFF1F96
:102AC000EC55FF4FA591B491B093E105A093E005BB
:102AD000E2E9F0E044914093E405E1EBF0E0E491B9
:102AE000F0E0EE0FFF1FEC55FF4FC591D491D0934E
:102AF000E305C093E205E3E9F0E0E491E093E50546
:102B00001092E7051092E8051092E9051092EA0587
:102B10002BE33FE1C9010197F1F79C91842F8923B1
:102B200091E009F490E08881E82309F0926020EEBA
:102B300035E09093E6053093DD052093DC0580EDCC
:102B40009CE09093220180932101809169008C7F09
:102B5000816080936900E89A81E08093EB0530936F
:102B6000DF052093DE0586ED9CE0909324018093A1
:102B7000230180916900837F846080936900E99AD2
:102B800082E08093EB05DF91CF910895CF93DF939F
:102B900000D000D0CDB7DEB7789484B5826084BD14
:102BA00084B5816084BD85B5826085BD85B5816051
:102BB00085BD80916E00816080936E0010928100CF
:102BC000809181008260809381008091810081608A
:102BD000809381008091800081608093800080914B
:102BE000B10084608093B1008091B00081608093D7
:102BF000B00080917A00846080937A0080917A009E
:102C0000826080937A0080917A00816080937A005C
:102C100080917A00806880937A001092C10060E011
:102C200086E00E94E30010927602109275021092E4
:102C3000D1041092F3040E94D90A83E891E09093A2
:102C400072028093710284E891E090937402809301
:102C500073021092AF078091B407823018F098E0A9
:102C60009093AF078093B20762E370E080E090E05A
:102C70000E9444016091B5078AEA97E00E94F20C35
:102C800068EE73E080E090E00E94440160E38AEA2D
:102C900097E00E940A0D0BE416E4C8010197F1F7D2
:102CA00060E38AEA97E00E940A0DC8010197F1F7F4
:102CB00060E38AEA97E00E940A0D83E592E00197BB
:102CC000F1F760E28AEA97E00E940A0D6091AF078F
:102CD000606240E08AEA97E00E94230D84E08093DE
:102CE000B00740E06CE08AEA97E00E94230D8AEA90
:102CF00097E00E94940D82E08093B10740E066E087
:102D00008AEA97E00E94230D40E062E08AEA97E0B9
:102D10000E94230D8BE39FE10197F1F788E08093F8
:102D2000B50760E08AEA97E00E94F20C40E060E0BC
:102D30008AEA97E00E94630D80EB91E00E94360ED4
:102D400041E060E08AEA97E00E94630D80EC91E048
:102D50000E94360E64EF71E080E090E00E94440132
:102D60008AEA97E00E94940D40E060E08AEA97E0EA
:102D70000E94630D8DEC91E00E94360E41E060E010
:102D80008AEA97E00E94630D8BED91E00E94360E77
:102D900064EF71E080E090E00E9444018AEA97E0ED
:102DA0000E94940D10927602109275021092D10436
:102DB0001092F3040E94D90A83E891E09093720282
:102DC0008093710284E891E090937402809373027F
:102DD00001E00093D00418E61093F20481E00E9411
:102DE000180B40E060E08AEA97E00E94630D85EEF0
:102DF00091E00E94360E41E060E08AEA97E00E948E
:102E0000630D0093D0041093F2041092D104109239
:102E1000F30460E08CEE95E00E945F0C81E00E947C
:102E2000180B0E941F016B017C018091CA04811163
:102E300063C081E08093CA048093C9049FEF90939C
:102E4000C8041092C7041092C6048093A504809110
:102E5000A504806D8093A5048091A404813009F0BD
:102E600030C11092A4040E941F016B017C0180916B
:102E7000A5048093BB008091CC049091CD04A091D7
:102E8000CE04B091CF04892B8A2B8B2BA1F00E940A
:102E90001F010091CC041091CD042091CE043091FB
:102EA000CF046C197D098E099F090617170728079B
:102EB000390708F442C08091BC0083FDD8CF85EC6F
:102EC0008093BC000E941F016B017C018091CA04A9
:102ED000813009F4F8C08091C704811116C1809136
:102EE000C704A6EAB4E0E7E7F2E090E0981751F1F2
:102EF0002D9121939F5FFACF8091CC049091CD04C6
:102F0000A091CE04B091CF04892B8A2B8B2B09F48E
:102F10008CCF0E941F010091CC041091CD04209110
:102F2000CE043091CF046C197D098E099F090617D4
:102F300017072807390708F078CF8091CB040E9443
:102F4000F70A80E010927602809375028CEE95E08D
:102F50000E94180C87FF04C08DEE91E00E94360E8F
:102F600080E092E00E94360E64EF71E080E090E035
:102F70000E9444018AEA97E00E94940D40E060E0DC
:102F80008AEA97E00E94630D6AE072E08AEA97E0BD
:102F90000E94280F41E060E08AEA97E00E94630DFA
:102FA0008091C205882341F061E08DEB95E00E949D
:102FB0009A0881111092C20510929E0510929C05EC
:102FC000109299051092980584E0809397050E94CD
:102FD00076018B0161E0809197050E94E30061E03A
:102FE000809197050E94B500FFB6F89480919702F2
:102FF000811127C0E8EBF0E08491EAE9F0E09491D8
:10300000E82FF0E0EE0FFF1FE859FF4FA591B491B4
:10301000EC91E92321F461E08AE00E94B50061E0CF
:103020008AE00E94E3008CB580618CBD8CB5806421
:103030008CBD61E08DE00E94E30061E08BE00E94C6
:10304000E300809197028F5F80939702FFBE82E535
:10305000809391051092920580919105909192052F
:103060000E94D002BAE0FB2E8FEF0E94AB02FA94CE
:10307000F110FACF83E995E00E94D30220E030E01E
:10308000A90160E083E995E00E94E902F82E8093AF
:103090009D0521E08217D9F10E947601601B710B1A
:1030A000613D774058F381E08093980583E995E08E
:1030B0000E94A0026FE072E08AEA97E00E94280F67
:1030C000E5C085EEFDCE8091CC049091CD04A09119
:1030D000CE04B091CF04892B8A2B8B2B09F4F6CE2A
:1030E0000E941F010091CC041091CD042091CE04C8
:1030F0003091CF046C197D098E099F0906171707B7
:103100002807390708F0E2CE18CF81E0EACE2AEA94
:1031100031E040E050E068E083E995E00E94E90298
:1031200082FF2AC0F0929E0580919E05C12CD12C71
:10313000E12CF0E4FF2E823019F0C12CD12C760165
:1031400020E030E0A90167E383E995E00E94E9020D
:10315000A701960169E283E995E00E94E902809364
:103160009D058823D1F00E947601601B710B613DA3
:10317000774030F388E098CFA4E0FA2E0E94B202A4
:1031800080939D05FA94F110F9CF8A3A11F082E00C
:103190008BCF82E080939E05C7CF80919E058230C1
:1031A000D1F420E030E0A9016AE383E995E00E94D0
:1031B000E902882311F086E077CF0E94B202807C7A
:1031C000803C19F483E080939E050E94B2020E9425
:1031D000B2020E94B20283E995E00E94A00280E55B
:1031E000809391051092920581E00E94BA04882391
:1031F00009F49FC08091C20581115CCF8091B60512
:10320000803109F09DC082E08093C2051092D40500
:103210001092D5051092D6051092D7058091B7056A
:103220009091B805B0E0A0E0E5E0880F991FAA1FD3
:10323000BB1FEA95D1F78093D0059093D105A09359
:10324000D205B093D3058FE995E09093D90580938B
:10325000D80581E08093C1051092C3051092C40582
:103260001092C5051092C6051092C7051092C805A8
:103270001092C9051092CA051092CB051092CC0588
:103280001092CD051092CE051092CF058CE192E000
:103290000E94360E64EF71E080E090E00E944401ED
:1032A0008AEA97E00E94940D63E877E082EF96E067
:1032B0000E94DC0C6CE577E082EF96E00E94DC0C6B
:1032C00065E377E082EF96E00E94DC0C6EE077E049
:1032D00082EF96E00E94DC0C87E991E190938B07E6
:1032E00080938A0781E08093A90722E831E0309338
:1032F0006407209363078093820730933D072093F0
:103300003C0780935B073093160720931507809343
:10331000340720910A07A2EFB6E080E092E0281778
:1033200009F46EC0ED91FD919483138212828F5F38
:10333000F6CF80E00E94BA04882309F4BBCE5ACFAE
:10334000803209F0B7CE83E08093C2058091B90541
:103350009091BA05A091BB05B091BC058093D405AE
:103360009093D505A093D605B093D70589839A830A
:10337000AB83BC83C12CD12C7601812C72E0972EBB
:10338000A12CB12C49815A816B817C819E012F5FD8
:103390003F4F8FE995E00E948506882309F48ACE85
:1033A0008091AC05A501940104C0220F331F441F76
:1033B000551F8A95D2F7DA01C901C80ED91EEA1E37
:1033C000FB1E49815A816B817C818091B6058031D9
:1033D00091F488EF9FEFA0E0B0E0481759076A0723
:1033E0007B0780F2C092D005D092D105E092D20541
:1033F000F092D30528CF88EF9FEFAFEFBFE0EDCF7E
:1034000082E080930C076BE576E086ED96E00E9403
:10341000DC0C64E376E086ED96E00E94DC0C8091A3
:1034200032068E3068F4E82FF0E0EE0FFF1FEA5E00
:10343000F94F26ED36E0318320838F5F809332068B
:1034400048E151E06FE080911406909115060E94CA
:103450003A0D40E151E06EE080911406909115061E
:103460000E943A0D48E051E06DE080911406909181
:1034700015060E943A0DE0913306F0E0EE0FFF1FB3
:10348000EA5EF94F0190F081E02D808D882331F0C4
:10349000A081B18196968C918111118E0E94300F7E
:1034A0008091EB05823008F07EC0F89480EE95E0C4
:1034B0000E948E0C8091E7059091E805A091E905A6
:1034C000B091EA0578948093040190930501A0934C
:1034D0000601B093070102E810E026E9E22E20E0A1
:1034E000F22E34EBC32E30E0D32E40E0A42E40E089
:1034F000B42EF8018491F7019490F6018490811024
:1035000054C0E0913306F0E0EE0FFF1FEA5EF94F82
:103510000190F081E02D818D908D8913D8C080912C
:103520001406909115060E94940D80913306909197
:1035300032069150882309F4E4C08150E82FF0E06E
:10354000EE0FFF1FEA5EF94F0190F081E02D238D11
:103550002111F0CF809333060E94300F80919802A2
:10356000E0913306F0E0EE0FFF1FEA5EF94FA08115
:10357000B18158969C915897891770F4E82FF0E024
:10358000EE0FFF1FEA0FFB1F0190F081E02D96A1C7
:10359000992311F059968C9364E670E080E090E0F6
:1035A0000E944401A5C0F89485CF81110E948C002F
:1035B000E82DF0E0EE0FFF1FEC55FF4FA591B49101
:1035C0008C91982209F49DCFE0913306F0E0EE0F44
:1035D000FF1FEA5EF94F0190F081E02D818D908D03
:1035E000891709F468C090E0880F991FE80FF91F48
:1035F0000190F081E02D87819085892B09F45BC0D3
:103600008091EB05823008F07EC0F89480EE95E062
:103610000E948E0C4090E7055090E8056090E90507
:103620007090EA05789440910401509105016091F1
:103630000601709107014415550566057705D9F116
:103640008091140690911506441555056605770579
:103650000CF06EC00E94940DE0913306F0E0EE0F86
:10366000FF1FEA5EF94FA081B18158968C9158975F
:103670008150990B59962C915997281719060CF0DF
:1036800044C02F5F59962C9359972817190609F0B3
:103690003FC00E94300F0E94300F409204015092B0
:1036A0000501609206017092070168EC70E080E00D
:1036B00090E00E944401A114B10409F41ACF0E94C1
:1036C000F701882309F415CF0E94000012CF90E083
:1036D000880F991FE80FF91F0190F081E02D0780F6
:1036E000F085E02D309709F41ACF09950E94300F2C
:1036F0000E94300F64E670E080E090E00E94440198
:1037000063CF892F1BCFF89485CF59961C92599778
:103710005996EC915997F0E0EE0FFF1FEA0FFB1F4F
:103720000190F081E02D26A1222309F4A3CFB1CF8F
:103730000E94940DE0913306F0E0EE0FFF1FEA5E69
:10374000F94FA081B1815996EC915997E11107C0C9
:1037500058968C915897815059968C939ACFE150F6
:103760005996EC935997F0E0EE0FFF1FEA0FFB1FFD
:103770000190F081E02D86A1882329F38ACFFC01F6
:1037800005900020E9F7809590958E0F9F1F089572
:10379000A1E21A2EAA1BBB1BFD010DC0AA1FBB1F55
:1037A000EE1FFF1FA217B307E407F50720F0A21BC7
:1037B000B30BE40BF50B661F771F881F991F1A9434
:1037C00069F760957095809590959B01AC01BD015E
:1037D000CF0108950E94F51BA59F900DB49F900DF9
:1037E000A49F800D911D11240895A29FB001B39F45
:1037F000C001A39F700D811D1124911DB29F700DFA
:10380000811D1124911D0895EE0FFF1F0590F49165
:10381000E02D09945058BB27AA270E94221C0C9423
:10382000951D0E94871D38F00E948E1D20F039F4EE
:103830009F3F19F426F40C94841D0EF4E095E7FBE9
:103840000C947E1DE92F0E94A61D58F3BA1762073B
:1038500073078407950720F079F4A6F50C94C81D2A
:103860000EF4E0950B2EBA2FA02D0B01B90190019B
:103870000C01CA01A0011124FF27591B99F0593FDF
:1038800050F4503E68F11A16F040A22F232F342F27
:103890004427585FF3CF469537952795A795F04075
:1038A0005395C9F77EF41F16BA0B620B730B840B8A
:1038B000BAF09150A1F0FF0FBB1F661F771F881F42
:1038C000C2F70EC0BA0F621F731F841F48F487959A
:1038D00077956795B795F7959E3F08F0B0CF93958C
:1038E000880F08F09927EE0F9795879508950E9405
:1038F0005A1D08F481E008950E94901C0C94951DB7
:103900000E948E1D58F00E94871D40F029F45F3FF1
:1039100029F00C947E1D51110C94C91D0C94841D2A
:103920000E94A61D68F39923B1F3552391F3951BCB
:10393000550BBB27AA2762177307840738F09F5FD0
:103940005F4F220F331F441FAA1FA9F335D00E2E3D
:103950003AF0E0E832D091505040E695001CCAF7AA
:103960002BD0FE2F29D0660F771F881FBB1F26176D
:1039700037074807AB07B0E809F0BB0B802DBF0144
:10398000FF2793585F4F3AF09E3F510578F00C9413
:103990007E1D0C94C91D5F3FE4F3983ED4F38695D9
:1039A00077956795B795F7959F5FC9F7880F911D34
:1039B0009695879597F90895E1E0660F771F881F20
:1039C000BB1F621773078407BA0720F0621B730BD3
:1039D000840BBA0BEE1F88F7E09508950E94AE1D88
:1039E00088F09F5798F0B92F9927B751B0F0E1F0C0
:1039F000660F771F881F991F1AF0BA95C9F714C070
:103A0000B13091F00E94C81DB1E008950C94C81D1A
:103A1000672F782F8827B85F39F0B93FCCF38695A8
:103A200077956795B395D9F73EF490958095709505
:103A300061957F4F8F4F9F4F0895E89409C097FB82
:103A40003EF490958095709561957F4F8F4F9F4F75
:103A50009923A9F0F92F96E9BB279395F6958795B9
:103A600077956795B795F111F8CFFAF4BB0F11F47C
:103A700060FF1BC06F5F7F4F8F4F9F4F16C0882323
:103A800011F096E911C0772321F09EE8872F762F59
:103A900005C0662371F096E8862F70E060E02AF09A
:103AA0009A95660F771F881FDAF7880F9695879586
:103AB00097F90895990F0008550FAA0BE0E8FEEF5B
:103AC00016161706E807F907C0F012161306E407E2
:103AD000F50798F0621B730B840B950B39F40A26DB
:103AE00061F0232B242B252B21F408950A2609F4B9
:103AF000A140A6958FEF811D811D089597F99F67BD
:103B000080E870E060E008959FEF80EC0895002465
:103B10000A941616170618060906089500240A9432
:103B200012161306140605060895092E0394000CB8
:103B300011F4882352F0BB0F40F4BF2B11F460FF47
:103B400004C06F5F7F4F8F4F9F4F089557FD905870
:103B5000440F551F59F05F3F71F04795880F97FB51
:103B6000991F61F09F3F79F087950895121613060B
:103B70001406551FF2CF4695F1DF08C0161617063A
:103B80001806991FF1CF869571056105089408956F
:103B9000E894BB2766277727CB0197F908950E9401
:103BA0005A1D08F48FEF08950E94E71D0C94951D8F
:103BB0000E94871D38F00E948E1D20F0952311F081
:103BC0000C947E1D0C94841D11240C94C91D0E941C
:103BD000A61D70F3959FC1F3950F50E0551F629F8E
:103BE000F001729FBB27F00DB11D639FAA27F00D56
:103BF000B11DAA1F649F6627B00DA11D661F829F7D
:103C00002227B00DA11D621F739FB00DA11D621F61
:103C1000839FA00D611D221F749F3327A00D611D7E
:103C2000231F849F600D211D822F762F6A2F112460
:103C30009F5750409AF0F1F088234AF0EE0FFF1F93
:103C4000BB1F661F771F881F91505040A9F79E3FEA
:103C5000510580F00C947E1D0C94C91D5F3FE4F368
:103C6000983ED4F3869577956795B795F795E79540
:103C70009F5FC1F7FE2B880F911D9695879597F949
:103C800008950E945A1D880B990B0895F894FFCF50
:103C9000FFFFFFFF19FCFFFF00000E0E0E000000EB
:103CA0000004021F020400000004081F08040000B2
:103CB000018501850100004000140054000000004F
:103CC000002D028D01BA017A02EB01C901DD01006C
:103CD0000000003D098D01DC08060D000000005FBA
:103CE0000C320C070D080C2B0C180C090C000000F2
:103CF000009D0D8D01070D060D0D0A006E616E0011
:103D0000696E66006F7666004D6F6E69746F7269DA
:103D10007A617200436F6E74726F6C2054656D70BF
:103D200000436F6E74726F6C204C757A004772613D
:103D300062617200543A20313500483A2035300033
:103D4000556E6976657273696461642064656C00A0
:103D500020202020506163696669636F002020493C
:103D60006E7665726E616465726F0020202020207F
:103D700076302E310052656C6F6A3A2000457272BF
:103D80006F722E20496E69636961722053696E00FB
:103D9000456E63656E6469646F0053443A20004E5B
:103DA0006F20636F6E65637461646F00436F6E654F
:063DB000637461646F0002
:00000001FF
