:100000000C9462000C942C090C9405090C948A0041
:100010000C948A000C948A000C948A000C948A0038
:100020000C948A000C948A000C948A000C948A0028
:100030000C948A000C948A000C948A000C948A0018
:100040000C94BB080C948A000C948A000C948A00CF
:100050000C948A000C948A000C948A000C948A00F8
:100060000C9453090C948A0000000008000201005F
:100070000003040700000000000000000000000072
:10008000250028002B0000000000240027002A0083
:10009000010204081020408001020408102001021F
:1000A000040810200000000023002600290004049A
:1000B0000404040404040202020202020303030310
:1000C0000303720A11241FBECFEFD8E0DEBFCDBFFD
:1000D00011E0A0E0B1E0E4E5F0E202C005900D928D
:1000E000A839B107D9F723E0A8E9B1E001C01D9212
:1000F000AF33B207E1F710E0C2E6D0E004C02197C9
:10010000FE010E94E60DC136D107C9F70E94630BBC
:100110000C9428100C940000FC01608381E0818322
:10012000615062831382848392E0958316A2128EBB
:10013000118E12A2148E138E13A2168E158E14A277
:1001400010A2178E15A210861782128611861486A9
:10015000138616861586108A1786128A118A148AC3
:10016000138A168A158A508F478B9EE391A3868344
:100170000895CF93DF9390E0FC01E057FF4F249167
:1001800082559F4FFC0184918823C1F090E0880F35
:10019000991FFC01EA57FF4FC591D491FC01E45827
:1001A000FF4FA591B4919FB7F8943881822F809525
:1001B00083238883EC91E22BEC939FBFDF91CF9157
:1001C000089590E0FC01E859FF4F2491FC01E057AD
:1001D000FF4F3491FC01E255FF4FE491EE23C9F04B
:1001E000222339F0233001F1A8F4213019F1223013
:1001F00029F1F0E0EE0FFF1FE458FF4FA591B491F5
:100200008FB7F894EC91611126C030953E233C9352
:100210008FBF08952730A9F02830C9F0243049F75E
:10022000809180008F7D03C0809180008F778093C4
:100230008000DFCF84B58F7784BDDBCF84B58F7D21
:10024000FBCF8091B0008F778093B000D2CF8091A8
:10025000B0008F7DF9CF3E2BDACF3FB7F894809175
:10026000570290915802A0915902B0915A0226B5B6
:10027000A89B05C02F3F19F00196A11DB11D3FBFDE
:10028000BA2FA92F982F8827BC01CD01620F711DAD
:10029000811D911D42E0660F771F881F991F4A95A7
:1002A000D1F708958F929F92AF92BF92CF92DF9233
:1002B000EF92FF924B015C010E942D016B017C01CA
:1002C0000E942D016C197D098E099F09683E7340BB
:1002D00081059105A8F321E0821A9108A108B108CF
:1002E00088EEC80E83E0D81EE11CF11C8114910435
:1002F000A104B10429F7FF90EF90DF90CF90BF9059
:10030000AF909F908F90089508950895089508954F
:10031000DC01ED91FC910190F081E02D0994AF9208
:10032000BF92CF92DF92EF92FF920F931F93CF93E2
:10033000DF936C017B018B01040F151FEB015E0144
:10034000AE18BF08C017D10759F06991D601ED91D9
:10035000FC910190F081E02DC6010995892B79F778
:10036000C501DF91CF911F910F91FF90EF90DF902A
:10037000CF90BF90AF90089520910002260F3327B1
:10038000331F21323105ECF420912402FC0190E06E
:1003900080E0243069F082E00895A091000221916C
:1003A000AC0140525E4FA40FB52FB11D2C930196A6
:1003B000861798F380910002680F6093000280E036
:1003C000089581E008951092240281E0809326022E
:1003D0001092250261E082E10E94E10061E083E188
:1003E0000E94E100E9EBF0E080818E7F80838081D4
:1003F0008D7F808388E48093B80085E48093BC007F
:100400000895CF93DF9391E09093DF018823B9F0B3
:10041000C091B800D091BA008091BC008A7B8093D3
:10042000BC0060E082E10E94E10060E083E10E94A4
:10043000E1000E94E301D093BA00C093B800DF91BD
:10044000CF9108950895E091510280915002E817EC
:1004500030F4F0E0E654FE4F808190E008958FEF95
:100460009FEF089590915102809150022FEF3FEF3E
:10047000981748F4E92FF0E0E654FE4F208130E071
:100480009F5F90935102C90108958091500290910D
:100490005102891B990B0895CF92DF92EF92FF9240
:1004A0000F931F93CF93DF937C01CB018A0120919F
:1004B000B901222389F0EB016B01C40ED51ECC15C6
:1004C000DD0569F06991D701ED91FC910190F08112
:1004D000E02DC7010995F3CF642F0E94BC01C8012C
:1004E000DF91CF911F910F91FF90EF90DF90CF9010
:1004F0000895CF93DF931F92CDB7DEB76983209124
:10050000B9012223F9F020914E02203258F021E067
:1005100030E0FC013383228390E080E00F90DF9194
:10052000CF91089580914F02E82FF0E0E756FE4FFB
:10053000998190838F5F80934F0280934E0281E078
:1005400090E0ECCF61E0CE0101960E94BC01F7CFB4
:10055000DC01ED91FD918081ED91FD919081ED9116
:10056000FD916C9163708E2309F064609F2309F004
:100570006860E5ECF2E0E60FF11D659565956D9319
:100580006D917D918D919D91099423C01AC012C0E7
:1005900016C010C01EC009C014C013C006C019C0C8
:1005A00009C00DC007C00DC014C06250704080402B
:1005B00090400BC0615070408040904006C06E5F1C
:1005C00001C06F5F7F4F8F4F9F4F9E938E937E939F
:1005D0006E93089580916702909168020C94A8022E
:1005E0008091690290916A020C94A80280913E0366
:1005F000823078F4F89483E393E00E94A80260913B
:100600003A0370913B0380913C0390913D037894B1
:100610000895F894F4CFFC01808D8C3080F4A82FDD
:10062000B0E0AA0FBB1FAE0FBF1F6D937C938F5F0F
:10063000808F918D9F5F918F828F81E0089580E000
:100640000895CF92DF92EF92FF920F931F93CF9373
:10065000DF93FC01C48121E02093B901C09398018C
:1006600010924F0210924E028385682B8BE592E028
:100670000E947902D0914E02D13208F092C00E94BD
:100680002D016B017C0180912402811165C082E003
:100690008093240281E0809326028FEF80932302CF
:1006A00010924802D0934702A9E9B1E0E7E2F2E0F4
:1006B00080E0D81385C01092490280914902CC0F86
:1006C000C82BC093490280912502813009F07CC07B
:1006D000109225020E942D016B017C01809149023C
:1006E0008093BB008091DB019091DC01A091DD0142
:1006F000B091DE01892B8A2B8B2B99F00E942D0162
:100700000091DB011091DC012091DD013091DE01CF
:100710006C197D098E099F090617170728073907E5
:10072000E0F18091BC0083FDD9CF85EC8093BC00C3
:100730000E942D016B017C0180912402823009F41A
:1007400045C0809123028F3F61F180912302803266
:1007500041F18091230225C08091DB019091DC0161
:10076000A091DD01B091DE01892B8A2B8B2B09F43E
:100770008ACF0E942D010091DB011091DC012091B4
:10078000DD013091DE016C197D098E099F09061784
:1007900017072807390708F076CF8091DA010E9401
:1007A000010210924F0210924E021092B901DF9195
:1007B000CF911F910F91FF90EF90DF90CF90089510
:1007C0009D9191938F5F75CF85EEB0CF8091DB01C6
:1007D0009091DC01A091DD01B091DE01892B8A2B83
:1007E0008B2B09F4A9CF0E942D010091DB01109100
:1007F000DC012091DD013091DE016C197D098E094B
:100800009F09061717072807390708F095CFC5CFA6
:10081000089590E080E008950F931F93CF938C018B
:10082000C62F0E9421036C2F6460C8010E9421031F
:100830006C2F6B7FC8010E94210383EC90E001972D
:10084000F1F7CF911F910F9108950F931F93CF93BD
:10085000DF938C01D62FC42F607F642B0E940C0481
:1008600080E1D89FB00111246C2BC801DF91CF919A
:100870001F910F910C940C04EF92FF920F931F9312
:10088000CF93DF938C017A01677088E0689FB00195
:100890001124606440E0C8010E942504E701A8E03B
:1008A000EA0EF11C6991D801ED91FC910190F08163
:1008B000E02DC8010995CE15DF05A1F7DF91CF9195
:1008C0001F910F91FF90EF900895CF93DF93CDB7D5
:1008D000DEB728970FB6F894DEBF0FBECDBF28E075
:1008E000E1E2F1E0DE01119601900D922A95E1F727
:1008F000FC012085241710F44FEF420F50E0440F05
:10090000551F21E030E02C0F3D1F420F531FFA010D
:100910002081620F606840E028960FB6F894DEBF31
:100920000FBECDBFDF91CF910C94250440E061E074
:100930000E9425048BE39FE10197F1F7089541E0C0
:100940000E94250481E090E00895FB0101900020C1
:10095000E9F73197AF01461B570BDC01ED91FC9194
:100960000280F381E02D09948F929F92AF92BF9203
:10097000EF92FF920F931F93CF93DF93CDB7DEB724
:10098000A1970FB6F894DEBF0FBECDBF7C01FA0170
:10099000CB0119A2223008F42AE08E010F5D1F4F0F
:1009A000822E912CB12CA12CBF01A50194010E9493
:1009B000C40DF901CA016A300CF5605DD8016E936F
:1009C0008D01232B242B252B79F790E080E01097C5
:1009D00021F0BD01C7010E94A504A1960FB6F894AD
:1009E000DEBF0FBECDBFDF91CF911F910F91FF9062
:1009F000EF90BF90AF909F908F900895695CDECF8D
:100A0000CF92DF92EF92FF920F931F93CF93DF93DA
:100A100077FF1DC06A017B01EC016DE20E94880135
:100A20008C0144275527BA014C195D096E097F09CD
:100A30002AE0CE010E94B404800F911FDF91CF9174
:100A40001F910F91FF90EF90DF90CF9008952AE0D3
:100A5000DF91CF911F910F91FF90EF90DF90CF909A
:100A60000C94B404AB01770F660B770B0C94000564
:100A70004F925F926F927F928F929F92AF92BF92AE
:100A8000EF92FF920F931F93CF93DF938C014A0154
:100A90005B01E22EAB019401CB01B4010E94231053
:100AA00067E471E0811126C024013501E89477F8EC
:100AB0002FEF3FEF4FE75FE7C301B2010E94231022
:100AC00081110CC02FEF3FEF4FE75FE7C301B20189
:100AD0000E94590E6BE471E0181664F02FEF3FEF9F
:100AE0004FE75FE4C501B4010E94B10F18169CF4F2
:100AF0006FE471E0C801DF91CF911F910F91FF90DA
:100B0000EF90BF90AF909F908F907F906F905F908D
:100B10004F900C94A5042FEF3FEF4FE75FECC5011A
:100B2000B4010E94590E87FDE3CF20E030E0A90117
:100B3000C501B4010E94590ED0E0C0E087FF09C092
:100B40006DE2C8010E948801EC01B7FAB094B7F8D1
:100B5000B094FE2C712C60E070E080E09FE37E1486
:100B600040F420E030E040E251E40E945E0E7394D5
:100B7000F6CFA50194010E94ED0D4B015C010E948E
:100B8000D00E2B013C012AE0BC01A201C8010E9449
:100B9000B404C80FD91FEE20D1F1C301B2010E94E5
:100BA000FF0E9B01AC01C501B4010E94EC0D4B018D
:100BB0005C016EE2C8010E948801C80FD91FFA9437
:100BC0008FEFF81621F120E030E040E251E4C5015A
:100BD000B4010E94B60F2B013C010E94D00E4B01C4
:100BE000B12CA12C2AE0B501A401C8010E94B404D3
:100BF000C80FD91FC501B4010E94FF0E9B01AC01B3
:100C0000C301B2010E94EC0D4B015C01D8CFCE01B3
:100C1000DF91CF911F910F91FF90EF90BF90AF9018
:100C20009F908F907F906F905F904F900895611587
:100C3000710511F00C94A50490E080E0089585ED15
:100C40008093BC008091DB019091DC01A091DD01DB
:100C5000B091DE010796A11DB11D23E0B695A795C1
:100C6000979587952A95D1F72091BC0024FD03C064
:100C70001092240208954091DB015091DC016091B3
:100C8000DD017091DE01452B462B472B69F3009760
:100C9000A105B10541F025E32A95F1F70000019780
:100CA000A109B109E1CF8091DA010C9401022F92E0
:100CB0003F924F925F926F927F928F929F92AF92EC
:100CC000BF92CF92DF92EF92FF920F931F93CF9339
:100CD000DF93CDB7DEB72A970FB6F894DEBF0FBE0D
:100CE000CDBF8C012DB63EB6DC018D919C910E944A
:100CF0009604809118018823D1F01092180140E1E8
:100D000051E06FE0F801808191810E943C0448E04D
:100D100051E06EE0D8018D919C910E943C0440E02E
:100D200051E06DE0F801808191810E943C04D8017E
:100D30005F96EC915F97F0E03196EE0FFF1FE00FAA
:100D4000F11F808091800D911C91F401B28C808DF7
:100D5000BB2011F08B1508F4B82ED4015996AC9035
:100D60002B2D30E0AB1408F471C0A394AB18A9018B
:100D70004A0D511D8417150614F4A82EAB185A2CD1
:100D8000F901EA0DF11DFA87E987252D2A19852D2C
:100D900090E049855A85841795070CF0CEC1D4019F
:100DA00059964C90880F991FF401E80FF91FC080E5
:100DB000D180F401808DB81610F4D6012C93F60181
:100DC00040816181C8010E94650496012F5D3F4FFB
:100DD0003C832B837601A601465F5F4F5E834D8384
:100DE000AB81BC818D91BC83AB83813409F401C19B
:100DF00008F05EC0803209F4CEC0C0F5893009F435
:100E0000BCC030F5813009F4DFC0883009F4A9C0D6
:100E1000B2E0EB0EF11CED81FE81EE15FF0501F74E
:100E2000541077C1D60114968C91823009F461C1B7
:100E3000833009F470C1813009F07BC1D801ED9194
:100E4000FC910190F081E02D6FE061C1A12C97CF62
:100E5000803109F499C08131D9F6D7015796ED91C7
:100E6000FC914081518170E060E0A9C08C3309F4AD
:100E70006FC0A0F4813209F49AC0823349F6F601BA
:100E8000258130E0D7015796ED91FC914081518149
:100E900062817381C8010E943805BACF8F3308F090
:100EA000B7CFF7016789708DC8010E941706B0CFD0
:100EB000893D09F4FCC020F5803D09F4E2C080F4CE
:100EC000863409F488C0893C09F0A2CFD70157962F
:100ED000ED91FC91309709F49BCF0995682F79C06B
:100EE000813D09F4DAC0883D09F092CFD7015796C9
:100EF000ED91FC91309709F48BCF0995BC0139C075
:100F0000803F09F4E9C088F4883E09F4DAC0893EDC
:100F100009F07ECFD7015796ED91FC91309709F4F7
:100F200077CF0995AB01BC014AC08B3F09F49FC044
:100F30008C3F09F49CC08A3F09F06ACFD7015796CD
:100F4000ED91FC91309709F463CF0995682F05C0A6
:100F5000D7015796ED91FC916081C8010E948801EC
:100F600057CFD7015796ED91FC916081062E000C6A
:100F7000770BC8010E9432054BCFD7015796ED91F0
:100F8000FC91408150E06FCFD7015796ED91FC91D5
:100F900060817181EECFD7015796ED91FC91408130
:100FA000518162817381C8010E94000531CFD70150
:100FB0005796ED91FC9140815181628173812AE0C5
:100FC000C8010E94B40424CFD7015796ED91FC913B
:100FD000608170E0CECFF701A789B08DF8018081E4
:100FE0009181FC01208131816C91C801F901099541
:100FF0000FCF2DB73EB738872F83D70157966D9007
:101000007C90C3010E94BB0D9A83898389819A8158
:10101000EDB7FEB7E81BF90B0FB6F894FEBF0FBE95
:10102000EDBF6DB77EB76F5F7F4F20E0822F90E0FE
:1010300049815A818417950754F4F301E80FF91F89
:10104000E491860F971FDC01EC932F5FEFCFE981CE
:10105000FA81E60FF71F1082C8010E941706EF8180
:10106000F8850FB6F894FEBF0FBEEDBFD1CED70105
:101070005796ED91FC91309709F4CACE0995BC01C1
:1010800013CFD7015796ED91FC91309709F4C0CE5C
:101090000995682F880F770B6CCFD7015796ED9184
:1010A000FC91309709F4B4CE0995482F6BCFD70146
:1010B0005796ED91FC91309709F4AACE0995AC01B1
:1010C000D2CED7015796ED91FC91309709F4A0CE7E
:1010D0000995AB01BC0167CFD7015796ED91FC9103
:1010E000309709F495CE0995AB01BC0122E030E0C0
:1010F000D1CEF601618161504081C8010E94650432
:10110000D801ED91FC910190F081E02D6EE0C801D5
:10111000099553943ACEF60142816381C8010E9439
:101120006504D801ED91FC910190F081E02D6DE016
:10113000EECF21E0F601248381CE0FB6F8943EBEB7
:101140000FBE2DBE2A960FB6F894DEBF0FBECDBFE0
:10115000DF91CF911F910F91FF90EF90DF90CF9093
:10116000BF90AF909F908F907F906F905F904F90C7
:101170003F902F9008951F920F920FB60F92112457
:101180002F933F938F939F93AF93BF93809153027D
:1011900090915402A0915502B091560230915202A2
:1011A00023E0230F2D3758F50196A11DB11D209383
:1011B00052028093530290935402A0935502B0932D
:1011C00056028091570290915802A0915902B09115
:1011D0005A020196A11DB11D8093570290935802A7
:1011E000A0935902B0935A02BF91AF919F918F91F2
:1011F0003F912F910F900FBE0F901F90189526E8EA
:10120000230F0296A11DB11DD2CF1F920F920FB6D0
:101210000F9211242F933F934F935F936F937F937C
:101220008F939F93AF93BF93EF93FF93E0911F0131
:10123000F09120010995FF91EF91BF91AF919F919E
:101240008F917F916F915F914F913F912F910F906F
:101250000FBE0F901F9018951F920F920FB60F920E
:1012600011242F933F934F935F936F937F938F93AB
:101270009F93AF93BF93EF93FF93E0911D01F09184
:101280001E010995FF91EF91BF91AF919F918F91B1
:101290007F916F915F914F913F912F910F900FBE72
:1012A0000F901F9018951F920F920FB60F92112456
:1012B0002F933F934F935F936F937F938F939F935E
:1012C000AF93BF93EF93FF938091B900887F8036EF
:1012D00009F44AC0F0F5883209F4A7C018F5803146
:1012E00009F49BC0B8F4882309F4F9C0883009F4E4
:1012F00094C0FF91EF91BF91AF919F918F917F919A
:101300006F915F914F913F912F910F900FBE0F9072
:101310001F901895883109F488C0803251F7809366
:10132000230214C0803409F49DC040F48033B9F323
:101330008833F9F68093230285ECB0C0803509F438
:1013400085C0883509F496C0883499F60E941F0636
:10135000D0CF883909F48CC038F5883729F050F49B
:10136000883611F0803729F683E0809324021092AA
:10137000220257C0883809F47BC0803919F08038C0
:1013800009F0B7CF80912202803208F071C0E0915D
:10139000220281E08E0F809322028091BB00F0E058
:1013A000EE5FFD4F80833DC0803B39F0E0F4803A32
:1013B00009F479C0883A09F09CCF84E08093240234
:1013C0001092010210920002E0914C02F0914D0245
:1013D00009958091000281110FC081E08093000285
:1013E0001092E00109C0803C09F4A6CF883C09F4C2
:1013F000A3CF883B09F07DCFE091010281E08E0F01
:1014000080930102F0E0E052FE4F80818093BB00A8
:10141000909101028091000229C08091490280933D
:10142000BB0085EC8093BC0064CF90914802809112
:101430004702981758F5E091480281E08E0F80939B
:101440004802F0E0E95DFD4F8081E9CFE09148027C
:1014500081E08E0F809348028091BB00F0E0E95D4F
:10146000FD4F808390914802809147029817C8F2FF
:1014700085E8D8CFE091480281E08E0F8093480242
:101480008091BB00F0E0E95DFD4F808380912602F2
:1014900081115CCF81E08093250284EA8093BC00B7
:1014A0001092240226CF85EC8093BC001092240277
:1014B00080912202803230F4E0912202F0E0EE5F6F
:1014C000FD4F10826091220270E0E0914A02F0919B
:1014D0004B0282E092E00995109222020ACF10920C
:1014E000230234CFCF92DF92EF92FF92CF93DF931C
:1014F00010925E0210925D0288EE93E0A0E0B0E0F0
:1015000080935F0290936002A0936102B0936202A5
:101510008DE291E090935C0280935B0282E00E94F6
:10152000B90083E00E94B900E0EBF0E0E491F0E064
:10153000EE0FFF1FEC55FF4FA591B491B09334030C
:10154000A0933303E2E9F0E0449140933703E1EBE9
:10155000F0E0E491F0E0EE0FFF1FEC55FF4FC59176
:10156000D491D0933603C0933503E3E9F0E0E491DE
:10157000E093380310923A0310923B0310923C031D
:1015800010923D032BE33FE1C9010197F1F79C91D4
:10159000842F892391E009F490E08881E82309F001
:1015A000926023E333E090933903309368022093F1
:1015B00067028AEE92E090931E0180931D01809154
:1015C00069008C7F816080936900E89A81E0809354
:1015D0003E0330936A022093690280EF92E0909379
:1015E000200180931F0180916900837F8460809334
:1015F0006900E99A82E080933E03C7E2D3E010924B
:101600002A03109229032FE331E03093280320931B
:10161000270397E290932B0390E1909330038093FC
:1016200031031092320310922503109226030E9478
:10163000F6026B010E94F60270930C0360930B0399
:10164000D0920E03C0920D0386E090E090931003B9
:1016500080930F03D0931203C093110385E193E0AD
:101660009093140380931303D0936C02C0936B0286
:101670001092890210928A02D0938C02C0938B023E
:101680001092A9021092AA02D093AC02C093AB02AE
:101690001092C9021092CA02D093CC02C093CB021E
:1016A0001092E9021092EA02D093EC02C093EB028E
:1016B0001092090310920A03DF91CF91FF90EF90EF
:1016C000DF90CF900895CF93DF93CDB7DEB7C85B9F
:1016D000D1090FB6F894DEBF0FBECDBF789484B5A4
:1016E000826084BD84B5816084BD85B5826085BD1E
:1016F00085B5816085BD80916E00816080936E00AC
:10170000109281008091810082608093810080919D
:10171000810081608093810080918000816080934E
:1017200080008091B10084608093B1008091B0000E
:1017300081608093B00080917A00846080937A0009
:1017400080917A00826080937A0080917A00816033
:1017500080937A0080917A00806880937A0010925A
:10176000C100109251021092500210924F0210923A
:101770004E020E94E30185E891E090934D02809330
:101780004C0286E891E090934B0280934A021092BB
:101790002C0380913103823018F098E090932C0351
:1017A00080932F0362E370E080E090E00E9452019A
:1017B0006091320387E293E00E94210368EE73E0B8
:1017C00080E090E00E94520160E387E293E00E9493
:1017D0000C040BE416E4C8010197F1F760E387E21B
:1017E00093E00E940C04C8010197F1F760E387E2DF
:1017F00093E00E940C0483E592E00197F1F760E228
:1018000087E293E00E940C0460912C03606240E048
:1018100087E293E00E94250484E080932D0340E05A
:101820006CE087E293E00E94250487E293E00E9447
:10183000960422E0F22EF0922E0340E066E087E26A
:1018400093E00E94250440E062E087E293E00E947A
:1018500025048BE39FE10197F1F786E00E94B90030
:1018600040E060E080911103909112030E946504B2
:1018700063E571E080911103909112030E941706B5
:1018800041E060E080911103909112030E94650491
:1018900063E671E080911103909112030E94170694
:1018A00068EE73E080E090E00E9452014CE651E067
:1018B00060E0CE018A589F4F0E948C0048E751E0BB
:1018C00061E0CE01815B9F4F0E948C0045E851E0B2
:1018D00061E0CE0188960E948C0041E951E061E010
:1018E000CE0101960E948C008E0103561F4FD80135
:1018F00058961C92589759961C9259975B961C9231
:10190000BE016A587F4FC8010E940B03BE01615B94
:101910007F4FC8010E940B03BE01685D7F4FC80165
:101920000E940B03BE016F5F7F4FC8010E940B0333
:1019300024E831E0EF963FAF2EAFEF9781E0C45639
:10194000DF4F8883CC59D04068963FAF2EAF689761
:10195000E6968FAFE69738AB2FA72F968FAF2F97CE
:10196000398728878FA3F801F28E809189028E3003
:1019700058F4E82FF0E0EE0FFF1FE359FD4F1183FD
:1019800000838F5F80938902E0918A02F0E0EE0F7E
:10199000FF1FE359FD4F0190F081E02D808D8823DA
:1019A00031F0A081B18196968C918111118E409178
:1019B00089022DE632E080E052E04817B1F0D9010B
:1019C000ED91FD919D01608D90E0691761F0A1910D
:1019D000B19114965C93149713961C9213971296D8
:1019E0001C929F5FF2CF8F5FE8CFA0911303B0915D
:1019F000140350968C915097883068F4E82FF0E0EB
:101A0000EE0FFF1FEA0FFB1F2BE632E0318320832E
:101A10008F5F50968C930E94F60260931901709329
:101A20001A0180931B0190931C01E0912603F0E0C2
:101A3000EE0FFF1FEB5EFC4F808191810E945706E5
:101A400010E0E12E10E0F12E0E94F6024B015C0145
:101A50004091190150911A0160911B0170911C0174
:101A600084169506A606B70609F43FC0E091260342
:101A7000F0E0EE0FFF1FEB5EFC4F00811181F801DB
:101A800080819181481559056A057B050CF044C099
:101A90000E949604D8015F96EC91F0E03196EE0F2B
:101AA000FF1FE00FF11FA081B1815996EC9159976A
:101AB000E11122C058968C91589759968C93C80181
:101AC0000E9457068092190190921A01A0921B0160
:101AD000B0921C01E0912603F0E0EE0FFF1FEB5ED9
:101AE000FC4F808191810E945706E114F10409F4B2
:101AF000ABCF0E940000A8CFE1505996EC935997C4
:101B0000F0E0EE0FFF1FEA0FFB1F0190F081E02DC8
:101B100086A1882351F2D3CF0E949604D8015F9604
:101B2000EC91F0E03196EE0FFF1FE00FF11FA08166
:101B3000B18158969C91589759968C9159978917CD
:101B4000B0F48F5F59968C935997981709F4B7CFD3
:101B50005996EC915997F0E0EE0FFF1FEA0FFB1F2B
:101B60000190F081E02D86A1882331F3A8CF59960A
:101B70001C925997EDCFFC0105900020E9F7809564
:101B800090958E0F9F1F0895A1E21A2EAA1BBB1BD2
:101B9000FD010DC0AA1FBB1FEE1FFF1FA217B30739
:101BA000E407F50720F0A21BB30BE40BF50B661F4F
:101BB000771F881F991F1A9469F760957095809513
:101BC00090959B01AC01BD01CF010895EE0FFF1F61
:101BD0000590F491E02D09945058BB27AA270E9444
:101BE000040E0C94770F0E94690F38F00E94700F5A
:101BF00020F039F49F3F19F426F40C94660F0EF48C
:101C0000E095E7FB0C94600FE92F0E94880F58F3D2
:101C1000BA17620773078407950720F079F4A6F5D1
:101C20000C94AA0F0EF4E0950B2EBA2FA02D0B01E9
:101C3000B90190010C01CA01A0011124FF27591B11
:101C400099F0593F50F4503E68F11A16F040A22F17
:101C5000232F342F4427585FF3CF46953795279588
:101C6000A795F0405395C9F77EF41F16BA0B620B87
:101C7000730B840BBAF09150A1F0FF0FBB1F661FCE
:101C8000771F881FC2F70EC0BA0F621F731F841F11
:101C900048F4879577956795B795F7959E3F08F037
:101CA000B0CF9395880F08F09927EE0F97958795F9
:101CB00008950E943C0F08F481E008950E94720E7E
:101CC0000C94770F0E94700F58F00E94690F40F03B
:101CD00029F45F3F29F00C94600F51110C94AB0F65
:101CE0000C94660F0E94880F68F39923B1F3552373
:101CF00091F3951B550BBB27AA276217730784071F
:101D000038F09F5F5F4F220F331F441FAA1FA9F3B4
:101D100035D00E2E3AF0E0E832D091505040E695A2
:101D2000001CCAF72BD0FE2F29D0660F771F881F03
:101D3000BB1F261737074807AB07B0E809F0BB0BF6
:101D4000802DBF01FF2793585F4F3AF09E3F51050A
:101D500078F00C94600F0C94AB0F5F3FE4F3983E67
:101D6000D4F3869577956795B795F7959F5FC9F7F3
:101D7000880F911D9695879597F90895E1E0660F74
:101D8000771F881FBB1F621773078407BA0720F0ED
:101D9000621B730B840BBA0BEE1F88F7E095089556
:101DA0000E94900F88F09F5798F0B92F9927B7514C
:101DB000B0F0E1F0660F771F881F991F1AF0BA95EF
:101DC000C9F714C0B13091F00E94AA0FB1E0089594
:101DD0000C94AA0F672F782F8827B85F39F0B93F86
:101DE000CCF3869577956795B395D9F73EF49095A2
:101DF0008095709561957F4F8F4F9F4F0895E89420
:101E000009C097FB3EF490958095709561957F4F42
:101E10008F4F9F4F9923A9F0F92F96E9BB279395F0
:101E2000F695879577956795B795F111F8CFFAF400
:101E3000BB0F11F460FF1BC06F5F7F4F8F4F9F4F31
:101E400016C0882311F096E911C0772321F09EE88F
:101E5000872F762F05C0662371F096E8862F70E0F5
:101E600060E02AF09A95660F771F881FDAF7880FCF
:101E70009695879597F90895990F0008550FAA0B25
:101E8000E0E8FEEF16161706E807F907C0F012168D
:101E90001306E407F50798F0621B730B840B950B90
:101EA00039F40A2661F0232B242B252B21F40895E5
:101EB0000A2609F4A140A6958FEF811D811D089582
:101EC00097F99F6780E870E060E008959FEF80ECED
:101ED000089500240A941616170618060906089590
:101EE00000240A9412161306140605060895092EF6
:101EF0000394000C11F4882352F0BB0F40F4BF2B65
:101F000011F460FF04C06F5F7F4F8F4F9F4F0895A4
:101F100057FD9058440F551F59F05F3F71F047959A
:101F2000880F97FB991F61F09F3F79F0879508957F
:101F3000121613061406551FF2CF4695F1DF08C09E
:101F4000161617061806991FF1CF869571056105BB
:101F500008940895E894BB2766277727CB0197F963
:101F600008950E943C0F08F48FEF08950E94C90F56
:101F70000C94770F0E94690F38F00E94700F20F0C8
:101F8000952311F00C94600F0C94660F11240C949F
:101F9000AB0F0E94880F70F3959FC1F3950F50E02F
:101FA000551F629FF001729FBB27F00DB11D639F0B
:101FB000AA27F00DB11DAA1F649F6627B00DA11DB1
:101FC000661F829F2227B00DA11D621F739FB00D57
:101FD000A11D621F839FA00D611D221F749F3327C7
:101FE000A00D611D231F849F600D211D822F762F60
:101FF0006A2F11249F5750409AF0F1F088234AF03D
:10200000EE0FFF1FBB1F661F771F881F91505040A8
:10201000A9F79E3F510580F00C94600F0C94AB0F14
:102020005F3FE4F3983ED4F3869577956795B7952F
:10203000F795E7959F5FC1F7FE2B880F911D969549
:10204000879597F908950E943C0F880B990B089586
:04205000F894FFCF32
:1020540000000E0E0E0000000004021F0204000027
:102064000004081F080400000119FCFFFF87018712
:102074000100004000140054000000000079024CEC
:102084000209042202450232022302000000009FDA
:10209400048F01090408046E616E00696E66006FA6
:1020A400766600556E69766572736964616420644E
:1020B400656C00706163696669636F004D6F6E697A
:1020C400746F72697A617200436F6E74726F6C2000
:1020D40054656D7000436F6E74726F6C204C757A2A
:0820E4000047726162617200A5
:00000001FF
