:100000000C9462000C94F6140C94CF140C948A0097
:100010000C948A000C948A000C948A000C948A0038
:100020000C948A000C948A000C948A000C948A0028
:100030000C948A000C948A000C948A000C948A0018
:100040000C9485140C948A000C9443150C941D1583
:100050000C948A000C948A000C948A000C948A00F8
:100060000C9475150C948A000000000024002700F1
:100070002A0000000000250028002B0000000008D6
:10008000000201000003040700000000000000005F
:10009000010204081020408001020408102001021F
:1000A000040810200000000023002600290004049A
:1000B0000404040404040202020202020303030310
:1000C0000303F81611241FBECFEFD8E0DEBFCDBF6B
:1000D00028E0AEE3B2E001C01D92AF34B207E1F711
:1000E00012E0A0E0B1E0E4ECF1E402C005900D9272
:1000F000AE33B107D9F710E0C2E6D0E004C02197D3
:10010000FE010E948F1EC136D107C9F70E94D01888
:100110000C94E0200C94000008950895833081F041
:1001200028F4813099F08230A9F008958730A9F041
:100130008830C9F08430B1F4809180008F7D03C095
:10014000809180008F7780938000089584B58F77A9
:1001500084BD089584B58F7DFBCF8091B0008F77EB
:100160008093B00008958091B0008F7DF9CF1F93E8
:10017000CF93DF93282F30E0F901E458FF4F8491AB
:10018000F901E057FF4FD491F901E255FF4FC491B7
:10019000CC23A9F0162F81110E948E00EC2FF0E0E5
:1001A000EE0FFF1FEE58FF4FA591B4918FB7F89453
:1001B000EC91111108C0D095DE23DC938FBFDF9145
:1001C000CF911F910895DE2BF8CFCF93DF9390E06E
:1001D000FC01E057FF4F249182559F4FFC01849111
:1001E0008823C9F090E0880F991FFC01E859FF4F60
:1001F000A591B491FC01EE58FF4FC591D4916111C6
:100200000DC09FB7F8948C91209582238C938881A0
:10021000282328839FBFDF91CF910895623051F446
:100220009FB7F8943C91822F809583238C93E8812B
:100230002E2BEFCF8FB7F894EC912E2B2C938FBFF2
:10024000EACF3FB7F8948091900290919102A091EB
:100250009202B091930226B5A89B05C02F3F19F0DA
:100260000196A11DB11D3FBFBA2FA92F982F882736
:10027000BC01CD01620F711D811D911D42E0660F11
:10028000771F881F991F4A95D1F708958F929F92E3
:10029000AF92BF92CF92DF92EF92FF924B015C013F
:1002A0000E9421016B017C010E9421016C197D09D2
:1002B0008E099F09683E734081059105A8F321E0EE
:1002C000821A9108A108B10888EEC80E83E0D81EF2
:1002D000E11CF11C81149104A104B10429F7FF90E1
:1002E000EF90DF90CF90BF90AF909F908F90089548
:1002F0002FB7F89460918C0270918D0280918E02DC
:1003000090918F022FBF089508950895DC01ED911B
:10031000FC910190F081E02D0994AF92BF92CF92B1
:10032000DF92EF92FF920F931F93CF93DF936C01B5
:100330007B018B01040F151FEB015E01AE18BF0896
:10034000C017D10759F06991D601ED91FC91019048
:10035000F081E02DC6010995892B79F7C501DF9160
:10036000CF911F910F91FF90EF90DF90CF90BF90B2
:10037000AF900895FC01538D448D252F30E0842FDC
:1003800090E0821B930B541710F0CF9608950197BD
:100390000895FC01918D828D981761F0A28DAE0FAA
:1003A000BF2FB11D5D968C91928D9F5F9F73928F31
:1003B00090E008958FEF9FEF0895FC01918D828D5D
:1003C000981731F0828DE80FF11D858D90E008952A
:1003D0008FEF9FEF0895FC01918D228D892F90E082
:1003E000805C9F4F821B91098F73992708958CE041
:1003F00095E00E94EB0121E0892B09F420E0822F97
:10040000089580E090E0892B29F00E94F701811186
:100410000C9400000895FC01A48DA80FB92FB11D04
:10042000A35ABF4F2C91848D90E001968F7399272A
:10043000848FA689B7892C93A089B1898C91837008
:1004400080648C93938D848D981306C00288F38901
:10045000E02D80818F7D80830895EF92FF920F932E
:100460001F93CF93DF93EC0181E0888F9B8D8C8D60
:1004700098131AC0E889F989808185FF15C09FB754
:10048000F894EE89FF896083E889F9898081837017
:10049000806480839FBF81E090E0DF91CF911F91C6
:1004A0000F91FF90EF900895F62E0B8D10E00F5FE7
:1004B0001F4F0F731127E02E8C8D8E110CC00FB6BD
:1004C00007FCFACFE889F989808185FFF5CFCE0155
:1004D0000E940B02F1CFEB8DEC0FFD2FF11DE35AC3
:1004E000FF4FF0829FB7F8940B8FEA89FB898081D8
:1004F0008062CFCFCF93DF93EC01888D8823B9F052
:10050000AA89BB89E889F9898C9185FD03C080811E
:1005100086FD0DC00FB607FCF7CF8C9185FFF2CF9B
:10052000808185FFEDCFCE010E940B02E9CFDF91E4
:10053000CF9108958FB7F894809183028FBF08956B
:1005400061E0FC0184810E94B700809182028111E8
:100550001092820208958EBD00000DB407FEFDCFFB
:100560008EB508958FEF0C94AB020F931F93CF932A
:10057000DF93EC010E9478018B010E94B2028F3F51
:1005800069F00E947801601B710B6C177D07A8F35E
:1005900080E0DF91CF911F910F91089581E0F9CF15
:1005A0008CBD9DBD0895CF93DF93EC0180918202B5
:1005B000811109C081E0809382028091A905909108
:1005C000AA050E94D00260E08C81DF91CF910C944B
:1005D000B7008F929F92AF92BF92FF920F931F939B
:1005E000CF93DF93EC01F62E49015A018E818823C7
:1005F00089F08F8198859C012F5F3F4F38872F832B
:100600008230924018F40E94B202F3CFCE010E94D1
:10061000A0021E82CE010E94D3028CE291E00E94D1
:10062000B5028F2D80640E94AB0208E110E0D50175
:10063000C401002E04C0B695A795979587950A9496
:10064000D2F70E94AB0208501109083F8FEF18073C
:1006500071F785E9FF2021F028E087E8F2128FEF9B
:100660000E94AB0210E00E94B2028A8787FF04C09A
:100670001F3F11F01F5FF7CFDF91CF911F910F91B7
:10068000FF90BF90AF909F908F900895CF92DF9290
:10069000EF92FF920F93CF93DF93EC01690182E118
:1006A000411551056105710599F08B85833039F04D
:1006B00089E0440F551F661F771F8A95D1F79A016D
:1006C000AB0168E1CE010E94E902882319F084E0C1
:1006D0008D832DC08EEF0E94AB0276018EEFD81A6B
:1006E000F70181917F010E94AB02EC14FD04C1F778
:1006F0008FEF0E94AB028FEF0E94AB020E94B2020A
:100700008A878F71853071F4011116C0CE010E9465
:10071000A00281E0DF91CF910F91FF90EF90DF90E9
:10072000CF90089581E18D83CE010E94A002CE0179
:100730000E94A00280E0EECF88E592E00E94B50220
:10074000811102C085E1C4CF20E030E0A9016DE055
:10075000CE010E94E902882311F084E1B9CF0E9402
:10076000B2028111FACFD2CF0F93409185025091FE
:1007700086026091870270918802411551056105DA
:10078000710599F0082F24E932E08091940490914A
:1007900095040E944603882349F010928502109226
:1007A0008602109287021092880281E00F910895CC
:1007B0000F93CF93C82F80918402811105C0C1E0AF
:1007C0008C2FCF910F910895409104015091050114
:1007D00060910601709107010C2F24E932E08091AD
:1007E0009404909195040E944603811102C0C0E0D8
:1007F000E7CFCC2321F381E00E94B4038823B9F32F
:1008000010928402DDCF9F92AF92BF92CF92DF927F
:10081000EF92FF920F931F93CF93DF936B017C01B5
:10082000942E8091040190910501A0910601B09150
:1008300007018C159D05AE05BF0509F494C081E044
:100840000E94D803882389F1C0919404D091950423
:100850008E81882371F088819981AA81BB81C81615
:10086000D906EA06FB0629F48F819885892B09F4BD
:1008700043C0C882D982EA82FB828B85A701960198
:10088000833039F099E0220F331F441F551F9A958A
:10089000D1F761E1CE010E94E902882391F083E063
:1008A0008D83CE010E94A00280E0DF91CF911F9145
:1008B0000F91FF90EF90DF90CF90BF90AF909F90FF
:1008C00008950E9478018B010E94B2028A878F3FAF
:1008D00069F40E947801601B710B6D327140A0F3C6
:1008E0008FE08D83CE010E94A002DBCF8E3F69F5A1
:1008F00018861F8281E08E8304E912E084E9A82E25
:1009000084E0B82E0E94B202F80181938F01AE16E6
:10091000BF06C1F78F8198859E5F98878F83298551
:10092000222319F081159240B0F08E81882399F02E
:100930008F8198859C012F5F3F4F38872F838230AE
:10094000924028F40E94B202F3CF8DE0CACFCE01CC
:100950000E94A0021E82C0920401D0920501E09282
:100960000601F092070140918402492940938402D4
:1009700081E09BCF8F929F92AF92BF92CF92DF92F6
:10098000EF92FF92CF932BEA35E0309395042093BA
:100990009404882309F46DC040E060E070E0CB016E
:1009A0000E94030481110BC080E0CF91FF90EF9073
:1009B000DF90CF90BF90AF909F908F9008958091DF
:1009C00052048F7789F780915E0490915F04A09123
:1009D0006004B091610484369105A105B10520F34E
:1009E000C0905A04D0905B04E0905C04F0905D04E9
:1009F000C114D104E104F104B9F240E0C701B60129
:100A00000E940304882381F280919F029091A002AA
:100A10008115924049F6A091A402AA2329F260917F
:100A2000A2027091A3026115710509F4BDCF209156
:100A3000A102222309F4B8CFA093C9052093BB05D6
:100A400090E080E030E0E1E0F0E0C82FAF01082E58
:100A500002C0440F551F0A94E2F72417350769F0C6
:100A600041E0480F01968930910579F74093C4051C
:100A70009BCFC12CD12C7601C0CF8093C40520918F
:100A8000AA023091AB0250E040E02115310541F45B
:100A90002091B8023091B9024091BA025091BB0244
:100AA0002093BC053093BD054093BE055093BF0510
:100AB00046015701860E971EA11CB11C8092CA05E3
:100AC0009092CB05A092CC05B092CD05E091A50205
:100AD000F091A602F093D005E093CF05B0E00E941C
:100AE000751EDC01CB01880D991DAA1DBB1D8093CD
:100AF000D1059093D205A093D305B093D40525E0FA
:100B0000EE0FFF1F2A95E1F7E150FE4FEF2FFF2771
:100B1000E6958E0F9F1FA11DB11D8093C505909373
:100B2000C605A093C705B093C8058090A702909012
:100B3000A802B12CA12C8114910441F48090B4023C
:100B40009090B502A090B602B090B702C81AD90A28
:100B5000EA0AFB0AC80CD91CEA1CFB1C04C0F69468
:100B6000E794D794C794CA95D2F7C092C005D092A3
:100B7000C105E092C205F092C30585EFC8168FE06B
:100B8000D806E104F10428F48CE08093CE0581E0DE
:100B90000CCF80E125EFC2162FEFD206E104F1045D
:100BA000A0F38091C0029091C102A091C202B091C5
:100BB000C3028093D1059093D205A093D305B0933F
:100BC000D40580E2E2CF4F925F926F927F928F9234
:100BD0009F92AF92BF92CF92DF92EF92FF920F93CC
:100BE0001F93CF93DF93EC014230510561057105EE
:100BF00090F480E0DF91CF911F910F91FF90EF90E3
:100C0000DF90CF90BF90AF909F908F907F906F902C
:100C10005F904F90089589859A85AB85BC85019634
:100C2000A11DB11D84179507A607B70710F3CB8840
:100C3000DC88ED88FE888F89803109F042C0BB27AF
:100C4000A72F962F852F480159012A013B01C80E75
:100C5000D91EEA1EFB1E8091040190910501A0910E
:100C60000601B0910701C816D906EA06FB0699F5F8
:100C70008F898031C1F5B301A201552766277727F7
:100C8000440F551F4C565D4FFA019182808280912E
:100C900084028160809384028A89823080F08D8111
:100CA0009E81AF81B8858C0D9D1DAE1DBF1D8093AB
:100CB000850290938602A0938702B093880281E018
:100CC00099CFDB01CA01E7E0B695A795979587957F
:100CD000EA95D1F7B8CF40E0C701B6010E940304FE
:100CE0008111C6CF86CFB301A2014F775527662762
:100CF0007727440F551F440F551F4C565D4FFA017F
:100D000080829182A282B382C2CF8F929F92AF9251
:100D1000BF92CF92DF92EF92FF920F931F93CF93E8
:100D2000DF93FC0181859285A385B4850196A11D81
:100D3000B11D84179507A607B70770F480E0DF910F
:100D4000CF911F910F91FF90EF90DF90CF90BF90C8
:100D5000AF909F908F90089583889488A588B688D7
:100D60008789803189F5BB27A72F962F852FE90129
:100D70006A017B018F01BC01CD01680D791D8A1DBF
:100D80009B1D8090040190900501A0900601B090F9
:100D9000070186169706A806B90601F5F8018789A6
:100DA000803111F5DD24EE24FF24F601EE0FFF1F44
:100DB000EC56FD4F80819181B0E0A0E0888399835B
:100DC000AA83BB8381E0BBCFDB01CA01C7E0B69534
:100DD000A79597958795CA95D1F7C9CF40E00E940E
:100DE00003048111DBCFAACFE894C7F8DD24EE24F9
:100DF000FF24F601EE0FFF1FEE0FFF1FEC56FD4F15
:100E000080819181A281B381BF70D8CF8F929F9250
:100E1000AF92BF92CF92DF92EF92FF920F931F9308
:100E2000CF93DF93EC018D8181110EC080E0DF91C3
:100E3000CF911F910F91FF90EF90DF90CF90BF90D7
:100E4000AF909F908F9008950B891C892D893E89C2
:100E5000041715072607370748F34A015B0182305C
:100E600031F48A869B86AC86BD8681E0E0CF811412
:100E70009104A104B10449F41E821F8218861986C8
:100E80001A861B861C861D86F0CF0A851B852C853D
:100E90003D85EB8DFC8D858590E00996B901A80113
:100EA0004150510961097109082E04C07695679572
:100EB000579547950A94D2F775016401E1E0CE1A7F
:100EC000D108E108F10804C0F694E794D794C794D8
:100ED0008A95D2F7C416D506E606F70620F0012B50
:100EE000022B032B11F58F89988DA98DBA8D8E83D6
:100EF0009F83A887B9878E010A5F1F4FC114D10451
:100F0000E104F10409F4ADCF4E815F8168857985F4
:100F100098018B8D9C8D0E94850691E0C91AD1089D
:100F2000E108F1088111EACF81CFC41AD50AE60A97
:100F3000F70AE1CF3F924F925F926F927F928F922A
:100F40009F92AF92BF92CF92DF92EF92FF920F9358
:100F50001F93CF93DF93CDB7DEB72C970FB6F894DE
:100F6000DEBF0FBECDBF5C01DC015B968D909C9017
:100F70005C9716964D905D906D907C9019974114FA
:100F800051046104710409F468C0BFEF4B1A5B0A95
:100F90006B0A7B0A312CF40181859285A385B48587
:100FA0009C01AD012F5F3F4F4F4F5F4F29873A871D
:100FB0004B875C87730162011D821E821F82188627
:100FC000F40181859285A385B4852D813E814F8171
:100FD0005885281739074A075B0708F056C08985E6
:100FE0009A85AB85BC858C159D05AE05BF0550F473
:100FF00082E0C82ED12CE12CF12C92E0492E512C0C
:10100000612C712C9E012F5F3F4FB701A601C401D7
:101010000E9485068823C9F189819A81AB81BC81B0
:10102000892B8A2B8B2B09F1260137019FEF491A57
:10103000590A690A790A2D813E814F8158852F5FAF
:101040003F4F4F4F5F4F2D833E834F8358873FEF76
:10105000C31AD30AE30AF30AB3CFF40140805180E4
:10106000628073803324339496CFC414D504E6048D
:10107000F70409F70FEF1FEF2FEF3FE0B701A601CD
:10108000C4010E94E305811119C080E02C960FB6BF
:10109000F894DEBF0FBECDBFDF91CF911F910F91AE
:1010A000FF90EF90DF90CF90BF90AF909F908F9088
:1010B0007F906F905F904F903F900895D501169666
:1010C0004D915D916D917C91199741155105610587
:1010D000710539F097018601C4010E94E305882358
:1010E000A1F2D5011696CD92DD92ED92FC92199760
:1010F000332051F0D701C6010196A11DB11DF401A5
:1011000080839183A283B383F5018789908DA18D1C
:10111000B28D892B8A2B8B2B39F48481C78AD08E90
:10112000E18EF28E80688483F501848180628483FD
:1011300081E0ACCF1F93CF93DF93EC01162F8C810E
:1011400087FF2AC06E857F858889998941E00E9442
:101150000304882361F1EA8980E2E89FF001112409
:10116000EC56FD4F309719F18D81823040F48B8918
:101170009C89AD89BE89848F958FA68FB78F8F8903
:10118000988D938F828F8F89988DA98DBA8DB58B0D
:10119000A48B8C818F778C83111103C08C818F7EFF
:1011A0008C83812FDF91CF911F910C94D80380E025
:1011B000DF91CF911F910895FF920F931F93CF93CB
:1011C000DF93EC018D81813041F090E080E0DF9190
:1011D000CF911F910F91FF9008958C8181FFF5CFE2
:1011E00082FD1EC00091940410919504C8010E94D4
:1011F000D3020E94B202F82EC8010E94A0028FEF13
:10120000F812E3CF8C8185FF1EC08D81882321F0E9
:1012100060E0CE010E949A088C818F7D8C83D5CFAF
:101220004B895C896D897E898A859B85AC85BD8566
:1012300084179507A607B707A9F2CE010E940607F3
:101240008111D0CFC2CF409185025091860260912A
:10125000870270918802452B462B472B21F080E0B6
:101260000E94B403B2CF80618C832A853B853170A4
:1012700080E092E0821B930BAACF9F92AF92BF9225
:10128000CF92DF92EF92FF920F931F93CF93DF9352
:1012900000D000D01F92CDB7DEB78C016D83DC018A
:1012A00015968C911597813009F0B9C014968C91E0
:1012B00081FFB5C082FD9FC0D8015B96ED91FC9186
:1012C0005C971A96AD90BD90CD90DC901D97948060
:1012D0009A94B601A50189E076956795579547954B
:1012E0008A95D1F79422B1E0BB22992009F49FC0DE
:1012F000D8015B96ED91FC915C971696CD90DD90B0
:10130000ED90FC901997B2E0CB1AD108E108F108F2
:10131000858504C0CC0CDD1CEE1CFF1C8A95D2F721
:101320004685578560897189C40ED51EE61EF71E55
:10133000C90CD11CE11CF11CA114B10409F00AC1B3
:10134000F801428553856485758583899489A589CB
:10135000B689481759076A077B0708F4FBC081E084
:101360000E94D803882309F45AC0C0920401D09285
:101370000501E0920601F0920701809184028160EC
:1013800080938402F501EC56FD4F8D818083F80136
:1013900082859385A485B5850196A11DB11D82879F
:1013A0009387A487B58743895489658976894817C7
:1013B00059076A077B0738F42481838B948BA58BAC
:1013C000B68B20682483D80114968C9183FD9FC02E
:1013D00081E090E00F900F900F900F900F90DF91B1
:1013E000CF911F910F91FF90EF90DF90CF90BF9022
:1013F000AF909F900895F801438954896589768953
:1014000082859385A485B585481759076A077B07A8
:1014100009F452CFC8010E94060781114DCF81E027
:1014200090E0D80113969C938E93129749C0D801EF
:1014300016964D915D916D917C911997A114B1040F
:1014400009F071C0411551056105710589F557967F
:101450008D919D910D90BC91A02D0097A105B10596
:1014600009F04FC0C8010E949A078823C1F2D80131
:101470005B96ED91FC915C971696CD90DD90ED908A
:10148000FC901997B2E0CB1AD108E108F1088585E4
:1014900004C0CC0CDD1CEE1CFF1C8A95D2F74685DF
:1014A000578560897189C40ED51EE61EF71E48CF88
:1014B0009E012F5F3F4FCF010E948506811103C01F
:1014C00090E080E087CF89819A81AB81BC81F8016F
:1014D000238D348DF901278948EF5FEF60E070E0DC
:1014E000203121F048EF5FEF6FEF7FE08417950721
:1014F000A607B70730F0C8010E949A078111F8CEFD
:101500008ECFF80186839783A087B187F1CEF8014B
:101510008581882309F483CF61E0C8010E949A087D
:10152000811156CF7CCF6A017B01B2E0CB1AD10882
:10153000E108F108858504C0CC0CDD1CEE1CFF1C05
:101540008A95D2F74685578560897189C40ED51E64
:10155000E61EF71E41E0C701B6010E940304811197
:1015600011CF5DCF20915F02260F3327331F213229
:101570003105ECF42091E204FC0190E080E024309D
:1015800069F082E00895A0915F022191AC01415C75
:101590005D4FA40FB52FB11D2C930196861798F3BC
:1015A00080915F02680F60935F0280E0089581E0A0
:1015B00008951092E20481E08093E1041092BC044B
:1015C00061E082E10E94B70061E083E10E94B70020
:1015D000E9EBF0E080818E7F808380818D7F808346
:1015E00088E48093B80085E48093BC00089510924D
:1015F000BB041092BA041092E90410920B050E94E9
:10160000D90A8CE890E09093B9048093B8048DE8EF
:1016100090E09093B7048093B6040895CF93DF933E
:1016200091E090933E028823B9F0C091B800D09128
:10163000BA008091BC008A7B8093BC0060E082E1AC
:101640000E94B70060E083E10E94B7000E94D90ABF
:10165000D093BA00C093B800DF91CF9108958F92D4
:101660009F92AF92BF92CF92DF92EF92FF920F9331
:101670001F93CF93DF93D0910B05D13208F0D7C0E1
:10168000182FC0910A050E9421016B017C018091F5
:10169000E20481116BC082E08093E2041093E104C4
:1016A0008FEF8093E0041092DF04D093DE04AAEE63
:1016B000B4E0EEEBF4E080E0D81391C01092BD04EA
:1016C0008091BD04CC0FC82BC093BD048091BC0495
:1016D000813009F088C01092BC040E9421016B0186
:1016E0007C018091BD048093BB008091E4049091C3
:1016F000E504A091E604B091E704892B8A2B8B2B9B
:10170000A1F00E9421010091E4041091E5042091D0
:10171000E6043091E7046C197D098E099F090617CC
:1017200017072807390708F442C08091BC0083FDE1
:10173000D8CF85EC8093BC000E9421016B017C0115
:101740008091E204823009F450C08091E0048F3F20
:1017500009F46FC08091E004803209F46CC080917C
:10176000E004803309F469C084E026C08091E40479
:101770009091E504A091E604B091E704892B8A2BAF
:101780008B2B09F484CF0E9421018090E404909077
:10179000E504A090E604B090E7046C197D098E0979
:1017A0009F0986169706A806B90608F070CF8091A3
:1017B000E3040E940E0B85E01092E90410920B05E1
:1017C0001092E804DF91CF911F910F91FF90EF905D
:1017D000DF90CF90BF90AF909F908F9008959D9194
:1017E00091938F5F69CF85EEA5CF8091E4049091AE
:1017F000E504A091E604B091E704892B8A2B8B2B9A
:1018000009F49ECF0E9421010091E4041091E504A7
:101810002091E6043091E7046C197D098E099F0937
:10182000061717072807390708F08ACFC0CF81E0CD
:10183000C3CF80E0C1CF82E0BFCF83E0BDCFA09116
:101840001006B091110691E09093E80490E4909313
:101850000A051092E90410920B05ED91FC91119785
:101860000190F081E02D682FCD01099581E00E9463
:101870002F0B882329F081E880932A0680E00895C1
:1018800081E00895CF92DF92EF92FF920F931F9322
:10189000CF93DF93D82FC62F613208F098C00E94F3
:1018A00021016B017C018091E20481116BC081E018
:1018B0008093E2048093E1049FEF9093E004109200
:1018C000DF049C0F9093DE048093BD048091BD04DF
:1018D000DD0FD82BD093BD048091BC04813009F07A
:1018E00078C01092BC040E9421016B017C018091A0
:1018F000BD048093BB008091E4049091E504A09125
:10190000E604B091E704892B8A2B8B2BA1F00E946F
:1019100021010091E4041091E5042091E604309146
:10192000E7046C197D098E099F0906171707280718
:10193000390708F448C08091BC0083FDD8CF85ECFE
:101940008093BC000E9421016B017C018091E20424
:10195000813009F440C08091DF048C1710F4C091ED
:10196000DF04EEEBF4E0A6E9B4E080E08C1355C0B0
:101970008C2FDF91CF911F910F91FF90EF90DF900F
:10198000CF9008958091E4049091E504A091E6043D
:10199000B091E704892B8A2B8B2B09F484CF0E940A
:1019A00021010091E4041091E5042091E6043091B6
:1019B000E7046C197D098E099F0906171707280788
:1019C000390708F070CF8091E3040E940E0BC0E04D
:1019D000CFCF85EEB5CF8091E4049091E504A0913E
:1019E000E604B091E704892B8A2B8B2B09F4AECF48
:1019F0000E9421010091E4041091E5042091E60485
:101A00003091E7046C197D098E099F0906171707A5
:101A10002807390708F09ACFD6CF91919D938F5F11
:101A2000A5CF0895E091BB048091BA04E81730F483
:101A3000F0E0EA56FB4F808190E008958FEF9FEF32
:101A400008959091BB048091BA042FEF3FEF98174F
:101A500048F4E92FF0E0EA56FB4F208130E09F5F29
:101A60009093BB04C90108958091BA049091BB047E
:101A7000891B990B0895CF92DF92EF92FF920F93FB
:101A80001F93CF93DF937C01CB018A012091E8045F
:101A9000222389F0EB016B01C40ED51ECC15DD05A8
:101AA00069F06991D701ED91FC910190F081E02DF1
:101AB000C7010995F3CF642F0E94B20AC801DF91D4
:101AC000CF911F910F91FF90EF90DF90CF900895ED
:101AD000CF93DF931F92CDB7DEB769832091E804DF
:101AE0002223F9F020910B05203258F021E030E05C
:101AF000FC013383228390E080E00F90DF91CF914F
:101B000008958091E904E82FF0E0E651FB4F9981B8
:101B100090838F5F8093E90480930B0581E090E0D0
:101B2000ECCF61E0CE0101960E94B20AF7CFDC0152
:101B3000ED91FD918081ED91FD919081ED91FD916F
:101B40006C9163708E2309F064609F2309F06860D4
:101B5000E4EBFDE0E60FF11D659565956D936D91E4
:101B60007D918D919D91099423C01AC012C016C019
:101B700010C01EC009C014C013C006C019C009C0DF
:101B80000DC007C00DC014C062507040804090402E
:101B90000BC0615070408040904006C06E5F01C035
:101BA0006F5F7F4F8F4F9F4F9E938E937E936E9369
:101BB00008958091F4059091F5050C94970D80910E
:101BC000F6059091F7050C94970DFC01808D8C30F3
:101BD00080F4A82FB0E0AA0FBB1FAE0FBF1F6D93FC
:101BE0007C938F5F808F918D9F5F918F828F81E03B
:101BF000089580E00895FC01248131E03093E804E9
:101C000020930A051092E90410920B058385682B36
:101C100084E096E00E94680D81E00C942F0B0895FB
:101C200090E080E008958F929F92AF92BF92CF9202
:101C3000DF92EF92FF920F931F93CF93DF93182FB2
:101C4000092FC62E63E080E40E94420C1092BB0470
:101C50008093BA040E9478014B015C01D12CF12CD5
:101C6000E12C8091100690911106DC01ED91FC9120
:101C70000084F185E02D0995039724F1C12FD02F21
:101C80008E010D5F1F4F8091100690911106DC01AF
:101C9000ED91FC910284F385E02D099589930C1751
:101CA0001D0789F710922A0681E0DF91CF911F91DD
:101CB0000F91FF90EF90DF90CF90BF90AF909F90EB
:101CC0008F9008950E947801681979098A099B0903
:101CD000C616D706E806F90620F682E880932A069B
:101CE00080E0E3CF0F931F93CF93DF9300D01F9239
:101CF000CDB7DEB783EF0E941F0C0E94780160937E
:101D0000160670931706809318069093190681E0C3
:101D100080931A0680911A068130F1F70E947801AB
:101D20000091160610911706209118063091190699
:101D3000DC01CB01801B910BA20BB30B8B30910507
:101D4000A105B10538F320912B06233099F0863197
:101D50009105A105B105F0F2213061F08B329105BA
:101D6000A105B105B8F2223029F085359105A1050C
:101D7000B10580F26AE5CE0101960E94130E882318
:101D800009F48FC09981892F28E031E387FF03C0D0
:101D9000880F832701C0880F2150C1F72A8182272D
:101DA00038E041E387FF03C0880F842701C0880F14
:101DB0003150C1F73B813813B3C0892F90E0982F81
:101DC0008827820F911D8C7F909328068093270689
:101DD00010921A0623702093290685EF0E941F0C8B
:101DE0000E94780160931606709317068093180678
:101DF0009093190682E080931A0680911A06823029
:101E0000F1F70E94780100911606109117062091B3
:101E1000180630911906DC01CB01801B910BA20B37
:101E2000B30B84309105A105B10538F320912B0641
:101E3000213091F089309105A105B105F0F22230F1
:101E400059F08F309105A105B105B8F2233021F08A
:101E50004D97A105B10588F26EE1CE0101960E9471
:101E6000130E882309F12A81898190E0982F882711
:101E7000820F911D8C7F90932606809325061092E9
:101E80001A0623702093290610922A060E947801D0
:101E900060931206709313068093140690931506B0
:101EA00003C082E880932A06609127067091280675
:101EB00090E080E00E94A81F22E538EB4FE25BE350
:101EC0000E945F2026E636E64BE352E40E94951E10
:101ED0000E94791F7093CC066093CB066091250613
:101EE0007091260690E080E00E94A81F20E030E07C
:101EF0004AEF5AE30E945F2020E030E040EC50E4DB
:101F00000E94951E0E94791F70937A06609379064D
:101F10000F900F900F90DF91CF911F910F91089527
:101F200085E880932A0649CF0F931F93CF938C01A6
:101F3000C62F0E94FB0D6C2F6460C8010E94FB0D30
:101F40006C2F6B7FC8010E94FB0D83EC90E0019722
:101F5000F1F7CF911F910F9108950F931F93CF9396
:101F6000DF938C01D62FC42F607F642B0E94940FC7
:101F700080E1D89FB00111246C2BC801DF91CF9173
:101F80001F910F910C94940FEF92FF920F931F9358
:101F9000CF93DF938C017A01677088E0689FB0016E
:101FA0001124606440E0C8010E94AD0FE701A8E081
:101FB000EA0EF11C6991D801ED91FC910190F0813C
:101FC000E02DC8010995CE15DF05A1F7DF91CF916E
:101FD0001F910F91FF90EF900895CF93DF93CDB7AE
:101FE000DEB728970FB6F894DEBF0FBECDBF28E04E
:101FF000E9E2F1E0DE01119601900D922A95E1F7F8
:10200000FC012085241710F44FEF420F50E0440FDD
:10201000551F21E030E02C0F3D1F420F531FFA01E6
:102020002081620F606840E028960FB6F894DEBF0A
:102030000FBECDBFDF91CF910C94AD0F40E061E0BA
:102040000E94AD0F8BE39FE10197F1F7089541E006
:102050000E94AD0F81E090E00895FB010190002007
:10206000E9F73197AF01461B570BDC01ED91FC916D
:102070000280F381E02D09948F929F92AF92BF92DC
:10208000EF92FF920F931F93CF93DF93CDB7DEB7FD
:10209000A1970FB6F894DEBF0FBECDBF7C01FA0149
:1020A000CB0119A2223008F42AE08E010F5D1F4FE8
:1020B000822E912CB12CA12CBF01A50194010E946C
:1020C000531EF901CA016A300CF5605DD8016E93A8
:1020D0008D01232B242B252B79F790E080E010979E
:1020E00021F0BD01C7010E942D10A1960FB6F894F2
:1020F000DEBF0FBECDBFDF91CF911F910F91FF903B
:10210000EF90BF90AF909F908F900895695CDECF65
:10211000CF92DF92EF92FF920F931F93CF93DF93B3
:1021200077FF1DC06A017B01EC016DE20E94860110
:102130008C0144275527BA014C195D096E097F09A6
:102140002AE0CE010E943C10800F911FDF91CF91B9
:102150001F910F91FF90EF90DF90CF9008952AE0AC
:10216000DF91CF911F910F91FF90EF90DF90CF9073
:102170000C943C10AB01770F660B770B0C94881016
:10218000CF93DF93BC0183E498E00E942D10EC0113
:102190006FE671E083E498E00E942D108C0F9D1F84
:1021A000DF91CF9108954F925F926F927F928F92BD
:1021B0009F92AF92BF92EF92FF920F931F93CF9394
:1021C000DF938C014A015B01E22EAB019401CB014C
:1021D000B4010E94CC2062E771E0811126C0240185
:1021E0003501E89477F82FEF3FEF4FE75FE7C30142
:1021F000B2010E94CC2081110CC02FEF3FEF4FE7BE
:102200005FE7C301B2010E94021F66E771E0181682
:1022100064F02FEF3FEF4FE75FE4C501B4010E9488
:102220005A2018169CF46AE771E0C801DF91CF913B
:102230001F910F91FF90EF90BF90AF909F908F9064
:102240007F906F905F904F900C942D102FEF3FEF89
:102250004FE75FECC501B4010E94021F87FDE3CF89
:1022600020E030E0A901C501B4010E94021FD0E0C6
:10227000C0E087FF09C06DE2C8010E948601EC0141
:10228000B7FAB094B7F8B094FE2C712C60E070E00F
:1022900080E09FE37E1440F420E030E040E251E42F
:1022A0000E94071F7394F6CFA50194010E94961E09
:1022B0004B015C010E94791F2B013C012AE0BC010B
:1022C000A201C8010E943C10C80FD91FEE20D1F115
:1022D000C301B2010E94A81F9B01AC01C501B4015A
:1022E0000E94951E4B015C016EE2C8010E948601AE
:1022F000C80FD91FFA948FEFF81621F120E030E0D3
:1023000040E251E4C501B4010E945F202B013C0171
:102310000E94791F4B01B12CA12C2AE0B501A40128
:10232000C8010E943C10C80FD91FC501B4010E940A
:10233000A81F9B01AC01C301B2010E94951E4B0175
:102340005C01D8CFCE01DF91CF911F910F91FF900B
:10235000EF90BF90AF909F908F907F906F905F9025
:102360004F9008956115710511F00C942D1090E0B7
:1023700080E008952F923F924F925F926F927F92EA
:102380008F929F92AF92BF92CF92DF92EF92FF9285
:102390000F931F93CF93DF93CDB7DEB72A970FB676
:1023A000F894DEBF0FBECDBF2DB63EB680912C0691
:1023B00090912D060E941E10809124018823E9F03F
:1023C000109224014CE151E06FE080912C06909135
:1023D0002D060E94C40F44E151E06EE080912C066E
:1023E00090912D060E94C40F4CE051E06DE0809169
:1023F0002C0690912D060E94C40FE0914B06F0E050
:10240000EE0FFF1FE25DF94F8080918000912C0656
:1024100010912D06D4015A96BC905A9758968C91DB
:10242000BB2011F08B1508F4B82EF401A18C2B2DD4
:1024300030E0AB1408F470C0A394AB18A9014A0DA6
:10244000511D8417150614F4A82EAB185A2CA90197
:102450004A0D511D5A874987252D2A19852D90E04F
:10246000A985BA858A179B070CF0CDC1F401418C70
:10247000880F991FE80FF91FC080D180D4015896AA
:102480008C91B81610F4F6012083D6014C91119668
:102490006C91C8010E94ED0FF601B196FC83EB83AD
:1024A00076019601265F3F4F3E832D83AB81BC8131
:1024B0008D91BC83AB83813409F401C108F05EC007
:1024C000803209F4CEC0C0F5893009F4BCC030F5C3
:1024D000813009F4DFC0883009F4A9C0B2E0EB0E06
:1024E000F11CED81FE81EE15FF0501F7541077C157
:1024F000D60114968C91823009F461C1833009F4BD
:1025000070C1813009F07BC1D801ED91FC9101903F
:10251000F081E02D6FE061C1A12C98CF803109F4EA
:1025200099C08131D9F6D7015796ED91FC91408140
:10253000518170E060E0A9C08C3309F46FC0A0F451
:10254000813209F49AC0823349F6F601258130E0E0
:10255000D7015796ED91FC91408151816281738141
:10256000C8010E94D310BACF8F3308F0B7CFF7015C
:102570006789708DC8010E94B211B0CF893D09F4FE
:10258000FCC020F5803D09F4E2C080F4863409F4F3
:1025900088C0893C09F0A2CFD7015796ED91FC91F4
:1025A000309709F49BCF0995682F79C0813D09F4D4
:1025B000DAC0883D09F092CFD7015796ED91FC9192
:1025C000309709F48BCF0995BC0139C0803F09F4DD
:1025D000E9C088F4883E09F4DAC0893E09F07ECF6C
:1025E000D7015796ED91FC91309709F477CF099573
:1025F000AB01BC014AC08B3F09F49FC08C3F09F47A
:102600009CC08A3F09F06ACFD7015796ED91FC91A3
:10261000309709F463CF0995682F05C0D701579605
:10262000ED91FC916081C8010E94860157CFD701CE
:102630005796ED91FC916081062E000C770BC80136
:102640000E94BA104BCFD7015796ED91FC91408173
:1026500050E06FCFD7015796ED91FC916081718169
:10266000EECFD7015796ED91FC9140815181628167
:102670007381C8010E94881031CFD7015796ED9120
:10268000FC9140815181628173812AE0C8010E94DE
:102690003C1024CFD7015796ED91FC91608170E0FA
:1026A000CECFF701A789B08DF80180819181FC011F
:1026B000208131816C91C801F90109950FCF2DB7A7
:1026C0003EB738872F83D70157966D907C90C30112
:1026D0000E944A1E9A83898389819A81EDB7FEB749
:1026E000E81BF90B0FB6F894FEBF0FBEEDBF6DB738
:1026F0007EB76F5F7F4F20E0822F90E049815A8143
:102700008417950754F4F301E80FF91FE491860F3D
:10271000971FDC01EC932F5FEFCFE981FA81E60F81
:10272000F71F1082C8010E94B211EF81F8850FB621
:10273000F894FEBF0FBEEDBFD1CED7015796ED91F5
:10274000FC91309709F4CACE0995BC0113CFD7018B
:102750005796ED91FC91309709F4C0CE0995682FFA
:10276000880F770B6CCFD7015796ED91FC9130977E
:1027700009F4B4CE0995482F6BCFD7015796ED9148
:10278000FC91309709F4AACE0995AC01D2CED701BD
:102790005796ED91FC91309709F4A0CE0995AB01C5
:1027A000BC0167CFD7015796ED91FC91309709F4A2
:1027B00095CE0995AB01BC0122E030E0D1CEF60107
:1027C000618161504081C8010E94ED0FD801ED91F7
:1027D000FC910190F081E02D6EE0C80109955394C1
:1027E0003BCEF60142816381C8010E94ED0FD80102
:1027F000ED91FC910190F081E02D6DE0EECF21E0B4
:10280000F601248381CE0FB6F8943EBE0FBE2DBED6
:102810002A960FB6F894DEBF0FBECDBFDF91CF91E1
:102820001F910F91FF90EF90DF90CF90BF90AF90EE
:102830009F908F907F906F905F904F903F902F90E0
:102840000895E0914B06F0E0EE0FFF1FE25DF94FB7
:102850000190F081E02D818D80938A020E94720E9A
:1028600044E050E060E071E08CE496E00E94D1200A
:1028700080914A06882359F080912C0690912D066C
:102880000E941E1081E080934B060E94BA1164E6FC
:1028900070E080E090E00C94460185ED8093BC00F0
:1028A0008091E4049091E504A091E604B091E704DE
:1028B0000796A11DB11D23E0B695A795979587951D
:1028C0002A95D1F72091BC0024FD03C01092E204A8
:1028D00008954091E4045091E5046091E6047091FC
:1028E000E704452B462B472B69F30097A105B1055B
:1028F00041F025E32A95F1F700000197A109B109FC
:10290000E1CF8091E3040C940E0B1F920F920FB64F
:102910000F9211242F933F938F939F93AF93BF9365
:1029200080918C0290918D02A0918E02B0918F02C5
:1029300030918B0223E0230F2D3758F50196A11D0E
:10294000B11D20938B0280938C0290938D02A093F3
:102950008E02B0938F028091900290919102A0918B
:102960009202B09193020196A11DB11D8093900235
:1029700090939102A0939202B0939302BF91AF9172
:102980009F918F913F912F910F900FBE0F901F90AD
:10299000189526E8230F0296A11DB11DD2CF1F92D4
:1029A0000F920FB60F9211242F933F934F935F9383
:1029B0006F937F938F939F93AF93BF93EF93FF9307
:1029C000E0912701F09128010995FF91EF91BF91C6
:1029D000AF919F918F917F916F915F914F913F91B7
:1029E0002F910F900FBE0F901F9018951F920F926E
:1029F0000FB60F9211242F933F934F935F936F93D2
:102A00007F938F939F93AF93BF93EF93FF93E09147
:102A10002501F09126010995FF91EF91BF91AF91AA
:102A20009F918F917F916F915F914F913F912F91E6
:102A30000F900FBE0F901F9018951F920F920FB618
:102A40000F9211242F933F934F935F936F937F9334
:102A50008F939F93AF93BF93EF93FF938CE095E099
:102A60000E940B02FF91EF91BF91AF919F918F91C7
:102A70007F916F915F914F913F912F910F900FBE7A
:102A80000F901F9018951F920F920FB60F9211245E
:102A90002F938F939F93EF93FF93E0911C05F091F9
:102AA0001D058081E0912205F091230582FD1BC068
:102AB0009081809125058F5F8F7320912605821765
:102AC00041F0E0912505F0E0E45FFA4F958F8093A7
:102AD0002505FF91EF919F918F912F910F900FBE40
:102AE0000F901F9018958081F4CF1F920F920FB610
:102AF0000F9211242F933F934F935F936F937F9384
:102B00008F939F93AF93BF93EF93FF938091B900FF
:102B1000887F803609F44AC0F0F5883209F4A7C0EE
:102B200018F5803109F49BC0B8F4882309F4F9C082
:102B3000883009F494C0FF91EF91BF91AF919F91BC
:102B40008F917F916F915F914F913F912F910F9056
:102B50000FBE0F901F901895883109F488C08032FD
:102B600051F78093E00414C0803409F49DC040F410
:102B70008033B9F38833F9F68093E00485ECB0C074
:102B8000803509F485C0883509F496C0883499F6F3
:102B90000E944D14D0CF883909F48CC038F588379D
:102BA00029F050F4883611F0803729F683E08093BD
:102BB000E2041092810257C0883809F47BC0803942
:102BC00019F0803809F0B7CF80918102803208F087
:102BD00071C0E091810281E08E0F8093810280912B
:102BE000BB00F0E0EF59FD4F80833DC0803B39F0E2
:102BF000E0F4803A09F479C0883A09F09CCF84E087
:102C00008093E2041092600210925F02E091B80497
:102C1000F091B904099580915F0281110FC081E0A4
:102C200080935F0210923F0209C0803C09F4A6CF56
:102C3000883C09F4A3CF883B09F07DCFE091600286
:102C400081E08E0F80936002F0E0E15CFD4F8081B7
:102C50008093BB009091600280915F0229C08091B7
:102C6000BD048093BB0085EC8093BC0064CF909141
:102C7000DF048091DE04981758F5E091DF0481E0CD
:102C80008E0F8093DF04F0E0E254FB4F8081E9CFA8
:102C9000E091DF0481E08E0F8093DF048091BB0020
:102CA000F0E0E254FB4F80839091DF048091DE04DA
:102CB0009817C8F285E8D8CFE091DF0481E08E0F45
:102CC0008093DF048091BB00F0E0E254FB4F8083EF
:102CD0008091E10481115CCF81E08093BC0484EA9F
:102CE0008093BC001092E20426CF85EC8093BC0058
:102CF0001092E20480918102803230F4E0918102EE
:102D0000F0E0EF59FD4F10826091810270E0E09198
:102D1000B604F091B70481E692E009951092810221
:102D20000ACF1092E00434CF0F931F93FC0110825E
:102D300061838FEF82836150638381E0848382E0CB
:102D4000858316A210A2178E15A2108617821286EE
:102D500011861486138616861586108A1786128A9F
:102D6000118A148A138A168A158A508F478B91E12B
:102D700091A34DE651E0528F418F8EE382A3348FB1
:102D8000238F93A3168F058F84A384E086831F91DE
:102D90000F910895FC01408361834150428361504B
:102DA000638381E0848392E0958316A2128E118E54
:102DB00012A2148E138E13A2168E158E14A210A2B8
:102DC000178E15A210861782128611861486138616
:102DD00016861586108A1786128A118A148A138A13
:102DE000168A158A308F278B9EE391A386830895D8
:102DF0000F931F93CF93DF9310920F0510920E0540
:102E000088EE93E0A0E0B0E0809310059093110568
:102E1000A0931205B093130525E331E030930D051F
:102E200020930C0525EC30E030931905209318050C
:102E300024EC30E030931B0520931A0520EC30E0A1
:102E400030931D0520931C0521EC30E030931F05C5
:102E500020931E0522EC30E03093210520932005BD
:102E600026EC30E0309323052093220510922505AF
:102E700010922605109227051092280520E5209330
:102E8000A9051092AA051092B0051092B1051092F2
:102E9000B4051092B60542E050E060E070E0409367
:102EA000B7055093B8056093B9057093BA051092B1
:102EB000CE051092D8051092D70527E431E0309363
:102EC000D6052093D5051092DA05109207061092C8
:102ED00006068093080690930906A0930A06B0930D
:102EE0000B0683E591E0909305068093040610920B
:102EF00046081092450885E691E090934408809337
:102F0000430887E28093470880E180934C0882E081
:102F100080934D0810924E0810923F08109240087E
:102F2000109242081092230810922408109226084A
:102F3000109207081092080810920A081092EB07E6
:102F40001092EC071092EE071092CF071092D00764
:102F50001092D2072EE731E040E061E080E997E08F
:102F60000E94CA162AE831E041E061E089E697E074
:102F70000E94CA1627E931E040E061E082E497E070
:102F80000E94CA1623EA31E041E061E08BE197E05C
:102F90000E94CA162AEA31E040E060E084EF96E041
:102FA0000E94CA160DEA11E029EC36E04BEC56E01F
:102FB00062E08DEC96E00E9494162FEA31E040E04A
:102FC00068E082EA96E00E94CA1602EB11E027E769
:102FD00036E049E756E06AE08BE796E00E949416F7
:102FE00024EB31E041E060E080E596E00E94CA1603
:102FF00080915606853098F4282F30E0F901EE0FC5
:10300000FF1FE05BF94F4CE456E0508F478B205B8D
:10301000394F9DE3F90191A38F5F8093560683E4B6
:1030200098E090932D0680932C0610924B0687E231
:1030300098E090932F0680932E0681E080934A06B5
:1030400084E096E090931106809310061092120689
:10305000109213061092140610921506109216067E
:1030600010921706109218061092190610921A065E
:103070001092280610922706109226061092250616
:1030800010921B0610921C0610921D0610921E062E
:1030900010921F061092200610922106109222060E
:1030A000109223061092240610922A0610922906E6
:1030B00010922B0662E082E00E94E50062E083E06D
:1030C0000E94E500E0EBF0E0E491F0E0EE0FFF1F7E
:1030D000EC55FF4FA591B491B093F905A093F80575
:1030E000E2E9F0E044914093FC05E1EBF0E0E4918B
:1030F000F0E0EE0FFF1FEC55FF4FC591D491D09338
:10310000FB05C093FA05E3E9F0E0E491E093FD05E7
:103110001092FF051092000610920106109202060E
:103120002BE33FE1C9010197F1F79C91842F89239B
:1031300091E009F490E08881E82309F0926028EF9B
:1031400035E09093FE053093F5052093F40589ED65
:103150009DE09093260180932501809169008C7FEA
:10316000816080936900E89A81E080930306309340
:10317000F7052093F6058FED9DE09093280180934D
:10318000270180916900837F846080936900E99AB8
:1031900082E080930306DF91CF911F910F910895F4
:1031A000CF93DF9300D000D0CDB7DEB7789484B54D
:1031B000826084BD84B5816084BD85B5826085BD33
:1031C00085B5816085BD80916E00816080936E00C1
:1031D00010928100809181008260809381008091B3
:1031E0008100816080938100809180008160809364
:1031F00080008091B10084608093B1008091B00024
:1032000081608093B00080917A00846080937A001E
:1032100080917A00826080937A0080917A00816048
:1032200080937A0080917A00806880937A0010926F
:10323000C10060E086E00E94E5000E94F70A10925B
:10324000480880914D08823018F098E09093480823
:1032500080934B0862E370E080E090E00E944601BA
:1032600060914E0883E498E00E94FB0D68EE73E0E5
:1032700080E090E00E94460160E383E498E00E94D1
:10328000940F0BE416E4C8010197F1F760E383E4BF
:1032900098E00E94940FC8010197F1F760E383E47E
:1032A00098E00E94940F83E592E00197F1F760E2C5
:1032B00083E498E00E94940F60914808606240E0C7
:1032C00083E498E00E94AD0F84E08093490840E0D9
:1032D0006CE083E498E00E94AD0F83E498E00E94E4
:1032E0001E1082E080934A0840E066E083E498E0A4
:1032F0000E94AD0F40E062E083E498E00E94AD0FD1
:103300008BE39FE10197F1F788E080934E0860E03E
:1033100083E498E00E94FB0D40E060E083E498E0E5
:103320000E94ED0F80EC91E00E94C01041E060E04F
:1033300083E498E00E94ED0F80ED91E00E94C010C0
:1033400064EF71E080E090E00E94460183E498E041
:103350000E941E1040E060E083E498E00E94ED0FC0
:103360008DED91E00E94C01041E060E083E498E0C0
:103370000E94ED0F8BEE91E00E94C01064EF71E0AF
:1033800080E090E00E94460183E498E00E941E10D5
:103390000E94F70A01E00093E80418E610930A057A
:1033A0001092E90410920B0581E00E942F0B40E07F
:1033B00060E083E498E00E94ED0F85EF91E00E94C9
:1033C000C01041E060E083E498E00E94ED0F0093BC
:1033D000E80410930A051092E90410920B0560E0CE
:1033E00084E096E00E94680D81E00E942F0B61E06E
:1033F00088E60E94420C1092BB048093BA0484E0D9
:1034000096E00E94210D87FFB1C08DEF91E00E94F0
:10341000C01064EF71E080E090E00E94460183E418
:1034200098E00E941E1040E060E083E498E00E9473
:10343000ED0F6AE172E083E498E00E94B21141E08E
:1034400060E083E498E00E94ED0F8091DA05882324
:1034500041F061E085ED95E00E949A08811110929B
:10346000DA051092B6051092B4051092B1051092CB
:10347000B00584E08093AF050E9478018B0161E084
:103480008091AF050E94E50061E08091AF050E9448
:10349000B700FFB6F89480918902811127C0E8EB4C
:1034A000F0E08491EAE9F0E09491E82FF0E0EE0F8B
:1034B000FF1FE859FF4FA591B491EC91E92321F446
:1034C00061E08AE00E94B70061E08AE00E94E500C6
:1034D0008CB580618CBD8CB580648CBD61E08DE065
:1034E0000E94E50061E08BE00E94E5008091890286
:1034F0008F5F80938902FFBE82E58093A9051092B9
:10350000AA058091A9059091AA050E94D002BAE06F
:10351000FB2E8FEF0E94AB02FA94F110FACF8BEAE8
:1035200095E00E94D30220E030E0A90160E08BEA40
:1035300095E00E94E902F82E8093B50521E08217FC
:10354000C1F00E947801601B710B613D774058F318
:1035500081E08093B0058BEA95E00E94A00269E2C9
:1035600072E083E498E00E94B211C6C080E192E06C
:103570004ECF2AEA31E040E050E068E08BEA95E087
:103580000E94E90282FF2AC0F092B6058091B6053A
:10359000C12CD12CE12CF0E4FF2E823019F0C12C8B
:1035A000D12C760120E030E0A90167E38BEA95E0B9
:1035B0000E94E902A701960169E28BEA95E00E9468
:1035C000E9028093B5058823D1F00E947801601B41
:1035D000710B613D774030F388E0BBCFA4E0FA2E59
:1035E0000E94B2028093B505FA94F110F9CF8A3A9D
:1035F00011F082E0AECF82E08093B605C7CF809114
:10360000B6058230D1F420E030E0A9016AE38BEA0C
:1036100095E00E94E902882311F086E09ACF0E948B
:10362000B202807C803C19F483E08093B6050E944E
:10363000B2020E94B2020E94B2028BEA95E00E949E
:10364000A00280E58093A9051092AA0581E00E945E
:10365000BA04882309F4D9C08091DA0581117FCF9B
:103660008091CE05803109F0D7C082E08093DA05E1
:103670001092EC051092ED051092EE051092EF05F8
:103680008091CF059091D005B0E0A0E0E5E0880FF3
:10369000991FAA1FBB1FEA95D1F78093E805909365
:1036A000E905A093EA05B093EB0587EB95E09093CD
:1036B000F1058093F00581E08093D9051092DB0538
:1036C0001092DC051092DD051092DE051092DF05E8
:1036D0001092E0051092E1051092E2051092E305C8
:1036E0001092E4051092E5051092E6051092E705A8
:1036F0008FE192E00E94C01064EF71E080E090E002
:103700000E94460183E498E00E941E100E94F70A7E
:103710008EEF0E941F0C40E060E083E498E00E947E
:10372000ED0F66E372E083E498E00E94B21141E09D
:1037300060E083E498E00E94ED0F81E08093E8046C
:1037400080E480930A051092E90410920B0581E051
:103750000E942F0B882309F498C284E880932A06DC
:1037600069E272E083E498E00E94B21164EF71E0D4
:1037700080E090E00E94460183E498E00E941E10E1
:1037800060E977E087E298E00E94E50D69E677E07E
:1037900087E298E00E94E50D62E477E087E298E036
:1037A0000E94E50D6BE177E087E298E00E94E50D6D
:1037B00081E294E1909398078093970781E080934A
:1037C000B60724E831E030937107209370078093A7
:1037D0008F0730934A0720934907809368073093F7
:1037E0002307209322078093410720913F08A7E2F7
:1037F000B8E080E092E0281709F46EC0ED91FD91E9
:103800009483138212828F5FF6CF80E00E94BA0405
:10381000882309F4A4CE20CF803209F0A0CE83E023
:103820008093DA058091D1059091D205A091D305BE
:10383000B091D4058093EC059093ED05A093EE052F
:10384000B093EF0589839A83AB83BC83C12CD12CC1
:103850007601812C72E0972EA12CB12C49815A81DE
:103860006B817C819E012F5F3F4F87EB95E00E942B
:103870008506882309F473CE8091C405A5019401BF
:1038800004C0220F331F441F551F8A95D2F7DA0157
:10389000C901C80ED91EEA1EFB1E49815A816B81DF
:1038A0007C818091CE05803191F488EF9FEFA0E07C
:1038B000B0E0481759076A077B0780F2C092E80515
:1038C000D092E905E092EA05F092EB05EECE88EFA2
:1038D0009FEFAFEFBFE0EDCF82E08093410864EF50
:1038E00076E08BE098E00E94E50D6DEC76E08BE0F1
:1038F00098E00E94E50D62EA76E08BE098E00E9495
:10390000E50D6BE776E08BE098E00E94E50D60E561
:1039100076E08BE098E00E94E50D80914A068E30BB
:1039200068F4E82FF0E0EE0FFF1FE25DF94F2BE0A7
:1039300038E0318320838F5F80934A064CE151E069
:103940006FE080912C0690912D060E94C40F44E1F7
:1039500051E06EE080912C0690912D060E94C40FDC
:103960004CE051E06DE080912C0690912D060E9474
:10397000C40FE0914B06F0E0EE0FFF1FE25DF94F40
:103980000190F081E02D808D882331F0A081B181FC
:1039900096968C918111118E0E94BA118091030626
:1039A000823008F07EC0F89488EF95E00E94970D71
:1039B0008091FF0590910006A0910106B09102064A
:1039C00078948093080190930901A0930A01B09321
:1039D0000B0102E810E026E9E22E20E0F22E34EBA3
:1039E000C32E30E0D32E40E0A42E40E0B42EF801E8
:1039F0008491F7019490F6018490811054C0E09175
:103A00004B06F0E0EE0FFF1FE25DF94F0190F081F1
:103A1000E02D818D908D8913E0C080912C069091CE
:103A20002D060E941E1080914B0690914A069150DF
:103A3000882309F4ECC08150E82FF0E0EE0FFF1F5F
:103A4000E25DF94F0190F081E02D238D2111F0CF3F
:103A500080934B060E94BA1180918A02E0914B0636
:103A6000F0E0EE0FFF1FE25DF94FA081B1815896A3
:103A70009C915897891770F4E82FF0E0EE0FFF1F24
:103A8000EA0FFB1F0190F081E02D96A1992311F020
:103A900059968C9364E670E080E090E00E944601C5
:103AA000ADC0F89485CF81110E948E00E82DF0E022
:103AB000EE0FFF1FEC55FF4FA591B4918C9198220A
:103AC00009F49DCF80914B06813021F40E94720E43
:103AD0000E94BA11E0914B06F0E0EE0FFF1FE25D8D
:103AE000F94F0190F081E02D818D908D891709F4B7
:103AF00068C090E0880F991FE80FF91F0190F081CE
:103B0000E02D87819085892B09F45BC080910306A5
:103B1000823008F07EC0F89488EF95E00E94970DFF
:103B20004090FF05509000066090010670900206DC
:103B30007894409108015091090160910A017091B7
:103B40000B014415550566057705D9F180912C06C2
:103B500090912D0644155505660577050CF06EC04D
:103B60000E941E10E0914B06F0E0EE0FFF1FE25D99
:103B7000F94FA081B18158968C9158978150990B3B
:103B800059962C915997281719060CF044C02F5FAD
:103B900059962C9359972817190609F03FC00E948F
:103BA000BA110E94BA114092080150920901609224
:103BB0000A0170920B0168EC70E080E090E00E94D6
:103BC0004601A114B10409F412CF0E94F701882321
:103BD00009F40DCF0E9400000ACF90E0880F991FD2
:103BE000E80FF91F0190F081E02D0780F085E02DAE
:103BF000309709F412CF09950E94BA110E94BA11A8
:103C000064E670E080E090E00E9446015BCF892F7F
:103C100013CFF89485CF59961C9259975996EC91E9
:103C20005997F0E0EE0FFF1FEA0FFB1F0190F081A4
:103C3000E02D26A1222309F4A3CFB1CF0E941E10AC
:103C4000E0914B06F0E0EE0FFF1FE25DF94FA0811F
:103C5000B1815996EC915997E11107C058968C9112
:103C60005897815059968C939ACFE1505996EC937E
:103C70005997F0E0EE0FFF1FEA0FFB1F0190F08154
:103C8000E02D86A1882329F38ACF8FE192E00E945C
:103C9000C0106CCDFC0105900020E9F7809590954F
:103CA0008E0F9F1F0895A1E21A2EAA1BBB1BFD01B8
:103CB0000DC0AA1FBB1FEE1FFF1FA217B307E4070B
:103CC000F50720F0A21BB30BE40BF50B661F771F63
:103CD000881F991F1A9469F7609570958095909543
:103CE0009B01AC01BD01CF0108950E94801EA59FDC
:103CF000900DB49F900DA49F800D911D11240895E7
:103D0000A29FB001B39FC001A39F700D811D11241C
:103D1000911DB29F700D811D1124911D0895EE0F0C
:103D2000FF1F0590F491E02D09945058BB27AA2756
:103D30000E94AD1E0C9420200E94122038F00E9498
:103D4000192020F039F49F3F19F426F40C940F2029
:103D50000EF4E095E7FB0C940920E92F0E94312036
:103D600058F3BA17620773078407950720F079F4B0
:103D7000A6F50C9453200EF4E0950B2EBA2FA02D2F
:103D80000B01B90190010C01CA01A0011124FF2708
:103D9000591B99F0593F50F4503E68F11A16F04003
:103DA000A22F232F342F4427585FF3CF4695379502
:103DB0002795A795F0405395C9F77EF41F16BA0BC7
:103DC000620B730B840BBAF09150A1F0FF0FBB1F75
:103DD000661F771F881FC2F70EC0BA0F621F731FBE
:103DE000841F48F4879577956795B795F7959E3F1B
:103DF00008F0B0CF9395880F08F09927EE0F9795AC
:103E0000879508950E94E51F08F481E008950E94B7
:103E10001B1F0C9420200E94192058F00E94122091
:103E200040F029F45F3F29F00C94092051110C94C3
:103E300054200C940F200E94312068F39923B1F391
:103E4000552391F3951B550BBB27AA2762177307C0
:103E5000840738F09F5F5F4F220F331F441FAA1F54
:103E6000A9F335D00E2E3AF0E0E832D09150504010
:103E7000E695001CCAF72BD0FE2F29D0660F771FBE
:103E8000881FBB1F261737074807AB07B0E809F0A4
:103E9000BB0B802DBF01FF2793585F4F3AF09E3F29
:103EA000510578F00C9409200C9454205F3FE4F302
:103EB000983ED4F3869577956795B795F7959F5F6C
:103EC000C9F7880F911D9695879597F90895E1E0B8
:103ED000660F771F881FBB1F621773078407BA0717
:103EE00020F0621B730B840BBA0BEE1F88F7E09572
:103EF00008950E94392088F09F5798F0B92F99278C
:103F0000B751B0F0E1F0660F771F881F991F1AF0C4
:103F1000BA95C9F714C0B13091F00E945320B1E0B6
:103F200008950C945320672F782F8827B85F39F0B5
:103F3000B93FCCF3869577956795B395D9F73EF45D
:103F400090958095709561957F4F8F4F9F4F089505
:103F5000E89409C097FB3EF4909580957095619523
:103F60007F4F8F4F9F4F9923A9F0F92F96E9BB27D9
:103F70009395F695879577956795B795F111F8CF55
:103F8000FAF4BB0F11F460FF1BC06F5F7F4F8F4FC0
:103F90009F4F16C0882311F096E911C0772321F0B6
:103FA0009EE8872F762F05C0662371F096E8862F4E
:103FB00070E060E02AF09A95660F771F881FDAF7A5
:103FC000880F9695879597F90895990F0008550FD2
:103FD000AA0BE0E8FEEF16161706E807F907C0F08F
:103FE00012161306E407F50798F0621B730B840B97
:103FF000950B39F40A2661F0232B242B252B21F471
:1040000008950A2609F4A140A6958FEF811D811D10
:10401000089597F99F6780E870E060E008959FEF4A
:1040200080EC089500240A9416161706180609064F
:10403000089500240A94121613061406050608951E
:10404000092E0394000C11F4882352F0BB0F40F4A6
:10405000BF2B11F460FF04C06F5F7F4F8F4F9F4FE6
:10406000089557FD9058440F551F59F05F3F71F068
:104070004795880F97FB991F61F09F3F79F08795CF
:104080000895121613061406551FF2CF4695F1DF58
:1040900008C0161617061806991FF1CF86957105E8
:1040A000610508940895E894BB2766277727CB011C
:1040B00097F908950E94E51F08F48FEF08950E9474
:1040C00072200C9420200E94122038F00E941920A7
:1040D00020F0952311F00C9409200C940F2011244A
:1040E0000C9454200E94312070F3959FC1F3950FDA
:1040F00050E0551F629FF001729FBB27F00DB11D6C
:10410000639FAA27F00DB11DAA1F649F6627B00DFB
:10411000A11D661F829F2227B00DA11D621F739FE4
:10412000B00DA11D621F839FA00D611D221F749FF2
:104130003327A00D611D231F849F600D211D822F39
:10414000762F6A2F11249F5750409AF0F1F0882360
:104150004AF0EE0FFF1FBB1F661F771F881F91508D
:104160005040A9F79E3F510580F00C9409200C9413
:1041700054205F3FE4F3983ED4F386957795679596
:10418000B795F795E7959F5FC1F7FE2B880F911DB7
:104190009695879597F908950E94E51F880B990BCE
:1041A0000895FB01DC014150504048F001900D9210
:1041B0000020C9F701C01D9241505040E0F708951A
:0441C000F894FFCFA1
:1041C4004F464600FFFFFFFF19FCFFFF00000E0EE5
:1041D4000E0000000004021F020400000004081F77
:1041E400080400000185018501000040001400540A
:1041F40000000000002D028D01BA017A02EB01C912
:1042040001DD01000000003D098D01DC080F0E00F6
:10421400000000680D3B0D100E110D340D210D1220
:104224000D0000000027108D01100E0F0E2F000D41
:104234000A006E616E00696E66006F7666004D6FEF
:104244006E69746F72697A617200436F6E74726F13
:104254006C2054656D7000436F6E74726F6C204CEB
:10426400757A0047726162617200543A00DF004857
:104274003A0025004374726C54656D703A20200036
:10428400556E6976657273696461642064656C0057
:1042940020202020506163696669636F00202049F3
:1042A4006E7665726E616465726F00202020202036
:1042B40076302E310052656C6F6A3A200045727276
:1042C4006F722E20496E69636961722053696E00B2
:1042D400456E63656E6469646F0053443A2000431D
:1042E4006F6E65637461646F004E6F20636F6E65FB
:0E42F400637461646F0053687432313A2000C5
:00000001FF
