:100000000C9462000C9404160C94DD150C948A0078
:100010000C948A000C948A000C948A000C948A0038
:100020000C948A000C948A000C948A000C948A0028
:100030000C948A000C948A000C948A000C948A0018
:100040000C9493150C948A000C9451160C942B1656
:100050000C948A000C948A000C948A000C948A00F8
:100060000C9483160C948A000000000024002700E2
:100070002A0000000000250028002B0000000008D6
:10008000000201000003040700000000000000005F
:10009000010204081020408001020408102001021F
:1000A000040810200000000023002600290004049A
:1000B0000404040404040202020202020303030310
:1000C00003031A1811241FBECFEFD8E0DEBFCDBF47
:1000D00028E0A2E9B2E001C01D92AA35B207E1F71B
:1000E00012E0A0E0B1E0E6EFF5E402C005900D9269
:1000F000A239B107D9F710E0C2E6D0E004C02197D9
:10010000FE010E94A820C136D107C9F70E94A81A93
:100110000C94F9220C94000008950895982FE09112
:100120009006F0E0EE0FFF1FEB57F94FA081B18171
:100130001A968C911A97981778F4E92FF0E0EE0F41
:10014000FF1FEA0FFB1F0190F081E02D81898823BA
:1001500021F01B969C93089580E00895FC01228570
:1001600080E092E0281761F0A191B19114969C93E0
:10017000149713961C92139712961C928F5FF2CFCE
:1001800081E00895833081F028F4813099F0823045
:10019000A9F008958730A9F08830C9F08430B1F40F
:1001A000809180008F7D03C0809180008F77809345
:1001B0008000089584B58F7784BD089584B58F7DC0
:1001C000FBCF8091B0008F778093B000089580912D
:1001D000B0008F7DF9CFCF93DF93282F30E0F90166
:1001E000E458FF4F8491F901E057FF4FD491F90192
:1001F000E255FF4FC491CC23A1F081110E94C200AF
:10020000EC2FF0E0EE0FFF1FEC55FF4FA591B491DE
:10021000EC91ED2381E090E009F480E0DF91CF9153
:10022000089580E090E0FACF1F93CF93DF93282FBB
:1002300030E0F901E458FF4F8491F901E057FF4F96
:10024000D491F901E255FF4FC491CC23A9F0162FA8
:1002500081110E94C200EC2FF0E0EE0FFF1FEE585C
:10026000FF4FA591B4918FB7F894EC91111108C08C
:10027000D095DE23DC938FBFDF91CF911F9108953E
:10028000DE2BF8CFCF93DF9390E0FC01E057FF4FD8
:10029000249182559F4FFC0184918823C9F090E0FE
:1002A000880F991FFC01E859FF4FA591B491FC01FB
:1002B000EE58FF4FC591D49161110DC09FB7F894CE
:1002C0008C91209582238C938881282328839FBF3B
:1002D000DF91CF910895623051F49FB7F8943C912B
:1002E000822F809583238C93E8812E2BEFCF8FB7BD
:1002F000F894EC912E2B2C938FBFEACF3FB7F89454
:100300008091E7029091E802A091E902B091EA029F
:1003100026B5A89B05C02F3F19F00196A11DB11D60
:100320003FBFBA2FA92F982F8827BC01CD01620F9C
:10033000711D811D911D42E0660F771F881F991F57
:100340004A95D1F708958F929F92AF92BF92CF9224
:10035000DF92EF92FF924B015C010E947E016B01E4
:100360007C010E947E016C197D098E099F09683EFF
:10037000734081059105A8F321E0821A9108A10834
:10038000B10888EEC80E83E0D81EE11CF11C811470
:100390009104A104B10429F7FF90EF90DF90CF9072
:1003A000BF90AF909F908F9008952FB7F894609171
:1003B000E3027091E4028091E5029091E6022FBF82
:1003C000089508950895DC01ED91FC910190F0816C
:1003D000E02D0994AF92BF92CF92DF92EF92FF92FD
:1003E0000F931F93CF93DF936C017B018B01040F5D
:1003F000151FEB015E01AE18BF08C017D10759F0F9
:100400006991D601ED91FC910190F081E02DC6013A
:100410000995892B79F7C501DF91CF911F910F9134
:10042000FF90EF90DF90CF90BF90AF900895FC01C8
:10043000538D448D252F30E0842F90E0821B930B49
:10044000541710F0CF96089501970895FC01918DEF
:10045000828D981761F0A28DAE0FBF2FB11D5D96F2
:100460008C91928D9F5F9F73928F90E008958FEF94
:100470009FEF0895FC01918D828D981731F0828D48
:10048000E80FF11D858D90E008958FEF9FEF08959F
:10049000FC01918D228D892F90E0805C9F4F821B03
:1004A00091098F739927089583E695E00E94480289
:1004B00021E0892B09F420E0822F089580E090E06C
:1004C000892B29F00E94540281110C940000089598
:1004D000FC01A48DA80FB92FB11DA35ABF4F2C91B9
:1004E000848D90E001968F739927848FA689B789B0
:1004F0002C93A089B1898C91837080648C93938DA7
:10050000848D981306C00288F389E02D80818F7D49
:1005100080830895EF92FF920F931F93CF93DF9301
:10052000EC0181E0888F9B8D8C8D98131AC0E8892F
:10053000F989808185FF15C09FB7F894EE89FF89FE
:100540006083E889F98980818370806480839FBF9C
:1005500081E090E0DF91CF911F910F91FF90EF909C
:100560000895F62E0B8D10E00F5F1F4F0F731127AC
:10057000E02E8C8D8E110CC00FB607FCFACFE889E7
:10058000F989808185FFF5CFCE010E946802F1CF05
:10059000EB8DEC0FFD2FF11DE35AFF4FF0829FB75B
:1005A000F8940B8FEA89FB8980818062CFCFCF934B
:1005B000DF93EC01888D8823B9F0AA89BB89E8898B
:1005C000F9898C9185FD03C0808186FD0DC00FB631
:1005D00007FCF7CF8C9185FFF2CF808185FFEDCFAF
:1005E000CE010E946802E9CFDF91CF9108958FB7C5
:1005F000F8948091DB028FBF089561E0FC01848153
:100600000E9414018091DA0281111092DA02089599
:100610008EBD00000DB407FEFDCF8EB508958FEF9F
:100620000C9408030F931F93CF93DF93EC010E9468
:10063000D5018B010E940F038F3F69F00E94D50105
:10064000601B710B6C177D07A8F380E0DF91CF91E1
:100650001F910F91089581E0F9CF8CBD9DBD089544
:10066000CF93DF93EC018091DA02811109C081E020
:100670008093DA0280910006909101060E942D037A
:1006800060E08C81DF91CF910C9414018F929F9246
:10069000AF92BF92FF920F931F93CF93DF93EC0122
:1006A000F62E49015A018E81882389F08F81988521
:1006B0009C012F5F3F4F38872F838230924018F480
:1006C0000E940F03F3CFCE010E94FD021E82CE01D5
:1006D0000E9430038CE291E00E9412038F2D80640F
:1006E0000E94080308E110E0D501C401002E04C0F7
:1006F000B695A795979587950A94D2F70E94080317
:1007000008501109083F8FEF180771F785E9FF209E
:1007100021F028E087E8F2128FEF0E94080310E032
:100720000E940F038A8787FF04C01F3F11F01F5FDD
:10073000F7CFDF91CF911F910F91FF90BF90AF90B6
:100740009F908F900895CF92DF92EF92FF920F9338
:10075000CF93DF93EC01690182E1411551056105F9
:10076000710599F08B85833039F089E0440F551F6E
:10077000661F771F8A95D1F79A01AB0168E1CE0118
:100780000E944603882319F084E08D832DC08EEFEC
:100790000E94080376018EEFD81AF70181917F013C
:1007A0000E940803EC14FD04C1F78FEF0E940803B8
:1007B0008FEF0E9408030E940F038A878F71853094
:1007C00071F4011116C0CE010E94FD0281E0DF919B
:1007D000CF910F91FF90EF90DF90CF90089581E13E
:1007E0008D83CE010E94FD02CE010E94FD0280E0B9
:1007F000EECF88E592E00E941203811102C085E1EC
:10080000C4CF20E030E0A9016DE0CE010E94460394
:10081000882311F084E1B9CF0E940F038111FACF30
:10082000D2CF0F934091DD025091DE026091DF0242
:100830007091E002411551056105710599F0082F8D
:100840002BEE32E08091EB049091EC040E94A30324
:10085000882349F01092DD021092DE021092DF022E
:100860001092E00281E00F9108950F93CF93C82F6B
:100870008091DC02811105C0C1E08C2FCF910F91D6
:100880000895409104015091050160910601709115
:1008900007010C2F2BEE32E08091EB049091EC04D9
:1008A0000E94A303811102C0C0E0E7CFCC2321F353
:1008B00081E00E9411048823B9F31092DC02DDCF9D
:1008C0009F92AF92BF92CF92DF92EF92FF920F93DF
:1008D0001F93CF93DF936B017C01942E80910401D1
:1008E00090910501A0910601B09107018C159D051D
:1008F000AE05BF0509F494C081E00E943504882349
:1009000089F1C091EB04D091EC048E81882371F0C1
:1009100088819981AA81BB81C816D906EA06FB069F
:1009200029F48F819885892B09F443C0C882D98224
:10093000EA82FB828B85A7019601833039F099E02A
:10094000220F331F441F551F9A95D1F761E1CE0145
:100950000E944603882391F083E08D83CE010E949C
:10096000FD0280E0DF91CF911F910F91FF90EF90FA
:10097000DF90CF90BF90AF909F9008950E94D501D7
:100980008B010E940F038A878F3F69F40E94D50173
:10099000601B710B6D327140A0F38FE08D83CE012F
:1009A0000E94FD02DBCF8E3F69F518861F8281E031
:1009B0008E830BEE12E08BEEA82E84E0B82E0E9400
:1009C0000F03F80181938F01AE16BF06C1F78F8127
:1009D00098859E5F98878F832985222319F081153A
:1009E0009240B0F08E81882399F08F8198859C0188
:1009F0002F5F3F4F38872F838230924028F40E9428
:100A00000F03F3CF8DE0CACFCE010E94FD021E82FC
:100A1000C0920401D0920501E0920601F092070114
:100A20004091DC0249294093DC0281E09BCF8F9208
:100A30009F92AF92BF92CF92DF92EF92FF92CF93AD
:100A400022E036E03093EC042093EB04882309F491
:100A50006DC040E060E070E0CB010E946004811155
:100A60000BC080E0CF91FF90EF90DF90CF90BF90D0
:100A7000AF909F908F9008958091A9048F7789F708
:100A80008091B5049091B604A091B704B091B804D8
:100A900084369105A105B10520F3C090B104D09032
:100AA000B204E090B304F090B404C114D104E104A2
:100AB000F104B9F240E0C701B6010E946004882346
:100AC00081F28091F6029091F7028115924049F6E9
:100AD000A091FB02AA2329F26091F9027091FA0217
:100AE0006115710509F4BDCF2091F802222309F4A4
:100AF000B8CFA09320062093120690E080E030E06B
:100B0000E1E0F0E0C82FAF01082E02C0440F551FEE
:100B10000A94E2F72417350769F041E0480F01967F
:100B20008930910579F740931B069BCFC12CD12CBE
:100B30007601C0CF80931B06209101033091020300
:100B400050E040E02115310541F420910F03309130
:100B50001003409111035091120320931306309318
:100B60001406409315065093160646015701860E4B
:100B7000971EA11CB11C8092210690922206A09281
:100B80002306B0922406E091FC02F091FD02F0935E
:100B90002706E0932606B0E00E948E20DC01CB0100
:100BA000880D991DAA1DBB1D8093280690932906C8
:100BB000A0932A06B0932B0625E0EE0FFF1F2A957F
:100BC000E1F7E150FE4FEF2FFF27E6958E0F9F1FB5
:100BD000A11DB11D80931C0690931D06A0931E06B7
:100BE000B0931F068090FE029090FF02B12CA12CC2
:100BF0008114910441F480900B0390900C03A09019
:100C00000D03B0900E03C81AD90AEA0AFB0AC80CF1
:100C1000D91CEA1CFB1C04C0F694E794D794C79433
:100C2000CA95D2F7C0921706D0921806E09219061C
:100C3000F0921A0685EFC8168FE0D806E104F10499
:100C400028F48CE08093250681E00CCF80E125EF2D
:100C5000C2162FEFD206E104F104A0F3809117032E
:100C600090911803A0911903B0911A03809328065C
:100C700090932906A0932A06B0932B0680E2E2CF38
:100C80004F925F926F927F928F929F92AF92BF929C
:100C9000CF92DF92EF92FF920F931F93CF93DF9348
:100CA000EC01423051056105710590F480E0DF915F
:100CB000CF911F910F91FF90EF90DF90CF90BF9059
:100CC000AF909F908F907F906F905F904F9008951E
:100CD00089859A85AB85BC850196A11DB11D8417B8
:100CE0009507A607B70710F3CB88DC88ED88FE8848
:100CF0008F89803109F042C0BB27A72F962F852FFF
:100D0000480159012A013B01C80ED91EEA1EFB1EEB
:100D10008091040190910501A0910601B091070115
:100D2000C816D906EA06FB0699F58F898031C1F508
:100D3000B301A201552766277727440F551F455158
:100D40005D4FFA01918280828091DC028160809304
:100D5000DC028A89823080F08D819E81AF81B885E6
:100D60008C0D9D1DAE1DBF1D8093DD029093DE0294
:100D7000A093DF02B093E00281E099CFDB01CA01CA
:100D8000E7E0B695A79597958795EA95D1F7B8CFFF
:100D900040E0C701B6010E9460048111C6CF86CF32
:100DA000B301A2014F77552766277727440F551FB8
:100DB000440F551F45515D4FFA0180829182A282F6
:100DC000B382C2CF8F929F92AF92BF92CF92DF92A7
:100DD000EF92FF920F931F93CF93DF93FC018185D6
:100DE0009285A385B4850196A11DB11D8417950731
:100DF000A607B70770F480E0DF91CF911F910F91A4
:100E0000FF90EF90DF90CF90BF90AF909F908F902A
:100E1000089583889488A588B6888789803189F564
:100E2000BB27A72F962F852FE9016A017B018F0130
:100E3000BC01CD01680D791D8A1D9B1D80900401A8
:100E400090900501A0900601B090070186169706C4
:100E5000A806B90601F5F8018789803111F5DD246E
:100E6000EE24FF24F601EE0FFF1FE551FD4F8081B8
:100E70009181B0E0A0E088839983AA83BB8381E05D
:100E8000BBCFDB01CA01C7E0B695A79597958795BB
:100E9000CA95D1F7C9CF40E00E9460048111DBCF31
:100EA000AACFE894C7F8DD24EE24FF24F601EE0F64
:100EB000FF1FEE0FFF1FE551FD4F80819181A28141
:100EC000B381BF70D8CF8F929F92AF92BF92CF92D3
:100ED000DF92EF92FF920F931F93CF93DF93EC017A
:100EE0008D8181110EC080E0DF91CF911F910F9114
:100EF000FF90EF90DF90CF90BF90AF909F908F903A
:100F000008950B891C892D893E890417150726072A
:100F1000370748F34A015B01823031F48A869B86A9
:100F2000AC86BD8681E0E0CF81149104A104B104B8
:100F300049F41E821F82188619861A861B861C8613
:100F40001D86F0CF0A851B852C853D85EB8DFC8D9C
:100F5000858590E00996B901A801415051096109C0
:100F60007109082E04C076956795579547950A94A0
:100F7000D2F775016401E1E0CE1AD108E108F10869
:100F800004C0F694E794D794C7948A95D2F7C41610
:100F9000D506E606F70620F0012B022B032B11F5F0
:100FA0008F89988DA98DBA8D8E839F83A887B987E5
:100FB0008E010A5F1F4FC114D104E104F10409F44A
:100FC000ADCF4E815F816885798598018B8D9C8D31
:100FD0000E94E20691E0C91AD108E108F1088111E6
:100FE000EACF81CFC41AD50AE60AF70AE1CF3F92C9
:100FF0004F925F926F927F928F929F92AF92BF9229
:10100000CF92DF92EF92FF920F931F93CF93DF93D4
:10101000CDB7DEB72C970FB6F894DEBF0FBECDBFAD
:101020005C01DC015B968D909C905C9716964D90D0
:101030005D906D907C901997411451046104710486
:1010400009F468C0BFEF4B1A5B0A6B0A7B0A312CAC
:10105000F40181859285A385B4859C01AD012F5F44
:101060003F4F4F4F5F4F29873A874B875C8773010C
:1010700062011D821E821F821886F401818592857D
:10108000A385B4852D813E814F8158852817390766
:101090004A075B0708F056C089859A85AB85BC85F1
:1010A0008C159D05AE05BF0550F482E0C82ED12CED
:1010B000E12CF12C92E0492E512C612C712C9E01D7
:1010C0002F5F3F4FB701A601C4010E94E2068823AB
:1010D000C9F189819A81AB81BC81892B8A2B8B2BA9
:1010E00009F1260137019FEF491A590A690A790A5D
:1010F0002D813E814F8158852F5F3F4F4F4F5F4F6E
:101100002D833E834F8358873FEFC31AD30AE30AE8
:10111000F30AB3CFF401408051806280738033249E
:10112000339496CFC414D504E604F70409F70FEFFF
:101130001FEF2FEF3FE0B701A601C4010E94400658
:10114000811119C080E02C960FB6F894DEBF0FBE57
:10115000CDBFDF91CF911F910F91FF90EF90DF9066
:10116000CF90BF90AF909F908F907F906F905F9047
:101170004F903F900895D50116964D915D916D91D8
:101180007C911997411551056105710539F0970159
:101190008601C4010E9440068823A1F2D50116965B
:1011A000CD92DD92ED92FC921997332051F0D70148
:1011B000C6010196A11DB11DF40180839183A28314
:1011C000B383F5018789908DA18DB28D892B8A2BF0
:1011D0008B2B39F48481C78AD08EE18EF28E8068A1
:1011E0008483F50184818062848381E0ACCF1F9386
:1011F000CF93DF93EC01162F8C8187FF2AC06E8579
:101200007F858889998941E00E946004882361F183
:10121000EA8980E2E89FF0011124E551FD4F309703
:1012200019F18D81823040F48B899C89AD89BE890A
:10123000848F958FA68FB78F8F89988D938F828F8C
:101240008F89988DA98DBA8DB58BA48B8C818F7762
:101250008C83111103C08C818F7E8C83812FDF9151
:10126000CF911F910C94350480E0DF91CF911F91B5
:101270000895FF920F931F93CF93DF93EC018D811D
:10128000813041F090E080E0DF91CF911F910F918C
:10129000FF9008958C8181FFF5CF82FD1EC00091E3
:1012A000EB041091EC04C8010E9430030E940F036C
:1012B000F82EC8010E94FD028FEFF812E3CF8C8157
:1012C00085FF1EC08D81882321F060E0CE010E9441
:1012D000F7088C818F7D8C83D5CF4B895C896D8994
:1012E0007E898A859B85AC85BD8584179507A60771
:1012F000B707A9F2CE010E9463078111D0CFC2CFF8
:101300004091DD025091DE026091DF027091E002B7
:10131000452B462B472B21F080E00E941104B2CFD1
:1013200080618C832A853B85317080E092E0821B4E
:10133000930BAACF9F92AF92BF92CF92DF92EF9280
:10134000FF920F931F93CF93DF9300D000D01F9293
:10135000CDB7DEB78C016D83DC0115968C911597A6
:10136000813009F0B9C014968C9181FFB5C082FD1F
:101370009FC0D8015B96ED91FC915C971A96AD9059
:10138000BD90CD90DC901D9794809A94B601A501F4
:1013900089E076956795579547958A95D1F7942278
:1013A000B1E0BB22992009F49FC0D8015B96ED9172
:1013B000FC915C971696CD90DD90ED90FC9019977E
:1013C000B2E0CB1AD108E108F108858504C0CC0C45
:1013D000DD1CEE1CFF1C8A95D2F746855785608977
:1013E0007189C40ED51EE61EF71EC90CD11CE11C66
:1013F000F11CA114B10409F00AC1F801428553851A
:101400006485758583899489A589B68948175907A4
:101410006A077B0708F4FBC081E00E94350488233B
:1014200009F45AC0C0920401D0920501E09206016D
:10143000F09207018091DC0281608093DC02F5016B
:10144000E551FD4F8D818083F80182859385A485C8
:10145000B5850196A11DB11D82879387A487B587A5
:101460004389548965897689481759076A077B0734
:1014700038F42481838B948BA58BB68B20682483CE
:10148000D80114968C9183FD9FC081E090E00F906D
:101490000F900F900F900F90DF91CF911F910F91B0
:1014A000FF90EF90DF90CF90BF90AF909F90089506
:1014B000F801438954896589768982859385A48555
:1014C000B585481759076A077B0709F452CFC80149
:1014D0000E94630781114DCF81E090E0D8011396FF
:1014E0009C938E93129749C0D80116964D915D91A9
:1014F0006D917C911997A114B10409F071C0411547
:1015000051056105710589F557968D919D910D9055
:10151000BC91A02D0097A105B10509F04FC0C801ED
:101520000E94F7078823C1F2D8015B96ED91FC91E8
:101530005C971696CD90DD90ED90FC901997B2E0F7
:10154000CB1AD108E108F108858504C0CC0CDD1C5C
:10155000EE1CFF1C8A95D2F74685578560897189F4
:10156000C40ED51EE61EF71E48CF9E012F5F3F4FCB
:10157000CF010E94E206811103C090E080E087CF96
:1015800089819A81AB81BC81F801238D348DF90169
:10159000278948EF5FEF60E070E0203121F048EFED
:1015A0005FEF6FEF7FE084179507A607B70730F06E
:1015B000C8010E94F7078111F8CE8ECFF80186830B
:1015C0009783A087B187F1CEF8018581882309F43C
:1015D00083CF61E0C8010E94F708811156CF7CCF0C
:1015E0006A017B01B2E0CB1AD108E108F1088585D8
:1015F00004C0CC0CDD1CEE1CFF1C8A95D2F746857E
:10160000578560897189C40ED51EE61EF71E41E01C
:10161000C701B6010E946004811111CF5DCF2091F6
:10162000B702260F3327331F21323105ECF4209106
:101630003905FC0190E080E0243069F082E00895F3
:10164000A091B7022191AC0149565D4FA40FB52F6F
:10165000B11D2C930196861798F38091B702680FFD
:101660006093B70280E0089581E0089510923905F3
:1016700081E0809338051092130561E082E10E94B9
:10168000140161E083E10E941401E9EBF0E0808144
:101690008E7F808380818D7F808388E48093B800F3
:1016A00085E48093BC0008951092120510921105F4
:1016B00010924005109262050E94360B8CE890E073
:1016C0009093100580930F058DE890E090930E05A0
:1016D00080930D050895CF93DF9391E09093960248
:1016E0008823B9F0C091B800D091BA008091BC00B5
:1016F0008A7B8093BC0060E082E10E94140160E07C
:1017000083E10E9414010E94360BD093BA00C0936B
:10171000B800DF91CF9108958F929F92AF92BF92C0
:10172000CF92DF92EF92FF920F931F93CF93DF93AD
:10173000D0916205D13208F0D7C0182FC091610551
:101740000E947E016B017C018091390581116BC083
:1017500082E080933905109338058FEF8093370529
:1017600010923605D0933505A1E4B5E0E5E1F5E04A
:1017700080E0D81391C01092140580911405CC0F0D
:10178000C82BC093140580911305813009F088C0DF
:10179000109213050E947E016B017C01809114055B
:1017A0008093BB0080913B0590913C05A0913D0545
:1017B000B0913E05892B8A2B8B2BA1F00E947E01D4
:1017C00000913B0510913C0520913D0530913E056F
:1017D0006C197D098E099F09061717072807390715
:1017E00008F442C08091BC0083FDD8CF85EC809383
:1017F000BC000E947E016B017C0180913905823022
:1018000009F450C0809137058F3F09F46FC0809173
:101810003705803209F46CC080913705803309F4B4
:1018200069C084E026C080913B0590913C05A09161
:101830003D05B0913E05892B8A2B8B2B09F484CF73
:101840000E947E0180903B0590903C05A0903D0554
:10185000B0903E056C197D098E099F098616970682
:10186000A806B90608F070CF80913A050E946B0B6C
:1018700085E0109240051092620510923F05DF91BD
:10188000CF911F910F91FF90EF90DF90CF90BF907D
:10189000AF909F908F9008959D9191938F5F69CFA6
:1018A00085EEA5CF80913B0590913C05A0913D052B
:1018B000B0913E05892B8A2B8B2B09F49ECF0E9479
:1018C0007E0100913B0510913C0520913D05309132
:1018D0003E056C197D098E099F0906171707280711
:1018E000390708F08ACFC0CF81E0C3CF80E0C1CFF5
:1018F00082E0BFCF83E0BDCFA0916706B0916806BC
:1019000091E090933F0590E490936105109240051B
:1019100010926205ED91FC9111970190F081E02DFC
:10192000682FCD01099581E00E948C0B882329F056
:1019300081E88093810680E0089581E00895CF9248
:10194000DF92EF92FF920F931F93CF93DF93D82FE5
:10195000C62F613208F098C00E947E016B017C01A5
:101960008091390581116BC081E0809339058093A6
:1019700038059FEF90933705109236059C0F909392
:1019800035058093140580911405DD0FD82BD09375
:10199000140580911305813009F078C01092130569
:1019A0000E947E016B017C01809114058093BB0035
:1019B00080913B0590913C05A0913D05B0913E057D
:1019C000892B8A2B8B2BA1F00E947E0100913B0575
:1019D00010913C0520913D0530913E056C197D0923
:1019E0008E099F09061717072807390708F448C00A
:1019F0008091BC0083FDD8CF85EC8093BC000E9411
:101A00007E016B017C0180913905813009F440C071
:101A1000809136058C1710F4C0913605E5E1F5E0AC
:101A2000ADEEB4E080E08C1355C08C2FDF91CF91E8
:101A30001F910F91FF90EF90DF90CF9008958091CC
:101A40003B0590913C05A0913D05B0913E05892B49
:101A50008A2B8B2B09F484CF0E947E0100913B05D9
:101A600010913C0520913D0530913E056C197D0992
:101A70008E099F09061717072807390708F070CF46
:101A800080913A050E946B0BC0E0CFCF85EEB5CFB9
:101A900080913B0590913C05A0913D05B0913E059C
:101AA000892B8A2B8B2B09F4AECF0E947E010091EB
:101AB0003B0510913C0520913D0530913E056C1988
:101AC0007D098E099F09061717072807390708F0AF
:101AD0009ACFD6CF91919D938F5FA5CF0895E09136
:101AE000120580911105E81730F4F0E0E351FB4F47
:101AF000808190E008958FEF9FEF089590911205F7
:101B0000809111052FEF3FEF981748F4E92FF0E08F
:101B1000E351FB4F208130E09F5F90931205C90194
:101B200008958091110590911205891B990B0895D4
:101B3000CF92DF92EF92FF920F931F93CF93DF9399
:101B40007C01CB018A0120913F05222389F0EB0122
:101B50006B01C40ED51ECC15DD0569F06991D70166
:101B6000ED91FC910190F081E02DC7010995F3CF33
:101B7000642F0E940F0BC801DF91CF911F910F912D
:101B8000FF90EF90DF90CF900895CF93DF931F9257
:101B9000CDB7DEB7698320913F052223F9F020916C
:101BA0006205203258F021E030E0FC0133832283CB
:101BB00090E080E00F90DF91CF91089580914005F3
:101BC000E82FF0E0EF5BFA4F998190838F5F80936D
:101BD00040058093620581E090E0ECCF61E0CE01AA
:101BE00001960E940F0BF7CFDC01ED91FD918081F2
:101BF000ED91FD919081ED91FD916C9163708E233B
:101C000009F064609F2309F06860E1E1FEE0E60FFF
:101C1000F11D659565956D936D917D918D919D916A
:101C2000099423C01AC012C016C010C01EC009C03B
:101C300014C013C006C019C009C00DC007C00DC034
:101C400014C062507040804090400BC061507040A2
:101C50008040904006C06E5F01C06F5F7F4F8F4F26
:101C60009F4F9E938E937E936E93089580914B0623
:101C700090914C060C94F40D80914D0690914E0677
:101C80000C94F40DFC018285853080F4A82FB0E01F
:101C9000AA0FBB1FAE0FBF1F6D937C938F5F828710
:101CA00093859F5F9387848781E0089580E00895FE
:101CB000FC01248131E030933F05209361051092AF
:101CC0004005109262058385682B8BE596E00E94A3
:101CD000C50D81E00C948C0B089590E080E0089590
:101CE0008F929F92AF92BF92CF92DF92EF92FF922C
:101CF0000F931F93CF93DF93182F092FC62E63E006
:101D000080E40E949F0C10921205809311050E949E
:101D1000D5014B015C01D12CF12CE12C809167069F
:101D200090916806DC01ED91FC910084F185E02D35
:101D30000995039724F1C12FD02F8E010D5F1F4FFE
:101D40008091670690916806DC01ED91FC91028418
:101D5000F385E02D099589930C171D0789F71092DB
:101D6000810681E0DF91CF911F910F91FF90EF905D
:101D7000DF90CF90BF90AF909F908F9008950E947A
:101D8000D501681979098A099B09C616D706E8069C
:101D9000F90620F682E88093810680E0E3CFCF92B7
:101DA000DF92EF92FF920F931F93CF93DF9300D0B8
:101DB0001F92CDB7DEB783EF0E947C0C0E94D50145
:101DC00060936D0670936E0680936F069093700615
:101DD00081E080937106809171068130F1F70E9455
:101DE000D50100916D0610916E0620916F0630911D
:101DF0007006DC01CB01801B910BA20BB30B8B3067
:101E00009105A105B10538F320918206233099F0A0
:101E100086319105A105B105F0F2213061F08B32D8
:101E20009105A105B105B8F2223029F0853591055B
:101E3000A105B10580F26AE5CE0101960E94700EFF
:101E4000882309F48FC09981892F28E031E387FF27
:101E500003C0880F832701C0880F2150C1F72A8152
:101E6000822738E041E387FF03C0880F842701C041
:101E7000880F3150C1F73B813813C9C0892F90E0DA
:101E8000982F8827820F911D8C7F90937F068093D7
:101E90007E061092710623702093800685EF0E94C3
:101EA0007C0C0E94D50160936D0670936E06809342
:101EB0006F069093700682E08093710680917106A0
:101EC0008230F1F70E94D50100916D0610916E06E7
:101ED00020916F0630917006DC01CB01801B910BC5
:101EE000A20BB30B84309105A105B10538F3209105
:101EF0008206213091F089309105A105B105F0F2FB
:101F0000223059F08F309105A105B105B8F2233088
:101F100021F04D97A105B10588F26EE1CE01019641
:101F20000E94700E882309F12A81898190E0982F00
:101F30008827820F911D8C7F90937D0680937C066D
:101F400010927106237020938006109281060E94E1
:101F5000D5016093690670936A0680936B0690932F
:101F60006C0603C082E88093810660917E067091C2
:101F70007F0690E080E00E94C12122E538EB4FE22D
:101F80005BE30E94782226E636E64BE352E40E94A9
:101F9000AE200E9492216B0160917C0670917D06BB
:101FA00090E080E00E94C12120E030E04AEF5AE357
:101FB0000E94782220E030E040EC50E40E94AE2005
:101FC0000E9492219B0140916207509163074C153A
:101FD0005D0541F440913A0750913B0780E042177C
:101FE000530749F0D0926307C092620770933B0792
:101FF00060933A0781E00F900F900F90DF91CF919F
:102000001F910F91FF90EF90DF90CF90089585E89A
:102010008093810633CF0F931F93CF938C01C62FEC
:102020000E94580E6C2F6460C8010E94580E6C2FDD
:102030006B7FC8010E94580E83EC90E00197F1F786
:10204000CF911F910F9108950F931F93CF93DF931B
:102050008C01D62FC42F607F642B0E940B1080E16F
:10206000D89FB00111246C2BC801DF91CF911F9133
:102070000F910C940B10EF92FF920F931F93CF933D
:10208000DF938C017A01677088E0689FB0011124AA
:10209000606440E0C8010E942410E701A8E0EA0E55
:1020A000F11C6991D801ED91FC910190F081E02D36
:1020B000C8010995CE15DF05A1F7DF91CF911F91DA
:1020C0000F91FF90EF900895CF93DF93CDB7DEB7D8
:1020D00028970FB6F894DEBF0FBECDBF28E0EAE226
:1020E000F1E0DE01119601900D922A95E1F7FC01D5
:1020F0002085241710F44FEF420F50E0440F551F76
:1021000021E030E02C0F3D1F420F531FFA012081C8
:10211000620F606840E028960FB6F894DEBF0FBEED
:10212000CDBFDF91CF910C94241040E061E00E947C
:1021300024108BE39FE10197F1F7089541E00E949D
:10214000241081E090E00895FB0101900020E9F760
:102150003197AF01461B570BDC01ED91FC910280DA
:10216000F381E02D09948F929F92AF92BF92EF92EC
:10217000FF920F931F93CF93DF93CDB7DEB7A19755
:102180000FB6F894DEBF0FBECDBF7C01FA01CB01C4
:1021900019A2223008F42AE08E010F5D1F4F822E13
:1021A000912CB12CA12CBF01A50194010E946C209F
:1021B000F901CA016A300CF5605DD8016E938D019A
:1021C000232B242B252B79F790E080E0109721F02A
:1021D000BD01C7010E94A410A1960FB6F894DEBFFE
:1021E0000FBECDBFDF91CF911F910F91FF90EF9068
:1021F000BF90AF909F908F900895695CDECFCF9293
:10220000DF92EF92FF920F931F93CF93DF9377FFAD
:102210001DC06A017B01EC016DE20E94E3018C01AB
:1022200044275527BA014C195D096E097F092AE038
:10223000CE010E94B310800F911FDF91CF911F91AB
:102240000F91FF90EF90DF90CF9008952AE0DF91FB
:10225000CF911F910F91FF90EF90DF90CF900C9452
:10226000B310AB01770F660B770B0C94FF10CF9375
:10227000DF93BC018EE498E00E94A410EC016EE6AE
:1022800071E08EE498E00E94A4108C0F9D1FDF91F6
:10229000CF9108954F925F926F927F928F929F920B
:1022A000AF92BF92EF92FF920F931F93CF93DF9362
:1022B0008C014A015B01E22EAB019401CB01B40118
:1022C0000E94E52261E771E0811126C024013501F9
:1022D000E89477F82FEF3FEF4FE75FE7C301B201D4
:1022E0000E94E52281110CC02FEF3FEF4FE75FE71F
:1022F000C301B2010E941B2165E771E0181664F06A
:102300002FEF3FEF4FE75FE4C501B4010E94732256
:1023100018169CF469E771E0C801DF91CF911F9115
:102320000F91FF90EF90BF90AF909F908F907F9014
:102330006F905F904F900C94A4102FEF3FEF4FE7FA
:102340005FECC501B4010E941B2187FDE3CF20E0B3
:1023500030E0A901C501B4010E941B21D0E0C0E01A
:1023600087FF09C06DE2C8010E94E301EC01B7FAE2
:10237000B094B7F8B094FE2C712C60E070E080E06F
:102380009FE37E1440F420E030E040E251E40E94FC
:1023900020217394F6CFA50194010E94AF204B0138
:1023A0005C010E9492212B013C012AE0BC01A201A8
:1023B000C8010E94B310C80FD91FEE20D1F1C3018C
:1023C000B2010E94C1219B01AC01C501B4010E9470
:1023D000AE204B015C016EE2C8010E94E301C80F10
:1023E000D91FFA948FEFF81621F120E030E040E297
:1023F00051E4C501B4010E9478222B013C010E94E6
:1024000092214B01B12CA12C2AE0B501A401C801F5
:102410000E94B310C80FD91FC501B4010E94C12189
:102420009B01AC01C301B2010E94AE204B015C01D3
:10243000D8CFCE01DF91CF911F910F91FF90EF90F8
:10244000BF90AF909F908F907F906F905F904F90D4
:1024500008956115710511F00C94A41090E080E0CE
:1024600008952F923F924F925F926F927F928F9238
:102470009F92AF92BF92CF92DF92EF92FF920F9313
:102480001F93CF93DF93CDB7DEB72A970FB6F8949B
:10249000DEBF0FBECDBF2DB63EB6809183069091B4
:1024A00084060E949510809125018823E9F01092FE
:1024B00025014DE151E06FE0809183069091840603
:1024C0000E943B1045E151E06EE0809183069091BF
:1024D00084060E943B104DE051E06DE08091830640
:1024E000909184060E943B10E0919006F0E0EE0F80
:1024F000FF1FEB57F94F8080918000918306109168
:102500008406D4011C96BC901C971A968C91BB2013
:1025100011F08B1508F4B82EF401A3842B2D30E0B4
:10252000AB1408F470C0A394AB18A9014A0D511D57
:102530008417150614F4A82EAB185A2CA9014A0DBD
:10254000511D5A874987252D2A19852D90E0A98587
:10255000BA858A179B070CF0CDC1F4014384880F1C
:10256000991FE80FF91FC080D180D4011A968C9171
:10257000B81610F4F6012083D6014C9111966C9197
:10258000C8010E946410F6013F96FC83EB8376013C
:1025900096012C5F3F4F3E832D83AB81BC818D9193
:1025A000BC83AB83813409F401C108F05EC0803282
:1025B00009F4CEC0C0F5893009F4BCC030F58130D3
:1025C00009F4DFC0883009F4A9C0B2E0EB0EF11CB9
:1025D000ED81FE81EE15FF0501F7541077C1D6019C
:1025E00014968C91823009F461C1833009F470C172
:1025F000813009F07BC1D801ED91FC910190F0810F
:10260000E02D6FE061C1A12C98CF803109F499C011
:102610008131D9F6D7011B96ED91FC914081518112
:1026200070E060E0A9C08C3309F46FC0A0F481327F
:1026300009F49AC0823349F6F601258130E0D701CA
:102640001B96ED91FC914081518162817381C8019B
:102650000E944A11BACF8F3308F0B7CFF7016385D4
:102660007485C8010E942912B0CF893D09F4FCC0CD
:1026700020F5803D09F4E2C080F4863409F488C076
:10268000893C09F0A2CFD7011B96ED91FC913097C0
:1026900009F49BCF0995682F79C0813D09F4DAC010
:1026A000883D09F092CFD7011B96ED91FC913097B0
:1026B00009F48BCF0995BC0139C0803F09F4E9C00A
:1026C00088F4883E09F4DAC0893E09F07ECFD7014C
:1026D0001B96ED91FC91309709F477CF0995AB01EA
:1026E000BC014AC08B3F09F49FC08C3F09F49CC0D9
:1026F0008A3F09F06ACFD7011B96ED91FC91309784
:1027000009F463CF0995682F05C0D7011B96ED9199
:10271000FC916081C8010E94E30157CFD7011B964D
:10272000ED91FC916081062E000C770BC8010E9490
:1027300031114BCFD7011B96ED91FC91408150E0B8
:102740006FCFD7011B96ED91FC9160817181EECF27
:10275000D7011B96ED91FC9140815181628173817B
:10276000C8010E94FF1031CFD7011B96ED91FC915B
:1027700040815181628173812AE0C8010E94B310B7
:1027800024CFD7011B96ED91FC91608170E0CECFF4
:10279000F701A385B485F80180819181FC01208136
:1027A00031816C91C801F90109950FCF2DB73EB762
:1027B00038872F83D7011B966D907C90C3010E94B0
:1027C00063209A83898389819A81EDB7FEB7E81BDC
:1027D000F90B0FB6F894FEBF0FBEEDBF6DB77EB715
:1027E0006F5F7F4F20E0822F90E049815A818417EC
:1027F000950754F4F301E80FF91FE491860F971F32
:10280000DC01EC932F5FEFCFE981FA81E60FF71F30
:102810001082C8010E942912EF81F8850FB6F89442
:10282000FEBF0FBEEDBFD1CED7011B96ED91FC913F
:10283000309709F4CACE0995BC0113CFD7011B9676
:10284000ED91FC91309709F4C0CE0995682F880F5F
:10285000770B6CCFD7011B96ED91FC91309709F463
:10286000B4CE0995482F6BCFD7011B96ED91FC9103
:10287000309709F4AACE0995AC01D2CED7011B96A8
:10288000ED91FC91309709F4A0CE0995AB01BC0104
:1028900067CFD7011B96ED91FC91309709F495CE47
:1028A0000995AB01BC0122E030E0D1CEF601618197
:1028B00061504081C8010E946410D801ED91FC91E3
:1028C0000190F081E02D6EE0C801099553943BCE54
:1028D000F60142816381C8010E946410D801ED9124
:1028E000FC910190F081E02D6DE0EECF21E0F6014A
:1028F000248381CE0FB6F8943EBE0FBE2DBE2A961D
:102900000FB6F894DEBF0FBECDBFDF91CF911F9100
:102910000F91FF90EF90DF90CF90BF90AF909F907E
:102920008F907F906F905F904F903F902F90089581
:10293000CF93CFEFC80F80918F068C1768F08091EE
:102940008306909184060E949510C09390060E9481
:10295000311281E0CF91089580E0FCCF81E00E94A8
:102960009814809108010C948E00CF93C82F809109
:102970008306909184060E949510E0919006F0E005
:10298000EE0FFF1FEB57F94F0190F081E02D83858B
:10299000CC23E9F022852150330B8217130644F42F
:1029A0008F5F83878217130621F4CF910C94311225
:1029B0001386A385B0E0AA0FBB1FAE0FBF1F0D90FB
:1029C000BC91A02D51968C91882309F3EECF8111F3
:1029D00004C0828581508387E8CF81508387E9CF07
:1029E000E0919006F0E0EE0FFF1FEB57F94F0190DA
:1029F000F081E02D8385809308010E94CF0E44E092
:102A000050E060E071E082E297E00E94EA2282E01A
:102A10000C949814E0919006F0E0EE0FFF1FEB5736
:102A2000F94F0190F081E02D83858093080144E007
:102A300050E060E071E082E297E00E94EA2283E0E9
:102A40000E94981480E00C948E00E0919006F0E0D3
:102A5000EE0FFF1FEB57F94F0190F081E02D8385BA
:102A60008093080144E050E060E071E082E992E088
:102A70000E94EA2284E00E94981480E00C948E0068
:102A8000E0919006F0E0EE0FFF1FEB57F94F019039
:102A9000F081E02D83858093080144E050E060E000
:102AA00071E082E992E00E94EA2285E00E94981497
:102AB00080E00C948E0085ED8093BC0080913B05F6
:102AC00090913C05A0913D05B0913E050796A11D52
:102AD000B11D23E0B695A795979587952A95D1F7CF
:102AE0002091BC0024FD03C0109239050895409147
:102AF0003B0550913C0560913D0570913E05452B8D
:102B0000462B472B69F30097A105B10541F025E35A
:102B10002A95F1F700000197A109B109E1CF809151
:102B20003A050C946B0B1F920F920FB60F92112463
:102B30002F933F938F939F93AF93BF938091E30223
:102B40009091E402A091E502B091E6023091E20298
:102B500023E0230F2D3758F50196A11DB11D2093B9
:102B6000E2028093E3029093E402A093E502B09323
:102B7000E6028091E7029091E802A091E902B0910B
:102B8000EA020196A11DB11D8093E7029093E8022D
:102B9000A093E902B093EA02BF91AF919F918F9108
:102BA0003F912F910F900FBE0F901F90189526E820
:102BB000230F0296A11DB11DD2CF1F920F920FB607
:102BC0000F9211242F933F934F935F936F937F93B3
:102BD0008F939F93AF93BF93EF93FF93E09128015F
:102BE000F09129010995FF91EF91BF91AF919F91CC
:102BF0008F917F916F915F914F913F912F910F90A6
:102C00000FBE0F901F9018951F920F920FB60F9244
:102C100011242F933F934F935F936F937F938F93E1
:102C20009F93AF93BF93EF93FF93E0912601F091B1
:102C300027010995FF91EF91BF91AF919F918F91DE
:102C40007F916F915F914F913F912F910F900FBEA8
:102C50000F901F9018951F920F920FB60F9211248C
:102C60002F933F934F935F936F937F938F939F9394
:102C7000AF93BF93EF93FF9383E695E00E946802C2
:102C8000FF91EF91BF91AF919F918F917F916F9144
:102C90005F914F913F912F910F900FBE0F901F901A
:102CA00018951F920F920FB60F9211242F938F93A6
:102CB0009F93EF93FF93E0917305F09174058081EA
:102CC000E0917905F0917A0582FD1BC09081809199
:102CD0007C058F5F8F7320917D05821741F0E09115
:102CE0007C05F0E0ED59FA4F958F80937C05FF91BC
:102CF000EF919F918F912F910F900FBE0F901F908A
:102D000018958081F4CF1F920F920FB60F92112465
:102D10002F933F934F935F936F937F938F939F93E3
:102D2000AF93BF93EF93FF938091B900887F803674
:102D300009F44AC0F0F5883209F4A7C018F58031CB
:102D400009F49BC0B8F4882309F4F9C0883009F469
:102D500094C0FF91EF91BF91AF919F918F917F911F
:102D60006F915F914F913F912F910F900FBE0F90F8
:102D70001F901895883109F488C0803251F78093EC
:102D8000370514C0803409F49DC040F48033B9F392
:102D90008833F9F68093370585ECB0C0803509F4A7
:102DA00085C0883509F496C0883499F60E945B1571
:102DB000D0CF883909F48CC038F5883729F050F421
:102DC000883611F0803729F683E080933905109218
:102DD000D90257C0883809F47BC0803919F080388F
:102DE00009F0B7CF8091D902803208F071C0E0912C
:102DF000D90281E08E0F8093D9028091BB00F0E070
:102E0000E754FD4F80833DC0803B39F0E0F4803AC9
:102E100009F479C0883A09F09CCF84E080933905A1
:102E20001092B8021092B702E0910F05F0911005D0
:102E300009958091B70281110FC081E08093B7029C
:102E40001092970209C0803C09F4A6CF883C09F48F
:102E5000A3CF883B09F07DCFE091B80281E08E0FCF
:102E60008093B802F0E0E956FD4F80818093BB006B
:102E70009091B8028091B70229C080911405809387
:102E8000BB0085EC8093BC0064CF909136058091A7
:102E90003505981758F5E091360581E08E0F80933F
:102EA0003605F0E0EB5EFA4F8081E9CFE091360520
:102EB00081E08E0F809336058091BB00F0E0EB5EE1
:102EC000FA4F808390913605809135059817C8F2A6
:102ED00085E8D8CFE091360581E08E0F80933605E6
:102EE0008091BB00F0E0EB5EFA4F80838091380563
:102EF00081115CCF81E08093130584EA8093BC004C
:102F00001092390526CF85EC8093BC0010923905CC
:102F10008091D902803230F4E091D902F0E0E75498
:102F2000FD4F10826091D90270E0E0910D05F091A3
:102F30000E0589EB92E009951092D9020ACF109202
:102F4000370534CFFC0196819230A8F4292F30E068
:102F5000D901AA0FBB1FAE0FBF1F1C967C936E93A7
:102F60001B972E0F3F1F8EE3D9011F968C939F5FF7
:102F7000968381E0089580E00895FC014083618399
:102F8000415042838FEF860F838381E0848382E008
:102F900085831682118A14861386178616861586EF
:102FA000108A1086178212861186B901CF010C94FF
:102FB000A217DF92EF92FF920F931F93CF93DF93AD
:102FC000EC01188269838FEF8A83860F8B8381E0FF
:102FD0008C8392E09D83198A1E861D86188A188626
:102FE0001F821A8619865C874B8741E1D42EDF86C3
:102FF0008E83B901CE010E94A2178E81823078F4AF
:10300000282F30E0F901EE0FFF1FEC0FFD1F148792
:1030100003872C0F3D1FF901D7868F5F8E83B70181
:10302000CE01DF91CF911F910F91FF90EF90DF9034
:103030000C94A217EF92FF920F931F93CF93DF93FD
:10304000109266051092650588EE93E0A0E0B0E06E
:103050008093670590936805A0936905B0936A050E
:1030600026E331E0309364052093630525EC30E0DE
:103070003093700520936F0524EC30E03093720597
:103080002093710520EC30E0309374052093730594
:1030900021EC30E0309376052093750522EC30E08A
:1030A000309378052093770526EC30E030937A054D
:1030B0002093790510927C0510927D0510927E0573
:1030C00010927F0520E520930006109201061092D1
:1030D00007061092080610920B0610920D0642E0A9
:1030E00050E060E070E040930E0650930F0660934E
:1030F0001006709311061092250610922F0610925A
:103100002E0628E431E030932D0620932C061092F1
:10311000310610925E0610925D0680935F069093D2
:103120006006A0936106B093620684E591E09093F7
:103130005C0680935B06109251081092500886E658
:1031400091E090934F0880934E0887E28093520855
:1031500080E18093570882E08093580810925908C4
:1031600010924A0810924B0810924D0810923C0899
:1031700010923D0810923F0810922E0810922F08CE
:103180001092310810922008109221081092230802
:103190001092120810921308109215081092040849
:1031A00010920508109207081092F6071092F70780
:1031B0001092F9071092E8071092E9071092EB07B6
:1031C0001092DA071092DB071092DD072DE731E04D
:1031D00040E061E08EEB97E00E94BD1729E831E006
:1031E00041E061E08CEA97E00E94BD1726E931E0FA
:1031F00040E061E08AE997E00E94BD1722EA31E0F1
:1032000041E061E088E897E00E94BD172FEA31E0D5
:1032100040E060E086E797E00E94BD1772EBE72E82
:1032200071E0F72E00E617E0970142E657E062E012
:1032300084E697E00E94D91724EB31E040E068E093
:103240008EE497E00E94BD17E7EBEE2EE1E0FE2E44
:1032500008E317E097014AE357E06AE08CE397E060
:103260000E94D91729EB31E041E060E086E297E067
:103270000E94BD1780912C07823098F4282F30E0EF
:10328000F901EE0FFF1FEA5DF84F42E257E0548765
:1032900043872A5D384F9DE3F90197878F5F8093BD
:1032A0002C0725EC31E040E061E080E197E00E94EE
:1032B000BD1724ED31E041E061E08EEF96E00E9421
:1032C000BD1780910407823098F4282F30E0F9016F
:1032D000EE0FFF1FE250F94F42E257E05487438759
:1032E0002250394F9DE3F90197878F5F8093040740
:1032F00020EE31E041E061E08CEE96E00E94BD17E7
:103300008091F206823098F4282F30E0F901EE0F18
:10331000FF1FE451F94F40E657E05487438724519B
:10332000394F91E1F90197878F5F8093F20662EB45
:1033300071E08CEE96E00E94A21725EC31E040E0AF
:1033400061E08AED96E00E94BD172DEE31E041E08C
:1033500061E088EC96E00E94BD1768EF71E088ECB0
:1033600096E00E94A21725EC31E040E061E086EB98
:1033700096E00E94BD172CEF31E041E061E084EA65
:1033800096E00E94BD1768EF71E084EA96E00E9423
:10339000A21762EB71E084EA96E00E94A21727E090
:1033A00032E041E061E082E996E00E94BD1768EFFB
:1033B00071E082E996E00E94A21767EB71E082E972
:1033C00096E00E94A2178EE498E090938406809382
:1033D0008306109290061092910680E498E09093F4
:1033E00086068093850681E080938F068BE596E0C4
:1033F00090936806809367061092690610926A0699
:1034000010926B0610926C0610926D0610926E066A
:1034100010926F06109270061092710610927F063D
:1034200010927E0610927D0610927C061092720613
:10343000109273061092740610927506109276061A
:1034400010927706109278061092790610927A06FA
:1034500010927B06109281061092800610928206CE
:1034600062E082E00E94420162E083E00E94420149
:10347000E0EBF0E0E491F0E0EE0FFF1FEC55FF4FC2
:10348000A591B491B0935006A0934F06E2E9F0E005
:10349000449140935306E1EBF0E0E491F0E0EE0F4D
:1034A000FF1FEC55FF4FC591D491D0935206C093A6
:1034B0005106E3E9F0E0E491E093540610925606D9
:1034C0001092570610925806109259062BE33FE1CE
:1034D000C9010197F1F79C91842F892391E009F4A8
:1034E00090E08881E82309F092602FE436E0909321
:1034F000550630934C0620934B0686E39EE090934E
:10350000270180932601809169008C7F81608093E0
:103510006900E89A81E080935A0630934E06209322
:103520004D068CE39EE090932901809328018091C1
:103530006900837F846080936900E99A82E08093C8
:103540005A06DF91CF911F910F91FF90EF90089550
:10355000CF93DF9300D000D0CDB7DEB7789484B599
:10356000826084BD84B5816084BD85B5826085BD7F
:1035700085B5816085BD80916E00816080936E000D
:1035800010928100809181008260809381008091FF
:1035900081008160809381008091800081608093B0
:1035A00080008091B10084608093B1008091B00070
:1035B00081608093B00080917A00846080937A006B
:1035C00080917A00826080937A0080917A00816095
:1035D00080937A0080917A00806880937A001092BC
:1035E000C10060E086E00E94420160E08AE00E9443
:1035F000420160E089E00E9442010E94540B109257
:10360000530880915808823018F098E0909353083E
:103610008093560862E370E080E090E00E94A3018E
:10362000609159088EE498E00E94580E68EE73E0AD
:1036300080E090E00E94A30160E38EE498E00E94A5
:103640000B100BE416E4C8010197F1F760E38EE478
:1036500098E00E940B10C8010197F1F760E38EE437
:1036600098E00E940B1083E592E00197F1F760E289
:103670008EE498E00E940B1060915308606240E075
:103680008EE498E00E94241084E08093540840E087
:103690006CE08EE498E00E9424108EE498E00E9492
:1036A000951082E08093550840E066E08EE498E053
:1036B0000E94241040E062E08EE498E00E94241012
:1036C0008BE39FE10197F1F788E08093590860E070
:1036D0008EE498E00E94580E40E060E08EE498E0AE
:1036E0000E94641082E192E00E94371141E060E0A4
:1036F0008EE498E00E94641083E292E00E94371109
:1037000064EF71E080E090E00E94A3018EE498E015
:103710000E94951040E060E08EE498E00E94641002
:1037200080E392E00E94371141E060E08EE498E08F
:103730000E9464108EE392E00E94371164EF71E002
:1037400080E090E00E94A3018EE498E00E94951032
:103750000E94540B01E000933F0518E610936105A9
:10376000109240051092620581E00E948C0B40E0AF
:1037700060E08EE498E00E94641088E492E00E9489
:10378000371141E060E08EE498E00E9464100093FD
:103790003F0510936105109240051092620560E0AC
:1037A0008BE596E00E94C50D81E00E948C0B61E0E4
:1037B00088E60E949F0C10921205809311058BE5FC
:1037C00096E00E947E0D87FFB1C080E592E00E94E6
:1037D000371164EF71E080E090E00E94A3018EE475
:1037E00098E00E94951040E060E08EE498E00E942E
:1037F00064106DE672E08EE498E00E94291241E0C8
:1038000060E08EE498E00E94641080913106882385
:1038100041F061E08CE296E00E94F708811110927D
:10382000310610920D0610920B06109208061092A7
:10383000070684E0809306060E94D5018B0161E0B3
:10384000809106060E94420161E0809106060E9476
:103850001401FFB6F8948091E102811127C0E8EBD2
:10386000F0E08491EAE9F0E09491E82FF0E0EE0FC7
:10387000FF1FE859FF4FA591B491EC91E92321F482
:1038800061E08AE00E94140161E08AE00E94420146
:103890008CB580618CBD8CB580648CBD61E08DE0A1
:1038A0000E94420161E08BE00E9442018091E102AE
:1038B0008F5F8093E102FFBE82E580930006109245
:1038C000010680910006909101060E942D035AE0A6
:1038D000F52E8FEF0E940803FA94F110FACF82E0E0
:1038E00096E00E94300320E030E0A90160E082E031
:1038F00096E00E944603F82E80930C0621E0821782
:10390000C1F00E94D501601B710B613D774058F3F7
:1039100081E08093070682E096E00E94FD026CE75A
:1039200072E08EE498E00E942912C6C083E692E01D
:103930004ECF2AEA31E040E050E068E082E096E0D5
:103940000E94460382FF2AC0F0920D0680910D0668
:10395000C12CD12CE12C30E4F32E823019F0C12C93
:10396000D12C760120E030E0A90167E382E096E007
:103970000E944603A701960169E282E096E00E9458
:10398000460380930C068823D1F00E94D501601B6A
:10399000710B613D774030F388E0BBCF44E0F42EFB
:1039A0000E940F0380930C06FA94F110F9CF8A3A23
:1039B00011F082E0AECF82E080930D06C7CF8091F8
:1039C0000D068230D1F420E030E0A9016AE382E004
:1039D00096E00E944603882311F086E09ACF0E9469
:1039E0000F03807C803C19F483E080930D060E94D5
:1039F0000F030E940F030E940F0382E096E00E94D3
:103A0000FD0280E5809300061092010681E00E948D
:103A10001705882309F4A9C28091310681117FCF4F
:103A200080912506803109F0A7C282E0809331069B
:103A300010924306109244061092450610924606D4
:103A40008091260690912706B0E0A0E025E0880F3F
:103A5000991FAA1FBB1F2A95D1F780933F06909309
:103A60004006A0934106B09342068EE096E0909304
:103A700048068093470681E0809330061092320614
:103A800010923306109234061092350610923606C4
:103A900010923706109238061092390610923A06A4
:103AA00010923B0610923C0610923D0610923E0684
:103AB00082E792E00E94371164EF71E080E090E0CD
:103AC0000E94A3018EE498E00E9495100E94540B7E
:103AD0008EEF0E947C0C40E060E08EE498E00E9453
:103AE000641069E872E08EE498E00E94291241E0D7
:103AF00060E08EE498E00E94641081E080933F05CE
:103B000080E480936105109240051092620581E087
:103B10000E948C0B882309F4D1C284E8809381062B
:103B20006CE772E08EE498E00E94291264EF71E085
:103B300080E090E00E94A3018EE498E00E9495103E
:103B40006EEB77E080E498E00E94420E6CEA77E04A
:103B500080E498E00E94420E6AE977E080E498E011
:103B60000E94420E68E877E080E498E00E94420EEE
:103B700080EF94E19093C6078093C50781E080931E
:103B8000CF072AE035E13093B4072093B307809341
:103B9000BD0725E235E13093A2072093A10780936A
:103BA000AB0720E435E13093900720938F07809393
:103BB000990780E498E00E94AE0082E080934C0870
:103BC00066E777E082E398E00E94420E64E677E0E1
:103BD00082E398E00E94420E6EE477E082E398E090
:103BE0000E94420E6CE377E082E398E00E94420E6E
:103BF00066E277E082E398E00E94420E80918F06B1
:103C0000853068F4E82FF0E0EE0FFF1FEB57F94F17
:103C100022E338E0318320838F5F80938F0660E159
:103C200077E084E298E00E94420E6EEF76E084E254
:103C300098E00E94420E6CEE76E084E298E00E94EA
:103C4000420E8EEA94E1909318078093170781E063
:103C50008093210721EE31E030930607209305077A
:103C600080930F073093F4062093F3068093FD06AC
:103C700084E298E00E94AE0082E080933008809158
:103C80008F06853068F4E82FF0E0EE0FFF1FEB574A
:103C9000F94F24E238E0318320838F5F80938F06D1
:103CA0006AED76E08AEF97E00E94420E68EC76E0DB
:103CB0008AEF97E00E94420E8EEA94E19093E2062A
:103CC0008093E10681E08093EB0621EE31E03093B2
:103CD000D0062093CF068093D9068AEF97E00E9402
:103CE000AE0082E08093060880918F06853068F4EC
:103CF000E82FF0E0EE0FFF1FEB57F94F2AEF37E008
:103D0000318320838F5F80938F0666EB76E080EDB2
:103D100097E00E94420E64EA76E080ED97E00E9410
:103D2000420E62E976E080ED97E00E94420E8EEA54
:103D300094E19093BE068093BD0681E08093C70610
:103D400021EE31E03093AC062093AB068093B506AC
:103D500030939A06209399068093A30680ED97E00E
:103D60000E94AE0082E08093DC0780918F06853050
:103D700068F4E82FF0E0EE0FFF1FEB57F94F20ED4E
:103D800037E0318320838F5F80938F064DE151E0D0
:103D90006FE080918306909184060E943B1045E17C
:103DA00051E06EE080918306909184060E943B1062
:103DB0004DE051E06DE080918306909184060E9471
:103DC0003B1080E00E948E000E94311280915A06C2
:103DD000823008F031C1F8948FE496E00E94F40D2F
:103DE0008091560690915706A0915806B0915906B9
:103DF00078948093090190930A01A0930B01B093EA
:103E00000C0100E010E086E00E94EB00892B69F5D0
:103E1000E0919006F0E0EE0FFF1FEB57F94F019095
:103E2000F081E02D83859285891709F407C190E020
:103E3000880F991FE80FF91F0190F081E02D07808E
:103E4000F085E02D309709F4F9C009950E943112F0
:103E50000E94311286E00E94EB00892BD9F364E6C0
:103E600070E080E090E00E94A30180919006813094
:103E700029F40E94CF0E81110E943112E091900628
:103E8000F0E0EE0FFF1FEB57F94F0190F081E02DAE
:103E900083859285891709F45CC090E0880F991F8B
:103EA000E80FF91F0190F081E02D87819085892B23
:103EB00009F44FC080915A06823008F0EAC0F894A5
:103EC0008FE496E00E94F40DC0905606D0905706FD
:103ED000E0905806F09059067894809109019091ED
:103EE0000A01A0910B01B0910C018C159D05AE0546
:103EF000BF05C9F08C159D05AE05BF050CF0CBC004
:103F000081E00E94B5140E943112C0920901D09242
:103F10000A01E0920B01F0920C0164E670E080E08F
:103F200090E00E94A3018AE00E94EB00892B09F037
:103F3000B4C081E00E94B5140E9431128AE00E9450
:103F4000EB00892BD9F364E670E080E090E00E94FA
:103F5000A3010115110509F456CF0E9454028823CC
:103F600009F451CF0E9400004ECF80E00E94170557
:103F7000882309F4D4CC50CD803209F0D0CC83E032
:103F8000809331068091280690912906A0912A06F7
:103F9000B0912B068093430690934406A093450668
:103FA000B093460689839A83AB83BC83C12CD12C02
:103FB0007601812C02E0902EA12CB12C49815A81EE
:103FC0006B817C819E012F5F3F4F8EE096E00E94C7
:103FD000E206882309F4A3CC80911B06A501940175
:103FE00004C0220F331F441F551F8A95D2F7DA01F0
:103FF000C901C80ED91EEA1EFB1E49815A816B8178
:104000007C8180912506803191F488EF9FEFA0E0BC
:10401000B0E0481759076A077B0780F2C0923F0655
:10402000D0924006E0924106F09242061ECD88EF03
:104030009FEFAFEFBFE0EDCFF894D2CE8091830633
:10404000909184060E94951090919006809191061F
:10405000E82FF0E0EE0FFF1FEB57F94F0190F081D2
:10406000E02D2585211111C0809390069093910633
:104070000E943112809108010E948E0064E670E077
:1040800080E090E00E94A301E3CE292F982F822F99
:10409000DFCFF89419CF80E034CF89E00E94EB00A5
:1040A000892B09F056CF80E00E94B5140E9431128E
:1040B00089E00E94EB00892BD9F345CF82E792E09B
:1040C0000E94371133CDFC0105900020E9F780955F
:1040D00090958E0F9F1F0895A1E21A2EAA1BBB1B5D
:1040E000FD010DC0AA1FBB1FEE1FFF1FA217B307C4
:1040F000E407F50720F0A21BB30BE40BF50B661FDA
:10410000771F881F991F1A9469F76095709580959D
:1041100090959B01AC01BD01CF0108950E949920AB
:10412000A59F900DB49F900DA49F800D911D11240B
:104130000895A29FB001B39FC001A39F700D811D80
:104140001124911DB29F700D811D1124911D0895A0
:10415000EE0FFF1F0590F491E02D09945058BB27F6
:10416000AA270E94C6200C9439220E942B2238F0E4
:104170000E94322220F039F49F3F19F426F40C9467
:1041800028220EF4E095E7FB0C942222E92F0E94EE
:104190004A2258F3BA17620773078407950720F07D
:1041A00079F4A6F50C946C220EF4E0950B2EBA2F40
:1041B000A02D0B01B90190010C01CA01A00111242D
:1041C000FF27591B99F0593F50F4503E68F11A16D9
:1041D000F040A22F232F342F4427585FF3CF46956A
:1041E00037952795A795F0405395C9F77EF41F168C
:1041F000BA0B620B730B840BBAF09150A1F0FF0F56
:10420000BB1F661F771F881FC2F70EC0BA0F621F41
:10421000731F841F48F4879577956795B795F79531
:104220009E3F08F0B0CF9395880F08F09927EE0FC6
:104230009795879508950E94FE2108F481E00895DE
:104240000E9434210C9439220E94322258F00E949C
:104250002B2240F029F45F3F29F00C9422225111C7
:104260000C946D220C9428220E944A2268F3992310
:10427000B1F3552391F3951B550BBB27AA27621762
:104280007307840738F09F5F5F4F220F331F441F6F
:10429000AA1FA9F335D00E2E3AF0E0E832D09150A3
:1042A0005040E695001CCAF72BD0FE2F29D0660F90
:1042B000771F881FBB1F261737074807AB07B0E8D3
:1042C00009F0BB0B802DBF01FF2793585F4F3AF0D9
:1042D0009E3F510578F00C9422220C946D225F3F92
:1042E000E4F3983ED4F3869577956795B795F7955F
:1042F0009F5FC9F7880F911D9695879597F9089547
:10430000E1E0660F771F881FBB1F621773078407E2
:10431000BA0720F0621B730B840BBA0BEE1F88F7F1
:10432000E09508950E94522288F09F5798F0B92F87
:104330009927B751B0F0E1F0660F771F881F991FDA
:104340001AF0BA95C9F714C0B13091F00E946C22EE
:10435000B1E008950C946C22672F782F8827B85FFE
:1043600039F0B93FCCF3869577956795B395D9F732
:104370003EF490958095709561957F4F8F4F9F4F3C
:104380000895E89409C097FB3EF490958095709548
:1043900061957F4F8F4F9F4F9923A9F0F92F96E991
:1043A000BB279395F695879577956795B795F11106
:1043B000F8CFFAF4BB0F11F460FF1BC06F5F7F4FA3
:1043C0008F4F9F4F16C0882311F096E911C07723B5
:1043D00021F09EE8872F762F05C0662371F096E8BE
:1043E000862F70E060E02AF09A95660F771F881F8D
:1043F000DAF7880F9695879597F90895990F000831
:10440000550FAA0BE0E8FEEF16161706E807F907A6
:10441000C0F012161306E407F50798F0621B730B41
:10442000840B950B39F40A2661F0232B242B252BC2
:1044300021F408950A2609F4A140A6958FEF811D65
:10444000811D089597F99F6780E870E060E0089506
:104450009FEF80EC089500240A941616170618069C
:104460000906089500240A94121613061406050678
:104470000895092E0394000C11F4882352F0BB0F09
:1044800040F4BF2B11F460FF04C06F5F7F4F8F4F6C
:104490009F4F089557FD9058440F551F59F05F3FA7
:1044A00071F04795880F97FB991F61F09F3F79F056
:1044B00087950895121613061406551FF2CF4695D8
:1044C000F1DF08C0161617061806991FF1CF86955A
:1044D0007105610508940895E894BB27662777273E
:1044E000CB0197F908950E94FE2108F48FEF0895FB
:1044F0000E948B220C9439220E942B2238F00E94B9
:10450000322220F0952311F00C9422220C942822C0
:1045100011240C946D220E944A2270F3959FC1F3DE
:10452000950F50E0551F629FF001729FBB27F00D61
:10453000B11D639FAA27F00DB11DAA1F649F6627B6
:10454000B00DA11D661F829F2227B00DA11D621F05
:10455000739FB00DA11D621F839FA00D611D221FBF
:10456000749F3327A00D611D231F849F600D211DA3
:10457000822F762F6A2F11249F5750409AF0F1F026
:1045800088234AF0EE0FFF1FBB1F661F771F881F8F
:1045900091505040A9F79E3F510580F00C94222283
:1045A0000C946D225F3FE4F3983ED4F386957795A3
:1045B0006795B795F795E7959F5FC1F7FE2B880F35
:1045C000911D9695879597F908950E94FE21880B75
:1045D000990B0895FB01DC014150504048F00190D7
:1045E0000D920020C9F701C01D9241505040E0F7E4
:0645F0000895F894FFCFCE
:1045F60044657300FFFFFFFF0119FCFFFF00000E7B
:104606000E0E0000000004021F0204000000040851
:104616001F0804000001E201E2010000400014004E
:104626005400000000008A02EA011702D70248027D
:1046360026023A02000000009A09EA0139096C0EC6
:1046460000000000C50D980D6D0E6E0D910D7E0DCE
:104656006F0D000000009E10EA016D0E6C0E0D0A33
:10466600006E616E00696E66006F7666004D6F6E55
:1046760069746F72697A617200436F6E74726F6CDF
:104686002054656D7000436F6E74726F6C204C75AC
:104696007A00477261626172204461746F730054DC
:1046A6003A00DF00483A0025004374726C54656D89
:1046B600703A2020004D656E75205072696E6369F0
:1046C60070616C004374726C2054656D703A200002
:1046D60054656D70657261747572613A00437472E7
:1046E6006C204C757A3A20004465730054656D70F1
:1046F600205265633A200048756D205265633A2062
:10470600200020556E697665727369646164206461
:10471600656C0020202020506163696669636F0024
:104726002020496E7665726E616465726F00202086
:1047360020202076302E310052656C6F6A3A2000B8
:104746004572726F722E20496E69636961722053D9
:10475600696E00456E63656E6469646F0053443A22
:104766002000436F6E65637461646F004E6F206353
:104776006F6E65637461646F0053687432313A20FA
:02478600000031
:00000001FF
