:100000000C9462000C9404090C94DD080C948A0092
:100010000C948A000C948A000C948A000C948A0038
:100020000C948A000C948A000C948A000C948A0028
:100030000C948A000C948A000C948A000C948A0018
:100040000C9493080C948A000C948A000C948A00F7
:100050000C948A000C948A000C948A000C948A00F8
:100060000C942B090C948A00000000080002010087
:100070000003040700000000000000000000000072
:10008000250028002B0000000000240027002A0083
:10009000010204081020408001020408102001021F
:1000A000040810200000000023002600290004049A
:1000B0000404040404040202020202020303030310
:1000C0000303460A11241FBECFEFD8E0DEBFCDBF29
:1000D00011E0A0E0B1E0E4EEFFE102C005900D9276
:1000E000A038B107D9F723E0A0E8B1E001C01D9224
:1000F000AF37B207E1F710E0C2E6D0E004C02197C5
:10010000FE010E94AE0DC136D107C9F70E940A0B4D
:100110000C94F00F0C940000FC01608381E081835B
:10012000615062831382848392E0958316A2128EBB
:10013000118E12A2148E138E13A2168E158E14A277
:1001400010A2178E15A210861782128611861486A9
:10015000138616861586108A1786128A118A148AC3
:10016000138A168A158A508F478B9EE391A3868344
:100170000895CF93DF9390E0FC01E057FF4F249167
:1001800082559F4FFC0184918823C1F090E0880F35
:10019000991FFC01EA57FF4FC591D491FC01E45827
:1001A000FF4FA591B4919FB7F8943881822F809525
:1001B00083238883EC91E22BEC939FBFDF91CF9157
:1001C0000895833081F028F4813099F08230A9F0CD
:1001D00008958730A9F08830C9F08430B1F4809157
:1001E00080008F7D03C0809180008F778093800096
:1001F000089584B58F7784BD089584B58F7DFBCF36
:100200008091B0008F778093B00008958091B00006
:100210008F7DF9CF1F93CF93DF93282F30E0F90123
:10022000E859FF4F8491F901E057FF4FD491F9014C
:10023000E255FF4FC491CC23A9F0162F81110E94E3
:10024000E100EC2FF0E0EE0FFF1FE458FF4FA59107
:10025000B4918FB7F894EC91111108C0D095DE23BA
:10026000DC938FBFDF91CF911F910895DE2BF8CFE4
:100270003FB7F89480911A0290911B02A0911C0242
:10028000B0911D0226B5A89B05C02F3F19F001961D
:10029000A11DB11D3FBFBA2FA92F982F8827BC01E0
:1002A000CD01620F711D811D911D42E0660F771F08
:1002B000881F991F4A95D1F708958F929F92AF9208
:1002C000BF92CF92DF92EF92FF924B015C010E94AE
:1002D00038016B017C010E9438016C197D098E097F
:1002E0009F09683E734081059105A8F321E0821AB9
:1002F0009108A108B10888EEC80E83E0D81EE11C61
:10030000F11C81149104A104B10429F7FF90EF902E
:10031000DF90CF90BF90AF909F908F9008950895F9
:100320000895DC01ED91FC910190F081E02D09949C
:10033000AF92BF92CF92DF92EF92FF920F931F93F3
:10034000CF93DF936C017B018B01040F151FEB0131
:100350005E01AE18BF08C017D10759F06991D601E8
:10036000ED91FC910190F081E02DC6010995892B5A
:1003700079F7C501DF91CF911F910F91FF90EF9019
:10038000DF90CF90BF90AF9008951F93CF93DF93EE
:10039000C1E0C093AA01882399F1D091B8001091CF
:1003A000BA008091BC008A7B8093BC0060E082E14F
:1003B0000E940A0160E083E10E940A011092EF01AD
:1003C000C093F1011092F00161E082E10E940A0104
:1003D00061E083E10E940A018091B9008E7F8093E1
:1003E000B9008091B9008D7F8093B90088E4809333
:1003F000B80085E48093BC001093BA00D093B80095
:10040000DF91CF911F9108952091CB01260F3327C3
:10041000331F21323105ECF42091EF01FC0190E013
:1004200080E0243069F082E00895A091CB01219111
:10043000AC0145555E4FA40FB52FB11D2C9301960D
:10044000861798F38091CB01680F6093CB0180E011
:10045000089581E0089508958FEF9FEF08958FEF3D
:100460009FEF08958091A40190E091958195910965
:100470000895CF92DF92EF92FF920F931F93CF9345
:10048000DF937C01CB018A012091A301222389F013
:10049000EB016B01C40ED51ECC15DD0569F0699129
:1004A000D701ED91FC910190F081E02DC7010995F4
:1004B000F3CF642F0E940402C801DF91CF911F91F6
:1004C0000F91FF90EF90DF90CF900895CF93DF933F
:1004D0001F92CDB7DEB769832091A3012223F9F0E3
:1004E0002091A201203258F021E030E0FC0133835A
:1004F000228390E080E00F90DF91CF91089580916A
:10050000A101E82FF0E0EF57FE4F998190838F5FB4
:100510008093A1018093A20181E090E0ECCF61E0A3
:10052000CE0101960E940402F7CFDC01ED91FD910E
:100530008081ED91FD919081ED91FD916C916370C1
:100540008E2309F064609F2309F06860E2EBF2E01B
:10055000E60FF11D659565956D936D917D918D917A
:100560009D91099423C01AC012C016C010C01EC0AD
:1005700009C014C013C006C019C009C00DC007C00F
:100580000DC014C062507040804090400BC061505C
:1005900070408040904006C06E5F01C06F5F7F4F2B
:1005A0008F4F9F4F9E938E937E936E93089580916D
:1005B0002A0290912B020C94950280912C0290912A
:1005C0002D020C949502FC01808D8C3080F4A82FB4
:1005D000B0E0AA0FBB1FAE0FBF1F6D937C938F5F60
:1005E000808F918D9F5F918F828F81E0089580E051
:1005F0000895CF92DF92EF92FF920F931F93CF93C4
:10060000DF93FC01C48121E02093A301C09380010A
:100610001092A1011092A2018385682B8EE192E0D5
:100620000E946602D091A201D13208F092C00E94CD
:1006300038016B017C018091EF01811165C082E07E
:100640008093EF0181E08093F1018FEF8093EE01C1
:1006500010921302D0931202A1E8B1E0E2EFF1E0B0
:1006600080E0D81385C01092140280911402CC0F40
:10067000C82BC09314028091F001813009F07CC036
:100680001092F0010E9438016B017C0180911402EC
:100690008093BB008091A6019091A701A091A80131
:1006A000B091A901892B8A2B8B2B99F00E943801DC
:1006B0000091A6011091A7012091A8013091A901F4
:1006C0006C197D098E099F09061717072807390736
:1006D000E0F18091BC0083FDD9CF85EC8093BC0014
:1006E0000E9438016B017C018091EF01823009F496
:1006F00045C08091EE018F3F61F18091EE01803223
:1007000041F18091EE0125C08091A6019091A70151
:10071000A091A801B091A901892B8A2B8B2B09F4F8
:100720008ACF0E9438010091A6011091A701209163
:10073000A8013091A9016C197D098E099F0906173E
:1007400017072807390708F076CF8091A5010E9486
:10075000C5011092A1011092A2011092A301DF9194
:10076000CF911F910F91FF90EF90DF90CF90089560
:100770009D9191938F5F75CF85EEB0CF8091A6014B
:100780009091A701A091A801B091A901892B8A2B72
:100790008B2B09F4A9CF0E9438010091A60110917A
:1007A000A7012091A8013091A9016C197D098E093A
:1007B0009F09061717072807390708F095CFC5CFF7
:1007C000089590E080E008950F931F93CF938C01DC
:1007D000C62F0E94F9026C2F6460C8010E94F902C2
:1007E0006C2F6B7FC8010E94F90283EC90E00197A7
:1007F000F1F7CF911F910F9108950F931F93CF930E
:10080000DF938C01D62FC42F607F642B0E94E403FA
:1008100080E1D89FB00111246C2BC801DF91CF91EA
:100820001F910F910C94E403EF92FF920F931F938B
:10083000CF93DF938C017A01677088E0689FB001E5
:100840001124606440E0C8010E94FD03E701A8E0B4
:10085000EA0EF11C6991D801ED91FC910190F081B3
:10086000E02DC8010995CE15DF05A1F7DF91CF91E5
:100870001F910F91FF90EF900895CF93DF93CDB725
:10088000DEB728970FB6F894DEBF0FBECDBF28E0C5
:10089000E1E2F1E0DE01119601900D922A95E1F777
:1008A000FC012085241710F44FEF420F50E0440F55
:1008B000551F21E030E02C0F3D1F420F531FFA015E
:1008C0002081620F606840E028960FB6F894DEBF82
:1008D0000FBECDBFDF91CF910C94FD0340E061E0EE
:1008E0000E94FD038BE39FE10197F1F7089541E03A
:1008F0000E94FD0381E090E00895FB01019000203B
:10090000E9F73197AF01461B570BDC01ED91FC91E4
:100910000280F381E02D09948F929F92AF92BF9253
:10092000EF92FF920F931F93CF93DF93CDB7DEB774
:10093000A1970FB6F894DEBF0FBECDBF7C01FA01C0
:10094000CB0119A2223008F42AE08E010F5D1F4F5F
:10095000822E912CB12CA12CBF01A50194010E94E3
:100960008C0DF901CA016A300CF5605DD8016E93F7
:100970008D01232B242B252B79F790E080E0109715
:1009800021F0BD01C7010E947D04A1960FB6F89425
:10099000DEBF0FBECDBFDF91CF911F910F91FF90B2
:1009A000EF90BF90AF909F908F900895695CDECFDD
:1009B000CF92DF92EF92FF920F931F93CF93DF932B
:1009C00077FF1DC06A017B01EC016DE20E9491017D
:1009D0008C0144275527BA014C195D096E097F091E
:1009E0002AE0CE010E948C04800F911FDF91CF91ED
:1009F0001F910F91FF90EF90DF90CF9008952AE024
:100A0000DF91CF911F910F91FF90EF90DF90CF90EA
:100A10000C948C04AB01770F660B770B0C94D80405
:100A20004F925F926F927F928F929F92AF92BF92FE
:100A3000EF92FF920F931F93CF93DF938C014A01A4
:100A40005B01E22EAB019401CB01B4010E94EB0FDC
:100A500067E471E0811126C024013501E89477F83C
:100A60002FEF3FEF4FE75FE7C301B2010E94EB0FAB
:100A700081110CC02FEF3FEF4FE75FE7C301B201D9
:100A80000E94210E6BE471E0181664F02FEF3FEF27
:100A90004FE75FE4C501B4010E94790F18169CF47A
:100AA0006FE471E0C801DF91CF911F910F91FF902A
:100AB000EF90BF90AF909F908F907F906F905F90DE
:100AC0004F900C947D042FEF3FEF4FE75FECC50193
:100AD000B4010E94210E87FDE3CF20E030E0A901A0
:100AE000C501B4010E94210ED0E0C0E087FF09C01B
:100AF0006DE2C8010E949101EC01B7FAB094B7F819
:100B0000B094FE2C712C60E070E080E09FE37E14D6
:100B100040F420E030E040E251E40E94260E73945D
:100B2000F6CFA50194010E94B50D4B015C010E9416
:100B3000980E2B013C012AE0BC01A201C8010E94D1
:100B40008C04C80FD91FEE20D1F1C301B2010E945D
:100B5000C70E9B01AC01C501B4010E94B40D4B014D
:100B60005C016EE2C8010E949101C80FD91FFA947E
:100B70008FEFF81621F120E030E040E251E4C501AA
:100B8000B4010E947E0F2B013C010E94980E4B0184
:100B9000B12CA12C2AE0B501A401C8010E948C044B
:100BA000C80FD91FC501B4010E94C70E9B01AC013B
:100BB000C301B2010E94B40D4B015C01D8CFCE013C
:100BC000DF91CF911F910F91FF90EF90BF90AF9069
:100BD0009F908F907F906F905F904F9008956115D8
:100BE000710511F00C947D0490E080E0089585ED8E
:100BF0008093BC008091A6019091A701A091A801CB
:100C0000B091A9010796A11DB11D23E0B695A79546
:100C1000979587952A95D1F72091BC0024FD03C0B4
:100C20001092EF0108954091A6015091A7016091A3
:100C3000A8017091A901452B462B472B69F300971A
:100C4000A105B10541F025E32A95F1F700000197D0
:100C5000A109B109E1CF8091A5010C94C5012F92A2
:100C60003F924F925F926F927F928F929F92AF923C
:100C7000BF92CF92DF92EF92FF920F931F93CF9389
:100C8000DF93CDB7DEB72A970FB6F894DEBF0FBE5D
:100C9000CDBF8C012DB63EB6DC018D919C910E949A
:100CA0006E04809100018823D1F01092000141E18F
:100CB00051E06FE0F801808191810E94140449E0C5
:100CC00051E06EE0D8018D919C910E94140441E0A6
:100CD00051E06DE0F801808191810E941404D801F7
:100CE0005F96EC915F97F0E03196EE0FFF1FE00FFB
:100CF000F11F808091800D911C91F401B28C808D48
:100D0000BB2011F08B1508F4B82ED4015996AC9085
:100D10002B2D30E0AB1408F471C0A394AB18A901DB
:100D20004A0D511D8417150614F4A82EAB185A2C21
:100D3000F901EA0DF11DFA87E987252D2A19852D7C
:100D400090E049855A85841795070CF0CEC1D401EF
:100D500059964C90880F991FF401E80FF91FC08035
:100D6000D180F401808DB81610F4D6012C93F601D1
:100D700040816181C8010E943D0496012F5D3F4F73
:100D80003C832B837601A601465F5F4F5E834D83D4
:100D9000AB81BC818D91BC83AB83813409F401C1EB
:100DA00008F05EC0803209F4CEC0C0F5893009F485
:100DB000BCC030F5813009F4DFC0883009F4A9C027
:100DC000B2E0EB0EF11CED81FE81EE15FF0501F79F
:100DD000541077C1D60114968C91823009F461C108
:100DE000833009F470C1813009F07BC1D801ED91E5
:100DF000FC910190F081E02D6FE061C1A12C97CFB3
:100E0000803109F499C08131D9F6D7015796ED9117
:100E1000FC914081518170E060E0A9C08C3309F4FD
:100E20006FC0A0F4813209F49AC0823349F6F6010A
:100E3000258130E0D7015796ED91FC914081518199
:100E400062817381C8010E941005BACF8F3308F008
:100E5000B7CFF7016789708DC8010E94EF05B0CF49
:100E6000893D09F4FCC020F5803D09F4E2C080F41E
:100E7000863409F488C0893C09F0A2CFD70157967F
:100E8000ED91FC91309709F49BCF0995682F79C0BB
:100E9000813D09F4DAC0883D09F092CFD701579619
:100EA000ED91FC91309709F48BCF0995BC0139C0C5
:100EB000803F09F4E9C088F4883E09F4DAC0893E2D
:100EC00009F07ECFD7015796ED91FC91309709F448
:100ED00077CF0995AB01BC014AC08B3F09F49FC095
:100EE0008C3F09F49CC08A3F09F06ACFD70157961E
:100EF000ED91FC91309709F463CF0995682F05C0F7
:100F0000D7015796ED91FC916081C8010E94910133
:100F100057CFD7015796ED91FC916081062E000CBA
:100F2000770BC8010E940A054BCFD7015796ED9168
:100F3000FC91408150E06FCFD7015796ED91FC9125
:100F400060817181EECFD7015796ED91FC91408180
:100F5000518162817381C8010E94D80431CFD701C9
:100F60005796ED91FC9140815181628173812AE015
:100F7000C8010E948C0424CFD7015796ED91FC91B3
:100F8000608170E0CECFF701A789B08DF801808134
:100F90009181FC01208131816C91C801F901099591
:100FA0000FCF2DB73EB738872F83D70157966D9057
:100FB0007C90C3010E94830D9A83898389819A81E1
:100FC000EDB7FEB7E81BF90B0FB6F894FEBF0FBEE6
:100FD000EDBF6DB77EB76F5F7F4F20E0822F90E04F
:100FE00049815A818417950754F4F301E80FF91FDA
:100FF000E491860F971FDC01EC932F5FEFCFE9811F
:10100000FA81E60FF71F1082C8010E94EF05EF81F9
:10101000F8850FB6F894FEBF0FBEEDBFD1CED70155
:101020005796ED91FC91309709F4CACE0995BC0111
:1010300013CFD7015796ED91FC91309709F4C0CEAC
:101040000995682F880F770B6CCFD7015796ED91D4
:10105000FC91309709F4B4CE0995482F6BCFD70196
:101060005796ED91FC91309709F4AACE0995AC0101
:10107000D2CED7015796ED91FC91309709F4A0CECE
:101080000995AB01BC0167CFD7015796ED91FC9153
:10109000309709F495CE0995AB01BC0122E030E010
:1010A000D1CEF601618161504081C8010E943D04AA
:1010B000D801ED91FC910190F081E02D6EE0C80126
:1010C000099553943ACEF60142816381C8010E948A
:1010D0003D04D801ED91FC910190F081E02D6DE08F
:1010E000EECF21E0F601248381CE0FB6F8943EBE08
:1010F0000FBE2DBE2A960FB6F894DEBF0FBECDBF31
:10110000DF91CF911F910F91FF90EF90DF90CF90E3
:10111000BF90AF909F908F907F906F905F904F9017
:101120003F902F9008951F920F920FB60F921124A7
:101130002F933F938F939F93AF93BF93809116020A
:1011400090911702A0911802B091190230911502E6
:1011500023E0230F2D3758F50196A11DB11D2093D3
:1011600015028093160290931702A0931802B09371
:10117000190280911A0290911B02A0911C02B09159
:101180001D020196A11DB11D80931A0290931B02AE
:10119000A0931C02B0931D02BF91AF919F918F91BC
:1011A0003F912F910F900FBE0F901F90189526E83A
:1011B000230F0296A11DB11DD2CF1F920F920FB621
:1011C0000F9211242F933F934F935F936F937F93CD
:1011D0008F939F93AF93BF93EF93FF93E0911F0182
:1011E000F09120010995FF91EF91BF91AF919F91EF
:1011F0008F917F916F915F914F913F912F910F90C0
:101200000FBE0F901F9018951F920F920FB60F925E
:1012100011242F933F934F935F936F937F938F93FB
:101220009F93AF93BF93EF93FF93E0911D01F091D4
:101230001E010995FF91EF91BF91AF919F918F9101
:101240007F916F915F914F913F912F910F900FBEC2
:101250000F901F9018951F920F920FB60F921124A6
:101260002F933F934F935F936F937F938F939F93AE
:10127000AF93BF93EF93FF938091B900887F80363F
:1012800009F44AC0F0F5883209F4A5C018F5803198
:1012900009F499C0B8F4882309F4F5C0883009F43A
:1012A00092C0FF91EF91BF91AF919F918F917F91EC
:1012B0006F915F914F913F912F910F900FBE0F90C3
:1012C0001F901895883109F486C0803251F78093B9
:1012D000EE0114C0803409F49BC040F48033B9F3AC
:1012E0008833F9F68093EE0185ECAEC0803509F4C1
:1012F00083C0883509F494C0883499F60E94F705B4
:10130000D0CF883909F48AC038F5883729F050F4ED
:10131000883611F0803729F683E08093EF01109230
:10132000ED0155C0883809F479C0803919F080384A
:1013300009F0B7CF8091ED01803208F06FC0E091E5
:10134000ED0181E08E0F8093ED018091BB00F0E014
:10135000E353FE4F80833BC0803B39F0D0F4803AAA
:1013600009F477C0883A09F09CCF84E08093EF01BC
:101370001092CC011092CB01F0E0E0E00995809151
:10138000CB0181110FC081E08093CB011092AB01A2
:1013900009C0803C09F4A8CF883C09F4A5CF883B5C
:1013A00009F07FCFE091CC0181E08E0F8093CC01DA
:1013B000F0E0E555FE4F80818093BB009091CC0119
:1013C0008091CB0129C0809114028093BB0085ECF1
:1013D0008093BC0066CF90911302809112029817FF
:1013E00058F5E091130281E08E0F80931302F0E034
:1013F000EE50FE4F8081E9CFE091130281E08E0F25
:10140000809313028091BB00F0E0EE50FE4F80838A
:1014100090911302809112029817C8F285E8D8CFF4
:10142000E091130281E08E0F809313028091BB0044
:10143000F0E0EE50FE4F80838091F10181115ECF8C
:1014400081E08093F00184EA8093BC001092EF0168
:1014500028CF85EC8093BC001092EF018091ED01C4
:10146000803230F4E091ED01F0E0E353FE4F108262
:101470006091ED0170E08DEC91E0F0E0E0E0099525
:101480001092ED010ECF1092EE0138CFCF93DF9383
:10149000109221021092200288EE93E0A0E0B0E0CA
:1014A0008093220290932302A0932402B0932502FA
:1014B0008DE291E090931F0280931E0282E00E94D1
:1014C000B90083E00E94B900E0EBF0E0E491F0E0C5
:1014D000EE0FFF1FEC55FF4FA591B491B09374032D
:1014E000A0937303E2E9F0E0449140937703E1EBCA
:1014F000F0E0E491F0E0EE0FFF1FEC55FF4FC591D7
:10150000D491D0937603C0937503E3E9F0E0E491BE
:10151000E093780310927A0310927B0310927C037D
:1015200010927D032BE33FE1C9010197F1F79C91F4
:10153000842F892391E009F490E08881E82309F061
:10154000926023E733E09093790330932B0220934A
:101550002A0287ED92E090931E0180931D018091F5
:1015600069008C7F816080936900E89A81E08093B4
:101570007E0330932D0220932C028DED92E0909308
:10158000200180931F0180916900837F8460809394
:101590006900E99A82E080937E0310926A031092B8
:1015A00069034FE351E0509368034093670397E268
:1015B00090936B0390E1909370038093710310926A
:1015C0007203109265031092660310920603109244
:1015D0000703109209031092220310922303109222
:1015E000250330934E0320934D0386E090E09093C3
:1015F000500380934F0387E693E0909352038093C8
:10160000510385E593E09093540380935303DF9156
:10161000CF910895CF93DF93CDB7DEB7C85BD109E3
:101620000FB6F894DEBF0FBECDBF789484B582604C
:1016300084BD84B5816084BD85B5826085BD85B576
:10164000816085BD80916E00816080936E001092F4
:10165000810080918100826080938100809181006F
:101660008160809381008091800081608093800000
:101670008091B10084608093B1008091B00081605E
:101680008093B00080917A00846080937A0080918A
:101690007A00826080937A0080917A0081608093E2
:1016A0007A0080917A00806880937A001092C1005D
:1016B00080916C03886080936C03B2E0FB2EF09203
:1016C0006F0362E370E080E090E00E945D01609152
:1016D000720387E693E00E94F90268EE73E080E00F
:1016E00090E00E945D0160E387E693E00E94E403DE
:1016F0000BE416E4C8010197F1F760E387E693E095
:101700000E94E403C8010197F1F760E387E693E0E4
:101710000E94E40383E592E00197F1F760E287E637
:1017200093E00E94E40360916C03606240E087E60E
:1017300093E00E94FD0384E080936D0340E06CE041
:1017400087E693E00E94FD0387E693E00E946E0423
:10175000F0926E0340E066E087E693E00E94FD03AE
:1017600040E062E087E693E00E94FD038BE39FE1A7
:101770000197F1F786E00E94B90068EE73E080E01F
:1017800090E00E945D0143E551E060E0CE018A589F
:101790009F4F0E948C004FE551E061E0CE01815BDC
:1017A0009F4F0E948C004CE651E060E0CE0188968D
:1017B0000E948C0048E751E061E0CE0101960E9452
:1017C0008C008E0103561F4FD80158961C925897D3
:1017D00059961C9259975B961C92BE016A587F4F8E
:1017E000C8010E94E302BE01615B7F4FC8010E94F5
:1017F000E302BE01685D7F4FC8010E94E302BE01A3
:101800006F5F7F4FC8010E94E302E0915103F091A6
:101810005203F093CF02E093CE021093D1020093D3
:10182000D00291E09093EC021092ED02EB96FFAEA5
:10183000EB97EA961FAEEA97E9961FAEE997649692
:10184000FFAE649763961FAE639762961FAE629772
:10185000FCA61BA61AA6FD821C821B822FE831E083
:10186000EF963FAF2EAFEF97C456DF4F9883CC591A
:10187000D04068963FAF2EAF6897E6969FAFE69749
:1018800038AB2FA72F969FAF2F97398728879FA315
:10189000D8015A96FC9241E151E06FE0CF010E94DD
:1018A000140449E051E06EE08091CE029091CF02A5
:1018B0000E94140441E051E06DE08091CE029091CD
:1018C000CF020E941404E091ED02F0E0EE0FFF1F42
:1018D000E053FD4F0190F081E02D808D882331F0A1
:1018E000A081B18196968C918111118E80917E0399
:1018F000823008F053C0F89483E793E00E94950289
:1019000080917A0390917B03A0917C03B0917D0339
:1019100078948093190190931A01A0931B01B093BE
:101920001C018EEC92E00E942F060EE610E0E6E924
:10193000EE2EE0E0FE2EF4EBCF2EF0E0DF2EA0E066
:10194000AA2EA0E0BA2EF8018491F7019490F60136
:101950008490811025C0E0916603F0E0EE0FFF1F38
:10196000EB5AFC4F80809180D4015F96EC91F0E0BF
:101970003196EE0FFF1FE80DF91D0190F081E02D6B
:10198000818D908D891374C0C4010E942F0664EF6D
:1019900071E080E090E00E945D0110C0F894B0CF4B
:1019A00081110E94E100E82DF0E0EE0FFF1FEC55E1
:1019B000FF4FA591B4918C91982269F280917E039A
:1019C000823008F065C0F89483E793E00E949502A6
:1019D00040907A0350907B0360907C0370907D036D
:1019E00078944091190150911A0160911B017091F6
:1019F0001C01441555056605770599F18091CE02C5
:101A00009091CF0244155505660577050CF055C039
:101A10000E946E04E091ED02F0E0EE0FFF1FE05334
:101A2000FD4FA081B18158969C91589759968C9101
:101A30005997891778F58F5F59968C935997981312
:101A40002CC08EEC92E00E942F0640921901509219
:101A50001A0160921B0170921C018EEC92E00E94B0
:101A60002F06A114B10409F46ECF0E9400006BCFC1
:101A700090E0880F991FE80FF91F0190F081E02D89
:101A80000780F085E02D309709F47ECF09957CCF53
:101A9000F8949ECF59961C9259975996EC91599764
:101AA000F0E0EE0FFF1FEA0FFB1F0190F081E02D29
:101AB00086A1882309F4BACFC4CF0E946E04E091B6
:101AC000ED02F0E0EE0FFF1FE053FD4FA081B1816A
:101AD0005996EC915997E11106C058968C915897F8
:101AE00059968C93AECFE1505996EC935997F0E00C
:101AF000EE0FFF1FEA0FFB1F0190F081E02D86A182
:101B0000882331F39ECFFC0105900020E9F78095F2
:101B100090958E0F9F1F0895A1E21A2EAA1BBB1B42
:101B2000FD010DC0AA1FBB1FEE1FFF1FA217B307A9
:101B3000E407F50720F0A21BB30BE40BF50B661FBF
:101B4000771F881F991F1A9469F760957095809583
:101B500090959B01AC01BD01CF010895EE0FFF1FD1
:101B60000590F491E02D09945058BB27AA270E94B4
:101B7000CC0D0C943F0F0E94310F38F00E94380FAB
:101B800020F039F49F3F19F426F40C942E0F0EF434
:101B9000E095E7FB0C94280FE92F0E94500F58F3B3
:101BA000BA17620773078407950720F079F4A6F542
:101BB0000C94720F0EF4E0950B2EBA2FA02D0B0192
:101BC000B90190010C01CA01A0011124FF27591B82
:101BD00099F0593F50F4503E68F11A16F040A22F88
:101BE000232F342F4427585FF3CF469537952795F9
:101BF000A795F0405395C9F77EF41F16BA0B620BF8
:101C0000730B840BBAF09150A1F0FF0FBB1F661F3E
:101C1000771F881FC2F70EC0BA0F621F731F841F81
:101C200048F4879577956795B795F7959E3F08F0A7
:101C3000B0CF9395880F08F09927EE0F9795879569
:101C400008950E94040F08F481E008950E943A0E5E
:101C50000C943F0F0E94380F58F00E94310F40F053
:101C600029F45F3F29F00C94280F51110C94730F45
:101C70000C942E0F0E94500F68F39923B1F3552353
:101C800091F3951B550BBB27AA276217730784078F
:101C900038F09F5F5F4F220F331F441FAA1FA9F325
:101CA00035D00E2E3AF0E0E832D091505040E69513
:101CB000001CCAF72BD0FE2F29D0660F771F881F74
:101CC000BB1F261737074807AB07B0E809F0BB0B67
:101CD000802DBF01FF2793585F4F3AF09E3F51057B
:101CE00078F00C94280F0C94730F5F3FE4F3983E48
:101CF000D4F3869577956795B795F7959F5FC9F764
:101D0000880F911D9695879597F90895E1E0660FE4
:101D1000771F881FBB1F621773078407BA0720F05D
:101D2000621B730B840BBA0BEE1F88F7E0950895C6
:101D30000E94580F88F09F5798F0B92F9927B751F4
:101D4000B0F0E1F0660F771F881F991F1AF0BA955F
:101D5000C9F714C0B13091F00E94720FB1E008953C
:101D60000C94720F672F782F8827B85F39F0B93F2E
:101D7000CCF3869577956795B395D9F73EF4909512
:101D80008095709561957F4F8F4F9F4F0895E89490
:101D900009C097FB3EF490958095709561957F4FB3
:101DA0008F4F9F4F9923A9F0F92F96E9BB27939561
:101DB000F695879577956795B795F111F8CFFAF471
:101DC000BB0F11F460FF1BC06F5F7F4F8F4F9F4FA2
:101DD00016C0882311F096E911C0772321F09EE800
:101DE000872F762F05C0662371F096E8862F70E066
:101DF00060E02AF09A95660F771F881FDAF7880F40
:101E00009695879597F90895990F0008550FAA0B95
:101E1000E0E8FEEF16161706E807F907C0F01216FD
:101E20001306E407F50798F0621B730B840B950B00
:101E300039F40A2661F0232B242B252B21F4089555
:101E40000A2609F4A140A6958FEF811D811D0895F2
:101E500097F99F6780E870E060E008959FEF80EC5D
:101E6000089500240A941616170618060906089500
:101E700000240A9412161306140605060895092E66
:101E80000394000C11F4882352F0BB0F40F4BF2BD5
:101E900011F460FF04C06F5F7F4F8F4F9F4F089515
:101EA00057FD9058440F551F59F05F3F71F047950B
:101EB000880F97FB991F61F09F3F79F087950895F0
:101EC000121613061406551FF2CF4695F1DF08C00F
:101ED000161617061806991FF1CF8695710561052C
:101EE00008940895E894BB2766277727CB0197F9D4
:101EF00008950E94040F08F48FEF08950E94910F37
:101F00000C943F0F0E94310F38F00E94380F20F0E0
:101F1000952311F00C94280F0C942E0F11240C947F
:101F2000730F0E94500F70F3959FC1F3950F50E00F
:101F3000551F629FF001729FBB27F00DB11D639F7B
:101F4000AA27F00DB11DAA1F649F6627B00DA11D21
:101F5000661F829F2227B00DA11D621F739FB00DC7
:101F6000A11D621F839FA00D611D221F749F332737
:101F7000A00D611D231F849F600D211D822F762FD0
:101F80006A2F11249F5750409AF0F1F088234AF0AD
:101F9000EE0FFF1FBB1F661F771F881F9150504019
:101FA000A9F79E3F510580F00C94280F0C94730FF5
:101FB0005F3FE4F3983ED4F3869577956795B795A0
:101FC000F795E7959F5FC1F7FE2B880F911D9695BA
:101FD000879597F908950E94040F880B990B08952F
:041FE000F894FFCFA3
:101FE4000100000E0E0E0000000004021F02040097
:101FF400000004081F0804000019FCFFFF90019072
:102004000100004000140054000000000066023982
:1020140002E1032B0232022F022C0200000000779F
:10202400049801E103E0036E616E00696E66006F5F
:102034007666004D6F6E69746F72697A61720043DF
:102044006F6E74726F6C2054656D7000436F6E74A4
:10205400726F6C204C757A00477261626172000085
:00000001FF
