:100000000C9462000C942E160C9407160C948A0023
:100010000C948A000C948A000C948A000C948A0038
:100020000C948A000C948A000C948A000C948A0028
:100030000C948A000C948A000C948A000C948A0018
:100040000C94BD150C948A000C947B160C945516D8
:100050000C948A000C948A000C948A000C948A00F8
:100060000C94AD160C948A000000000024002700B8
:100070002A0000000000250028002B0000000008D6
:10008000000201000003040700000000000000005F
:10009000010204081020408001020408102001021F
:1000A000040810200000000023002600290004049A
:1000B0000404040404040202020202020303030310
:1000C0000303441811241FBECFEFD8E0DEBFCDBF1D
:1000D00028E0ACE8B2E001C01D92A735B207E1F715
:1000E00012E0A0E0B1E0E0EBF6E402C005900D9272
:1000F000AC38B107D9F710E0C2E6D0E004C02197D0
:10010000FE010E940521C136D107C9F70E94051BD7
:100110000C9456230C94000008950895982FE091B4
:100120008806F0E0EE0FFF1FE558F94FA081B1817E
:100130001A968C911A97981778F4E92FF0E0EE0F41
:10014000FF1FEA0FFB1F0190F081E02D81898823BA
:1001500021F01B969C93089580E00895FC01228570
:1001600080E092E0281761F0A191B19114969C93E0
:10017000149713961C92139712961C928F5FF2CFCE
:1001800081E00895833081F028F4813099F0823045
:10019000A9F008958730A9F08830C9F08430B1F40F
:1001A000809180008F7D03C0809180008F77809345
:1001B0008000089584B58F7784BD089584B58F7DC0
:1001C000FBCF8091B0008F778093B000089580912D
:1001D000B0008F7DF9CFCF93DF93282F30E0F90166
:1001E000E458FF4F8491F901E057FF4FD491F90192
:1001F000E255FF4FC491CC23A1F081110E94C200AF
:10020000EC2FF0E0EE0FFF1FEC55FF4FA591B491DE
:10021000EC91ED2381E090E009F480E0DF91CF9153
:10022000089580E090E0FACF1F93CF93DF93282FBB
:1002300030E0F901E458FF4F8491F901E057FF4F96
:10024000D491F901E255FF4FC491CC23A9F0162FA8
:1002500081110E94C200EC2FF0E0EE0FFF1FEE585C
:10026000FF4FA591B4918FB7F894EC91111108C08C
:10027000D095DE23DC938FBFDF91CF911F9108953E
:10028000DE2BF8CFCF93DF9390E0FC01E057FF4FD8
:10029000249182559F4FFC0184918823C9F090E0FE
:1002A000880F991FFC01E859FF4FA591B491FC01FB
:1002B000EE58FF4FC591D49161110DC09FB7F894CE
:1002C0008C91209582238C938881282328839FBF3B
:1002D000DF91CF910895623051F49FB7F8943C912B
:1002E000822F809583238C93E8812E2BEFCF8FB7BD
:1002F000F894EC912E2B2C938FBFEACF3FB7F89454
:100300008091DD029091DE02A091DF02B091E002C7
:1003100026B5A89B05C02F3F19F00196A11DB11D60
:100320003FBFBA2FA92F982F8827BC01CD01620F9C
:10033000711D811D911D42E0660F771F881F991F57
:100340004A95D1F708958F929F92AF92BF92CF9224
:10035000DF92EF92FF924B015C010E947E016B01E4
:100360007C010E947E016C197D098E099F09683EFF
:10037000734081059105A8F321E0821A9108A10834
:10038000B10888EEC80E83E0D81EE11CF11C811470
:100390009104A104B10429F7FF90EF90DF90CF9072
:1003A000BF90AF909F908F9008952FB7F894609171
:1003B000D9027091DA028091DB029091DC022FBFAA
:1003C000089508950895DC01ED91FC910190F0816C
:1003D000E02D0994AF92BF92CF92DF92EF92FF92FD
:1003E0000F931F93CF93DF936C017B018B01040F5D
:1003F000151FEB015E01AE18BF08C017D10759F0F9
:100400006991D601ED91FC910190F081E02DC6013A
:100410000995892B79F7C501DF91CF911F910F9134
:10042000FF90EF90DF90CF90BF90AF900895FC01C8
:10043000538D448D252F30E0842F90E0821B930B49
:10044000541710F0CF96089501970895FC01918DEF
:10045000828D981761F0A28DAE0FBF2FB11D5D96F2
:100460008C91928D9F5F9F73928F90E008958FEF94
:100470009FEF0895FC01918D828D981731F0828D48
:10048000E80FF11D858D90E008958FEF9FEF08959F
:10049000FC01918D228D892F90E0805C9F4F821B03
:1004A00091098F739927089589E595E00E94480284
:1004B00021E0892B09F420E0822F089580E090E06C
:1004C000892B29F00E94540281110C940000089598
:1004D000FC01A48DA80FB92FB11DA35ABF4F2C91B9
:1004E000848D90E001968F739927848FA689B789B0
:1004F0002C93A089B1898C91837080648C93938DA7
:10050000848D981306C00288F389E02D80818F7D49
:1005100080830895EF92FF920F931F93CF93DF9301
:10052000EC0181E0888F9B8D8C8D98131AC0E8892F
:10053000F989808185FF15C09FB7F894EE89FF89FE
:100540006083E889F98980818370806480839FBF9C
:1005500081E090E0DF91CF911F910F91FF90EF909C
:100560000895F62E0B8D10E00F5F1F4F0F731127AC
:10057000E02E8C8D8E110CC00FB607FCFACFE889E7
:10058000F989808185FFF5CFCE010E946802F1CF05
:10059000EB8DEC0FFD2FF11DE35AFF4FF0829FB75B
:1005A000F8940B8FEA89FB8980818062CFCFCF934B
:1005B000DF93EC01888D8823B9F0AA89BB89E8898B
:1005C000F9898C9185FD03C0808186FD0DC00FB631
:1005D00007FCF7CF8C9185FFF2CF808185FFEDCFAF
:1005E000CE010E946802E9CFDF91CF9108958FB7C5
:1005F000F8948091D1028FBF089561E0FC0184815D
:100600000E9414018091D00281111092D0020895AD
:100610008EBD00000DB407FEFDCF8EB508958FEF9F
:100620000C9408030F931F93CF93DF93EC010E9468
:10063000D5018B010E940F038F3F69F00E94D50105
:10064000601B710B6C177D07A8F380E0DF91CF91E1
:100650001F910F91089581E0F9CF8CBD9DBD089544
:10066000CF93DF93EC018091D002811109C081E02A
:100670008093D0028091F6059091F7050E942D039A
:1006800060E08C81DF91CF910C9414018F929F9246
:10069000AF92BF92FF920F931F93CF93DF93EC0122
:1006A000F62E49015A018E81882389F08F81988521
:1006B0009C012F5F3F4F38872F838230924018F480
:1006C0000E940F03F3CFCE010E94FD021E82CE01D5
:1006D0000E9430038CE291E00E9412038F2D80640F
:1006E0000E94080308E110E0D501C401002E04C0F7
:1006F000B695A795979587950A94D2F70E94080317
:1007000008501109083F8FEF180771F785E9FF209E
:1007100021F028E087E8F2128FEF0E94080310E032
:100720000E940F038A8787FF04C01F3F11F01F5FDD
:10073000F7CFDF91CF911F910F91FF90BF90AF90B6
:100740009F908F900895CF92DF92EF92FF920F9338
:10075000CF93DF93EC01690182E1411551056105F9
:10076000710599F08B85833039F089E0440F551F6E
:10077000661F771F8A95D1F79A01AB0168E1CE0118
:100780000E944603882319F084E08D832DC08EEFEC
:100790000E94080376018EEFD81AF70181917F013C
:1007A0000E940803EC14FD04C1F78FEF0E940803B8
:1007B0008FEF0E9408030E940F038A878F71853094
:1007C00071F4011116C0CE010E94FD0281E0DF919B
:1007D000CF910F91FF90EF90DF90CF90089581E13E
:1007E0008D83CE010E94FD02CE010E94FD0280E0B9
:1007F000EECF88E592E00E941203811102C085E1EC
:10080000C4CF20E030E0A9016DE0CE010E94460394
:10081000882311F084E1B9CF0E940F038111FACF30
:10082000D2CF0F934091D3025091D4026091D50260
:100830007091D602411551056105710599F0082F97
:1008400021EE32E08091E1049091E2040E94A30342
:10085000882349F01092D3021092D4021092D5024C
:100860001092D60281E00F9108950F93CF93C82F75
:100870008091D202811105C0C1E08C2FCF910F91E0
:100880000895409108015091090160910A01709109
:100890000B010C2F21EE32E08091E1049091E204F3
:1008A0000E94A303811102C0C0E0E7CFCC2321F353
:1008B00081E00E9411048823B9F31092D202DDCFA7
:1008C0009F92AF92BF92CF92DF92EF92FF920F93DF
:1008D0001F93CF93DF936B017C01942E80910801CD
:1008E00090910901A0910A01B0910B018C159D0511
:1008F000AE05BF0509F494C081E00E943504882349
:1009000089F1C091E104D091E2048E81882371F0D5
:1009100088819981AA81BB81C816D906EA06FB069F
:1009200029F48F819885892B09F443C0C882D98224
:10093000EA82FB828B85A7019601833039F099E02A
:10094000220F331F441F551F9A95D1F761E1CE0145
:100950000E944603882391F083E08D83CE010E949C
:10096000FD0280E0DF91CF911F910F91FF90EF90FA
:10097000DF90CF90BF90AF909F9008950E94D501D7
:100980008B010E940F038A878F3F69F40E94D50173
:10099000601B710B6D327140A0F38FE08D83CE012F
:1009A0000E94FD02DBCF8E3F69F518861F8281E031
:1009B0008E8301EE12E081EEA82E84E0B82E0E9414
:1009C0000F03F80181938F01AE16BF06C1F78F8127
:1009D00098859E5F98878F832985222319F081153A
:1009E0009240B0F08E81882399F08F8198859C0188
:1009F0002F5F3F4F38872F838230924028F40E9428
:100A00000F03F3CF8DE0CACFCE010E94FD021E82FC
:100A1000C0920801D0920901E0920A01F0920B0104
:100A20004091D20249294093D20281E09BCF8F921C
:100A30009F92AF92BF92CF92DF92EF92FF92CF93AD
:100A400028EF35E03093E2042093E104882309F491
:100A50006DC040E060E070E0CB010E946004811155
:100A60000BC080E0CF91FF90EF90DF90CF90BF90D0
:100A7000AF909F908F90089580919F048F7789F712
:100A80008091AB049091AC04A091AD04B091AE0400
:100A900084369105A105B10520F3C090A704D0903C
:100AA000A804E090A904F090AA04C114D104E104C0
:100AB000F104B9F240E0C701B6010E946004882346
:100AC00081F28091EC029091ED028115924049F6FD
:100AD000A091F102AA2329F26091EF027091F00235
:100AE0006115710509F4BDCF2091EE02222309F4AE
:100AF000B8CFA09316062093080690E080E030E07F
:100B0000E1E0F0E0C82FAF01082E02C0440F551FEE
:100B10000A94E2F72417350769F041E0480F01967F
:100B20008930910579F7409311069BCFC12CD12CC8
:100B30007601C0CF809311062091F7023091F80220
:100B400050E040E02115310541F42091050330913A
:100B50000603409107035091080320930906309340
:100B60000A0640930B0650930C0646015701860E69
:100B7000971EA11CB11C8092170690921806A09295
:100B80001906B0921A06E091F202F091F302F09386
:100B90001D06E0931C06B0E00E94EB20DC01CB01B7
:100BA000880D991DAA1DBB1D80931E0690931F06DC
:100BB000A0932006B093210625E0EE0FFF1F2A9593
:100BC000E1F7E150FE4FEF2FFF27E6958E0F9F1FB5
:100BD000A11DB11D8093120690931306A0931406D5
:100BE000B09315068090F4029090F502B12CA12CE0
:100BF0008114910441F48090010390900203A0902D
:100C00000303B0900403C81AD90AEA0AFB0AC80C05
:100C1000D91CEA1CFB1C04C0F694E794D794C79433
:100C2000CA95D2F7C0920D06D0920E06E0920F063A
:100C3000F092100685EFC8168FE0D806E104F104A3
:100C400028F48CE080931B0681E00CCF80E125EF37
:100C5000C2162FEFD206E104F104A0F380910D0338
:100C600090910E03A0910F03B091100380931E0684
:100C700090931F06A0932006B093210680E2E2CF56
:100C80004F925F926F927F928F929F92AF92BF929C
:100C9000CF92DF92EF92FF920F931F93CF93DF9348
:100CA000EC01423051056105710590F480E0DF915F
:100CB000CF911F910F91FF90EF90DF90CF90BF9059
:100CC000AF909F908F907F906F905F904F9008951E
:100CD00089859A85AB85BC850196A11DB11D8417B8
:100CE0009507A607B70710F3CB88DC88ED88FE8848
:100CF0008F89803109F042C0BB27A72F962F852FFF
:100D0000480159012A013B01C80ED91EEA1EFB1EEB
:100D10008091080190910901A0910A01B0910B0105
:100D2000C816D906EA06FB0699F58F898031C1F508
:100D3000B301A201552766277727440F551F4F514E
:100D40005D4FFA01918280828091D202816080930E
:100D5000D2028A89823080F08D819E81AF81B885F0
:100D60008C0D9D1DAE1DBF1D8093D3029093D402A8
:100D7000A093D502B093D60281E099CFDB01CA01DE
:100D8000E7E0B695A79597958795EA95D1F7B8CFFF
:100D900040E0C701B6010E9460048111C6CF86CF32
:100DA000B301A2014F77552766277727440F551FB8
:100DB000440F551F4F515D4FFA0180829182A282EC
:100DC000B382C2CF8F929F92AF92BF92CF92DF92A7
:100DD000EF92FF920F931F93CF93DF93FC018185D6
:100DE0009285A385B4850196A11DB11D8417950731
:100DF000A607B70770F480E0DF91CF911F910F91A4
:100E0000FF90EF90DF90CF90BF90AF909F908F902A
:100E1000089583889488A588B6888789803189F564
:100E2000BB27A72F962F852FE9016A017B018F0130
:100E3000BC01CD01680D791D8A1D9B1D80900801A4
:100E400090900901A0900A01B0900B0186169706B8
:100E5000A806B90601F5F8018789803111F5DD246E
:100E6000EE24FF24F601EE0FFF1FEF51FD4F8081AE
:100E70009181B0E0A0E088839983AA83BB8381E05D
:100E8000BBCFDB01CA01C7E0B695A79597958795BB
:100E9000CA95D1F7C9CF40E00E9460048111DBCF31
:100EA000AACFE894C7F8DD24EE24FF24F601EE0F64
:100EB000FF1FEE0FFF1FEF51FD4F80819181A28137
:100EC000B381BF70D8CF8F929F92AF92BF92CF92D3
:100ED000DF92EF92FF920F931F93CF93DF93EC017A
:100EE0008D8181110EC080E0DF91CF911F910F9114
:100EF000FF90EF90DF90CF90BF90AF909F908F903A
:100F000008950B891C892D893E890417150726072A
:100F1000370748F34A015B01823031F48A869B86A9
:100F2000AC86BD8681E0E0CF81149104A104B104B8
:100F300049F41E821F82188619861A861B861C8613
:100F40001D86F0CF0A851B852C853D85EB8DFC8D9C
:100F5000858590E00996B901A801415051096109C0
:100F60007109082E04C076956795579547950A94A0
:100F7000D2F775016401E1E0CE1AD108E108F10869
:100F800004C0F694E794D794C7948A95D2F7C41610
:100F9000D506E606F70620F0012B022B032B11F5F0
:100FA0008F89988DA98DBA8D8E839F83A887B987E5
:100FB0008E010A5F1F4FC114D104E104F10409F44A
:100FC000ADCF4E815F816885798598018B8D9C8D31
:100FD0000E94E20691E0C91AD108E108F1088111E6
:100FE000EACF81CFC41AD50AE60AF70AE1CF3F92C9
:100FF0004F925F926F927F928F929F92AF92BF9229
:10100000CF92DF92EF92FF920F931F93CF93DF93D4
:10101000CDB7DEB72C970FB6F894DEBF0FBECDBFAD
:101020005C01DC015B968D909C905C9716964D90D0
:101030005D906D907C901997411451046104710486
:1010400009F468C0BFEF4B1A5B0A6B0A7B0A312CAC
:10105000F40181859285A385B4859C01AD012F5F44
:101060003F4F4F4F5F4F29873A874B875C8773010C
:1010700062011D821E821F821886F401818592857D
:10108000A385B4852D813E814F8158852817390766
:101090004A075B0708F056C089859A85AB85BC85F1
:1010A0008C159D05AE05BF0550F482E0C82ED12CED
:1010B000E12CF12C92E0492E512C612C712C9E01D7
:1010C0002F5F3F4FB701A601C4010E94E2068823AB
:1010D000C9F189819A81AB81BC81892B8A2B8B2BA9
:1010E00009F1260137019FEF491A590A690A790A5D
:1010F0002D813E814F8158852F5F3F4F4F4F5F4F6E
:101100002D833E834F8358873FEFC31AD30AE30AE8
:10111000F30AB3CFF401408051806280738033249E
:10112000339496CFC414D504E604F70409F70FEFFF
:101130001FEF2FEF3FE0B701A601C4010E94400658
:10114000811119C080E02C960FB6F894DEBF0FBE57
:10115000CDBFDF91CF911F910F91FF90EF90DF9066
:10116000CF90BF90AF909F908F907F906F905F9047
:101170004F903F900895D50116964D915D916D91D8
:101180007C911997411551056105710539F0970159
:101190008601C4010E9440068823A1F2D50116965B
:1011A000CD92DD92ED92FC921997332051F0D70148
:1011B000C6010196A11DB11DF40180839183A28314
:1011C000B383F5018789908DA18DB28D892B8A2BF0
:1011D0008B2B39F48481C78AD08EE18EF28E8068A1
:1011E0008483F50184818062848381E0ACCF1F9386
:1011F000CF93DF93EC01162F8C8187FF2AC06E8579
:101200007F858889998941E00E946004882361F183
:10121000EA8980E2E89FF0011124EF51FD4F3097F9
:1012200019F18D81823040F48B899C89AD89BE890A
:10123000848F958FA68FB78F8F89988D938F828F8C
:101240008F89988DA98DBA8DB58BA48B8C818F7762
:101250008C83111103C08C818F7E8C83812FDF9151
:10126000CF911F910C94350480E0DF91CF911F91B5
:101270000895FF920F931F93CF93DF93EC018D811D
:10128000813041F090E080E0DF91CF911F910F918C
:10129000FF9008958C8181FFF5CF82FD1EC00091E3
:1012A000E1041091E204C8010E9430030E940F0380
:1012B000F82EC8010E94FD028FEFF812E3CF8C8157
:1012C00085FF1EC08D81882321F060E0CE010E9441
:1012D000F7088C818F7D8C83D5CF4B895C896D8994
:1012E0007E898A859B85AC85BD8584179507A60771
:1012F000B707A9F2CE010E9463078111D0CFC2CFF8
:101300004091D3025091D4026091D5027091D602DF
:10131000452B462B472B21F080E00E941104B2CFD1
:1013200080618C832A853B85317080E092E0821B4E
:10133000930BAACF9F92AF92BF92CF92DF92EF9280
:10134000FF920F931F93CF93DF9300D000D01F9293
:10135000CDB7DEB78C016D83DC0115968C911597A6
:10136000813009F0B9C014968C9181FFB5C082FD1F
:101370009FC0D8015B96ED91FC915C971A96AD9059
:10138000BD90CD90DC901D9794809A94B601A501F4
:1013900089E076956795579547958A95D1F7942278
:1013A000B1E0BB22992009F49FC0D8015B96ED9172
:1013B000FC915C971696CD90DD90ED90FC9019977E
:1013C000B2E0CB1AD108E108F108858504C0CC0C45
:1013D000DD1CEE1CFF1C8A95D2F746855785608977
:1013E0007189C40ED51EE61EF71EC90CD11CE11C66
:1013F000F11CA114B10409F00AC1F801428553851A
:101400006485758583899489A589B68948175907A4
:101410006A077B0708F4FBC081E00E94350488233B
:1014200009F45AC0C0920801D0920901E0920A0161
:10143000F0920B018091D20281608093D202F5017B
:10144000EF51FD4F8D818083F80182859385A485BE
:10145000B5850196A11DB11D82879387A487B587A5
:101460004389548965897689481759076A077B0734
:1014700038F42481838B948BA58BB68B20682483CE
:10148000D80114968C9183FD9FC081E090E00F906D
:101490000F900F900F900F90DF91CF911F910F91B0
:1014A000FF90EF90DF90CF90BF90AF909F90089506
:1014B000F801438954896589768982859385A48555
:1014C000B585481759076A077B0709F452CFC80149
:1014D0000E94630781114DCF81E090E0D8011396FF
:1014E0009C938E93129749C0D80116964D915D91A9
:1014F0006D917C911997A114B10409F071C0411547
:1015000051056105710589F557968D919D910D9055
:10151000BC91A02D0097A105B10509F04FC0C801ED
:101520000E94F7078823C1F2D8015B96ED91FC91E8
:101530005C971696CD90DD90ED90FC901997B2E0F7
:10154000CB1AD108E108F108858504C0CC0CDD1C5C
:10155000EE1CFF1C8A95D2F74685578560897189F4
:10156000C40ED51EE61EF71E48CF9E012F5F3F4FCB
:10157000CF010E94E206811103C090E080E087CF96
:1015800089819A81AB81BC81F801238D348DF90169
:10159000278948EF5FEF60E070E0203121F048EFED
:1015A0005FEF6FEF7FE084179507A607B70730F06E
:1015B000C8010E94F7078111F8CE8ECFF80186830B
:1015C0009783A087B187F1CEF8018581882309F43C
:1015D00083CF61E0C8010E94F708811156CF7CCF0C
:1015E0006A017B01B2E0CB1AD108E108F1088585D8
:1015F00004C0CC0CDD1CEE1CFF1C8A95D2F746857E
:10160000578560897189C40ED51EE61EF71E41E01C
:10161000C701B6010E946004811111CF5DCF2091F6
:10162000AD02260F3327331F21323105ECF4209110
:101630002F05FC0190E080E0243069F082E00895FD
:10164000A091AD022191AC0143575D4FA40FB52F7E
:10165000B11D2C930196861798F38091AD02680F07
:101660006093AD0280E0089581E0089510922F0507
:1016700081E080932E051092090561E082E10E94CD
:10168000140161E083E10E941401E9EBF0E0808144
:101690008E7F808380818D7F808388E48093B800F3
:1016A00085E48093BC000895109208051092070508
:1016B00010923605109258050E94360B8CE890E087
:1016C00090930605809305058DE890E090930405BE
:1016D000809303050895CF93DF9391E090938C025C
:1016E0008823B9F0C091B800D091BA008091BC00B5
:1016F0008A7B8093BC0060E082E10E94140160E07C
:1017000083E10E9414010E94360BD093BA00C0936B
:10171000B800DF91CF9108958F929F92AF92BF92C0
:10172000CF92DF92EF92FF920F931F93CF93DF93AD
:10173000D0915805D13208F0D7C0182FC091570565
:101740000E947E016B017C0180912F0581116BC08D
:1017500082E080932F0510932E058FEF80932D0547
:1017600010922C05D0932B05A7E3B5E0EBE0F5E054
:1017700080E0D81391C010920A0580910A05CC0F21
:10178000C82BC0930A0580910905813009F088C0F3
:10179000109209050E947E016B017C0180910A056F
:1017A0008093BB008091310590913205A091330563
:1017B000B0913405892B8A2B8B2BA1F00E947E01DE
:1017C0000091310510913205209133053091340597
:1017D0006C197D098E099F09061717072807390715
:1017E00008F442C08091BC0083FDD8CF85EC809383
:1017F000BC000E947E016B017C0180912F0582302C
:1018000009F450C080912D058F3F09F46FC080917D
:101810002D05803209F46CC080912D05803309F4C8
:1018200069C084E026C08091310590913205A09175
:101830003305B0913405892B8A2B8B2B09F484CF87
:101840000E947E018090310590903205A090330572
:10185000B09034056C197D098E099F09861697068C
:10186000A806B90608F070CF809130050E946B0B76
:1018700085E0109236051092580510923505DF91DB
:10188000CF911F910F91FF90EF90DF90CF90BF907D
:10189000AF909F908F9008959D9191938F5F69CFA6
:1018A00085EEA5CF8091310590913205A091330549
:1018B000B0913405892B8A2B8B2B09F49ECF0E9483
:1018C0007E01009131051091320520913305309150
:1018D00034056C197D098E099F090617170728071B
:1018E000390708F08ACFC0CF81E0C3CF80E0C1CFF5
:1018F00082E0BFCF83E0BDCFA0915D06B0915E06D0
:1019000091E09093350590E4909357051092360539
:1019100010925805ED91FC9111970190F081E02D06
:10192000682FCD01099581E00E948C0B882329F056
:1019300081E88093770680E0089581E00895CF9252
:10194000DF92EF92FF920F931F93CF93DF93D82FE5
:10195000C62F613208F098C00E947E016B017C01A5
:1019600080912F0581116BC081E080932F058093BA
:101970002E059FEF90932D0510922C059C0F9093B0
:101980002B0580930A0580910A05DD0FD82BD09393
:101990000A0580910905813009F078C01092090587
:1019A0000E947E016B017C0180910A058093BB003F
:1019B0008091310590913205A0913305B0913405A5
:1019C000892B8A2B8B2BA1F00E947E01009131057F
:1019D0001091320520913305309134056C197D0941
:1019E0008E099F09061717072807390708F448C00A
:1019F0008091BC0083FDD8CF85EC8093BC000E9411
:101A00007E016B017C0180912F05813009F440C07B
:101A100080912C058C1710F4C0912C05EBE0F5E0BB
:101A2000A3EEB4E080E08C1355C08C2FDF91CF91F2
:101A30001F910F91FF90EF90DF90CF9008958091CC
:101A4000310590913205A0913305B0913405892B71
:101A50008A2B8B2B09F484CF0E947E0100913105E3
:101A60001091320520913305309134056C197D09B0
:101A70008E099F09061717072807390708F070CF46
:101A8000809130050E946B0BC0E0CFCF85EEB5CFC3
:101A90008091310590913205A0913305B0913405C4
:101AA000892B8A2B8B2B09F4AECF0E947E010091EB
:101AB00031051091320520913305309134056C19B0
:101AC0007D098E099F09061717072807390708F0AF
:101AD0009ACFD6CF91919D938F5FA5CF0895E09136
:101AE000080580910705E81730F4F0E0ED51FB4F51
:101AF000808190E008958FEF9FEF08959091080501
:101B0000809107052FEF3FEF981748F4E92FF0E099
:101B1000ED51FB4F208130E09F5F90930805C90194
:101B200008958091070590910805891B990B0895E8
:101B3000CF92DF92EF92FF920F931F93CF93DF9399
:101B40007C01CB018A0120913505222389F0EB012C
:101B50006B01C40ED51ECC15DD0569F06991D70166
:101B6000ED91FC910190F081E02DC7010995F3CF33
:101B7000642F0E940F0BC801DF91CF911F910F912D
:101B8000FF90EF90DF90CF900895CF93DF931F9257
:101B9000CDB7DEB76983209135052223F9F0209176
:101BA0005805203258F021E030E0FC0133832283D5
:101BB00090E080E00F90DF91CF91089580913605FD
:101BC000E82FF0E0E95CFA4F998190838F5F809372
:101BD00036058093580581E090E0ECCF61E0CE01BE
:101BE00001960E940F0BF7CFDC01ED91FD918081F2
:101BF000ED91FD919081ED91FD916C9163708E233B
:101C000009F064609F2309F06860E1E1FEE0E60FFF
:101C1000F11D659565956D936D917D918D919D916A
:101C2000099423C01AC012C016C010C01EC009C03B
:101C300014C013C006C019C009C00DC007C00DC034
:101C400014C062507040804090400BC061507040A2
:101C50008040904006C06E5F01C06F5F7F4F8F4F26
:101C60009F4F9E938E937E936E930895809141062D
:101C7000909142060C94F40D809143069091440695
:101C80000C94F40DFC018285853080F4A82FB0E01F
:101C9000AA0FBB1FAE0FBF1F6D937C938F5F828710
:101CA00093859F5F9387848781E0089580E00895FE
:101CB000FC01248131E030933505209357051092C3
:101CC0003605109258058385682B81E596E00E94C1
:101CD000C50D81E00C948C0B089590E080E0089590
:101CE0008F929F92AF92BF92CF92DF92EF92FF922C
:101CF0000F931F93CF93DF93182F092FC62E63E006
:101D000080E40E949F0C10920805809307050E94B2
:101D1000D5014B015C01D12CF12CE12C80915D06A9
:101D200090915E06DC01ED91FC910084F185E02D3F
:101D30000995039724F1C12FD02F8E010D5F1F4FFE
:101D400080915D0690915E06DC01ED91FC9102842C
:101D5000F385E02D099589930C171D0789F71092DB
:101D6000770681E0DF91CF911F910F91FF90EF9067
:101D7000DF90CF90BF90AF909F908F9008950E947A
:101D8000D501681979098A099B09C616D706E8069C
:101D9000F90620F682E88093770680E0E3CFCF92C1
:101DA000DF92EF92FF920F931F93CF93DF9300D0B8
:101DB0001F92CDB7DEB783EF0E947C0C0E94D50145
:101DC000609363067093640680936506909366063D
:101DD00081E080936706809167068130F1F70E9469
:101DE000D50100916306109164062091650630913B
:101DF0006606DC01CB01801B910BA20BB30B8B3071
:101E00009105A105B10538F320917806233099F0AA
:101E100086319105A105B105F0F2213061F08B32D8
:101E20009105A105B105B8F2223029F0853591055B
:101E3000A105B10580F26AE5CE0101960E94700EFF
:101E4000882309F48FC09981892F28E031E387FF27
:101E500003C0880F832701C0880F2150C1F72A8152
:101E6000822738E041E387FF03C0880F842701C041
:101E7000880F3150C1F73B813813C9C0892F90E0DA
:101E8000982F8827820F911D8C7F909375068093E1
:101E900074061092670623702093760685EF0E94E1
:101EA0007C0C0E94D5016093630670936406809356
:101EB00065069093660682E08093670680916706C8
:101EC0008230F1F70E94D5010091630610916406FB
:101ED0002091650630916606DC01CB01801B910BD9
:101EE000A20BB30B84309105A105B10538F3209105
:101EF0007806213091F089309105A105B105F0F205
:101F0000223059F08F309105A105B105B8F2233088
:101F100021F04D97A105B10588F26EE1CE01019641
:101F20000E94700E882309F12A81898190E0982F00
:101F30008827820F911D8C7F909373068093720681
:101F400010926706237020937606109277060E94FF
:101F5000D50160935F06709360068093610690934D
:101F6000620603C082E880937706609174067091E0
:101F7000750690E080E00E941E2222E538EB4FE2D9
:101F80005BE30E94D52226E636E64BE352E40E944C
:101F90000B210E94EF216B01609172067091730614
:101FA00090E080E00E941E2220E030E04AEF5AE3F9
:101FB0000E94D52220E030E040EC50E40E940B214A
:101FC0000E94EF219B0140915F07509160074C15E3
:101FD0005D0541F4409137075091380780E0421782
:101FE000530749F0D0926007C0925F07709338079B
:101FF0006093370781E00F900F900F90DF91CF91A2
:102000001F910F91FF90EF90DF90CF90089585E89A
:102010008093770633CF0F931F93CF938C01C62FF6
:102020000E94580E6C2F6460C8010E94580E6C2FDD
:102030006B7FC8010E94580E83EC90E00197F1F786
:10204000CF911F910F9108950F931F93CF93DF931B
:102050008C01D62FC42F607F642B0E940B1080E16F
:10206000D89FB00111246C2BC801DF91CF911F9133
:102070000F910C940B10EF92FF920F931F93CF933D
:10208000DF938C017A01677088E0689FB0011124AA
:10209000606440E0C8010E942410E701A8E0EA0E55
:1020A000F11C6991D801ED91FC910190F081E02D36
:1020B000C8010995CE15DF05A1F7DF91CF911F91DA
:1020C0000F91FF90EF900895CF93DF93CDB7DEB7D8
:1020D00028970FB6F894DEBF0FBECDBF28E0EEE222
:1020E000F1E0DE01119601900D922A95E1F7FC01D5
:1020F0002085241710F44FEF420F50E0440F551F76
:1021000021E030E02C0F3D1F420F531FFA012081C8
:10211000620F606840E028960FB6F894DEBF0FBEED
:10212000CDBFDF91CF910C94241040E061E00E947C
:1021300024108BE39FE10197F1F7089541E00E949D
:10214000241081E090E00895FB0101900020E9F760
:102150003197AF01461B570BDC01ED91FC910280DA
:10216000F381E02D09948F929F92AF92BF92EF92EC
:10217000FF920F931F93CF93DF93CDB7DEB7A19755
:102180000FB6F894DEBF0FBECDBF7C01FA01CB01C4
:1021900019A2223008F42AE08E010F5D1F4F822E13
:1021A000912CB12CA12CBF01A50194010E94C92042
:1021B000F901CA016A300CF5605DD8016E938D019A
:1021C000232B242B252B79F790E080E0109721F02A
:1021D000BD01C7010E94A410A1960FB6F894DEBFFE
:1021E0000FBECDBFDF91CF911F910F91FF90EF9068
:1021F000BF90AF909F908F900895695CDECFCF9293
:10220000DF92EF92FF920F931F93CF93DF9377FFAD
:102210001DC06A017B01EC016DE20E94E3018C01AB
:1022200044275527BA014C195D096E097F092AE038
:10223000CE010E94B310800F911FDF91CF911F91AB
:102240000F91FF90EF90DF90CF9008952AE0DF91FB
:10225000CF911F910F91FF90EF90DF90CF900C9452
:10226000B310AB01770F660B770B0C94FF10CF9375
:10227000DF93BC018BE498E00E94A410EC0162E7BC
:1022800071E08BE498E00E94A4108C0F9D1FDF91F9
:10229000CF9108954F925F926F927F928F929F920B
:1022A000AF92BF92EF92FF920F931F93CF93DF9362
:1022B0008C014A015B01E22EAB019401CB01B40118
:1022C0000E94422365E771E0811126C02401350197
:1022D000E89477F82FEF3FEF4FE75FE7C301B201D4
:1022E0000E94422381110CC02FEF3FEF4FE75FE7C1
:1022F000C301B2010E94782169E771E0181664F009
:102300002FEF3FEF4FE75FE4C501B4010E94D022F9
:1023100018169CF46DE771E0C801DF91CF911F9111
:102320000F91FF90EF90BF90AF909F908F907F9014
:102330006F905F904F900C94A4102FEF3FEF4FE7FA
:102340005FECC501B4010E94782187FDE3CF20E056
:1023500030E0A901C501B4010E947821D0E0C0E0BD
:1023600087FF09C06DE2C8010E94E301EC01B7FAE2
:10237000B094B7F8B094FE2C712C60E070E080E06F
:102380009FE37E1440F420E030E040E251E40E94FC
:102390007D217394F6CFA50194010E940C214B017D
:1023A0005C010E94EF212B013C012AE0BC01A2014B
:1023B000C8010E94B310C80FD91FEE20D1F1C3018C
:1023C000B2010E941E229B01AC01C501B4010E9412
:1023D0000B214B015C016EE2C8010E94E301C80FB2
:1023E000D91FFA948FEFF81621F120E030E040E297
:1023F00051E4C501B4010E94D5222B013C010E9489
:10240000EF214B01B12CA12C2AE0B501A401C80198
:102410000E94B310C80FD91FC501B4010E941E222B
:102420009B01AC01C301B2010E940B214B015C0175
:10243000D8CFCE01DF91CF911F910F91FF90EF90F8
:10244000BF90AF909F908F907F906F905F904F90D4
:1024500008956115710511F00C94A41090E080E0CE
:1024600008952F923F924F925F926F927F928F9238
:102470009F92AF92BF92CF92DF92EF92FF920F9313
:102480001F93CF93DF93CDB7DEB72A970FB6F8949B
:10249000DEBF0FBECDBF2DB63EB6809179069091BE
:1024A0007A060E949510809129018823E9F0109204
:1024B000290141E251E06FE08091790690917A061E
:1024C0000E943B1049E151E06EE0809179069091C5
:1024D0007A060E943B1041E151E06DE0809179065F
:1024E00090917A060E943B10E0918806F0E0EE0F92
:1024F000FF1FE558F94F8080918000917906109177
:102500007A06D4011C96BC901C971A968C91BB201D
:1025100011F08B1508F4B82EF401A3842B2D30E0B4
:10252000AB1408F470C0A394AB18A9014A0D511D57
:102530008417150614F4A82EAB185A2CA9014A0DBD
:10254000511D5A874987252D2A19852D90E0A98587
:10255000BA858A179B070CF0CDC1F4014384880F1C
:10256000991FE80FF91FC080D180D4011A968C9171
:10257000B81610F4F6012083D6014C9111966C9197
:10258000C8010E946410F6013F96FC83EB8376013C
:1025900096012C5F3F4F3E832D83AB81BC818D9193
:1025A000BC83AB83813409F401C108F05EC0803282
:1025B00009F4CEC0C0F5893009F4BCC030F58130D3
:1025C00009F4DFC0883009F4A9C0B2E0EB0EF11CB9
:1025D000ED81FE81EE15FF0501F7541077C1D6019C
:1025E00014968C91823009F461C1833009F470C172
:1025F000813009F07BC1D801ED91FC910190F0810F
:10260000E02D6FE061C1A12C98CF803109F499C011
:102610008131D9F6D7011B96ED91FC914081518112
:1026200070E060E0A9C08C3309F46FC0A0F481327F
:1026300009F49AC0823349F6F601258130E0D701CA
:102640001B96ED91FC914081518162817381C8019B
:102650000E944A11BACF8F3308F0B7CFF7016385D4
:102660007485C8010E942912B0CF893D09F4FCC0CD
:1026700020F5803D09F4E2C080F4863409F488C076
:10268000893C09F0A2CFD7011B96ED91FC913097C0
:1026900009F49BCF0995682F79C0813D09F4DAC010
:1026A000883D09F092CFD7011B96ED91FC913097B0
:1026B00009F48BCF0995BC0139C0803F09F4E9C00A
:1026C00088F4883E09F4DAC0893E09F07ECFD7014C
:1026D0001B96ED91FC91309709F477CF0995AB01EA
:1026E000BC014AC08B3F09F49FC08C3F09F49CC0D9
:1026F0008A3F09F06ACFD7011B96ED91FC91309784
:1027000009F463CF0995682F05C0D7011B96ED9199
:10271000FC916081C8010E94E30157CFD7011B964D
:10272000ED91FC916081062E000C770BC8010E9490
:1027300031114BCFD7011B96ED91FC91408150E0B8
:102740006FCFD7011B96ED91FC9160817181EECF27
:10275000D7011B96ED91FC9140815181628173817B
:10276000C8010E94FF1031CFD7011B96ED91FC915B
:1027700040815181628173812AE0C8010E94B310B7
:1027800024CFD7011B96ED91FC91608170E0CECFF4
:10279000F701A385B485F80180819181FC01208136
:1027A00031816C91C801F90109950FCF2DB73EB762
:1027B00038872F83D7011B966D907C90C3010E94B0
:1027C000C0209A83898389819A81EDB7FEB7E81B7F
:1027D000F90B0FB6F894FEBF0FBEEDBF6DB77EB715
:1027E0006F5F7F4F20E0822F90E049815A818417EC
:1027F000950754F4F301E80FF91FE491860F971F32
:10280000DC01EC932F5FEFCFE981FA81E60FF71F30
:102810001082C8010E942912EF81F8850FB6F89442
:10282000FEBF0FBEEDBFD1CED7011B96ED91FC913F
:10283000309709F4CACE0995BC0113CFD7011B9676
:10284000ED91FC91309709F4C0CE0995682F880F5F
:10285000770B6CCFD7011B96ED91FC91309709F463
:10286000B4CE0995482F6BCFD7011B96ED91FC9103
:10287000309709F4AACE0995AC01D2CED7011B96A8
:10288000ED91FC91309709F4A0CE0995AB01BC0104
:1028900067CFD7011B96ED91FC91309709F495CE47
:1028A0000995AB01BC0122E030E0D1CEF601618197
:1028B00061504081C8010E946410D801ED91FC91E3
:1028C0000190F081E02D6EE0C801099553943BCE54
:1028D000F60142816381C8010E946410D801ED9124
:1028E000FC910190F081E02D6DE0EECF21E0F6014A
:1028F000248381CE0FB6F8943EBE0FBE2DBE2A961D
:102900000FB6F894DEBF0FBECDBFDF91CF911F9100
:102910000F91FF90EF90DF90CF90BF90AF909F907E
:102920008F907F906F905F904F903F902F90089581
:10293000CF93CFEFC80F809187068C1768F08091F6
:10294000790690917A060E949510C09388060E949D
:10295000311281E0CF91089580E0FCCF81E00E94A8
:10296000981480910C010E948E0064E670E080E073
:1029700090E00C94A301CF93C82F80917906909199
:102980007A060E949510E0918806F0E0EE0FFF1F96
:10299000E558F94F0190F081E02D8385CC23E9F0D3
:1029A00022852150330B8217130644F48F5F8387EF
:1029B0008217130621F4CF910C9431121386A3854C
:1029C000B0E0AA0FBB1FAE0FBF1F0D90BC91A02D92
:1029D00051968C91882309F3EECF811104C0828532
:1029E00081508387E8CF81508387E9CFE0918806C3
:1029F000F0E0EE0FFF1FE558F94F0190F081E02D58
:102A0000838580930C010E94CF0E44E050E060E08B
:102A100071E08FE197E00E94472382E00E949814C2
:102A200064E670E080E090E00C94A301E0918806F9
:102A3000F0E0EE0FFF1FE558F94F0190F081E02D17
:102A4000838580930C0144E050E060E071E08FE109
:102A500097E00E94472383E00E94981480E00E9440
:102A60008E0064E670E080E090E00C94A301E091B9
:102A70008806F0E0EE0FFF1FE558F94F0190F08156
:102A8000E02D838580930C018091AE0644E050E0F8
:102A900064E071E0811102C060E071E081EC96E0D9
:102AA0000E94472384E00E94981480E00E948E00D8
:102AB00064E670E080E090E00C94A301E091880669
:102AC000F0E0EE0FFF1FE558F94F0190F081E02D87
:102AD000838580930C018091AE0644E050E064E071
:102AE00071E0811102C060E071E081EC96E00E942B
:102AF000472385E00E94981480E00E948E0064E6DF
:102B000070E080E090E00C94A30185ED8093BC0020
:102B10008091310590913205A0913305B091340533
:102B20000796A11DB11D23E0B695A79597958795AA
:102B30002A95D1F72091BC0024FD03C010922F05E7
:102B4000089540913105509132056091330570919F
:102B50003405452B462B472B69F30097A105B1059A
:102B600041F025E32A95F1F700000197A109B10989
:102B7000E1CF809130050C946B0B1F920F920FB632
:102B80000F9211242F933F938F939F93AF93BF93F3
:102B90008091D9029091DA02A091DB02B091DC021F
:102BA0003091D80223E0230F2D3758F50196A11D4F
:102BB000B11D2093D8028093D9029093DA02A0939A
:102BC000DB02B093DC028091DD029091DE02A091E5
:102BD000DF02B091E0020196A11DB11D8093DD02DC
:102BE0009093DE02A093DF02B093E002BF91AF9119
:102BF0009F918F913F912F910F900FBE0F901F903B
:102C0000189526E8230F0296A11DB11DD2CF1F9261
:102C10000F920FB60F9211242F933F934F935F9310
:102C20006F937F938F939F93AF93BF93EF93FF9394
:102C3000E0912C01F0912D010995FF91EF91BF9149
:102C4000AF919F918F917F916F915F914F913F9144
:102C50002F910F900FBE0F901F9018951F920F92FB
:102C60000FB60F9211242F933F934F935F936F935F
:102C70007F938F939F93AF93BF93EF93FF93E091D5
:102C80002A01F0912B010995FF91EF91BF91AF912E
:102C90009F918F917F916F915F914F913F912F9174
:102CA0000F900FBE0F901F9018951F920F920FB6A6
:102CB0000F9211242F933F934F935F936F937F93C2
:102CC0008F939F93AF93BF93EF93FF9389E595E025
:102CD0000E946802FF91EF91BF91AF919F918F91F8
:102CE0007F916F915F914F913F912F910F900FBE08
:102CF0000F901F9018951F920F920FB60F921124EC
:102D00002F938F939F93EF93FF93E0916905F09139
:102D10006A058081E0916F05F091700582FD1BC00E
:102D20009081809172058F5F8F7320917305821758
:102D300041F0E0917205F0E0E75AFA4F958F8093E9
:102D40007205FF91EF919F918F912F910F900FBE80
:102D50000F901F9018958081F4CF1F920F920FB69D
:102D60000F9211242F933F934F935F936F937F9311
:102D70008F939F93AF93BF93EF93FF938091B9008D
:102D8000887F803609F44AC0F0F5883209F4A7C07C
:102D900018F5803109F49BC0B8F4882309F4F9C010
:102DA000883009F494C0FF91EF91BF91AF919F914A
:102DB0008F917F916F915F914F913F912F910F90E4
:102DC0000FBE0F901F901895883109F488C080328B
:102DD00051F780932D0514C0803409F49DC040F450
:102DE0008033B9F38833F9F680932D0585ECB0C0B4
:102DF000803509F485C0883509F496C0883499F681
:102E00000E948515D0CF883909F48CC038F58837F1
:102E100029F050F4883611F0803729F683E080934A
:102E20002F051092CF0257C0883809F47BC0803933
:102E300019F0803809F0B7CF8091CF02803208F0C6
:102E400071C0E091CF0281E08E0F8093CF0280911C
:102E5000BB00F0E0E155FD4F80833DC0803B39F081
:102E6000E0F4803A09F479C0883A09F09CCF84E014
:102E700080932F051092AE021092AD02E0910505ED
:102E8000F091060509958091AD0281110FC081E096
:102E90008093AD0210928D0209C0803C09F4A6CF48
:102EA000883C09F4A3CF883B09F07DCFE091AE02C6
:102EB00081E08E0F8093AE02F0E0E357FD4F8081FA
:102EC0008093BB009091AE028091AD0229C08091A9
:102ED0000A058093BB0085EC8093BC0064CF909181
:102EE0002C0580912B05981758F5E0912C0581E071
:102EF0008E0F80932C05F0E0E55FFA4F8081E9CFDB
:102F0000E0912C0581E08E0F80932C058091BB0011
:102F1000F0E0E55FFA4F808390912C0580912B05BE
:102F20009817C8F285E8D8CFE0912C0581E08E0F84
:102F300080932C058091BB00F0E0E55FFA4F808321
:102F400080912E0581115CCF81E08093090584EA90
:102F50008093BC0010922F0526CF85EC8093BC0097
:102F600010922F058091CF02803230F4E091CF0291
:102F7000F0E0E155FD4F10826091CF0270E0E091EA
:102F80000305F09104058FEA92E009951092CF02B3
:102F90000ACF10922D0534CFFC0196819230A8F40F
:102FA000292F30E0D901AA0FBB1FAE0FBF1F1C96FF
:102FB0007C936E931B972E0F3F1F8EE3D9011F96B4
:102FC0008C939F5F968381E0089580E00895FC01D3
:102FD00040836183415042838FEF860F838381E07A
:102FE000848382E085831682118A1486138617866D
:102FF00016861586108A1086178212861186B901E8
:10300000CF010C94CC17DF92EF92FF920F931F9396
:10301000CF93DF93EC01188269838FEF8A83860F49
:103020008B8381E08C8392E09D83198A1E861D86A6
:10303000188A18861F821A8619865C874B8741E199
:10304000D42EDF868E83B901CE010E94CC178E81EB
:10305000823078F4282F30E0F901EE0FFF1FEC0FDB
:10306000FD1F148703872C0F3D1FF901D7868F5F43
:103070008E83B701CE01DF91CF911F910F91FF9009
:10308000EF90DF900C94CC17EF92FF920F931F9369
:10309000CF93DF9310925C0510925B0588EE93E06E
:1030A000A0E0B0E080935D0590935E05A0935F057E
:1030B000B09360052AE331E030935A052093590517
:1030C00025EC30E0309366052093650524EC30E074
:1030D000309368052093670520EC30E030936A0553
:1030E0002093690521EC30E030936C0520936B054B
:1030F00022EC30E030936E0520936D0526EC30E035
:103100003093700520936F0510927205109273052D
:10311000109274051092750520E52093F605109223
:10312000F7051092FD051092FE051092010610920F
:10313000030642E050E060E070E0409304065093E4
:103140000506609306067093070610921B06109200
:103150002506109224062CE431E0309323062093B8
:10316000220610922706109254061092530680935E
:10317000550690935606A0935706B093580688E5D7
:1031800091E0909352068093510610924E0810924F
:103190004D088AE691E090934C0880934B0887E2B3
:1031A00080934F0880E18093540882E08093550813
:1031B00010925608109247081092480810924A0838
:1031C0001092390810923A0810923C0810922B087D
:1031D00010922C0810922E0810921D0810921E08B2
:1031E0001092200810920F081092100810921208E6
:1031F0001092010810920208109204081092F3072E
:103200001092F4071092F6071092E5071092E60765
:103210001092E8071092D7071092D8071092DA0799
:1032200021E831E040E061E08BEB97E00E94E71796
:103230002DE831E041E061E089EA97E00E94E7177C
:103240002AE931E040E061E087E997E00E94E71772
:1032500026EA31E041E061E085E897E00E94E71767
:1032600023EB31E040E060E083E797E00E94E7175E
:10327000C6EBEC2EC1E0FC2E0DE517E097014FE503
:1032800057E062E081E697E00E94031828EB31E006
:1032900040E068E08BE497E00E94E717DBEBED2E5F
:1032A000D1E0FD2E05E317E0970147E357E06AE020
:1032B00089E397E00E9403182DEB31E041E060E0E4
:1032C00083E297E00E94E71780912907823098F403
:1032D000282F30E0F901EE0FFF1FED5DF84F4FE1B1
:1032E00057E0548743872D5D384F9DE3F901978759
:1032F0008F5F8093290729EC31E040E061E08DE0A9
:1033000097E00E94E71728ED31E041E061E08BEFA4
:1033100096E00E94E71780910107823098F4282FE9
:1033200030E0F901EE0FFF1FE550F94F4FE157E094
:10333000548743872550394F9DE3F90197878F5F65
:103340008093010724EE31E041E061E089EE96E0F0
:103350000E94E7178091EF06823098F4282F30E022
:10336000F901EE0FFF1FE751F94F4DE557E0548784
:1033700043872751394F91E1F90197878F5F8093F8
:10338000EF0666EB71E089EE96E00E94CC1729EC1F
:1033900031E040E061E087ED96E00E94E71721EF21
:1033A00031E041E061E085EC96E00E94E717809112
:1033B000CB06823098F4282F30E0F901EE0FFF1F82
:1033C000EB53F94F41EC56E0548743872B53394F69
:1033D0009DE3F90197878F5F8093CB062CEF31E057
:1033E00041E061E08FEA96E00E94E7178091B50620
:1033F000823098F4282F30E0F901EE0FFF1FE155DD
:10340000F94F4EEA56E0548743872155394F91E0F2
:10341000F90197878F5F8093B50666EB71E08FEABD
:1034200096E00E94CC1729EC31E040E061E08CE9A5
:1034300096E00E94E71721E032E041E061E08AE88F
:1034400096E00E94E71780919006823098F4282F2A
:1034500030E0F901EE0FFF1FE657F94F4EEA56E054
:10346000548743872657394F91E0F90197878F5F3B
:103470008093900666EB71E08AE896E00E94CC1794
:103480008BE498E090937A068093790610928806F0
:10349000109289068DE398E090937C0680937B06DA
:1034A00081E08093870681E596E090935E068093A5
:1034B0005D0610925F0610926006109261061092EF
:1034C00062061092630610926406109265061092CE
:1034D0006606109267061092750610927406109296
:1034E0007306109272061092680610926906109286
:1034F0006A0610926B0610926C0610926D0610927E
:103500006E0610926F06109270061092710610925D
:103510007706109276061092780662E082E00E94AA
:10352000420162E083E00E944201E0EBF0E0E491BE
:10353000F0E0EE0FFF1FEC55FF4FA591B491B09353
:103540004606A0934506E2E9F0E04491409349061F
:10355000E1EBF0E0E491F0E0EE0FFF1FEC55FF4FE0
:10356000C591D491D0934806C0934706E3E9F0E0B3
:10357000E491E0934A0610924C0610924D06109288
:103580004E0610924F062BE33FE1C9010197F1F778
:103590009C91842F892391E009F490E08881E823AD
:1035A00009F0926025E436E090934B063093420692
:1035B0002093410686E39EE090932B0180932A019D
:1035C000809169008C7F816080936900E89A81E036
:1035D0008093500630934406209343068CE39EE08C
:1035E00090932D0180932C0180916900837F8460EA
:1035F00080936900E99A82E080935006DF91CF9131
:103600001F910F91FF90EF900895CF93DF9300D01B
:1036100000D0CDB7DEB7789484B5826084BD84B520
:10362000816084BD85B5826085BD85B5816085BDBD
:1036300080916E00816080936E0010928100809175
:1036400081008260809381008091810081608093FD
:103650008100809180008160809380008091B10022
:1036600084608093B1008091B00081608093B0004D
:1036700080917A00846080937A0080917A008260E1
:1036800080937A0080917A00816080937A008091A3
:103690007A00806880937A001092C10060E086E032
:1036A0000E94420160E08AE00E94420160E089E0FD
:1036B0000E9442010E94540B1092500880915508BC
:1036C000823018F098E0909350088093530862E39A
:1036D00070E080E090E00E94A301609156088BE4C6
:1036E00098E00E94580E68EE73E080E090E00E943F
:1036F000A30160E38BE498E00E940B100BE416E456
:10370000C8010197F1F760E38BE498E00E940B1089
:10371000C8010197F1F760E38BE498E00E940B1079
:1037200083E592E00197F1F760E28BE498E00E9474
:103730000B1060915008606240E08BE498E00E94BA
:10374000241084E08093510840E06CE08BE498E022
:103750000E9424108BE498E00E94951082E08093F0
:10376000520840E066E08BE498E00E94241040E0BC
:1037700062E08BE498E00E9424108BE39FE10197C4
:10378000F1F788E08093560860E08BE498E00E94AF
:10379000580E40E060E08BE498E00E9464108CE0FA
:1037A00092E00E94371141E060E08BE498E00E94D3
:1037B00064108DE192E00E94371164EF71E080E0C7
:1037C00090E00E94A3018BE498E00E94951040E0F5
:1037D00060E08BE498E00E9464108AE292E00E942C
:1037E000371141E060E08BE498E00E94641088E3C8
:1037F00092E00E94371164EF71E080E090E00E9457
:10380000A3018BE498E00E9495100E94540B01E004
:103810000093350518E6109357051092360510925F
:10382000580581E00E948C0B40E060E08BE498E05A
:103830000E94641082E492E00E94371141E060E04F
:103840008BE498E00E9464100093350510935705AF
:10385000109236051092580560E081E596E00E94CE
:10386000C50D81E00E948C0B61E088E60E949F0CF0
:10387000109208058093070581E596E00E947E0D71
:1038800087FFB1C08AE492E00E94371164EF71E0D3
:1038900080E090E00E94A3018BE498E00E949510E4
:1038A00040E060E08BE498E00E94641067E672E01C
:1038B0008BE498E00E94291241E060E08BE498E0FC
:1038C0000E94641080912706882341F061E082E223
:1038D00096E00E94F70881111092270610920306C5
:1038E000109201061092FE051092FD0584E080936F
:1038F000FC050E94D5018B0161E08091FC050E94CE
:10390000420161E08091FC050E941401FFB6F89429
:103910008091D702811127C0E8EBF0E08491EAE9B9
:10392000F0E09491E82FF0E0EE0FFF1FE859FF4F11
:10393000A591B491EC91E92321F461E08AE00E9421
:10394000140161E08AE00E9442018CB580618CBD67
:103950008CB580648CBD61E08DE00E94420161E025
:103960008BE00E9442018091D7028F5F8093D70243
:10397000FFBE82E58093F6051092F7058091F6056B
:103980009091F7050E942D035AE0F52E8FEF0E94CB
:103990000803FA94F110FACF88EF95E00E94300303
:1039A00020E030E0A90160E088EF95E00E94460346
:1039B000F82E8093020621E08217C1F00E94D50103
:1039C000601B710B613D774058F381E08093FD05EA
:1039D00088EF95E00E94FD0266E772E08BE498E0D4
:1039E0000E942912C6C08DE592E04ECF2AEA31E04E
:1039F00040E050E068E088EF95E00E94460382FFD7
:103A00002AC0F092030680910306C12CD12CE12C30
:103A100030E4F32E823019F0C12CD12C760120E055
:103A200030E0A90167E388EF95E00E944603A70113
:103A3000960169E288EF95E00E94460380930206B2
:103A40008823D1F00E94D501601B710B613D774046
:103A500030F388E0BBCF44E0F42E0E940F03809344
:103A60000206FA94F110F9CF8A3A11F082E0AECF53
:103A700082E080930306C7CF809103068230D1F4A1
:103A800020E030E0A9016AE388EF95E00E94460358
:103A9000882311F086E09ACF0E940F03807C803C3F
:103AA00019F483E0809303060E940F030E940F0322
:103AB0000E940F0388EF95E00E94FD0280E580934D
:103AC000F6051092F70581E00E941705882309F496
:103AD000A9C28091270681117FCF80911B0680317A
:103AE00009F0A7C282E0809327061092390610924F
:103AF0003A0610923B0610923C0680911C0690916B
:103B00001D06B0E0A0E025E0880F991FAA1FBB1F8B
:103B10002A95D1F78093350690933606A093370601
:103B2000B093380684E096E090933E0680933D067D
:103B300081E08093260610922806109229061092A2
:103B40002A0610922B0610922C0610922D06109227
:103B50002E0610922F061092300610923106109207
:103B6000320610923306109234068CE692E00E94E0
:103B7000371164EF71E080E090E00E94A3018BE4D4
:103B800098E00E9495100E94540B8EEF0E947C0CCE
:103B900040E060E08BE498E00E94641063E872E02B
:103BA0008BE498E00E94291241E060E08BE498E009
:103BB0000E94641081E08093350580E4809357056E
:103BC000109236051092580581E00E948C0B8823D4
:103BD00009F4D1C284E88093770666E772E08BE44B
:103BE00098E00E94291264EF71E080E090E00E946A
:103BF000A3018BE498E00E9495106BEB77E08DE3D6
:103C000098E00E94420E69EA77E08DE398E00E9416
:103C1000420E67E977E08DE398E00E94420E65E886
:103C200077E08DE398E00E94420E86EF94E1909356
:103C3000C3078093C20781E08093CC0726E135E17A
:103C40003093B1072093B0078093BA0727E335E19B
:103C500030939F0720939E078093A8072EE535E1B8
:103C600030938D0720938C07809396078DE398E01F
:103C70000E94AE0082E08093490863E777E08FE21C
:103C800098E00E94420E61E677E08FE298E00E94A1
:103C9000420E6BE477E08FE298E00E94420E69E307
:103CA00077E08FE298E00E94420E63E277E08FE2D5
:103CB00098E00E94420E80918706863068F4E82FD3
:103CC000F0E0EE0FFF1FE558F94F2FE238E03183A7
:103CD00020838F5F809387066DE077E081E298E034
:103CE0000E94420E6BEF76E081E298E00E94420E65
:103CF00069EE76E081E298E00E94420E8EEA94E15D
:103D0000909315078093140781E080931E0721EE9E
:103D100031E0309303072093020780930C07309320
:103D2000F1062093F0068093FA0681E298E00E9463
:103D3000AE0082E080932D0880918706863068F47B
:103D4000E82FF0E0EE0FFF1FE558F94F21E238E0D1
:103D5000318320838F5F8093870667ED76E087EF5E
:103D600097E00E94420E65EC76E087EF97E00E94B4
:103D7000420E6FEA76E087EF97E00E94420E8EEAED
:103D800094E19093DF068093DE0681E08093E8065D
:103D900021EE31E03093CD062093CC068093D606F9
:103DA0003093B7062093B6068093C00687EF97E05E
:103DB0000E94AE0082E080930308809187068630DF
:103DC00068F4E82FF0E0EE0FFF1FE558F94F27EFFA
:103DD00037E0318320838F5F809387066CE976E03C
:103DE0008DEC97E00E94420E6AE876E08DEC97E059
:103DF0000E94420E8EEA94E19093A4068093A3065B
:103E000081E08093AD0621EE31E03093920620935D
:103E1000910680939B068DEC97E00E94AE0082E0B5
:103E20008093D90780918706863068F4E82FF0E008
:103E3000EE0FFF1FE558F94F2DEC37E0318320835B
:103E40008F5F8093870641E251E06FE080917906B1
:103E500090917A060E943B1049E151E06EE080911A
:103E6000790690917A060E943B1041E151E06DE0A5
:103E70008091790690917A060E943B1080E00E9422
:103E80008E000E94311280915006823008F031C1BC
:103E9000F89485E496E00E94F40D80914C06909190
:103EA0004D06A0914E06B0914F06789480930D0177
:103EB00090930E01A0930F01B093100100E010E069
:103EC00086E00E94EB00892B69F5E0918806F0E01E
:103ED000EE0FFF1FE558F94F0190F081E02D83852B
:103EE0009285891709F407C190E0880F991FE80FA0
:103EF000F91F0190F081E02D0780F085E02D3097CB
:103F000009F4F9C009950E9431120E94311286E02D
:103F10000E94EB00892BD9F364E670E080E090E02A
:103F20000E94A30180918806813029F40E94CF0E5F
:103F300081110E943112E0918806F0E0EE0FFF1F20
:103F4000E558F94F0190F081E02D8385928589171E
:103F500009F45CC090E0880F991FE80FF91F0190E9
:103F6000F081E02D87819085892B09F44FC08091E5
:103F70005006823008F0EAC0F89485E496E00E948A
:103F8000F40DC0904C06D0904D06E0904E06F09097
:103F90004F06789480910D0190910E01A0910F0130
:103FA000B09110018C159D05AE05BF05C9F08C15AB
:103FB0009D05AE05BF050CF0CBC081E00E94BB148F
:103FC0000E943112C0920D01D0920E01E0920F01B9
:103FD000F09210016CE271E080E090E00E94A30199
:103FE0008AE00E94EB00892B09F0B4C081E00E94B6
:103FF000BB140E9431128AE00E94EB00892BD9F396
:1040000064E670E080E090E00E94A30101151105D4
:1040100009F456CF0E945402882309F451CF0E941C
:1040200000004ECF80E00E941705882309F4D4CC0D
:1040300050CD803209F0D0CC83E080932706809168
:104040001E0690911F06A0912006B0912106809334
:10405000390690933A06A0933B06B0933C068983B9
:104060009A83AB83BC83C12CD12C7601812C02E0D6
:10407000902EA12CB12C49815A816B817C819E01AB
:104080002F5F3F4F84E096E00E94E206882309F408
:10409000A3CC80911106A501940104C0220F331F07
:1040A000441F551F8A95D2F7DA01C901C80ED91EDF
:1040B000EA1EFB1E49815A816B817C8180911B061F
:1040C000803191F488EF9FEFA0E0B0E048175907E6
:1040D0006A077B0780F2C0923506D0923606E092DE
:1040E0003706F09238061ECD88EF9FEFAFEFBFE0A6
:1040F000EDCFF894D2CE8091790690917A060E9405
:1041000095109091880680918906E82FF0E0EE0FD7
:10411000FF1FE558F94F0190F081E02D2585211111
:1041200011C080938806909389060E943112809175
:104130000C010E948E0064E670E080E090E00E9436
:10414000A301E3CE292F982F822FDFCFF89419CF28
:1041500080E034CF89E00E94EB00892B09F056CF34
:1041600080E00E94BB140E94311289E00E94EB00A3
:10417000892BD9F345CF8CE692E00E94371133CDDD
:10418000FC0105900020E9F7809590958E0F9F1F08
:104190000895A1E21A2EAA1BBB1BFD010DC0AA1F88
:1041A000BB1FEE1FFF1FA217B307E407F50720F0A0
:1041B000A21BB30BE40BF50B661F771F881F991F1B
:1041C0001A9469F760957095809590959B01AC0164
:1041D000BD01CF0108950E94F620A59F900DB49FC8
:1041E000900DA49F800D911D11240895A29FB001F0
:1041F000B39FC001A39F700D811D1124911DB29F1B
:10420000700D811D1124911D0895EE0FFF1F059063
:10421000F491E02D09945058BB27AA270E9423212E
:104220000C9496220E94882238F00E948F2220F05F
:1042300039F49F3F19F426F40C9485220EF4E0958E
:10424000E7FB0C947F22E92F0E94A72258F3BA17AC
:10425000620773078407950720F079F4A6F50C949C
:10426000C9220EF4E0950B2EBA2FA02D0B01B90137
:1042700090010C01CA01A0011124FF27591B99F0DC
:10428000593F50F4503E68F11A16F040A22F232FE8
:10429000342F4427585FF3CF469537952795A79538
:1042A000F0405395C9F77EF41F16BA0B620B730BDF
:1042B000840BBAF09150A1F0FF0FBB1F661F771F50
:1042C000881FC2F70EC0BA0F621F731F841F48F405
:1042D000879577956795B795F7959E3F08F0B0CF8E
:1042E0009395880F08F09927EE0F97958795089575
:1042F0000E945B2208F481E008950E9491210C94B1
:1043000096220E948F2258F00E94882240F029F4C1
:104310005F3F29F00C947F2251110C94CA220C9417
:1043200085220E94A72268F39923B1F3552391F3C4
:10433000951B550BBB27AA2762177307840738F014
:104340009F5F5F4F220F331F441FAA1FA9F335D071
:104350000E2E3AF0E0E832D091505040E695001C25
:10436000CAF72BD0FE2F29D0660F771F881FBB1FDF
:10437000261737074807AB07B0E809F0BB0B802DBD
:10438000BF01FF2793585F4F3AF09E3F510578F0E9
:104390000C947F220C94CA225F3FE4F3983ED4F33E
:1043A000869577956795B795F7959F5FC9F7880FBD
:1043B000911D9695879597F90895E1E0660F771F0F
:1043C000881FBB1F621773078407BA0720F0621BA0
:1043D000730B840BBA0BEE1F88F7E09508950E94CB
:1043E000AF2288F09F5798F0B92F9927B751B0F0B6
:1043F000E1F0660F771F881F991F1AF0BA95C9F769
:1044000014C0B13091F00E94C922B1E008950C941B
:10441000C922672F782F8827B85F39F0B93FCCF3CE
:10442000869577956795B395D9F73EF490958095E5
:10443000709561957F4F8F4F9F4F0895E89409C005
:1044400097FB3EF490958095709561957F4F8F4FC7
:104450009F4F9923A9F0F92F96E9BB279395F695DD
:10446000879577956795B795F111F8CFFAF4BB0F5B
:1044700011F460FF1BC06F5F7F4F8F4F9F4F16C0BF
:10448000882311F096E911C0772321F09EE8872F49
:10449000762F05C0662371F096E8862F70E060E005
:1044A0002AF09A95660F771F881FDAF7880F96957E
:1044B000879597F90895990F0008550FAA0BE0E822
:1044C000FEEF16161706E807F907C0F012161306D6
:1044D000E407F50798F0621B730B840B950B39F416
:1044E0000A2661F0232B242B252B21F408950A267C
:1044F00009F4A140A6958FEF811D811D089597F9BC
:104500009F6780E870E060E008959FEF80EC089579
:1045100000240A94161617061806090608950024A2
:104520000A9412161306140605060895092E03941C
:10453000000C11F4882352F0BB0F40F4BF2B11F490
:1045400060FF04C06F5F7F4F8F4F9F4F089557FDEF
:104550009058440F551F59F05F3F71F04795880FF1
:1045600097FB991F61F09F3F79F087950895121688
:1045700013061406551FF2CF4695F1DF08C0161634
:1045800017061806991FF1CF8695710561050894E5
:104590000895E894BB2766277727CB0197F90895FC
:1045A0000E945B2208F48FEF08950E94E8220C9489
:1045B00096220E94882238F00E948F2220F09523B4
:1045C00011F00C947F220C94852211240C94CA22A1
:1045D0000E94A72270F3959FC1F3950F50E0551FDD
:1045E000629FF001729FBB27F00DB11D639FAA2748
:1045F000F00DB11DAA1F649F6627B00DA11D661F97
:10460000829F2227B00DA11D621F739FB00DA11DB7
:10461000621F839FA00D611D221F749F3327A00D71
:10462000611D231F849F600D211D822F762F6A2F0D
:1046300011249F5750409AF0F1F088234AF0EE0F72
:10464000FF1FBB1F661F771F881F91505040A9F79F
:104650009E3F510580F00C947F220C94CA225F3F4C
:10466000E4F3983ED4F3869577956795B795F795DB
:10467000E7959F5FC1F7FE2B880F911D9695879553
:1046800097F908950E945B22880B990B0895FB010E
:10469000DC014150504048F001900D920020C9F7D4
:1046A00001C01D9241505040E0F70895F894FFCFAB
:1046B0004465730041637400FFFFFFFF0119FCFFB5
:1046C000FF00000E0E0E0000000004021F02040096
:1046D000000004081F0804000001E201E2010000DC
:1046E000400014005400000000008A02EA01170292
:1046F000D702480226023A02000000009A09EA01A5
:1047000039096C0E00000000C50D980D6D0E6E0D80
:10471000910D7E0D6F0D000000009E10EA016D0EE0
:104720006C0E0D0A006E616E00696E66006F766633
:10473000004D6F6E69746F72697A617200436F6EBB
:1047400074726F6C2054656D7000436F6E74726F7D
:104750006C204C757A00477261626172204461740A
:104760006F7300543A00DF00483A0025004374722A
:104770006C54656D703A2020004D656E7520507246
:10478000696E636970616C004374726C2054656D6E
:10479000703A200054656D70657261747572613A8B
:1047A000004374726C204C757A3A20004C757A3A4A
:1047B0000054656D70205265633A200020556E6983
:1047C00076657273696461642064656C00202020E2
:1047D00020506163696669636F002020496E7665C9
:1047E000726E616465726F00202020202076302E6A
:1047F000310052656C6F6A3A20004572726F722EFA
:1048000020496E69636961722053696E00456E6369
:10481000656E6469646F0053443A2000436F6E65AF
:10482000637461646F004E6F20636F6E65637461C3
:0C483000646F0053687432313A200000BD
:00000001FF
